:020000040802F0
:1000000000040020C10B0208C10D0208E001020833
:10001000C10D0208C10D0208C10D0208C10D020880
:10002000C10D0208C10D0208C10D0208F10D020840
:10003000C10D0208C10D0208C10D0208F10E02082F
:10004000C10D0208F1350208C10D0208E1360208AF
:10005000C10D0208C10D0208113402084134020822
:1000600071340208A1340208D1340208E1270208E1
:10007000112802084128020871280208A128020854
:10008000D12802080129020881320208C10D0208A4
:10009000C10D0208C10D0208C10D02080135020898
:1000A000C10D0208A14F0208C10D0208B14F02089C
:1000B000614D0208C10D0208C10D0208C10D020800
:1000C000C10D0208C1430208C1440208C10D020863
:1000D000C10D02087151020891510208C10D0208B8
:1000E000713502082136020851360208C10D020896
:1000F000C10D0208814D0208C10D02083129020814
:10010000C10D0208E1390208C10D0208C10D020843
:10011000C10D0208C10D0208C10D0208C10D02087F
:100120006129020891290208C1290208F12902085F
:10013000212A0208C10D020881360208C10D0208F9
:10014000C10D0208C10D0208C10D0208C10D02084F
:10015000512A0208812A0208B12A0208B151020874
:10016000C10D0208C10D0208C10D0208C10D02082F
:10017000B1360208C10D0208C10D0208C10D020806
:08018000C10D0208C10D0208C7
:1001900010B509F045FE114C642001F089F923786F
:1001A000002BF9D009F0FCFE0C4A00201070C4F2BC
:1001B00002000469E207FCD4BFF34F8F4FF46D4097
:1001C000CEF200000423C168C0F2FA5301F4E062E9
:1001D00042EA0304C460BFF34F8FFEE7401F0020D4
:1001E0001EF0040F0CBFEFF30880EFF3098007F057
:1001F000BFBB000000000000000000000000000085
:1002000081F0004102E000BF83F0004330B54FEAC7
:1002100041044FEA430594EA050F08BF90EA020F34
:100220001FBF54EA000C55EA020C7FEA645C7FEAC7
:10023000655C00F0E2804FEA5454D4EB5555B8BFEA
:100240006D420CDD2C4480EA020281EA030382EA5B
:10025000000083EA010180EA020281EA0303362DED
:1002600088BF30BD11F0004F4FEA01314FF4801CC0
:100270004CEA113102D0404261EB410113F0004FD2
:100280004FEA03334CEA133302D0524263EB430389
:1002900094EA050F00F0A780A4F10104D5F1200E27
:1002A0000DDB02FA0EFC22FA05F2801841F1000182
:1002B00003FA0EF2801843FA05F359410EE0A5F156
:1002C00020050EF1200E012A03FA0EFC28BF4CF087
:1002D000020C43FA05F3C01851EBE37101F000453D
:1002E00007D54FF0000EDCF1000C7EEB00006EEB4A
:1002F0000101B1F5801F1BD3B1F5001F0CD34908D4
:100300005FEA30004FEA3C0C04F101044FEA44522A
:1003100012F5800F80F09A80BCF1004F08BF5FEAB1
:10032000500C50F1000041EB045141EA050130BD91
:100330005FEA4C0C404141EB010111F4801FA4F134
:100340000104E9D191F0000F04BF01460020B1FA89
:1003500081F308BF2033A3F10B03B3F120020CDAC1
:100360000C3208DD02F1140CC2F10C0201FA0CF09F
:1003700021FA02F10CE002F11402D8BFC2F1200C04
:1003800001FA02F120FA0CFCDCBF41EA0C019040BA
:10039000E41AA2BF01EB0451294330BD6FEA040403
:1003A0001F3C1CDA0C340EDC04F11404C4F12002EE
:1003B00020FA04F001FA02F340EA030021FA04F300
:1003C00045EA030130BDC4F10C04C4F1200220FA57
:1003D00002F001FA04F340EA0300294630BD21FA95
:1003E00004F0294630BD94F0000F83F4801306BF5B
:1003F00081F480110134013D4EE77FEA645C18BF4F
:100400007FEA655C29D094EA050F08BF90EA020FE5
:1004100005D054EA000C04BF1946104630BD91EADD
:10042000030F1EBF0021002030BD5FEA545C05D1E0
:100430004000494128BF41F0004130BD14F580041F
:100440003CBF01F5801130BD01F0004545F0FE4193
:1004500041F470014FF0000030BD7FEA645C1ABFC8
:10046000194610467FEA655C1CBF0B46024650EAFF
:10047000013406BF52EA033591EA030F41F400212B
:1004800030BD00BF90F0000F04BF0021704730B5B1
:100490004FF4806404F132044FF000054FF0000186
:1004A00050E700BF90F0000F04BF0021704730B547
:1004B0004FF4806404F1320410F0004548BF40421C
:1004C0004FF000013EE700BF42004FEAE2014FEA71
:1004D00031014FEA02701FBF12F07F4393F07F4F4C
:1004E00081F06051704792F0000F14BF93F07F4F7E
:1004F000704730B54FF4607401F0004521F00041C1
:1005000020E700BF50EA010208BF704730B54FF046
:1005100000050AE050EA010208BF704730B511F04B
:10052000004502D5404261EB41014FF4806404F183
:1005300032045FEA915C3FF4DCAE4FF003025FEA05
:10054000DC0C18BF03325FEADC0C18BF033202EB8D
:10055000DC02C2F1200300FA03FC20FA02F001FAE7
:1005600003FE40EA0E0021FA02F11444C1E600BF86
:1005700070B54FF0FF0C4CF4E06C1CEA11541DBF39
:100580001CEA135594EA0C0F95EA0C0F00F0DEF804
:100590002C4481EA030621EA4C5123EA4C5350EAE9
:1005A000013518BF52EA033541F4801143F480133A
:1005B00038D0A0FB02CE4FF00005E1FB02E506F0CB
:1005C0000042E0FB03E54FF00006E1FB03569CF020
:1005D000000F18BF4EF0010EA4F1FF04B6F5007F26
:1005E00064F5407404D25FEA4E0E6D4146EB060698
:1005F00042EAC62141EA55514FEAC52040EA5E5021
:100600004FEACE2EB4F1FD0C88BFBCF5E06F1ED8CA
:10061000BEF1004F08BF5FEA500E50F1000041EB01
:10062000045170BD06F0004646EA010140EA0200AE
:1006300081EA0301B4EB5C04C2BFD4EB0C0541EAD0
:10064000045170BD41F480114FF0000E013C00F3E5
:10065000AB8014F1360FDEBF002001F0004170BD09
:10066000C4F10004203C35DA0C341BDC04F1140422
:10067000C4F1200500FA05F320FA04F001FA05F2AE
:1006800040EA020001F0004221F0004110EBD3707B
:1006900021FA04F642EB06015EEA430E08BF20EAA7
:1006A000D37070BDC4F10C04C4F1200500FA04F34A
:1006B00020FA05F001FA04F240EA020001F00041DC
:1006C00010EBD37041F100015EEA430E08BF20EA4F
:1006D000D37070BDC4F1200500FA05F24EEA020E97
:1006E00020FA04F301FA05F243EA020321FA04F0C6
:1006F00001F0004121FA04F220EA020000EBD3707D
:100700005EEA430E08BF20EAD37070BD94F0000F7C
:100710000FD101F00046400041EB010111F4801FB0
:1007200008BF013CF7D041EA060195F0000F18BF61
:10073000704703F00046520043EB030313F4801F9D
:1007400008BF013DF7D043EA0603704794EA0C0F57
:100750000CEA135518BF95EA0C0F0CD050EA41066D
:1007600018BF52EA4306D1D181EA030101F00041EA
:100770004FF0000070BD50EA410606BF1046194612
:1007800052EA430619D094EA0C0F02D150EA01361E
:1007900013D195EA0C0F05D152EA03361CBF10465F
:1007A00019460AD181EA030101F0004141F0FE41FE
:1007B00041F470014FF0000070BD41F0FE4141F482
:1007C000780170BD70B54FF0FF0C4CF4E06C1CEA82
:1007D00011541DBF1CEA135594EA0C0F95EA0C0F37
:1007E00000F0A7F8A4EB050481EA030E52EA0335F2
:1007F0004FEA013100F088804FEA03334FF0805513
:1008000045EA131343EA12634FEA022245EA11153F
:1008100045EA10654FEA00260EF000419D4208BFF0
:10082000964244F1FD0404F5407402D25B084FEA9D
:100830003202B61A65EB03055B084FEA32024FF449
:1008400080104FF4002CB6EB020E75EB030E22BFA6
:10085000B61A754640EA0C005B084FEA3202B6EB66
:10086000020E75EB030E22BFB61A754640EA5C0015
:100870005B084FEA3202B6EB020E75EB030E22BFA5
:10088000B61A754640EA9C005B084FEA3202B6EBA6
:10089000020E75EB030E22BFB61A754640EADC0065
:1008A00055EA060E18D04FEA051545EA16754FEAC7
:1008B00006164FEAC30343EA52734FEAC2025FEAE5
:1008C0001C1CC0D111F4801F0BD141EA00014FF074
:1008D00000004FF0004CB6E711F4801F04BF014345
:1008E0000020B4F1FD0C88BFBCF5E06F3FF6AFAE61
:1008F000B5EB030C04BFB6EB020C5FEA500C50F1F1
:10090000000041EB045170BD0EF0004E4EEA113173
:1009100014EB5C04C2BFD4EB0C0541EA045170BD7A
:1009200041F480114FF0000E013C90E645EA060EBE
:100930008DE60CEA135594EA0C0F08BF95EA0C0FEC
:100940003FF43BAF94EA0C0F0AD150EA01347FF434
:1009500034AF95EA0C0F7FF425AF104619462CE70B
:1009600095EA0C0F06D152EA03353FF4FDAE10466E
:10097000194622E750EA410618BF52EA43067FF4BF
:10098000C5AE50EA41047FF40DAF52EA43057FF44F
:10099000EBAE12E7000000000000000000000000C5
:1009A0004FF0FF3C06E000BF4FF0010C02E000BF3B
:1009B0004FF0010C4DF804CD4FEA410C7FEA6C5C1E
:1009C0004FEA430C18BF7FEA6C5C1BD001B050EAC1
:1009D000410C0CBF52EA430C91EA030F02BF90EAAC
:1009E000020F0020704710F1000F91EA030F58BF6B
:1009F000994208BF90422CBFD8176FEAE37040F0CD
:100A0000010070474FEA410C7FEA6C5C02D150EA6A
:100A1000013C07D14FEA430C7FEA6C5CD6D152EA25
:100A2000033CD3D05DF8040B704700BF84461046EA
:100A300062468C461946634600E000BF01B5FFF7E9
:100A4000B7FF002848BF10F1000F01BD4DF808EDB9
:100A5000FFF7F4FF0CBF012000205DF808FB00BF8A
:100A60004DF808EDFFF7EAFF34BF012000205DF8E4
:100A700008FB00BF4DF808EDFFF7E0FF94BF012031
:100A800000205DF808FB00BF4DF808EDFFF7CEFF32
:100A900094BF012000205DF808FB00BF4DF808ED71
:100AA000FFF7C4FF34BF012000205DF808FB00BF42
:100AB0004FEA410212F5001215D211D56FF4787386
:100AC000B3EB625212D94FEAC12343F0004343EA29
:100AD000505311F0004F23FA02F018BF4042704704
:100AE0004FF00000704750EA013005D111F000408E
:100AF00008BF6FF0004070474FF00000704700BF24
:100B00004FEA4102B2F1E04324BFB3F5001CDCF12F
:100B1000FE5C0DD901F0004C4FEAC0024CEA507067
:100B2000B2F1004F40EB830008BF20F00100704796
:100B300011F0804F21D113F13872BCBF01F0004099
:100B4000704741F480114FEA5252C2F11802C2F1CB
:100B5000200C10FA0CF320FA02F018BF40F001004C
:100B60004FEAC1234FEAD32303FA0CFC40EA0C00FE
:100B700023FA02F34FEA4303CCE77FEA625307D13B
:100B800050EA01331EBF4FF0FE4040F44000704772
:100B900001F0004040F0FE4040F40000704700BF0C
:100BA000704700BFAFF30080AFF30080AFF3008069
:100BB000FEE700BFAFF30080AFF30080AFF300802B
:100BC00072B6704C84F309884EF63472CEF200028D
:100BD0004EF68853CEF200034FF040411160186882
:100BE00040F470051D600022E1EE102A4EF63C73C1
:100BF000CEF2000306211A6081F31488BFF36F8FD1
:100C00006148624DA84218D2EA1C051D531B23F00F
:100C10000302034610184FF0553183421960C2F3A6
:100C200080020AD01AB185422B46296005D01D1DCD
:100C30005960083383426960F9D15548A04218D2FF
:100C40005449041D0A1B22F00305034628184FF0DF
:100C5000553183421960C5F380020AD01AB184422B
:100C60002346216005D01D1D596008338342696009
:100C7000F9D104F09DFB4849484881421BD2C61C6B
:100C80000C1D321B464822F00302161D0568042382
:100C9000B3420D60C2F380020DD022B14568082333
:100CA000B342256007D01A1D1D5884585D50083383
:100CB000B3428C50F7D13B483B49884217D2CB1CFA
:100CC000041D1A1B22F00305034628180021834245
:100CD0001960C5F380020AD01AB18442234621600C
:100CE00005D01D1D5960083383426960F9D1FFF7B3
:100CF00057FF2E4D2E498D421DD2CC1C2E1DA71BF9
:100D0000B808471C01242A6800EA04089047BC423E
:100D100011D0B8F1000F05D0022433689847BC42C7
:100D2000354608D0696888470234A8682E1D804778
:100D30000835BC42F6D1FFF72BFA1E4D1E4A9542EC
:100D40001DD2D41C2E1DA71BBB085F1C01242968C3
:100D500003EA04088847BC4211D0B8F1000F05D05F
:100D6000022430688047BC42354608D06A68904704
:100D70000234AB682E1D98470835BC42F6D1FFF708
:100D800017FF00BF00080020000000200004002022
:100D90000004002003080020000800200C0E0020A2
:100DA00018EF0208100E002018BB0120880102086D
:100DB000880102088801020888010208AFF3008058
:100DC000FEE700BFAFF30080AFF30080AFF3008019
:100DD00072B6FEE7AFF30080AFF30080AFF30080A0
:100DE00000F0CEFA00DF00BFAFF30080AFF3008069
:100DF000EFF309824EF63073D2F8CC10CEF2000336
:100E00006832596098686830986082F309880023D6
:100E100083F31188704700BFAFF30080AFF3008009
:100E200008B54FF46D43CEF200034FF44072C0F2A8
:100E3000FA524FF40031996007201021DA6000F077
:100E4000C7F80A204FF4007100F0C2F80B2080218F
:100E5000BDE8084000F0BCB8AFF30080AFF30080FD
:100E6000202383F311884FF46D43CEF200035868BA
:100E700010F4006324D0EFF30983A3F1680282F336
:100E8000098816494FF080708A6943F84C0CD07F6E
:100E9000096892688968B0B1914294BF002201222A
:100EA000BAB10F4A43F8502CF1EE10FA4EF63072F8
:100EB000CEF20002516841F001005966506070475F
:100EC00083F311887047914234BF00220122002A27
:100ED000E7D1044843F8500CE8E700BFB80F002002
:100EE000E10D0208E40D0208AFF30080AFF30080CB
:100EF00008B5202383F3118800F0CAF8002383F398
:100F00001188BDE80840FFF7ABBF00BFAFF300801A
:100F10002DE9F04F2DED108AC1F80CD0D0F80CD08F
:100F2000BDEC108ABDE8F08FAFF30080AFF3008016
:100F3000002383F311882846A04700F001FB704787
:100F4000F0B44FF461438408CEF20003C03400F0E3
:100F5000030553F82470ED00FF26420906FA05F652
:100F600027EA060601FA05F500F01F0002F1600706
:100F7000012101FA00F02E4343F8246043F82700D2
:100F800043F82200F0BC7047AFF30080AFF300805D
:100F900041094FF4614310B4CEF2000300F01F0288
:100FA0002031012404FA02F4820843F82140C032BF
:100FB00000F0030053F82210C000FF2404FA00F0F0
:100FC00021EA000143F8221010BC7047AFF3008003
:100FD00082084FF46D43CEF20003063200F00300A6
:100FE00030B4C00053F82250FF2404FA00F425EA7C
:100FF000040401FA00F10C4343F8224030BC70476E
:10100000024B034A98698261FEE700BFB80F0020D7
:10101000C0DD0208AFF30080AFF30080AFF30080C3
:1010200000B583B0FFF7FCFE00F0D2F800F058F8EE
:1010300000F016FE00F04CFE40F610604021C2F2B7
:10104000000000F0ADF940F6B871C2F200010122D3
:1010500088610277002383F3118862B64DF6D05081
:101060008969C0F602008861009340F6586041F239
:1010700001034FF4A871C0F60203C2F2000000F0B1
:10108000EFF903B000BD00BFAFF30080AFF3008005
:1010900038B5114B9869C27F0AB1511EC1770F4C08
:1010A000E3682268581CA242E06014D09568013DB4
:1010B000956085B91368D1685C602360D5600023B2
:1010C00083F3118810698847202383F311882268ED
:1010D00090680028EED038BDB80F0020A80F00207F
:1010E00040F6A873C2F200034FF0FF3200205B60AD
:1010F0001B609A60D8607047AFF30080AFF3008048
:1011000070B40C4E03613468C260A568A94204D96A
:101110002468491BA5688D42FAD363680460B44211
:10112000436018606060816002D0A068411AA160CD
:1011300070BC7047A80F0020AFF30080AFF30080B1
:101140000368074A934203D09968826889189960B6
:1011500042681360036800215A60C160704700BF95
:10116000A80F0020AFF30080AFF30080AFF3008042
:10117000202383F31188037F0D2B11D8DFE803F0C0
:1011800020101007100B101010101010100B016A17
:101190008A68531C8B6090E80C001A6001684B60F1
:1011A0004FF0FF3202628168074B002202771B6812
:1011B0009A688A42FBD259680360416008605860AF
:1011C000002383F311887047B80F0020AFF300802D
:1011D00040F6B873C2F2000300225B601B609A60A5
:1011E0005B611B61704700BFAFF30080AFF300800D
:1011F00000228168054B02771B689A688A42FBD2FD
:10120000596803604160086058607047B80F00205B
:1012100040F6B873C2F2000310B499691A680877EF
:1012200014201468C87701201077104663601C6092
:101230009A6110BCFFF76CBEAFF30080AFF3008083
:1012400030B54B1C87B0054611D00B4C0B4AA36937
:1012500001A8FFF755FF2846FFF7DAFF049B13B1FB
:1012600001A8FFF76DFFA069006A07B030BDFFF766
:10127000CFFF014CF7E700BFB80F00207111020843
:10128000F0B4144F8568BE690446B068216200233B
:1012900085420CD82377394609688A689542FBD97C
:1012A00048682160606004604C60F0BC7047337730
:1012B000394609688A689042FBD948683160706095
:1012C00006604E600123204631462377BC61F0BCA6
:1012D000FFF71EBEB80F0020AFF30080AFF3008011
:1012E0000E4B18689969026830B453601A608C68B4
:1012F00098610125142300220577CB770A770346EE
:1013000000E01B689A68A242FBD25A680B604A60F0
:101310001160596030BCFFF7FBBD00BFB80F002063
:101320000D4B18689969026830B453608C681A6074
:1013300001259861002305770B77034600E01B68C1
:101340009A68A242FBD85A680B604A6011605960E3
:1013500030BCFFF7DDBD00BFB80F0020AFF3008049
:10136000044B1A68986991688368994200D870475D
:10137000FFF7D6BFB80F0020AFF30080AFF30080B7
:10138000034B9869C17F09B1FFF7CABFFFF7A8BF38
:10139000B80F0020AFF30080AFF30080AFF3008000
:1013A00040F6B872C2F20002F0B45569C16300247D
:1013B000026100F12806816000F1240745614FF0C9
:1013C000020C50610121142280F81CC04477C277BE
:1013D000846344638177846128614762C662866260
:1013E000F0BC7047AFF30080AFF30080AFF3008034
:1013F0002DE9F001643940F6B8754118C2F20005D4
:1014000000266F69C1600B64059B4B6440F6317325
:10141000C0F602030B660221944600F1240800F195
:1014200028020177142301210561C0F808C0476133
:10143000044668614677C377C0F83CC0866346635C
:10144000817786613861C0F82480C2628262BDE81B
:10145000F0017047AFF30080AFF30080AFF300807E
:1014600010B51C4682B0202383F311882346049CC8
:101470000094FFF7BDFF00210446FFF701FF0023A2
:1014800083F31188204602B010BD00BFAFF3008087
:10149000202383F31188437F43F004014177002325
:1014A00083F31188704700BFAFF30080AFF3008073
:1014B00008B50146202383F311880620FFF7C0FEFC
:1014C000002383F3118808BDAFF30080AFF30080E1
:1014D00008B5202383F31188054BD968411A02D03F
:1014E0000620FFF7ADFE002383F3118808BD00BF7F
:1014F000A80F0020AFF30080AFF30080AFF30080AF
:1015000038B50E4B9C692546206255F8240FA84239
:1015100006D001686162FFF76BFE606AA842F8D1ED
:10152000607F830704D1636922691A6121694B6175
:101530000E20BDE83840FFF76BBE00BFB80F00209B
:10154000202383F31188FFF7DBBF00BFAFF30080D8
:1015500038B50446202383F31188037F0E2B07D070
:10156000426A0848816907200A606162FFF750FEFD
:10157000256A002383F31188204600F009F82846E5
:1015800038BD00BFB80F0020AFF30080AFF300807C
:101590000146202383F31188827F531EDAB28277BB
:1015A000002383F3118812B9037F0E2B00D07047FC
:1015B000427F02F00303012B09D0022BF7D14369CC
:1015C0000269006C1A610A69536100F0D9BB436972
:1015D00002691A6101694B6100F08ABBAFF30080B8
:1015E0004060006081607047AFF30080AFF300801F
:1015F00082680346501E002810B5986001DB002069
:1016000010BD074CA2691362596813605160032032
:101610005A600A60FFF7FCFDA369186A10BD00BF9D
:10162000B80F0020AFF30080AFF30080AFF300806D
:1016300008B5202383F31188FFF7DAFF002383F333
:10164000118808BDAFF30080AFF30080AFF30080D6
:1016500003468068421E002A10B40C469A6002DBE2
:10166000002010BC704759B1074CA26913625C6836
:10167000032082E818005A60226010BCFFF7E0BD2A
:1016800098604FF0FF30ECE7B80F0020AFF3008018
:1016900008B50246202383F311888368581C00286C
:1016A000906003DD002383F3118808BD1068036890
:1016B000002113605A60FFF7E3FDF3E7AFF300800A
:1016C00082680346501C0028986000DD70471A6845
:1016D0001168104619604B6000231362FFF788BD44
:1016E0000023406000608360704700BFAFF300805C
:1016F000F8B52F4A836894690546002B51D0A1683C
:101700009868814206D91A7F9960042A31D0052A47
:101710001CD092B128460068854203D08368A16836
:101720008B42F8D2426820606260446004201460FA
:101730002562BDE8F840FFF76BBD93E80600116035
:10174000196818464A60FFF753FDE3E758681F68B9
:101750001E6A07601F68324678601268964202D09F
:1017600090688842F9D251681A6059600B605360E2
:10177000D0E758681F681E6A07601F6832467860A5
:101780001268964212D090688842F9D251681A6065
:1017900059600B605360B368A1689A688A42B2D3FB
:1017A000B8E7A36B8460C360A063F8BD3246EDE781
:1017B000B80F0020AFF30080AFF30080AFF30080DC
:1017C00008B5202383F31188FFF792FF002383F3EA
:1017D000118808BDAFF30080AFF30080AFF3008045
:1017E000154A38B59069202383F31188846B2568E6
:1017F000E368A54283631CD0C16B4BB11A689A425F
:1018000003D09268914238BF1146DB68002BF5D1B6
:101810002B68AA6B8160236028465C600021A5606C
:10182000E260AC63FFF72CFD002383F311882046B0
:1018300038BD0023A360F7E7B80F0020AFF30080A6
:1018400008B5426B037F1143082B41630BD0092B72
:1018500000D008BD026A11408A42FAD1FFF7C8FCE5
:101860000021016208BD036A1942F7D108BD00BF1B
:1018700070B50468A04205460E4608D0201D0BC86E
:101880003343E360FFF7DCFF2468A542F6D170BD67
:1018900038B504460B4601EB820500F11C001146E9
:1018A000E360A36084E82800FFF79AFE04F11000CB
:1018B0000021BDE83840FFF793BE00BFAFF30080C2
:1018C000426A002A10B50FDD83684468013A42621B
:1018D00043F8041BA342836024BF03688360103075
:1018E000FFF7EEFE002010BD4FF0FF3010BD00BF2F
:1018F00070B504460E4600F110001146FFF7A8FE31
:10190000054680B9E368626853F8041B934231606E
:10191000E36028BF236804F11C0028BFE360FFF7E1
:10192000CFFEFFF71DFD284670BD00BFAFF300805E
:1019300008B5202383F31188FFF7DAFF002383F330
:10194000118808BDAFF30080AFF30080AFF30080D3
:1019500010B4024659B1084B9B69186244680D20C7
:1019600083E814005360236010BCFFF769BC4FF09C
:10197000FF3010BC704700BFB80F0020AFF30080ED
:1019800010B4C361019B40608A1800240060846029
:1019900041618161C1600261036210BC704700BF98
:1019A00038B50446C368006863610021A042A361A2
:1019B000A1600AD06FF00105026822605460FFF751
:1019C00017FC05622068A042F6D138BDAFF3008055
:1019D000426908B503468069824298681AD001308E
:1019E000986002F8011B19695A618A420BD2186883
:1019F00098420DD0016819604B60FFF7F9FB002396
:101A00000362184608BD1868DA6898425A61F1D135
:101A1000002008BD0028E2D06FF0030008BD00BF21
:101A200070B5202304460E4683F31188C36903B1C1
:101A30009847A568204631463DB9FFF789FF002841
:101A4000F7DA2B4683F3118870BDA1692269013D45
:101A5000A56011F8010B9142A16124BFE168A16169
:101A6000002383F3118870BDAFF30080AFF30080D3
:101A70002DE9F0471E460446C769202383F31188E9
:101A80004FF0000801F1010901EB020A0FB12046F5
:101A9000B847A568204631464DB9FFF759FF0028E1
:101AA000F7D02B4683F311884046BDE8F087A36941
:101AB000013DA56013F8012B09F8012C2069A361F1
:101AC000834224BFE368A361002383F31188D145D7
:101AD00008F10108E8D0202383F3118809F10109F6
:101AE000D4E700BFAFF30080AFF30080AFF3008016
:101AF00010B4C361019B40608C180060826041613A
:101B00008161C1600461036210BC7047AFF3008063
:101B100038B50269C368044600686361D11AA042FF
:101B2000A361A1600AD06FF00105036823605C60C7
:101B3000FFF75EFB05622068A042F6D138BD00BF0A
:101B4000F8B504460F461646202383F31188A5688E
:101B5000204631463DB9FFF7FBFE0028F7DA2B4659
:101B600083F31188F8BD6369013DA56003F8017B2B
:101B700022696361934228BFE368E16928BF63611A
:101B800009B120468847002383F311881846F8BD21
:101B9000826941699142034610B5806816D0441CA1
:101BA0009C6012F8014B19699A618A420BD218683D
:101BB000984206D0016819604B60FFF719FB0023BB
:101BC0000362204610BDDA689A61F0E70028E6D08B
:101BD0006FF0020010BD00BFAFF30080AFF30080D4
:101BE0002DE9F0479A46044688461646D0F81C90E0
:101BF000202383F311880027A56820466B1EEDB1D2
:101C0000A360656918F8011B05F8011B226965616D
:101C1000954224BFE2686261B9F1000F00D0C84765
:101C2000002383F311880137013E10D0202383F372
:101C30001188A56820466B1E002DE1D12046514633
:101C4000FFF786FE0028D7D02B4683F3118838464D
:101C5000BDE8F087AFF30080AFF30080AFF3008002
:101C600040F6D87240F6D4734CF200010648C2F236
:101C70000002C2F20003C2F2010120F0070021F0CD
:101C800007011060196070471FBB0120AFF300808F
:101C9000202383F31188094B09491A680968073022
:101CA00020F00700891A88429ABF10181860002295
:101CB000002383F311881046704700BFD80F00201F
:101CC000D40F0020AFF30080AFF30080AFF30080AB
:101CD00040F6E073C2F2000341F691410022C0F6E3
:101CE000020103F1100019609A60DA60FFF7F8BC96
:101CF00070B50646A0F1080450F8080C00F108057C
:101D00001030FFF75DFD2B46AB421A6801D0A342AD
:101D100002D21AB1944201D31346F5E756F8041CD7
:101D200046F8082C1C6001F1080256F8085CA0185F
:101D3000A84209D05A6802F1080019188C4211D043
:101D4000BDE87040FFF74CBD4068A2580918083143
:101D500046F8041C46F8082C5A6802F108001918C5
:101D60008C42EDD156F8040C56F8081C12180832B3
:101D700083E80600E4E700BFAFF30080AFF3008024
:101D8000202383F31188026800230A60016083F333
:101D900011887047AFF30080AFF30080AFF300808D
:101DA00008B500F0B5FF4DF60070C0F6020002F075
:101DB0007FF900F015F800F07BF800F0A9F800F0CA
:101DC00007F900F05DF900F043FC00F081FB00F042
:101DD000B7FC00F08DF9BDE8084003F009BB00BF77
:101DE00001F086B8AFF30080AFF30080AFF300805E
:101DF00000230122027043608360C360036143617A
:101E00001830FFF76DBC00BFAFF30080AFF3008068
:101E100010B52023044683F31188416001F0B0F827
:101E200002232370002383F3118810BDAFF30080D9
:101E300010B52023044683F3118801F011F9012322
:101E40002370002383F3118810BD00BFAFF300801F
:101E500010B4C3600446032382600161037010BCA8
:101E600001F036B9AFF30080AFF30080AFF300802C
:101E700010B52023044683F311880378022B0CD07D
:101E800001F066F96069002102222161227020B10F
:101E900061616FF00101FFF7F3F9002383F311880B
:101EA00010BD00BFAFF30080AFF30080AFF3008040
:101EB00001F09EBCAFF30080AFF30080AFF3008071
:101EC0000123002103704160704700BFAFF3008021
:101ED00010B52023044683F31188416001F020FDF2
:101EE00002232370002383F3118810BDAFF3008019
:101EF00010B52023044683F3118801F081FC0123EF
:101F00002370002383F3118810BD00BFAFF300805E
:101F100002F046BFAFF30080AFF30080AFF3008064
:101F20000123002103704160704700BFAFF30080C0
:101F300010B52023044683F31188416002F050FF5E
:101F400002232370002383F3118810BDAFF30080B8
:101F500010B52023044683F3118802F089FF012382
:101F60002370002383F3118810BD00BFAFF30080FE
:101F70000323037002F0ACBFAFF30080AFF3008027
:101F800008B5202383F31188FFF7F2FF002383F3C2
:101F9000118808BDAFF30080AFF30080AFF300807D
:101FA0000423037002F094BFAFF30080AFF300800E
:101FB000042310B50446037002F09AFF022020703B
:101FC00010BD00BFAFF30080AFF30080AFF300801F
:101FD00002F0F6BAAFF30080AFF30080AFF30080F9
:101FE00001230021037041600C30FFF779BB00BF73
:101FF00010B52023044683F31188416002F0F8FAFB
:1020000002232370002383F3118810BDAFF30080F7
:1020100080687047AFF30080AFF30080AFF30080BB
:1020200070B51E4684B00446202383F3118803252F
:102030000570099D00238360089B01950A9D00930C
:102040000295334602F09CFB431C06D0022121700E
:10205000002383F3118804B070BD05222270F7E7D6
:102060000C30FFF7ADBB00BFAFF30080AFF30080D3
:10207000FFF7B6BBAFF30080AFF30080AFF3008093
:1020800002F09EBFAFF30080AFF30080AFF300809B
:102090000123002103704160704700BFAFF300804F
:1020A000C368990F12D1826841689305880F9B0D10
:1020B00040EA8303C1F3C231581CC2F303428B1CB4
:1020C00000FA03F0093A00FA02F07047012901D042
:1020D000002070478268C38802F03F0043EA004155
:1020E0004A1C9002704700BFAFF30080AFF300803E
:1020F00002F0BEBBAFF30080AFF30080AFF300800F
:1021000008B5202383F3118802F0DAFB002383F360
:10211000118808BDAFF30080AFF30080AFF30080FB
:1021200008B5202383F3118802F0EAFB002383F330
:10213000118808BDAFF30080AFF30080AFF30080DB
:1021400002F0FEBBAFF30080AFF30080AFF300807E
:102150000379052B01D001207047806A4FF400728B
:1021600048600A6000207047AFF30080AFF3008042
:10217000F0B5032383B00371044601F0B1FC0021E4
:102180000A46204601F0ECFC4FF4D57220460821A7
:1021900001AB01F01DFD024670B901990120C1F3A8
:1021A0000323834220636DD0204601F0B9FC022155
:1021B0002171012003B0F0BD002020630025C8F28A
:1021C0001005642620463721002201AB01F000FDF6
:1021D0000028E9D14EF208030198CFF6FF530340DF
:1021E000002BE1D1204629212A4601AB01F0D0FC89
:1021F00007460028D8D1019900295BDB013ED3D0E6
:102200000A20FFF755F9204637213A4601AB01F085
:10221000DFFC0028C8D14EF20801019ACFF6FF5129
:1022200011400029C0D1204629212A4601AB01F0E6
:10223000AFFC07460028B7D1019900293ADB0A20F4
:10224000FFF736F9204637213A4601AB01F0C0FCD2
:102250000028A9D14EF208030198CFF6FF5303409E
:10226000002BA1D1204629212A4601AB01F090FC88
:10227000002899D1019900291CDB0A20023EFFF7B2
:1022800017F99FE72046372101AB01F0A1FC002898
:102290008AD14EF20801019ACFF6FF511140002970
:1022A00082D1256B05F00F06012E87D10025CCF2D7
:1022B000100586E74B0003D5226B42F01003236321
:1022C00000222046022104F1080301F031FD0246FC
:1022D00000287FF469AF2046032104F1380301F0A0
:1022E00077FC00287FF460AF04F11805204609212F
:1022F000A26B2B4601F01CFD00287FF455AF204651
:1023000001F0FEFB20460721A26B01AB01F060FC4F
:1023100000287FF449AF204610214FF4007201AB32
:1023200001F056FC00287FF43FAF4EF208000199FF
:10233000CFF6FF50084000287FF436AF226B02F042
:102340000F03012B27D80121204601F0F1FB204685
:102350003721A26B01AB01F03BFC00287FF424AFD6
:102360004EF208000199CFF6FF50084000287FF494
:102370001BAF20460621022201AB01F029FC0028F8
:102380007FF412AF4EF20802019BCFF6FF521A40C3
:10239000002A7FF409AF2846FFF782FEA0620028DA
:1023A0003FF402AF05202071002003E7AFF3008067
:1023B00038B50579052D044601D0012038BD082324
:1023C000037101F06DFE257138BD00BFAFF30080D1
:1023D00070B54E1E856AF618AE42044605D9406BAC
:1023E00040F080016163012070BD0725057101F097
:1023F000EFFD0523237170BDAFF30080AFF30080C4
:1024000070B54E1E856AF618AE42044605D9406B7B
:1024100040F080016163012070BD0625057101F067
:102420006FFD0523237170BDAFF30080AFF3008013
:1024300010B5044682B001AB20460D21A26B01F01D
:10244000C7FB4EF20803CFF6FF5338B9019A134089
:10245000C2F3432113B9042909D002D2012002B0EA
:1024600010BD0729FAD80120FFF722F8E3E7184644
:10247000F5E700BFAFF30080AFF30080AFF300805B
:1024800038B50446202383F311880379022B15D035
:1024900004210171002383F31188FFF7C9FF05466A
:1024A00020462DB901F03CFB02202071284638BDA2
:1024B00001F036FB02222271012038BD002383F394
:1024C0001188184638BD00BFAFF30080AFF300801D
:1024D00001F0A6BAAFF30080AFF30080AFF3008045
:1024E0004DF6F0520023C0F6020201210260017194
:1024F0004363C36283627047AFF30080AFF3008031
:1025000010B52023044683F31188C16201F098FAC4
:1025100002232371002383F3118810BDAFF30080E1
:1025200010B52023044683F3118801F0B9FA012382
:102530002371002383F3118810BD00BFAFF3008027
:1025400070B5036B044616460720DA0682B0207188
:102550000D4601D44D0276022046FFF769FF204662
:1025600020212A4601AB01F033FB30B94EF20801BD
:10257000019ACFF6FF51114021B1052222710120AD
:1025800002B070BD20462121324601AB01F020FB94
:102590000028F2D14EF20802019BCFF6FF521A40FA
:1025A000002AEAD12046262101AB01F011FB0028C8
:1025B000E3D14EF208050198CFF6FF550540002DF6
:1025C000DBD12046FFF734FF052121712846D7E7EC
:1025D0000C30FFF74DBA00BFAFF30080AFF30080BF
:1025E0000C304FF0FF33FFF743BA00BFAFF300806A
:1025F0003030FFF7F5BA00BFAFF30080AFF30080D3
:1026000030304FF0FF33FFF7EBBA00BFAFF300807D
:102610000C30FFF705BA00BFAFF30080AFF30080C6
:102620000C304FF0FF31FFF7FBB900BFAFF3008074
:102630003030FFF785BA00BFAFF30080AFF3008002
:1026400030304FF0FF32FFF77BBA00BFAFF30080AE
:1026500002F0BEBDAFF30080AFF30080AFF30080A7
:1026600070B54DF610630546C0F60203044645F802
:10267000043B82B0656001250B46164604F1540107
:102680004022257200F10C000094FFF779F90094C4
:1026900004F1300004F1940140223346FFF728FA98
:1026A00002B070BDAFF30080AFF30080AFF30080E5
:1026B00010B52023044683F3118802F0C1FD0223E4
:1026C0002372002383F3118810BD00BFAFF3008095
:1026D00010B52023044683F3118802F029FE01235C
:1026E000237204F13000FFF713FA04F10C00FFF736
:1026F00057F9FEF735FE002383F3118810BD00BFA4
:1027000038B5436904460D463BB104F10C00294637
:10271000FFF75EF900280BDB38BD04300421FFF71A
:10272000A7F804F10C002946FFF752F90028F3DA64
:10273000201D8021BDE83840FFF79AB8AFF3008034
:1027400002F0AEB9AFF30080AFF30080AFF30080CA
:10275000002301220270436083600C30FEF7C0BF8B
:1027600010B52023044683F31188416002F0D8F9A4
:1027700002232370002383F3118810BDAFF3008080
:1027800010B52023044683F3118802F039FA01239F
:102790002370002383F3118810BD00BFAFF30080C6
:1027A00008B5202383F3118802F05AFA002383F33B
:1027B000118808BDAFF30080AFF30080AFF3008055
:1027C00008B5202383F3118802F05AFA002383F31B
:1027D000118808BDAFF30080AFF30080AFF3008035
:1027E0004FF4C043C4F2020307481968026810B5E9
:1027F0003D2401F03D019C600AB140689047BDE86E
:102800001040FEF72DBB00BF00100020AFF300808A
:102810004FF4C043C4F2020308481968826810B537
:102820008C0904F03D014FF474649C600AB1C068E7
:102830009047BDE81040FEF713BB00BF001000201A
:102840004FF4C043C4F2020308481968026910B586
:102850000C0C04F03D014FF474149C600AB1406903
:102860009047BDE81040FEF7FBBA00BF0010002003
:102870004FF4C043C4F2020308481968826910B5D6
:102880008C0D04F03D014FF074649C600AB1C06986
:102890009047BDE81040FEF7E3BA00BF00100020EB
:1028A0004FF4C043C4F2020307485968026A10B5E6
:1028B0003D2401F03D01DC600AB1406A9047BDE86B
:1028C0001040FEF7CDBA00BF00100020AFF300802B
:1028D0004FF4C043C4F2020308485968826A10B535
:1028E0008C0904F03D014FF47464DC600AB1C06AE5
:1028F0009047BDE81040FEF7B3BA00BF00100020BB
:102900004FF4C043C4F2020308485968026B10B583
:102910000C0C04F03D014FF47414DC600AB1406B00
:102920009047BDE81040FEF79BBA00BF00100020A2
:102930004FF4C043C4F2020308485968826B10B5D3
:102940008C0D04F03D014FF07464DC600AB1C06B83
:102950009047BDE81040FEF783BA00BF001000208A
:102960004FF4C843C4F2020307481968026C10B55B
:102970003D2401F03D019C600AB1406C9047BDE8E8
:102980001040FEF76DBA00BF00100020AFF30080CA
:102990004FF4C843C4F2020308481968826C10B5AA
:1029A0008C0904F03D014FF474649C600AB1C06C62
:1029B0009047BDE81040FEF753BA00BF001000205A
:1029C0004FF4C843C4F2020308481968026D10B5F9
:1029D0000C0C04F03D014FF474149C600AB1406D7E
:1029E0009047BDE81040FEF73BBA00BF0010002042
:1029F0004FF4C843C4F2020308481968826D10B549
:102A00008C0D04F03D014FF074649C600AB1C06D00
:102A10009047BDE81040FEF723BA00BF0010002029
:102A20004FF4C843C4F2020307485968026E10B558
:102A30003D2401F03D01DC600AB1406E9047BDE8E5
:102A40001040FEF70DBA00BF00100020AFF3008069
:102A50004FF4C843C4F2020308485968826E10B5A7
:102A60008C0904F03D014FF47464DC600AB1C06E5F
:102A70009047BDE81040FEF7F3B900BF00100020FA
:102A80004FF4C843C4F2020308485968026F10B5F6
:102A90000C0C04F03D014FF47414DC600AB1406F7B
:102AA0009047BDE81040FEF7DBB900BF00100020E2
:102AB0004FF4C843C4F2020308485968826F10B546
:102AC0008C0D04F03D014FF07464DC600AB1C06FFE
:102AD0009047BDE81040FEF7C3B900BF00100020CA
:102AE0002DE9F00F41F280058AB0C2F2000546F2EE
:102AF00040400295783046F21045C4F20205A0F538
:102B000080600495C4F2020046F240450390C4F28E
:102B1000020546F228400695C4F2020046F27045CE
:102B20000590C4F2020546F258400195C4F2020035
:102B300046F2B8450790C4F2020546F2884009956E
:102B4000C4F20200029D089046F2100B002041F2F0
:102B5000000346F2280A46F2400946F2580846F2B7
:102B6000700C46F2880746F2A006C2F20003286005
:102B7000C4F2020B039DCBF80000C4F2020AC4F2B7
:102B80000209C4F20208C4F2020CC4F20207C4F241
:102B900002061860CAF800009860C9F800001861C1
:102BA000C8F800009861CCF800001862386098629C
:102BB000306018632860049D98632860059D186440
:102BC0002860069D98642860079D186546F21044A9
:102BD00028606034019D986530342860C4F2020496
:102BE000089D18664FF4C0414FF4C8422860C4F2F3
:102BF00002019866C4F202022060099C18674FF037
:102C0000FF35206098678D60CD609560D5600AB013
:102C1000BDE8F00F704700BFAFF30080AFF3008056
:102C20002DE9F041244E447A3768012505FA04FC69
:102C30001CEA070F3AD1214D4CEA070705EBC408FF
:102C400017F0FF0F45F83420C8F80430376007D07C
:102C50004FF46053C4F202031C6B44F400161E636D
:102C600017F47F4F19D10468266826F01F052560E8
:102C7000276817F00105FBD1067A43683D2707FA5C
:102C800006F61E6021232560636192B1807A0901F6
:102C9000FEF756F92846BDE8F0814FF46055C4F2BE
:102CA00002052F6B47F480032B63DCE72846BDE861
:102CB000F0811046BDE8F081801000200010002057
:102CC00010B50446807AFEF763F9104A637A1168FA
:102CD000012000FA03F321EA030010F0FF0F106057
:102CE00007D14FF46052C4F20202116B21F40013B9
:102CF000136310F47F4F07D14FF46050C4F2020009
:102D0000026B22F48001016310BD00BF801000201F
:102D10004FF46053C4F2020370B400224FF0FF344A
:102D200019691C611A6159695C615A611E6A4EF227
:102D3000100166F080561E62CEF200011A6249F25E
:102D40003F054EF6F0505E6A5C62CEF2000007244A
:102D5000C0F202055A624D608A600C60C4684FF48C
:102D60008051CEF2000144F08074C460086840F0E5
:102D700001000860186C4FF4E041C4F2000140F01B
:102D800080501864086840F480700860196F01F47E
:102D90004070B0F5807F03D04FF4803119671A6717
:102DA0004FF46053C4F2020319461A6F42F0010057
:102DB00018670A6F4FF460539007C4F20203F8D506
:102DC000196F0A0407D4186F40F480721A67196FDC
:102DD00041F4004018674FF46053C4F202034FF40B
:102DE000E042196BC4F2000241F48020186353687A
:102DF00043F40071516050680307FCD570BCFFF7C5
:102E00006FBE00BFAFF30080AFF30080AFF3008070
:102E10004FF46052C4F202024FF4E043C4F20003E4
:102E20004FF0805111644FF4804218461A60436895
:102E30005B04FCD54FF46050C4F202000146026806
:102E400042F00103036008684FF460538007C4F246
:102E50000203F8D5196841F480321A6018460168F7
:102E60004FF460538A03C4F20203F8D55A6F42F05C
:102E70000100586719464A6F4FF460539007C4F237
:102E80000203F8D545F21A40C0F240705860196844
:102E900041F080721A60184601684FF460538A014D
:102EA000C4F20203F8D598684FF414424FF47051FD
:102EB000C3F60802C4F20201104340F205729860A2
:102EC0000A60996841F002009860996801F00C006E
:102ED0004FF460520828C4F20202F6D1536C43F456
:102EE00080415164506E40F480435366704700BF88
:102EF000F8B541F28406C2F20006304641F2B80548
:102F0000FEF776FFC2F200051A4F4FF4005242F668
:102F10001643C4F20102C0F20203284641F2EC0457
:102F2000C2F20004B262F7623363FEF761FF4FF44E
:102F3000045242F61643A7F11801C4F20102C0F28E
:102F400002232046AA62E9622B63FEF751FF4FF489
:102F5000085242F61643C4F20102243FC0F2024373
:102F600012205021A262E7622363BDE8F840FDF71A
:102F7000E7BF00BFC0DE0208AFF30080AFF3008000
:102F80000378012B10B5044600D010BD2D488442B3
:102F900016D02D498C4229D02C4A94423CD04FF473
:102FA0000C52C4F20102A36A516801F4400040F4DB
:102FB0008030506000210122596099609A6010BDF4
:102FC000234AE06A05212346FFF72AFEE06A42F21F
:102FD0004C0201684FF46053C4F20203C4F20102D0
:102FE0008A60586C40F480725A64D8E7184AE06AE4
:102FF00005212346FFF714FEE16A42F24C120868ED
:103000004FF46053C4F20203C4F201028260596CAF
:1030100041F400725A64C2E70D4AE06A0521234672
:10302000FFF7FEFDE36A42F24C2019684FF460534B
:10303000C4F20203C4F2010088605A6C42F480605A
:103040005864ACE784100020B8100020EC10002079
:1030500081310208AFF30080AFF30080AFF300804E
:103060000378022B10B5044600D010BDC06AFFF7EC
:1030700027FE1449A06A00228C424260826017D069
:10308000114B9C420BD011488442EED14FF4605159
:10309000C4F202014A6C22F480634B64E5E74FF40A
:1030A0006050C4F20200416C21F40072426410BD11
:1030B0004FF46053C4F20203586C20F480715964D9
:1030C00010BD00BF84100020B8100020EC100020BC
:1030D0000369026B19782DE9F00309B142F480729B
:1030E000C468C56A5E8829688768D3F80CC0CF6059
:1030F000012C88BF42F0080204FB06F44C600A6011
:10310000D1F80090D3F814809F69DE691D6A5C6A6B
:103110001B69826A49F00109C1F800904CF0806097
:10312000002113F0804F43F4407340F4807014BFCB
:1031300043F0030343F001031160C2F80C801761F0
:10314000D6621563546350609360BDE8F003704726
:10315000C16A0A68136810B423F01F04146013686E
:1031600013F00103FBD10C7A826A49683D2000FA12
:1031700004F00860536093600123936010BC7047B3
:1031800011F00C0F38B50D46044620D10369002B11
:103190003DD0CA0605D55B681BB1C268816852087C
:1031A0009847AB0633D520690178002934D04568AB
:1031B000002D2CD0E268012A2AD94088A368520841
:1031C00000FB02F103EB41012046A84738BDFFF7A1
:1031D000BFFF226993684BB1052000212070204673
:1031E00098472178052901D1022222700020206110
:1031F000202383F31188636933B14FF0FF3160619D
:1032000018461962FDF7F4FF002383F3118838BDD7
:103210002046A168A84738BD2046FFF799FF2169DD
:103220004B6833B3E2680420012A20701DD94D8811
:10323000A168520805FB02F5204601EB45019847BD
:103240002378042B0CD0202383F311886169002993
:10325000DAD00023636108460B62FDF7C9FFD3E7AC
:103260000222002022702061EDE72046A1689847E5
:10327000E6E7022222702361E5E700BFAFF300809A
:103280004FF40053C4F2010300211A6810B519600D
:10329000930605D54B4CE06A03685A68002A64D14E
:1032A0004FF40450C4F2010000230268036090064A
:1032B00005D5454CE16A08684268002A32D14FF4CE
:1032C0000850C4F20100002302680360910625D56E
:1032D0003E4CE16A0868426802B32369F3B12046B4
:1032E000FFF736FF21698B683BB105202070012173
:1032F000204698472278052A5AD0002222612023AE
:1033000083F31188606930B14FF0FF332F490362B6
:103310004A61FDF76DFF002383F31188BDE810407B
:10332000FDF79EBD2369002BC9D02046FFF710FF93
:1033300021698B683BB10520207001212046984708
:103340002278052A3AD000222261202383F31188B3
:10335000606930B14FF0FF331B4903624A61FDF7EA
:1033600047FF002383F31188A9E72169002997D03B
:103370002046FFF7EDFE206983683BB1052201215D
:103380002270204698472178052914D00022226116
:10339000202383F31188606930B14FF0FF3309496E
:1033A00003624A61FDF724FF002383F3118877E766
:1033B00002212170A1E702202070E7E7022121709D
:1033C000C1E700BF84100020B8100020EC100020DE
:1033D0004FF40C53C4F201035A6842F400005860E1
:1033E000704700BFAFF30080AFF30080AFF3008001
:1033F0004FF40C53C4F201035A6842F48000586041
:10340000704700BFAFF30080AFF30080AFF30080E0
:1034100041F22010C2F2000008B54FF47053426828
:10342000C4F2010301215961536800219847BDE8A6
:103430000840FDF715BD00BFAFF30080AFF300807B
:1034400041F22010C2F2000008B54FF470534268F8
:10345000C4F2010302215961D36801219847BDE8F4
:103460000840FDF7FDBC00BFAFF30080AFF3008064
:1034700041F22010C2F2000008B54FF470534268C8
:10348000C4F2010304215961536902219847BDE840
:103490000840FDF7E5BC00BFAFF30080AFF300804C
:1034A00041F22010C2F2000008B54FF47053426898
:1034B000C4F2010308215961D36903219847BDE88B
:1034C0000840FDF7CDBC00BFAFF30080AFF3008034
:1034D00041F22010C2F2000008B54FF47053426868
:1034E000C4F2010310215961536A04219847BDE8D1
:1034F0000840FDF7B5BC00BFAFF30080AFF300801C
:103500004FF47053C4F2010310B55C6904F478728F
:103510005A61A30622D460061AD4210612D4E20509
:103520000AD4A30504D510484168CB6C09219847FB
:10353000BDE81040FDF794BC0B48436808215A6C65
:103540009047EEE708484168CA6B07219047E6E7D5
:10355000054842680621536B9847DEE702484168F8
:10356000CB6A05219847D6E720110020AFF30080F1
:103570004FF47053C4F2010310B55C6904F47C424B
:1035800061055A612AD4220522D4E3041AD4A00486
:1035900012D461040AD4220404D5134842680F21CE
:1035A000D36F9847BDE81040FDF75ABC0E484168FC
:1035B0004B6F0E219847EEE70B4843680D21DA6EFA
:1035C0009047E6E7084841684A6E0C219047DEE7DD
:1035D000054842680B21D36D9847D6E702484168F9
:1035E0004B6D0A219847CEE720110020AFF30080F1
:1035F00041F22010C2F2000008B54FF47053426847
:10360000C4F201034FF480315961D2F884301021A3
:103610009847BDE80840FDF723BC00BFAFF300802A
:1036200041F22010C2F2000008B54FF47053426816
:10363000C4F201034FF400315961D2F88C301121EA
:103640009847BDE80840FDF70BBC00BFAFF3008012
:1036500041F22010C2F2000008B54FF470534268E6
:10366000C4F201034FF480215961D2F89430122141
:103670009847BDE80840FDF7F3BB00BFAFF30080FB
:1036800041F22010C2F2000008B54FF470534268B6
:10369000C4F201034FF400215961D2F89C30132188
:1036A0009847BDE80840FDF7DBBB00BFAFF30080E3
:1036B00041F22010C2F2000008B54FF47053426886
:1036C000C4F201034FF480115961D2F8A4301421DF
:1036D0009847BDE80840FDF7C3BB00BFAFF30080CB
:1036E00041F22010C2F2000008B54FF47053426856
:1036F000C4F201034FF480015961D2F8B4301621AD
:103700009847BDE80840FDF7ABBB00BFAFF30080B2
:1037100008B506206021FDF713FC07206021FDF7A6
:103720000FFC08206021FDF70BFC09206021FDF74C
:1037300007FC0A206021FDF703FC17206021FDF73C
:10374000FFFB28206021FDF7FBFB01206021FDF736
:10375000F7FB2920F021FDF7F3FB2A206021FDF77C
:10376000EFFB60213E20FDF7EBFB4C206021FDF7D5
:10377000E7FB0220F021FDF7E3FB0320F021BDE889
:103780000840FDF7DDBB00BFAFF30080AFF3008062
:1037900008B50620FDF7FCFB0720FDF7F9FB082024
:1037A000FDF7F6FB0920FDF7F3FB0A20FDF7F0FB20
:1037B0001720FDF7EDFB2820FDF7EAFB0120FDF7C0
:1037C000E7FB2920FDF7E4FB2A20FDF7E1FB3E2083
:1037D000FDF7DEFB4C20FDF7DBFB0220FDF7D8FBFD
:1037E0000320BDE80840FDF7D3BB00BFAFF3008066
:1037F00041F22010C2F20000FEF762BBAFF300807E
:1038000008B50378022B0AD04FF47050C4F20100BF
:1038100000224FF0FF3142600260416108BDFFF7B6
:10382000B7FFF1E7AFF30080AFF30080AFF30080A4
:10383000426852F83130D80770B441D54FF4705413
:10384000C4F201040120A56800FA01F00543A56057
:10385000C44313F0020F4FF47053C4F20103DD6848
:1038600014BF05432540DD6002EBC1035D68002DF8
:1038700032D04FF47053C4F201031D68284318601E
:10388000586804405C600F2918D88C084FF46053C6
:10389000A01CC4F2010352F8314053F8205001F04B
:1038A000030189000F2202FA01F2C4F3031425EA8E
:1038B000020204FA01F10A4343F8202070BC704769
:1038C0004FF47055C4F201050120AE6800FA01F012
:1038D000C4432640AE60BCE74FF47053C4F201030A
:1038E0005D6828435860186804401C60CBE700BF3F
:1038F0004FF47053C4F201030122186802FA01F177
:10390000CA431040186058681040586098681040CA
:103910009860D8680240DA6059617047AFF3008060
:1039200038B50378012B054635D06868016811F079
:1039300004012CD028460021FFF77AFF01240EE075
:10394000FFF776FF0134686850F834104B0716D53E
:10395000214628460134FFF76BFF172C16D06A6802
:1039600052F8343013F0040F28462146E8D1FFF70F
:10397000BFFF0134686850F834104B07E8D4214683
:1039800028460134FFF7B4FF172CE8D138BD28468C
:10399000FFF7AEFFD2E7FFF7BBFEC6E7AFF300804D
:1039A00001F001038A0748BF43F002034A0748BFFA
:1039B00043F008030A0748BF43F00403CA0648BFA0
:1039C00043F010038A0648BF43F020038A05426B88
:1039D00048BF43F0400342EA03014163704700BF20
:1039E00038B5202383F31188094C4FF43053C4F2C7
:1039F0000103E06B0025DD6310B1FDF7F9FBE56322
:103A0000002383F31188BDE83840FDF729BA00BFD1
:103A100028110020AFF30080AFF30080AFF30080E7
:103A200010B541F22814C2F200042046FEF758FDFA
:103A300002480023E363606410BD00BFB4DE0208E7
:103A4000027945F22043C0F6A303012A10B50446CB
:103A5000036409D04FF43050C4F201000022026028
:103A60004260C262426210BD002213460921406CCE
:103A7000FFF7D6F8606C4FF432510368C4F20101CD
:103A80000722996031205A619021FDF759FA4FF4CD
:103A90006050C4F20200416C41F400634364D9E712
:103AA0000379012B10B5044616D04FF43051C4F2FF
:103AB000010100220A6031204A60CA624A62FDF7B1
:103AC00067FA606CFFF7FCF84FF46050C4F2020034
:103AD000436C23F40061416410BD00BFAFF300806C
:103AE0004FF43053C4F2010378225A60186840F052
:103AF000030119605A6842F480705860704700BF33
:103B00004FF43053C4F201035A6822F0FF005860AA
:103B1000704700BFAFF30080AFF30080AFF30080C9
:103B20004FF43053C4F2010300225A601A60704708
:103B30004FF43053C4F2010301295A6822F4C050F3
:103B400007D001D2586070470229FCD140F4805060
:103B5000F8E740F400615960704700BFAFF30080A0
:103B60004FF43053C4F2010341F480619A60184667
:103B7000D960426B4FF430531106C4F20103F8D5FB
:103B800080219963704700BFAFF30080AFF30080DE
:103B900010B54FF43054C4F2010441F48861A260BE
:103BA000E160616B4FF4305211F0450FC4F2010235
:103BB000F7D011F00404916303D1516920461960D4
:103BC00010BDFFF7EDFE012010BD00BFAFF3008078
:103BD00010B54FF43054C4F2010441F48861A2607E
:103BE000E160616B4FF4305211F0450FC4F20102F5
:103BF000F7D011F00504916303D151692046196093
:103C000010BDFFF7CDFE012010BD00BFAFF3008057
:103C10002DE9F041202306468846174683F3118894
:103C20004FF43054C4F20104E36B002B33D14FF452
:103C30003052C4F20102546B14F4807326D0736CBA
:103C40001D682C6814F00104FBD1197A5B684FF4ED
:103C50003055C4F201053D2040F2FF7200FA01F137
:103C6000C0F2C0021960AA632346EC6283F3118894
:103C7000B8F1010F07D930460C2122463B46BDE87A
:103C8000F041FFF7A5BF2046BDE8F08183F311881E
:103C90000120BDE8F081034881690220F163FDF74E
:103CA000B7FAC4E7B80F0020AFF30080AFF300808D
:103CB0002DE9F047466C4FF43053347A3568C4F23E
:103CC000010307464FF03D0E7068D3F834C00EFA7A
:103CD00004F404602B6823F01F04894690462C608E
:103CE000296811F00104FBD1327A4FF43055C4F247
:103CF00001053D2140F2FF7301FA02F2C0F2C00358
:103D000002606146AB633846EC63EC62FFF748FE45
:103D1000B9F1010F07D938460C2122464346BDE8C8
:103D2000F047FFF755BFBDE8F08700BFAFF3008055
:103D300010B54FF43054C4F2010441F49861A2600C
:103D4000E160616B4FF4305211F0450FC4F2010293
:103D5000F7D011F03F04916309D1106A1860D1695E
:103D600059609069986052692046DA6010BDFFF78B
:103D700017FE012010BD00BFAFF30080AFF300803D
:103D80002DE9F0414FF43054C4F201044DF2C04526
:103D9000C0F2010582B065620F46054690461E4698
:103DA000FEF746FB18B1012002B0BDE8F0816B6C54
:103DB0002A6C186873029908C0F80C804160026090
:103DC000016840F2FF7241F001010160C0F2C002DF
:103DD00040F22A30A263E063A3622C6BE00658BF76
:103DE0007F02012E01AC284620D912213A462346F3
:103DF000FFF7EEFE98B94EF20803019ACFF6FF5393
:103E0000134063B94FF43051C4F201019B20C862E2
:103E1000224628463146FFF7FBFE0028C4D028463C
:103E200031462246FFF744FF0120BDE711213A4603
:103E30002346FFF7CDFE0028DDD0F0E7AFF300808A
:103E40002DE9F0414FF43054C4F2010448F6805596
:103E5000C0F25B0582B065620F46054690461E467D
:103E6000FEF7E6FA18B1012002B0BDE8F0816B6CF4
:103E70002A6C18687302990842F04002C0F80C805E
:103E800041600260016840F2FF7241F0010101608F
:103E9000C0F2C00240F21A30A263E063A3622C6B4E
:103EA000E40658BF7F02012E01AC284620D9192113
:103EB0003A462346FFF78CFE98B94EF20803019A62
:103EC000CFF6FF53134063B94FF43051C4F20101F0
:103ED0009920C862224628463146FFF799FE0028FD
:103EE000C2D0284631462246FFF7E2FE0120BBE75A
:103EF00018213A462346FFF76BFE0028DDD0F0E795
:103F000012F0030F2DE9F047154680460C461E4679
:103F100052D0002B4DD003EB0109CE434E44012378
:103F2000274A1E40FFF72CFF00283FD1284624498E
:103F30004FF40072013409F09BFD4C4505F5007506
:103F400037D02EB3404621461D4A0123FFF718FF04
:103F500060BB28461A494FF40072013409F088FD0D
:103F60004C4505F5007513D123E0284609F080FD86
:103F70003146134A01234046FFF702FF4FF4007217
:103F80000F49BD1890B9384609F072FD4C4510D064
:103F9000214601230A4A661C4046F418FFF7F0FE4A
:103FA0004FF400720649AF180028DED00120BDE8AA
:103FB000F0870020BDE8F087BDE8F047FFF7E0BEDE
:103FC00070110020AFF30080AFF30080AFF30080EA
:103FD00012F0030F2DE9F041154607460C461E4628
:103FE00057D0002B52D003EB01082C48CB4311468D
:103FF0004FF4007203EB080609F03AFD38462146FB
:10400000264A012306F0010605F50075FFF718FFA3
:10401000002838D10134444538D0F6B129464FF450
:1040200000721E4809F024FD384621461B4A012330
:1040300005F50075FFF704FF28BB013444450CD19A
:1040400024E0164809F014FD38463146134A01238E
:10405000FFF7F6FEB8B9444518D029464FF4007270
:104060000E4809F005FD661C214601230B4A38461F
:10407000F418FFF7E5FE05F500754FF400722946C8
:10408000AD180028DDD00120BDE8F0810020BDE89A
:10409000F081BDE8F041FFF7D3BE00BF70110020F2
:1040A00000207047AFF30080AFF30080AFF30080D3
:1040B0004FF46053C4F202031A6B6FEA52216FEAA5
:1040C00041221A63196D6FEA51226FEA4221196584
:1040D00000234168C4F202034FF480625960816892
:1040E0009960C168D9600169596141691962816942
:1040F000596201681960016AC4F202024FF4006358
:104100005160416A9160816AD160C16A5161016BFD
:104110001162416B5162C1691160C4F20203C26B4A
:104120005A60016C9960426CDA60816C5961C26CB2
:104130001A62016D5962816B4FF440621960816DA2
:10414000C4F202024FF480535160C16D9160016E60
:10415000D160416E5161816E1162C16E5162416DDB
:104160001160C4F20203426F5A60816F9960C26F9E
:10417000DA60D0F880105961D0F884201A62D0F843
:1041800088105962016F4FF4A0521960D0F8901056
:10419000C4F202024FF4C0535160D0F89410916001
:1041A000D0F89810D160D0F89C105161D0F8A010D0
:1041B0001162D0F8A4105162D0F88C101160D0F8C0
:1041C000AC10C4F202034FF4E0525960D0F8B010C2
:1041D0009960D0F8B410D960D0F8B8105961D0F80F
:1041E000BC101962D0F8C0105962D0F8A810C4F2FF
:1041F00002021960D0F8C8305360D0F8CC1091603A
:10420000D0F8D030D360D0F8D4105161D0F8D83085
:104210001362D0F8DC105162D0F8C4104FF4005390
:104220001160D0F8E420C4F202035A60D0F8E8101C
:104230009960D0F8EC20DA60D0F8F0105961D0F82D
:10424000F4201A62D0F8F8105962D0F8E000186033
:10425000704700BFAFF30080AFF30080AFF3008082
:1042600030B4046B436B226800214FF400451D807D
:10427000198099809982116821F01F0313601568D5
:10428000E907FCD4C16A257A63680A683D2000FA10
:1042900005F01860136823F01F0010601368DB0737
:1042A000FCD40A7A48683D2101FA02F3036030BC6D
:1042B000704700BFAFF30080AFF30080AFF3008022
:1042C00038B50546202383F31188C4694CB1FFF744
:1042D000C7FF00234FF0FF31EB6120462162FCF75E
:1042E00087FF002383F3118838BD00BFAFF3008040
:1042F00011F00C0F38B50546446B14D1296B0A68D0
:10430000136823F01F0010601368D807FCD40A7AE2
:1043100048683D2101FA02F30360A28890B240F49C
:104320000071A18038BD012005F072FDFCF750FD41
:10433000E4E700BFAFF30080AFF30080AFF300808D
:1043400011F00C0F38B50546446B2ED1E86A0268AF
:10435000136823F01F011160136813F00101FBD1F2
:10436000027A43683D2000FA02F21A60A38823F41F
:1043700080500204130CA380208820F48062130470
:10438000180C2080228893B243F4007020802023F0
:1043900083F31188EA6922B1E96110461162FCF7E2
:1043A00027FF002383F3118838BD012005F030FD7D
:1043B000FCF70EFDCAE700BFAFF30080AFF300804B
:1043C0003B4A38B5546B218BA58AADB2022345EA2E
:1043D000014020F07F41C0F20303994243D00ED840
:1043E0000123C0F20303994201D1138C238215F0FB
:1043F0000A0F18BF238BBDE83840FCF731BD82207F
:10440000C0F20700814221D08423C0F20703994201
:10441000EDD1D36A1968496800293FD1A08820F4FA
:1044200000731804030CA380208883B243F4007047
:104430002080202383F31188D06918B10162D161F3
:10444000FCF7D6FE002383F31188D0E7A088126B17
:1044500020F400710B0410681A0CA280016841F06E
:1044600001030360C3E7A388D06A23F40072110438
:1044700000680B0CA380026842F001010160A38870
:104480009AB242F48051A1804368012BAFD82088B2
:1044900020F480631A04130C2380A8E72388118C6E
:1044A00098B241F0010140F4A06311842380A2E797
:1044B00070130020AFF30080AFF30080AFF30080F3
:1044C0003C48F8B5446B066BA18A326889B201F4A6
:1044D0005F4383F47F4585F0FF07A782136823F0CD
:1044E0001F0515601768FF07FCD4377AC56A736823
:1044F0002A683D2606FA07F61E60136823F01F0699
:1045000016601368DE07FCD42E7A6A6801F48073A3
:104510003D2505FA06F59BB2156003B1012301F4B0
:10452000007292B2836012B143F00203836001F41F
:10453000806292B26AB1A28822F400721204120C54
:10454000A280228892B242F4007243F004032280D7
:10455000836001F4006292B212B143F008038360F9
:1045600001F4804292B212B143F02003836001F45F
:10457000805292B212B143F0100383600A0404D453
:1045800033B9BDE8F840FCF76BBC43F040018160F3
:10459000202383F31188C06938B16FF00102054B05
:1045A00002620021D961FCF723FE002383F3118806
:1045B000E7E700BF70130020AFF30080AFF3008087
:1045C00010B541F27034C2F200042046FDF708FD38
:1045D000064B4FF4B042C4F2000203F13C0100204C
:1045E000E0616263E362216310BD00BF48DE020840
:1045F000F8B50378044640F256428262012B40F23D
:1046000016406062656B55D02A46E66A276B3668AD
:104610003868616805F11003B36000244FF4004767
:104620004FF4106683602F802C80AE80938848689A
:104630000F7A23F03F0633041E0C9680968848F2CA
:10464000A063B6B2C0F2010346F02A0698429680F3
:1046500024DD4FF4D453C0F20603984208DC022F45
:1046600074D0032F62D048F6FF700D23138400E04E
:104670002046908309781088022983B250D00329FC
:104680004BD0012903D123F00A031804030C138033
:104690002A8890B240F001032B80F8BD4DF680636C
:1046A0004000C0F2802393FBF0F318052B23000D8C
:1046B0001384DEE72C498C42A6D14FF46056C4F235
:1046C0000206E06A376A294A47F48003002733620A
:1046D000062137622346FEF7A3FA2346244A206BBD
:1046E0000621FEF79DFA306C40F4800232642120EE
:1046F0006021FCF725FC22206021FCF721FC616A87
:10470000A66A626B41F0606746F0606347F48030F0
:1047100043F480316062A16277E743F00A03B6E7B1
:104720004FF6F771194041F00203B0E700EB80004B
:104730004DF6806300EB8000C0F2802393FBF0F322
:104740006FEA83406FEA904398B28EE74DF680633C
:1047500000EB4000C0F2802393FBF0F36FEA43408C
:104760006FEA504398B280E770130020414302087B
:10477000F1420208AFF30080AFF30080AFF3008096
:104780002DE9F04687B09146109D446B6A1C0646A1
:104790008A461F4605D001A82946334A3346FCF70E
:1047A000AFFC002383F31188F16A326B086812684A
:1047B000716AB360B36A4FEA4A0AA6F820A0136090
:1047C000C2F80C90576001600E9A0F99C260416068
:1047D00002E0002383F31188208B00F0020291B2E3
:1047E000202321B9208800F4007291B259B183F3DB
:1047F00011886B1CEDD004980028EAD14FF0FF30EF
:1048000007B0BDE8F08683F31188681C1AD00499BC
:104810000029F3D0A388154D98B240F40072A2800D
:104820002188AB6988B240F4807222800220F36153
:10483000FCF7EEFC049911B101A8FCF781FCAB690F
:10484000186ADDE7A388094D98B240F40072A2808F
:104850002188AB6988B240F4807222800220F36123
:10486000FCF7D6FCEBE700BFC1420208B80F0020FE
:104870004FF42053C4F200030F4ACA20532113609F
:1048800058625962DA68D10614D4D86840F08001C1
:10489000D9601846C2684FF420535206C4F2000390
:1048A000F8D5FF21C0F27F0119611961D86820F0A5
:1048B0008002DA60704700BFA8130020AFF30080C9
:1048C0000E4B1A68D06840F08003D360D068400671
:1048D000FCD50B7A63B9906820F040039360486878
:1048E000096810605160D36823F08000D060704781
:1048F000906840F040039360F1E700BFA8130020E8
:1049000070B40D4B1A68D0688406FCD51669956A98
:104910001369146850684C607204540C5B04621B89
:104920005B0C4FF47A7404FB02F20133B2FBF3F236
:10493000CA60086070BC7047A8130020AFF3008005
:104940002DE9F04F202385B083F311886946FFF7E6
:10495000D7FF002383F311889DE80C00C3F30230D6
:10496000C3F30211C3F3032600EB8009C3F38054A1
:10497000C2F3003003F00F0506EB490701EB810A93
:10498000C2F3011105EB4A0A660002F00F0801EBC1
:10499000810B4FEA47194FEA800CC2F30327C3F398
:1049A00001513419C2F3034549EA5A0908EB4B0691
:1049B0006044C2F3035207EB400C01EB8101A400F9
:1049C000143549EA064602EB820204EB410005EB8E
:1049D000420246EA4C51C3F3034341EA4261C31821
:1049E00041EAC32005B0BDE8F08F00BFAFF30080FF
:1049F00011F00C0F38B5044639D1606A02681368AB
:104A000023F01F0111601568E907FCD4057A216ABB
:104A100043680A683D2000FA05F01860136823F027
:104A20001F0010601368DB07FCD46368087A4A68CB
:104A30001B683D2101FA00F11160ABB10420207028
:104A4000204698472278042A0ED0202383F3118829
:104A5000A16829B10022A26008460A62FCF7C8FBDF
:104A6000002383F3118838BD02232370EDE7012072
:104A700005F0CEF9FCF7ACF9BFE700BFAFF300805B
:104A800011F00C0F08B500D108BD012005F0C0F9E8
:104A9000BDE80840FCF79CB9AFF30080AFF300809D
:104AA000F8B541F2AC3341F2B035C2F20005C2F2C2
:104AB0000003194E4FF6FF72284641F2E034C2F26D
:104AC00000041A80FDF744FE4FF44051162246239D
:104AD000C4F20101C0F20162C0F2016306F13C07B9
:104AE0002046E9612E62AA62EB626F62FDF730FE3A
:104AF0004FF4605116224623A6F13C00C4F2000197
:104B0000303EC0F20102C0F20103E1612062666240
:104B1000A262E362F8BD00BF90DE0208AFF300803E
:104B20000378012B10B5044627D0C3696068428919
:104B3000A06A02F4006189B2B9B1E16A20F4F040E0
:104B400021F4F04140F4205041F42051A062E16290
:104B500042F441720020072118801A8099801A8837
:104B600090B240F04001198010BDE16A20F4F0409D
:104B700021F4F041A062E162EAE71D4884420CD0D2
:104B80001C498C421ED0206A616AE369006809688A
:104B900003F10C0282608A60C8E70A21164A206A83
:104BA0002346FEF73DF8154A606A0A212346FEF7C0
:104BB00037F84FF46051C4F202014B6C43F4805259
:104BC0004A64E0E70A210C4A206A2346FEF728F8E7
:104BD0000A4A606A23460A21FEF722F84FF460531E
:104BE000C4F202031A6C42F480401864CBE700BFA1
:104BF000B0130020E0130020F1490208814A0208A6
:104C00000378022B10B5044600D010BDC169006ABC
:104C100000220A808A80FEF753F8606AFEF750F897
:104C20000B4884420BD00B4B9C42EED14FF46051A9
:104C3000C4F202010A6C22F480400864E5E74FF4F4
:104C40006053C4F20203596C21F480525A6410BDBF
:104C5000B0130020E0130020AFF30080AFF300801A
:104C600043681A895868012101FA02F39AB2428313
:104C7000704700BFAFF30080AFF30080AFF3008058
:104C800043681A895868012101FA02F39AB2028333
:104C9000704700BFAFF30080AFF30080AFF3008038
:104CA000F0B4036A476AC66A1C68806A3B6841F2CE
:104CB0001045C2F2000546F48066E5606160206040
:104CC000DA6059601E60226842F0010121601868B4
:104CD00040F001021A60F0BC704700BFAFF30080E3
:104CE00070B4436A046A866A24681B68C06AE2601A
:104CF00041F2AC3546F48066C2F200056160266080
:104D0000DD6059601860226842F001012160186876
:104D100040F001021A6070BC704700BFAFF3008022
:104D2000C26991811389D807FCD5908980B27047F8
:104D3000017808B5C368002204291A6107D102214D
:104D400001701A601A61DA6822F0FF01D9604368C5
:104D50005A68904708BD00BFAFF30080AFF30080F2
:104D600008B541F21440C2F20000FFF7E1FFBDE8D0
:104D70000840FCF775B800BFAFF30080AFF30080C8
:104D800008B541F22440C2F20000FFF7D1FFBDE8B0
:104D90000840FCF765B800BFAFF30080AFF30080B8
:104DA00008B541F21443C2F2000318464FF08042A6
:104DB000DA60FDF7B5F841F22441C2F200014FF488
:104DC0000053C4F200030846CB60BDE80840FDF77D
:104DD000A7B800BFAFF30080AFF30080AFF300804F
:104DE00038B50378012B044610D06168A5680868BF
:104DF000E368097AB5FBF0F4601E002280B2082453
:104E00001A605C609862D9601A6138BD15488442A6
:104E10001AD015498C42E8D14FF46055C4F202050E
:104E20002A6C42F480732B64286A40F480712962F2
:104E30002D2000222A624FF43D457021C0F2015519
:104E4000FCF77EF8A560D0E74FF46055C4F2020588
:104E50002A6C42F001032B64286A40F001012962A8
:104E60001C20E6E71414002024140020AFF3008077
:104E700008B50378022B00D008BD114BC168002291
:104E800098420A60CA600A610ED00E498842F3D186
:104E90002D20FCF77DF84FF46050C4F20200026C44
:104EA00022F480730364E7E71C20FCF771F84FF4E9
:104EB0006051C4F20201086C20F001020A6408BDCE
:104EC0001414002024140020AFF30080AFF30080FE
:104ED000C368002201390120D96258615A621A61FF
:104EE000DA6805210243DA6019607047AFF3008089
:104EF000C2680139D162012300200D215361106184
:104F000011601369DB07FCD5704700BFAFF3008069
:104F100038B5224CE36862681869DD68117D054088
:104F2000ADB2E8B2C043186105F0020398B299B976
:104F300038B1207804230328237002D0D268204699
:104F4000904705F0040188B208BBEB0703D56368FE
:104F500012481969884738BD70B905F0040398B242
:104F60000028F2D021780D48042203292270ECD0C9
:104F70004368D9688847E8E7052120462170926890
:104F8000904705F0040398B20028DED0EAE7636892
:104F900002489968052222708847D6E73414002019
:104FA00008B5FFF7B5FFBDE80840FBF759BF00BFE4
:104FB00008B5FFF7ADFFBDE80840FBF751BF00BFE4
:104FC00010B541F23444C2F200042046FDF760F807
:104FD0000023C4F20103E36010BD00BFAFF3008003
:104FE0004FF48053C4F201039A8990B240F08001DB
:104FF00099817047AFF30080AFF30080AFF300807A
:105000004FF48843C4F200039A8990B240F08001C3
:1050100099817047AFF30080AFF30080AFF3008059
:105020004FF4A053C4F201039A8990B240F080017A
:1050300099817047AFF30080AFF30080AFF3008039
:105040002DE9F041D0F8D450AF892C88A988A4B2BA
:1050500022070646BFB21FFA81F849D104F48071D5
:1050600088B2002832D104F0200293B213BB07F0BB
:10507000800188B220B104F0800293B2002B58D195
:1050800004F04004A4B29CB1202383F311881021C2
:10509000301DFCF7EDFB002383F311884FF6BF733F
:1050A0003B40AB81298821F040000204130C2B8087
:1050B000BDE8F081202383F3118830465FFA88F140
:1050C000FDF71EFB002383F31188D0E7202383F331
:1050D00011884FF40071301DFCF7CAFB002383F3E5
:1050E00011882A8822F480731904080C2880BAE7F2
:1050F00004F0080082B2002A14BF80210021E307D7
:1051000004F0020398B248BF41F0200108B141F019
:10511000400104F0040293B20BB141F480712023EA
:1051200083F31188301DFCF7A3FB002383F3118860
:1051300094E7202383F3118806F13000FCF728FD63
:10514000002805DB81B2A980002383F3118897E74B
:10515000301D0821FCF78CFB27F0C00040F0400216
:10516000AA81F1E7AFF30080AFF30080AFF30080D6
:1051700008B541F24C40C2F20000FFF761FFBDE804
:105180000840FBF76DBE00BFAFF30080AFF30080B7
:1051900008B541F22450C2F20000FFF751FFBDE80C
:1051A0000840FBF75DBE00BFAFF30080AFF30080A7
:1051B00008B541F2FC50C2F20000FFF741FFBDE824
:1051C0000840FBF74DBE00BFAFF30080AFF3008097
:1051D00070B541F24C46C2F2000644F6E172304628
:1051E0000021C0F6020241F22455FDF739FAC2F25D
:1051F00000054FF4805345F20102C4F20103284632
:105200000021C0F6020241F2FC54C2F20004C6F8CA
:10521000D430FDF725FA4FF4884345F22102C4F259
:10522000000320460021C0F60202C5F8D430FDF785
:1052300017FA4FF4A050C4F20100C4F8D40070BDB6
:1052400038B5037A364C002918BF0C46012B0546A9
:105250002CD04FF48050D5F8D4302168C4F201002E
:10526000834239D04FF4A052C4F20102934233D0AA
:105270004DF68060C0F28020B0FBF1F18AB21A8155
:10528000A288E088218942F4045240F0400080B2B4
:1052900041F0010142F02C02188292B289B2002042
:1052A00099829A8118801A889B8838BD1D4885424A
:1052B0001BD01D498D4225D01C4A9542C9D14FF4BF
:1052C0006053C4F202034720596C41F020025A6433
:1052D000C021FBF735FEBCE74FF43D40C0F2015062
:1052E000B0FBF1F18AB21A81CAE74FF46053C4F2FD
:1052F00002032520596C41F010025A64C021FBF7CB
:105300001FFEA6E74FF46053C4F202032620196C77
:1053100041F400321A64C021FBF712FE99E700BF86
:10532000F0DE02084C14002024150020FC1500209B
:10533000037A022B00D07047174BD0F8D41000220C
:1053400098428A810A828A8210D01449884218D0F1
:10535000134A9042EFD14FF46053C4F20203472046
:10536000596C21F020025A64FBF712BE4FF46053CF
:10537000C4F202032520596C21F010025A64FBF795
:1053800007BE4FF46053C4F202032620196C21F4C7
:1053900000321A64FBF7FCBD4C14002024150020D9
:1053A000FC150020AFF30080AFF30080AFF3008066
:1053B000FDF72EBDAFF30080AFF30080AFF30080A8
:1053C0004FF44063C4F202031869C0F3001181F086
:1053D00001007047AFF30080AFF30080AFF30080AF
:1053E0004FF44063C4F202031869C0F340107047E1
:1053F000704700BFAFF30080AFF30080AFF30080D1
:10540000F0B4002B08BF0B46074600F10B0C00F16F
:105410000A05B1FBF2F602FB161101F13004392C3A
:10542000C8BF01F13704E4B2B3FBF2F328463146BA
:1054300005F80149002BECD1C0EB0C03F9430246FF
:10544000F8184318DB070AD507F8014B12F8014F8B
:1054500005E012F8014F7C7012F8014F5F1C3B46CB
:1054600003F8014B8342F4D1F0BC7047AFF30080E6
:105470000EB42DE9F04F2DED028B8CB00DF1180C10
:1054800017ABCDF808C0029A53F8046B0DF1190C54
:10549000CDF804C0C2EB0C0C05938046CDF80CC0CF
:1054A000344614F8011B61B1252911D0D8F80060E9
:1054B000B368264634464046984714F8011B002935
:1054C000F2D10CB0BDEC028BBDE8F04F03B07047D9
:1054D00073782D2B00F0D08100272E2B00F0C8818F
:1054E000302B00F0C581202526460599002406E0D2
:1054F0000A78043104EB8404337802EB4404A3F10A
:105500003000C2B20136092AF4D92A2BF0D000208B
:105510002E2B05914BD06C2B55D04C2B53D0A3F197
:10552000410119298CBF00210121A3F14402342A31
:1055300000F29781DFE812F08B019501950195014A
:1055400095018B01950195019501950195018901C1
:1055500095019501950195019501810195019501AF
:1055600070019501950195019501950195019501B0
:1055700095019501950130018B019501EB00950195
:1055800095018B0195019501950195019501890181
:105590009501950195014F009501810195019501B6
:1055A00070010A78043100EB800302EB430016F827
:1055B000013BA3F13002D2B2092AF4D92A2BF0D050
:1055C0006C2B0591A9D13178002900F059810B4647
:1055D00001360121A9E7059D4EF200092B68C0F6AE
:1055E0000209002B18BF9946291D99F80020059142
:1055F00047F6FF75002808BF2846002A00F06281A0
:1056000099F80130411E09EB000A09F1010201F08D
:105610000100002B77D09245134608D000286DD0AA
:1056200055780132002D6ED09245134666D1C9EBF4
:105630000A0ACAEB0404202524EAE474002F00F0CF
:10564000BD80BAF1000F2ADD4F46D8F8000017F8E8
:10565000011B8368CA446FEA090E40460AEB0E0933
:105660009847574509F0010919D0B9F1000F04D046
:10567000D8F8002017F8011B0CE0D8F80000B94654
:10568000826819F8011B40469047D8F800207978C5
:1056900009F101079368404698475745EDD1002C22
:1056A0003FF4FEAED8F80070631EBA681C46404650
:1056B000294603F001079047002C3FF4F1AE47B1B3
:1056C000D8F8001040468B6829469847013C3FF4C3
:1056D000E7AED8F800002946826840469047D8F8DF
:1056E0000010013C8B68404629469847013CF0D1A8
:1056F000D6E65578013235B19A4598D058785A1C7B
:10570000531C0028F5D1C9EB020A20254FE0059A69
:10571000D01D20F0070101F10803D1E90001059334
:10572000FBF7EEF908EE100AB5EEC08AF1EE10FABA
:1057300000F1C08006A8FDEEC88A0A22002318EEF8
:10574000901AFFF75DFE81462E2009F8010B18EE36
:10575000100AFAF7B9FE824618EE900A8B46FAF75D
:10576000A1FE02460B4650465946FAF74DFD58A396
:10577000D3E90023FAF7FCFEFBF79AF90A22014667
:1057800042F210734846FFF73BFEDDF808C00DF10A
:105790001809CCEB000A0AE0059DDDF80CA0296889
:1057A0002B1D05938DF8181020250DF11809CAEB53
:1057B000040424EAE474002F7FF443AF6442002C15
:1057C0003FF43FAF99F800102D2967D0D8F80010AA
:1057D000E2438B684046294602F0010798470134AE
:1057E0003FF42FAF47B1D8F8001040468A682946E9
:1057F000904701343FF425AFD8F80000294683686C
:1058000040469847D8F8001001348A684046294637
:1058100090470134F0D114E71022059B89B1191D7E
:105820000591196806A80023FFF7EAFDDDF808A036
:105830000DF11809CAEB000AB9E70A22059B0029F5
:10584000EDD1181D19680590ECE70822E5E7059BE6
:105850001A1DB9B119680592002917DB06A80A229A
:10586000E1E78DF81830DDF80CA00DF118099EE77E
:1058700063783025013437E6B41CB37801272CE671
:10588000012152E6196805920029E7DA2D208DF8EA
:10589000180049420DF119000A22C4E7302D95D1B4
:1058A000D8F800704046BB68984709F101090AF131
:1058B000FF3A8BE72D228DF81820B1EE488A0DF1C2
:1058C000190038E79246202571E700BFAFF300804A
:1058D00000000000006AF840AFF30080AFF30080E2
:1058E00091E80C00C2F342312DE9F00F0729C3F310
:1058F0008055C2F300374FEA450808BF002108EB86
:10590000050B4FF0FF344FEA8709C3F3015681615D
:10591000C2F30351C2F30115B944C2F3032CC2F31D
:10592000034701EB810A4FEA8B08C3F3023104629B
:1059300006EB8606C3F3021402F00F0207EB4A0AD5
:1059400003F00F0BC3F3032705EB85050CEB490CA4
:1059500004EB840401EB810108EB4606C3F3034327
:1059600002EB45050AF1640A0CF1FF320BEB44042B
:1059700007EB4101F318C5600261C0F814A0046090
:1059800041608360BDE8F00F704700BFAFF3008057
:1059900042692DE9F00F4CF6CD43643ACCF6CC4386
:1059A000A3FB0256F50805EB850A86B02F05A2EB8E
:1059B0004A02846907F47003160402930396002CCC
:1059C00066D06407250C04950269D0F804C0C76846
:1059D0008668D0F800B04CF6CD43CCF6CC4302F14B
:1059E000010AA3FB0C94A3FB0A80E208C008A3FBF6
:1059F0000745A3FB068402EB820900EB8008E4085C
:105A0000CDF81490AAEB480A04EB8408ED08CDF811
:105A10000480DDF81480A3FB0B9305EB8509A7EB4D
:105A20004907ACEB480CDDF80490DDF80C80DB088E
:105A30002D01A6EB490648EA0A2A03EB83094FEA3F
:105A40000C2C4AEA070A4CEA064605F03007ABEB95
:105A5000490924054AEA070504F44014120346EAFA
:105A60000906029F2643000302F4E04446EA0402CA
:105A70003D4300F480501B01049C284303F0700355
:105A80002043134381E8090006B0BDE8F00F7047DA
:105A90004FF46047049797E7AFF30080AFF30080BF
:105AA00010B584B000230C466946009301938DF82D
:105AB00008300393FCF734FB20466946FFF710FFDC
:105AC00004B010BDAFF30080AFF30080AFF30080EF
:105AD00010B584B00023044608466946009301933C
