:020000040800F2
:1000000000040020210C0008510D0008610D0008BB
:10001000510D0008510D0008510D0008510D000848
:10002000510D0008510D0008510D0008C10D0008C8
:10003000510D0008510D0008510D0008910D0008E8
:10004000510D0008D14F0008510D0008D150000893
:10005000510D0008510D0008914C0008D14C0008CA
:10006000114D0008514D0008914D000881370008DE
:10007000E137000841380008A138000801390008BC
:1000800061390008C139000871450008510D0008A8
:10009000510D0008510D0008510D0008D14D000808
:1000A000510D000851560008510D00087156000806
:1000B000510D0008510D0008510D0008510D0008A8
:1000C000510D0008510D0008510D0008510D000898
:1000D000510D00080170000821700008510D000842
:1000E000C14E0008510D000811500008510D0008C4
:1000F000510D0008E1540008510D0008213A000894
:10010000510D0008E15C0008510D0008510D000878
:10011000510D0008510D0008510D0008510D000847
:10012000813A0008E13A0008413B0008A13B000881
:10013000013C0008510D000851500008510D000805
:10014000510D0008510D0008510D0008510D000817
:10015000613C0008C13C0008213D0008510D000829
:10016000510D0008510D0008510D0008510D0008F7
:1001700091500008510D0008510D0008510D000864
:08018000510D0008510D0008AB
:1001900081F0004102E000BF83F0004330B54FEA38
:1001A00041044FEA430594EA050F08BF90EA020FA5
:1001B0001FBF54EA000C55EA020C7FEA645C7FEA38
:1001C000655C00F0E2804FEA5454D4EB5555B8BF5B
:1001D0006D420CDD2C4480EA020281EA030382EACC
:1001E000000083EA010180EA020281EA0303362D5E
:1001F00088BF30BD11F0004F4FEA01314FF4801C31
:100200004CEA113102D0404261EB410113F0004F42
:100210004FEA03334CEA133302D0524263EB4303F9
:1002200094EA050F00F0A780A4F10104D5F1200E97
:100230000DDB02FA0EFC22FA05F2801841F10001F2
:1002400003FA0EF2801843FA05F359410EE0A5F1C6
:1002500020050EF1200E012A03FA0EFC28BF4CF0F7
:10026000020C43FA05F3C01851EBE37101F00045AD
:1002700007D54FF0000EDCF1000C7EEB00006EEBBA
:100280000101B1F5801F1BD3B1F5001F0CD3490844
:100290005FEA30004FEA3C0C04F101044FEA44529B
:1002A00012F5800F80F09A80BCF1004F08BF5FEA22
:1002B000500C50F1000041EB045141EA050130BD02
:1002C0005FEA4C0C404141EB010111F4801FA4F1A5
:1002D0000104E9D191F0000F04BF01460020B1FAFA
:1002E00081F308BF2033A3F10B03B3F120020CDA32
:1002F0000C3208DD02F1140CC2F10C0201FA0CF010
:1003000021FA02F10CE002F11402D8BFC2F1200C74
:1003100001FA02F120FA0CFCDCBF41EA0C0190402A
:10032000E41AA2BF01EB0451294330BD6FEA040473
:100330001F3C1CDA0C340EDC04F11404C4F120025E
:1003400020FA04F001FA02F340EA030021FA04F370
:1003500045EA030130BDC4F10C04C4F1200220FAC7
:1003600002F001FA04F340EA0300294630BD21FA05
:1003700004F0294630BD94F0000F83F4801306BFCB
:1003800081F480110134013D4EE77FEA645C18BFBF
:100390007FEA655C29D094EA050F08BF90EA020F56
:1003A00005D054EA000C04BF1946104630BD91EA4E
:1003B000030F1EBF0021002030BD5FEA545C05D151
:1003C0004000494128BF41F0004130BD14F5800490
:1003D0003CBF01F5801130BD01F0004545F0FE4104
:1003E00041F470014FF0000030BD7FEA645C1ABF39
:1003F000194610467FEA655C1CBF0B46024650EA70
:10040000013406BF52EA033591EA030F41F400219B
:1004100030BD00BF90F0000F04BF0021704730B521
:100420004FF4806404F132044FF000054FF00001F6
:1004300050E700BF90F0000F04BF0021704730B5B7
:100440004FF4806404F1320410F0004548BF40428C
:100450004FF000013EE700BF42004FEAE2014FEAE1
:1004600031014FEA02701FBF12F07F4393F07F4FBC
:1004700081F06051704792F0000F14BF93F07F4FEE
:10048000704730B54FF4607401F0004521F0004131
:1004900020E700BF50EA010208BF704730B54FF0B7
:1004A00000050AE050EA010208BF704730B511F0BC
:1004B000004502D5404261EB41014FF4806404F1F4
:1004C00032045FEA915C3FF4DCAE4FF003025FEA76
:1004D000DC0C18BF03325FEADC0C18BF033202EBFE
:1004E000DC02C2F1200300FA03FC20FA02F001FA58
:1004F00003FE40EA0E0021FA02F11444C1E600BFF7
:1005000070B54FF0FF0C4CF4E06C1CEA11541DBFA9
:100510001CEA135594EA0C0F95EA0C0F00F0DEF874
:100520002C4481EA030621EA4C5123EA4C5350EA59
:10053000013518BF52EA033541F4801143F48013AA
:1005400038D0A0FB02CE4FF00005E1FB02E506F03B
:100550000042E0FB03E54FF00006E1FB03569CF090
:10056000000F18BF4EF0010EA4F1FF04B6F5007F96
:1005700064F5407404D25FEA4E0E6D4146EB060608
:1005800042EAC62141EA55514FEAC52040EA5E5091
:100590004FEACE2EB4F1FD0C88BFBCF5E06F1ED83B
:1005A000BEF1004F08BF5FEA500E50F1000041EB72
:1005B000045170BD06F0004646EA010140EA02001F
:1005C00081EA0301B4EB5C04C2BFD4EB0C0541EA41
:1005D000045170BD41F480114FF0000E013C00F356
:1005E000AB8014F1360FDEBF002001F0004170BD7A
:1005F000C4F10004203C35DA0C341BDC04F1140493
:10060000C4F1200500FA05F320FA04F001FA05F21E
:1006100040EA020001F0004221F0004110EBD370EB
:1006200021FA04F642EB06015EEA430E08BF20EA17
:10063000D37070BDC4F10C04C4F1200500FA04F3BA
:1006400020FA05F001FA04F240EA020001F000414C
:1006500010EBD37041F100015EEA430E08BF20EABF
:10066000D37070BDC4F1200500FA05F24EEA020E07
:1006700020FA04F301FA05F243EA020321FA04F036
:1006800001F0004121FA04F220EA020000EBD370ED
:100690005EEA430E08BF20EAD37070BD94F0000FED
:1006A0000FD101F00046400041EB010111F4801F21
:1006B00008BF013CF7D041EA060195F0000F18BFD2
:1006C000704703F00046520043EB030313F4801F0E
:1006D00008BF013DF7D043EA0603704794EA0C0FC8
:1006E0000CEA135518BF95EA0C0F0CD050EA4106DE
:1006F00018BF52EA4306D1D181EA030101F000415B
:100700004FF0000070BD50EA410606BF1046194682
:1007100052EA430619D094EA0C0F02D150EA01368E
:1007200013D195EA0C0F05D152EA03361CBF1046CF
:1007300019460AD181EA030101F0004141F0FE416E
:1007400041F470014FF0000070BD41F0FE4141F4F2
:10075000780170BD70B54FF0FF0C4CF4E06C1CEAF2
:1007600011541DBF1CEA135594EA0C0F95EA0C0FA7
:1007700000F0A7F8A4EB050481EA030E52EA033562
:100780004FEA013100F088804FEA03334FF0805583
:1007900045EA131343EA12634FEA022245EA1115B0
:1007A00045EA10654FEA00260EF000419D4208BF61
:1007B000964244F1FD0404F5407402D25B084FEA0E
:1007C0003202B61A65EB03055B084FEA32024FF4BA
:1007D00080104FF4002CB6EB020E75EB030E22BF17
:1007E000B61A754640EA0C005B084FEA3202B6EBD7
:1007F000020E75EB030E22BFB61A754640EA5C0086
:100800005B084FEA3202B6EB020E75EB030E22BF15
:10081000B61A754640EA9C005B084FEA3202B6EB16
:10082000020E75EB030E22BFB61A754640EADC00D5
:1008300055EA060E18D04FEA051545EA16754FEA37
:1008400006164FEAC30343EA52734FEAC2025FEA55
:100850001C1CC0D111F4801F0BD141EA00014FF0E4
:1008600000004FF0004CB6E711F4801F04BF0143B5
:100870000020B4F1FD0C88BFBCF5E06F3FF6AFAED1
:10088000B5EB030C04BFB6EB020C5FEA500C50F161
:10089000000041EB045170BD0EF0004E4EEA1131E4
:1008A00014EB5C04C2BFD4EB0C0541EA045170BDEB
:1008B00041F480114FF0000E013C90E645EA060E2F
:1008C0008DE60CEA135594EA0C0F08BF95EA0C0F5D
:1008D0003FF43BAF94EA0C0F0AD150EA01347FF4A5
:1008E00034AF95EA0C0F7FF425AF104619462CE77C
:1008F00095EA0C0F06D152EA03353FF4FDAE1046DF
:10090000194622E750EA410618BF52EA43067FF42F
:10091000C5AE50EA41047FF40DAF52EA43057FF4BF
:10092000EBAE12E700000000000000000000000035
:100930004FF0FF3C06E000BF4FF0010C02E000BFAB
:100940004FF0010C4DF804CD4FEA410C7FEA6C5C8E
:100950004FEA430C18BF7FEA6C5C1BD001B050EA31
:10096000410C0CBF52EA430C91EA030F02BF90EA1C
:10097000020F0020704710F1000F91EA030F58BFDB
:10098000994208BF90422CBFD8176FEAE37040F03D
:10099000010070474FEA410C7FEA6C5C02D150EADB
:1009A000013C07D14FEA430C7FEA6C5CD6D152EA96
:1009B000033CD3D05DF8040B704700BF844610465B
:1009C00062468C461946634600E000BF01B5FFF75A
:1009D000B7FF002848BF10F1000F01BD4DF808ED2A
:1009E000FFF7F4FF0CBF012000205DF808FB00BFFB
:1009F0004DF808EDFFF7EAFF34BF012000205DF855
:100A000008FB00BF4DF808EDFFF7E0FF94BF0120A1
:100A100000205DF808FB00BF4DF808EDFFF7CEFFA2
:100A200094BF012000205DF808FB00BF4DF808EDE1
:100A3000FFF7C4FF34BF012000205DF808FB00BFB2
:100A40004FEA410212F5001215D211D56FF47873F6
:100A5000B3EB625212D94FEAC12343F0004343EA99
:100A6000505311F0004F23FA02F018BF4042704774
:100A70004FF00000704750EA013005D111F00040FE
:100A800008BF6FF0004070474FF00000704700BF94
:100A90004FEA4102B2F1E04324BFB3F5001CDCF1A0
:100AA000FE5C0DD901F0004C4FEAC0024CEA5070D8
:100AB000B2F1004F40EB830008BF20F00100704707
:100AC00011F0804F21D113F13872BCBF01F000400A
:100AD000704741F480114FEA5252C2F11802C2F13C
:100AE000200C10FA0CF320FA02F018BF40F00100BD
:100AF0004FEAC1234FEAD32303FA0CFC40EA0C006F
:100B000023FA02F34FEA4303CCE77FEA625307D1AB
:100B100050EA01331EBF4FF0FE4040F440007047E2
:100B200001F0004040F0FE4040F40000704700BF7C
:100B300038B50022002305460C46FFF759FF28B9B7
:100B400028462146BDE8384000F012B8284604F196
:100B5000004100F00DF8424261EB41031046194696
:100B600038BD00BF000000000000000000000000D1
:100B7000002370B50022C3F6F05304460D46FFF77C
:100B8000BFFC00F01DF80646FFF744FC00230022DE
:100B9000C4F2F013FFF7B4FC02460B462046294688
:100BA000FFF7FAFA00F00CF8002202431046314633
:100BB00070BD00BF00000000000000000000000049
:100BC0004A0011D212F5001211D20DD56FF47873CC
:100BD000B3EB62520ED44FEAC12343F0004343EA21
:100BE000505323FA02F070474FF00000704750EA6C
:100BF000013002D14FF0FF3070474FF000007047D6
:100C0000704700BFAFF30080AFF30080AFF3008008
:100C1000FEE700BFAFF30080AFF30080AFF30080CA
:100C200072B640F60004C2F2000484F309884EF65E
:100C30003473CEF200034FF040421A604EF68853F0
:100C4000CEF200034EF68852CEF20002126842F451
:100C500070021A604FF00004E1EE104A4EF63C7349
:100C6000CEF200031C604FF0060484F31488BFF337
:100C70006F8F40F20004C2F2000440F20045C2F25D
:100C8000000504E04FF05533236004F10404AC4246
:100C9000F8D340F20044C2F2000440F60005C2F26C
:100CA000000504E04FF05533236004F10404AC4226
:100CB000F8D306F03DFA4FF60845C0F6000540F6B9
:100CC0000004C2F2000405E02B68236004F1040470
:100CD00005F1040540F66443C2F200039C42F3D3DD
:100CE00040F66844C2F2000446F62025C2F2000530
:100CF00004E04FF00003236004F10404AC42F8D395
:100D0000FFF77EFF40F28814C0F6000403E023687A
:100D1000984704F1040440F28813C0F600039C4293
:100D2000F5D30CF025FA40F28814C0F6000403E075
:100D30002368984704F1040440F28813C0F60003C6
:100D40009C42F5D3FFF764FFAFF30080AFF3008060
:100D5000FEE700BFAFF30080AFF30080AFF3008089
:100D6000EFF3098240F66843C2F200031A6040F6CE
:100D70006843C2F200031B689D46FEE7AFF30080A4
:100D800072B6FEE7AFF30080AFF30080AFF30080F0
:100D900008B500F005FB4FF0200383F3118800F045
:100DA000BFFA00F0EDF900F0DBFA4FF0000383F337
:100DB000118800F025FB00F053F808BDAFF3008068
:100DC00010B483B0EFF309840194019B03F168032D
:100DD00001934EF63073CEF20003019A526E5A60C0
:100DE0004EF63073CEF200034EF63072CEF20002B1
:100DF000926802F168029A60019B83F309884FF0C0
:100E0000000383F3118803B010BC7047AFF3008078
:100E100008B54FF46D43CEF200034FF000029A6024
:100E20004FF46D43CEF200034FF44072C0F2FA5219
:100E3000DA604FF007004FF0100100F009F94FF0B1
:100E40000A004FF4007100F003F94FF00B004FF06F
:100E5000800100F0FDF808BDAFF30080AFF3008023
:100E600010B483B04FF0200383F311884FF46D4327
:100E7000CEF200035B6803F40063002B5ED0EFF357
:100E800009840194019BA3F168030193019B83F3FF
:100E90000988019B4FF08072DA6141F23823C2F277
:100EA00000039B6993F82330002B11D041F23823C3
:100EB000C2F200031B689A6841F23823C2F20003B1
:100EC0009B699B689A4294BF00230123DBB210E028
:100ED00041F23823C2F200031B689A6841F23823BA
:100EE000C2F200039B699B689A4234BF002301232E
:100EF000DBB2002B08D0019A40F65173C0F6000314
:100F00009361F1EE10FA05E0019A40F65C73C0F6C9
:100F100000039361019B03F168024EF63073CEF239
:100F200000035B680093009B53664EF63073CEF26D
:100F30000003009A42F001025A6003E04FF0000300
:100F400083F3118803B010BC704700BFAFF300807B
:100F500000F0A6F900F03CFE00F0C2F900DF00BF8F
:100F600003460A462DE9F04F2DED108AC2F80CD049
:100F7000D3F80CD0BDEC108ABDE8F08FAFF3008041
:100F800008B500F0ADF94FF0000383F3118828464F
:100F9000A04700F07DFF08BDAFF30080AFF30080F5
:100FA00010B485B001900091019B03F003034FEA58
:100FB000C30303934FF46143CEF20003019A4FEA57
:100FC00092004FF46142CEF2000201994FEA910182
:100FD00001F1C00152F82110039A4FF0FF0404FA06
:100FE00002F26FEA02021140039A009C04FA02F234
:100FF000114300F1C00243F822104FF46143CEF2D6
:101000000003019A4FEA5212019901F01F014FF0BB
:10101000010000FA01F102F1600243F822104FF4DE
:101020006143CEF20003019A4FEA5212019901F096
:101030001F014FF0010000FA01F143F8221005B042
:1010400010BC7047AFF30080AFF30080AFF30080B7
:1010500010B485B001900091019B03F003034FEAA7
:10106000C30303934FF46D43CEF20003019A4FEA9A
:1010700092004FF46D42CEF2000201994FEA9101C5
:1010800001F1060152F82110039A4FF0FF0404FA0F
:1010900002F26FEA02021140039A009C04FA02F283
:1010A000114300F1060243F8221005B010BC70474E
:1010B00082B0019041F23823C2F200039A694EF2E5
:1010C0009023C0F600039361FEE700BFAFF30080FA
:1010D00000B583B0FFF79CFE00F052FB00F068FA09
:1010E00001F0EEFA01F05CFB00F0EAF940F6C850BE
:1010F000C2F200004FF0400100F08AFD024641F2CA
:101100003823C2F200039A6141F23823C2F200038D
:101110009B694FF0010283F8202041F23823C2F28C
:1011200000039A6940F20043C2F20003D36100F069
:101130009FF84FF0000383F3118862B641F2382321
:10114000C2F200039A694EF65073C0F60003936131
:101150004FF00003009340F67040C2F200004FF4DD
:10116000AC714FF0010241F2B103C0F6000300F090
:1011700007FE03B000BD00BFAFF30080AFF30080F7
:1011800000B583B000F06CF941F23823C2F20003DD
:101190009B6993F82330002B0BD041F23823C2F225
:1011A00000039B6993F8232002F1FF32D2B283F847
:1011B000232041F23823C2F200039B695A6A02F1EC
:1011C00001025A6241F22823C2F20003DB6803F1F4
:1011D000010241F22823C2F20003DA6041F228231F
:1011E000C2F200031A6841F22823C2F200039A42B5
:1011F00039D041F22823C2F200031B689A6802F139
:10120000FF329A6025E0019BDB680093019B4FF061
:101210000002DA60019B1A6841F22823C2F200033F
:101220005360019B1A6841F22823C2F200031A603E
:1012300000F096F84FF0000383F31188019B1A69C0
:10124000009B104698474FF0200383F3118800F06D
:1012500067F841F22823C2F200031B680193019B47
:101260009B68002BCFD003B000BD00BFAFF3008060
:1012700008B540F61463C2F200031B68002B06D1C8
:1012800040F61863C2F200031B68002B05D04EF233
:10129000B020C0F6000000F073F908BDAFF3008085
:1012A00008B540F61463C2F200031B68002B06D198
:1012B00040F61863C2F200031B68002B05D04EF203
:1012C000B820C0F6000000F05BF940F61863C2F2E7
:1012D00000034FF001021A6008BD00BFAFF30080A9
:1012E00008B540F61463C2F200031B68002B06D158
:1012F00040F61863C2F200031B68002B05DC4EF2B7
:10130000C020C0F6000000F03BF940F61863C2F2BE
:1013100000034FF000021A6008BD00BFAFF3008069
:1013200008B540F61463C2F200031B68002B06DD0B
:1013300040F61863C2F200031B68002B05D04EF282
:10134000C820C0F6000000F01BF940F61863C2F296
:1013500000034FF001021A6008BD00BFAFF3008028
:1013600008B540F61463C2F200031B68002B06DDCB
:1013700040F61863C2F200031B68002B05DC4EF236
:10138000D020C0F6000000F0FBF840F61863C2F26F
:1013900000034FF000021A6008BD00BFAFF30080E9
:1013A00008B54FF0200383F3118840F61463C2F2AE
:1013B00000031B68002B06DB40F61863C2F2000333
:1013C0001B68002B05D04EF2D820C0F6000000F0BC
:1013D000D7F840F61463C2F200031B6803F1010260
:1013E00040F61463C2F200031A604FF0000383F367
:1013F000118808BDAFF30080AFF30080AFF3008029
:1014000008B54FF0200383F3118840F61463C2F24D
:1014100000031B68002B06DD40F61863C2F20003D0
:101420001B68002B05D04EF2E020C0F6000000F053
:10143000A7F840F61463C2F200031B6803F1FF3201
:1014400040F61463C2F200031A604FF0000383F306
:10145000118808BDAFF30080AFF30080AFF30080C8
:1014600008B540F61463C2F200031B68002B06DBCC
:1014700040F61863C2F200031B68002B05DC4EF235
:10148000E820C0F6000000F07BF808BDAFF3008054
:1014900008B540F61463C2F200031B68002B06D1A6
:1014A00040F61863C2F200031B68002B05DC4EF205
:1014B000F020C0F6000000F063F808BDAFF3008034
:1014C00040F61C63C2F200034FF040021A6040F67F
:1014D0001C63C2F20003014A5A607047240E0020C8
:1014E00082B0019040F61C63C2F200035A6841F2D8
:1014F0002823C2F20003DB68136040F61C63C2F2CB
:1015000000035A6841F23823C2F200039B6953601A
:1015100040F61C63C2F200035B68019A926A9A600B
:1015200040F61C63C2F200035B68019A92F8202027
:101530001A7340F61C63C2F200035B6803F11002E9
:1015400040F61C63C2F200035A6040F61C63C2F20C
:1015500000035A68054B9A4205D340F61C63C2F259
:101560000003034A5A6002B0704700BF24120020F3
:10157000240E0020AFF30080AFF30080AFF30080B3
:1015800000B583B0019041F22423C2F20003019A16
:101590001A604FF001000BF0BBFCFFF7F1FB03B04A
:1015A00000BD00BFAFF30080AFF30080AFF3008059
:1015B00041F22823C2F2000341F22822C2F20002C3
:1015C0005A6041F22823C2F200035A6841F22823EC
:1015D000C2F200031A6041F22823C2F200034FF066
:1015E000FF329A6041F22823C2F200034FF000025A
:1015F000DA607047AFF30080AFF30080AFF3008094
:1016000000B587B00390029101920093FFF728FF85
:10161000039B002B05D0019B002B02D0029B002BCB
:1016200005D14EF20030C0F60000FFF7A9FF039B82
:10163000009A1A61039B019ADA6041F22823C2F2F0
:1016400000031B68059307E0059B9B68029AD31A69
:101650000293059B1B680593059B9A68029B9A421F
:10166000F2D3039B059A1A60039B1B685A68039B7D
:101670005A60039B5B68059A03995160059A52680A
:101680001A60039B029A9A60059A41F22823C2F2DB
:1016900000039A4205D0059B9A68029BD21A059BCB
:1016A0009A6007B000BD00BFAFF30080AFF30080C9
:1016B00000B583B00190FFF7D3FE019B002B05D14D
:1016C0004EF21030C0F60000FFF75AFF019BDB68B6
:1016D000002B05D14EF22030C0F60000FFF750FF7E
:1016E000019B1A6841F22823C2F200039A4208D0F3
:1016F000019B1B68019A12689168019A92688A1886
:101700009A60019B5B68019A12681A60019B1B68D2
:10171000019A52685A60019B4FF00002DA6003B0F0
:1017200000BD00BFAFF30080AFF30080AFF30080D7
:1017300084B00190019B1B680393039B1A68019B73
:101740001A60019B1B68019A5A60039B184604B0FB
:10175000704700BFAFF30080AFF30080AFF30080AD
:1017600082B00190019B5B68019A12681A60019B2C
:101770001B68019A52685A60019B184602B0704774
:1017800041F23823C2F2000341F23822C2F20002D1
:101790005A6041F23823C2F200035A6841F23823FA
:1017A000C2F200031A6041F23823C2F200034FF084
:1017B00000029A6041F23823C2F2000341F238225B
:1017C000C2F200025A6141F23823C2F200035A69A0
:1017D00041F23823C2F200031A617047AFF3008070
:1017E00000B585B00190FFF73BFE019B93F82030D8
:1017F000002B04D0019B93F820300E2B05D14EF224
:101800004030C0F60000FFF7BBFE019B4FF0000226
:1018100083F8202041F23823C2F200030393039B94
:101820001B680393039B9A68019B9B689A42F6D2BC
:10183000019B039A1A60039B5A68019B5A60019BA3
:101840005B68039A01995160039A52681A60019B80
:10185000184605B000BD00BFAFF30080AFF30080B5
:1018600000B585B003468DF80730FFF711FE41F251
:101870003823C2F200039B690393039B9DF8072062
:1018800083F82020039B4FF0140283F8232041F2B9
:101890003820C2F20000FFF74BFF024641F2382326
:1018A000C2F200039A6141F23823C2F200039B693D
:1018B0004FF0010283F820200398FFF711FE6B46DA
:1018C000A3F16402039BDB699A4205D24EF25430C5
:1018D000C0F60000FFF754FE41F23823C2F20003C5
:1018E0009B6918460399FFF73BFB05B000BD00BF9D
:1018F00000B585B00190019B03934FF0200383F363
:101900001188FFF70DFD039B93F820300D2B2FD886
:1019100001A252F823F000BF511900087119000804
:10192000711900085F190008711900086B19000887
:10193000711900087119000871190008711900085F
:101940007119000871190008711900086B19000855
:10195000FFF706FD4FF0000383F3118815E0039BAA
:101960009B6A9A6802F101029A600398FFF7F8FEF9
:10197000039B4FF0FF329A620398FFF731FFFFF7A6
:10198000EFFC4FF0000383F3118805B000BD00BFEA
:1019900000B589B0034600918DF80730FFF778FD58
:1019A000009BB3F1FF3F1AD041F23823C2F200038B
:1019B0009B6903AA1046009941F6F102C0F60002A5
:1019C000FFF71EFE9DF807301846FFF749FF069BFC
:1019D000002B09D003AB1846FFF76AFE04E09DF820
:1019E00007301846FFF73CFF41F23823C2F20003EC
:1019F0009B699B6A184609B000BD00BFAFF3008029
:101A000000B585B001900091FFF742FD019B009A5F
:101A10009A62019B9A6841F23823C2F200039B69E3
:101A20009B689A4203D80198FFF7DAFE27E041F25B
:101A30003823C2F200039B691846FFF7D1FE0390DA
:101A400041F23823C2F20003019A9A61019B4FF0E0
:101A5000010283F820200398FFF742FD6B46A3F1B3
:101A60006402039BDB699A4205D24EF25430C0F601
:101A70000000FFF785FD01980399FFF771FA05B0A3
:101A800000BD00BFAFF30080AFF30080AFF3008074
:101A900000B583B041F23823C2F200039B69019381
:101AA00041F23820C2F20000FFF742FE024641F246
:101AB0003823C2F200039A6141F23823C2F20003D4
:101AC0009B694FF0010283F82020019B4FF0140224
:101AD00083F823200198FFF783FE0198FFF700FDAC
:101AE0006B46A3F16402019BDB699A4205D24EF278
:101AF0005430C0F60000FFF743FD41F23823C2F234
:101B000000039B6918460199FFF72AFA03B000BD4C
:101B100000B583B041F23823C2F200039B69009301
:101B200041F23820C2F20000FFF702FE024641F205
:101B30003823C2F200039A6141F23823C2F2000353
:101B40009B694FF0010283F82020009B4FF00002B8
:101B500083F8202041F23823C2F200030193019B55
:101B60001B680193019B9A68009B9B689A42F6D878
:101B7000009B019A1A60019B5A68009B5A60009B67
:101B80005B68019A00995160019A52681A60009846
:101B9000FFF7A6FC6B46A3F16402009BDB699A4247
:101BA00005D24EF25430C0F60000FFF7E9FC41F2D6
:101BB0003823C2F200039B6918460099FFF7D0F959
:101BC00003B000BDAFF30080AFF30080AFF300803F
:101BD00008B541F23823C2F200039B6993F8233021
:101BE000002B02D1FFF754FF01E0FFF791FF08BD82
:101BF00084B00190019B1B680393039B1A68019BAF
:101C00001A60039B184604B0704700BFAFF3008012
:101C100082B001900091019B009A9A60019B4FF065
:101C2000020283F82020019B4FF0000283F821205C
:101C3000019B4FF0140283F82320019B009A5A6401
:101C4000019B4FF000021A64019B4FF00002DA631F
:101C5000019B4FF000025A62019B4FF0010283F892
:101C60002220019B4FF000029A61019A41F2382331
:101C7000C2F20003136141F23823C2F200035A6931
:101C8000019B5A61019B5A6941F23823C2F2000359
:101C90000199596141F23823C2F200035B69136173
:101CA000019B03F12C02019BDA62019B03F13002DC
:101CB000019B5A63019B5A6B019B1A63019B03F1C1
:101CC0004C02019BDA61019B184602B0704700BFCD
:101CD00084B00390029113468DF8073007E0039B10
:101CE0009DF807201A70039B03F101030393039AE5
:101CF000029B9A42F3D304B0704700BFAFF3008059
:101D000000B587B00390029101920093039B059365
:101D1000FFF7A6FB039B002B0AD0029A40F2371371
:101D20009A4205D9019B7F2B02D8009B002B05D13D
:101D30004EF27030C0F60000FFF722FC029BA3F1C8
:101D40006403039AD218059BDA60059BDB68009A4E
:101D50001A64059BDB68089A5A64059BDA6840F6AA
:101D60008173C0F60003136605980199FFF750FFD1
:101D70000346184607B000BDAFF30080AFF3008004
:101D800000B589B00590049103920293059B03F17D
:101D90004C03059819464FF0FF02FFF799FF059B8A
:101DA00003F14C020599049BCB18104619464FF0DD
:101DB0005502FFF78DFF4FF0200383F31188FFF7E3
:101DC0006FFA0A9B009305980499039A029BFFF708
:101DD00097FF079007984FF00001FFF711FEFFF7FC
:101DE0007FFA4FF0000383F31188079B184609B070
:101DF00000BD00BFAFF30080AFF30080AFF3008001
:101E000000B583B00190019B002B05D14EF2B0309C
:101E1000C0F60000FFF7B4FB4FF0200383F31188F6
:101E2000FFF73EFA4FF006000199FFF7B1FDFFF70B
:101E300057FA4FF0000383F3118803B000BD00BFD1
:101E400000B583B001904FF0200383F31188FFF7B2
:101E500027FA41F22823C2F20003DB68019AD31A61
:101E60000193019B002B04D04FF006000199FFF76E
:101E70008FFDFFF735FA4FF0000383F3118803B0AD
:101E800000BD00BFAFF30080AFF30080AFF3008070
:101E900000B583B001904FF0200383F31188FFF762
:101EA000FFF9019800F004F803B000BDAFF3008023
:101EB00000B585B0019041F23823C2F200039B695E
:101EC0000393039B019A9A6209E0039B03F12C039D
:101ED0001846FFF78DFE03461846FFF781FC039B6B
:101EE000DA6A039B03F12C039A42EED1039B93F829
:101EF000213003F00303002B09D1039B5B69039A94
:101F000012691A61039B1B69039A52695A614FF067
:101F10000E00FFF7A5FC4EF2C030C0F60000FFF740
:101F20002FFB05B000BD00BFAFF30080AFF3008012
:101F300000B583B00190019B002B05D14EF21040FB
:101F4000C0F60000FFF71CFB019A019B5A60019B41
:101F50005A68019B1A60019B4FF000029A6003B01F
:101F600000BD00BFAFF30080AFF30080AFF300808F
:101F700000B585B001900091FFF772FA019B002B2C
:101F800005D14EF2EC40C0F60000FFF7F9FA019BD4
:101F90001B68039310E0039BDA68009B1A43039BC2
:101FA000DA60039B5A68039B9B681046194600F051
:101FB0000FF8039B1B680393039A019B9A42EAD193
:101FC00005B000BDAFF30080AFF30080AFF3008039
:101FD00000B583B001900091FFF742FA019B002BFE
:101FE00005D14EF21450C0F60000FFF7C9FA019B6C
:101FF000DA6B009B1A43019BDA63019B93F8203054
:10200000082B06D1019BDA6B019B9B6A1340002BC6
:102010000DD1019B93F82030092B0FD1019BDA6B76
:10202000019B9B6A1A40019B9B6A9A4206D10198C8
:10203000FFF7D6FB03464FF000029A6203B000BDE3
:1020400084B00190019B1B680393039B1A68019B5A
:102050001A60019B1B68019A5A60039B184604B0E2
:10206000704700BFAFF30080AFF30080AFF3008094
:1020700000B583B04FF0200383F31188FFF710F908
:1020800041F23823C2F200039B691A6B41F23823F4
:10209000C2F200039B6903F130039A4203D14FF06F
:1020A0000C00FFF7DDFB41F23823C2F200039B690D
:1020B00003F130031846FFF7C3FF0190019B4FF077
:1020C0000B0283F82020FFF70BF94FF0000383F396
:1020D0001188019B184603B000BD00BFAFF300801C
:1020E00000B583B0019000914FF0200383F3118875
:1020F000FFF7D6F8019B93F820300B2B05D04EF25A
:102100006050C0F60000FFF73BFA01980099FFF716
:1021100077FCFFF7E5F84FF0000383F3118803B075
:1021200000BD00BFAFF30080AFF30080AFF30080CD
:1021300082B001900091019B009A1A60009B5A683E
:10214000019B5A60019B5B68009A01995160009A5B
:1021500052681A6002B07047AFF30080AFF300809E
:1021600084B00190019B1B680393039B1A68019B39
:102170001A60019B1B68019A5A60039B184604B0C1
:10218000704700BFAFF30080AFF30080AFF3008073
:1021900000B583B001900091009B002B02D14FF05D
:1021A000FF3316E041F23823C2F200039B69019A23
:1021B0009A6241F23823C2F200039A69019B1046E9
:1021C0001946FFF7B5FF4FF00D000099FFF7E0FB50
:1021D0000346184603B000BDAFF30080AFF30080A4
:1021E00084B00390029101920093039A039B5A607A
:1021F000039B5A68039B1A60039B4FF000029A608E
:10220000039B029A5A61039B5A69039B9A61039B41
:102210009A69039BDA60029A019BD218039B1A61A8
:10222000039B009ADA61039B049A1A6204B0704718
:1022300000B583B001900B468DF80330FFF710F91D
:10224000019B5A69019B9B699A4206D1019B9B683D
:10225000002B02D04FF0010301E04FF0000303F028
:102260000103DBB2002B02D06FF003032BE0019BD4
:102270009B6803F10102019B9A60019B5B699DF8D9
:1022800003201A7003F10102019B5A61019B5A69F4
:10229000019B1B699A4203D3019BDA68019B5A6137
:1022A000019B1A68019B9A420BD0019B1846FFF7CD
:1022B00057FF03461846FFF793FA03464FF0000214
:1022C0009A624FF00003184603B000BDAFF30080E0
:1022D00000B585B0019000914FF0200383F3118881
:1022E000FEF7DEFF019BDB69002B14D0019BDB694D
:1022F000019898470FE001980099FFF749FF039074
:10230000039B002B08DAFEF7EBFF4FF0000383F38B
:102310001188039B25E000BF019B9B68002BEAD03E
:10232000019B9B6803F1FF32019B9A60019B9B69B3
:102330001A788DF80B2003F10102019B9A61019B31
:102340009A69019B1B699A4203D3019BDA68019B3E
:102350009A61FEF7C5FF4FF0000383F311889DF8E3
:102360000B30184605B000BDAFF30080AFF300801E
:1023700000B587B00390029101920093039BDB6943
:1023800004934FF000030593019B002B05D14EF2FF
:102390008050C0F60000FFF7F3F84FF0200383F3FE
:1023A0001188FEF77DFF049B002B12D0049B03983D
:1023B00098470EE003980099FFF7EAFE0346002BCA
:1023C00008D0FEF78DFF4FF0000383F31188059BC3
:1023D0003BE000BF039B9B68002BEBD0039B9B68FB
:1023E00003F1FF32039B9A60039B9B691978029A61
:1023F0001170029A02F10102029203F10102039BA1
:102400009A61039B9A69039B1B699A4203D3039BBE
:10241000DA68039B9A61FEF763FF4FF0000383F3D2
:102420001188059B03F101030593019B03F1FF3321
:102430000193019B002B01D1059B06E04FF0200387
:1024400083F31188FEF72CFFADE7184607B000BDF7
:1024500084B00390029101920093039A039B5A6007
:10246000039B5A68039B1A60039B019A9A60039B23
:10247000029A5A61039B5A69039B9A61039B9A696A
:10248000039BDA60029A019BD218039B1A61039B9B
:10249000009ADA61039B049A1A6204B0704700BF85
:1024A00000B587B003900B4601928DF80B304FF0CA
:1024B000200383F31188FEF7F3FE0FE003980199E0
:1024C000FFF766FE0590059B002B07DAFEF708FF75
:1024D0004FF0000383F31188059B2CE0039B9B685E
:1024E000002BEBD0039B9B6803F1FF32039B9A60A8
:1024F000039B5B699DF80B201A7003F10102039B9B
:102500005A61039B5A69039B1B699A4203D3039B3D
:10251000DA68039B5A61039BDB69002B03D0039BA2
:10252000DB6903989847FEF7DBFE4FF0000383F367
:1025300011884FF00003184607B000BDAFF30080CC
:1025400000B585B00190FEF78BFF019B5A69019B96
:102550009B699A4206D1019B9B68002B02D04FF0E9
:10256000010301E04FF0000303F00103DBB2002B95
:1025700002D06FF002032BE0019B9B6803F1010284
:10258000019B9A60019B9B691A788DF80F2003F1DB
:102590000102019B9A61019B9A69019B1B699A4206
:1025A00003D3019BDA68019B9A61019B1A68019B26
:1025B0009A420BD0019B1846FFF7D2FD03461846FE
:1025C000FFF70EF903464FF000029A629DF80F30B4
:1025D000184605B000BD00BFAFF30080AFF3008028
:1025E00000B587B00390029101920093039BDB69D1
:1025F00004934FF000030593019B002B05D14EF28D
:102600009450C0F60000FEF7BBFF4FF0200383F3A9
:102610001188FEF745FE0EE003980099FFF7B8FD1C
:102620000346002B07D0FEF75BFE4FF0000383F359
:102630001188059B41E0039B9B68002BECD0039B1A
:102640009B6803F1FF32039B9A60039B5B69029ACC
:1026500012781A7003F10102039B5A61029B03F185
:1026600001030293039B5A69039B1B699A4203D39C
:10267000039BDA68039B5A61049B002B02D0049BE6
:1026800003989847FEF72CFE4FF0000383F3118860
:10269000059B03F101030593019B03F1FF330193B4
:1026A000019B002B01D1059B07E04FF0200383F332
:1026B0001188FEF7F5FD00BFBDE7184607B000BD65
:1026C00046F62023C2F2000303F1070323F00703B9
:1026D0001A4641F25423C2F200031A604CF200037E
:1026E000C2F2010323F007031A4641F25823C2F253
:1026F00000031A60704700BFAFF30080AFF30080A3
:1027000000B585B001904FF0200383F31188FEF7E8
:10271000C7FD019800F00CF80390FEF7E1FD4FF0C3
:10272000000383F31188039B184605B000BD00BF6A
:1027300000B585B00190FEF793FE019B03F10703FE
:1027400023F00703019341F25823C2F200031B68F0
:102750001A4641F25423C2F200031B68D31A1A46E8
:10276000019B9A4202D24FF0000312E041F254233F
:10277000C2F200031B68039341F25423C2F2000328
:102780001A68019BD21841F25423C2F200031A6066
:10279000039B184605B000BDAFF30080AFF3008087
:1027A00008B541F26023C2F2000342F20172C0F6A2
:1027B00000021A6041F26023C2F200034FF00002EF
:1027C0009A6041F26023C2F200034FF00002DA6027
:1027D0000148FFF7ADFB08BD70120020AFF3008089
:1027E00008B501F025FC4FF28000C0F6000003F0B0
:1027F000BFFE00F015F800F0C3F800F011F900F08A
:1028000027F900F065FE00F0C3FA00F011FF00F0B8
:102810003FFA04F0C5FC08BDAFF30080AFF30080C1
:1028200008B502F035F808BDAFF30080AFF30080C3
:1028300000B583B00190019B4FF001021A70019B1B
:102840004FF000025A60019B4FF000029A60019B1A
:102850004FF00002DA60019B4FF000021A61019B09
:102860004FF000025A61019B03F118031846FFF76D
:102870005FFB03B000BD00BFAFF30080AFF300808B
:1028800000B583B001900091019B002B05D14EF261
:10289000B050C0F60000FEF773FE4FF0200383F344
:1028A0001188FEF7FDFC019B1B78012B09D0019BD1
:1028B0001B78022B05D04EF2C050C0F60000FEF788
:1028C0005FFE019B009A5A60019802F049F8019B53
:1028D0004FF002021A70FEF703FD4FF0000383F37E
:1028E000118803B000BD00BFAFF30080AFF30080DC
:1028F00000B585B00390029101920093FEF7B0FD00
:10290000039B002B0DD0029B002B0AD0019B002BB8
:1029100007D0009B012B0AD0009B03F00103002B82
:1029200005D04EF2EC50C0F60000FEF729FE039BE6
:102930001B78022B0DD0039B1B78042B09D0039B23
:102940001B78052B05D04EF20460C0F60000FEF7A0
:1029500017FE039B019A9A60039B009ADA60039B1F
:10296000029A1A61039B4FF003021A70039802F057
:10297000BFF805B000BD00BFAFF30080AFF300802B
:1029800008B502F01DFC08BDAFF30080AFF3008076
:1029900082B00190019B4FF001021A70019B4FF031
:1029A00000025A6002B07047AFF30080AFF30080BE
:1029B00000B583B001900091019B002B02D0009BD9
:1029C000002B05D14EF2C060C0F60000FEF7D8FD26
:1029D0004FF0200383F31188FEF762FC019B1B7804
:1029E000012B09D0019B1B78022B05D04EF2D06041
:1029F000C0F60000FEF7C4FD019B009A5A600198E2
:102A000002F0E6FB019B4FF002021A70FEF768FC31
:102A10004FF0000383F3118803B000BDAFF30080D3
:102A200008B502F06DFD08BDAFF30080AFF3008084
:102A300082B00190019B4FF001021A70019B4FF090
:102A400000025A6002B07047AFF30080AFF300801D
:102A500008B502F01DFE08BDAFF30080AFF30080A3
:102A600082B00190019B4FF001021A70019B4FF060
:102A700000025A6002B07047AFF30080AFF30080ED
:102A800000B583B001900091019B002B02D0009B08
:102A9000002B05D14EF29070C0F60000FEF770FDDD
:102AA0004FF0200383F31188FEF7FAFB019B1B789C
:102AB000012B09D0019B1B78022B05D04EF2A07090
:102AC000C0F60000FEF75CFD019B009A5A60019879
:102AD00002F0F6FD019B4FF002021A70FEF700FCB7
:102AE0004FF0000383F3118803B000BDAFF3008003
:102AF00000B583B00190019B002B05D14EF2CC7044
:102B0000C0F60000FEF73CFD4FF0200383F3118870
:102B1000FEF7C6FB019B1B78022B05D04EF2DC7042
:102B2000C0F60000FEF72CFD019802F0B9FE019BF3
:102B30004FF003021A70FEF7D3FB4FF0000383F34C
:102B4000118803B000BD00BFAFF30080AFF3008079
:102B500000B589B0039002910192029A019B9A42BA
:102B600004D3029A019BD31A1F2B05D94EF61000ED
:102B7000C0F60000FEF704FD019B4FEA53130793D4
:102B8000019B03F01F030693029B4FEA5313059327
:102B9000029B03F01F0303F101034FF0010202FA4D
:102BA00003F303F1FF330493079A059B9A4217D26C
:102BB000079B4FEA8303039AD3181A68069B22FAED
:102BC00003F2059B4FEA83030399CB181968049B12
:102BD0001940069BC3F1200301FA03F313430AE0F3
:102BE000079B4FEA8303039AD3181A68049B1A4081
:102BF000069B22FA03F3184609B000BDAFF300802C
:102C000000B587B00190019B03F10C031B684FEAEC
:102C10009373002B02D0012B26D032E001984FF0A5
:102C200049014FF03E02FFF793FF059001984FF0E6
:102C300031014FF02F02FFF78BFF049001984FF006
:102C400053014FF05002FFF783FF0390059B03F100
:102C50000102049B03F1020302FA03F2039BA3F1B6
:102C6000090302FA03F30EE001984FF045014FF01B
:102C70003002FFF76DFF034603F101034FEA8323A0
:102C800001E04FF00003184607B000BDAFF300802D
:102C900008B503F0EDFC08BDAFF30080AFF3008092
:102CA00000B583B001900091019B002B02D0009BE6
:102CB000002B05D14EF64000C0F60000FEF760FC88
:102CC0004FF0200383F31188FEF7EAFA0198009988
:102CD00003F03EFDFEF704FB4FF0000383F3118881
:102CE00003B000BDAFF30080AFF30080AFF300800E
:102CF00000B583B00190019B002B05D14EF630004A
:102D0000C0F60000FEF73CFC019803F069FD0346A5
:102D1000184603B000BD00BFAFF30080AFF30080E2
:102D200000B585B00190019B9A6B03AB01984FF001
:102D30000D0103F08DF90346002B07D1039A4EF2E3
:102D40000803CFF6FF531340002B02D04FF00103CE
:102D500015E0039B4FEA532303F00F03042B04D029
:102D6000042B0AD3072B08D802E04FF0000306E03B
:102D70004FF00100FFF744F8D5E74FF00103184684
:102D800005B000BDAFF30080AFF30080AFF300806B
:102D900008B502F0DDFF08BDAFF30080AFF300809F
:102DA00082B00190019A4EF67073C0F60003136072
:102DB000019B4FF001021A71019B4FF000025A6310
:102DC000019B4FF00002DA62019B4FF000029A6211
:102DD00002B07047AFF30080AFF30080AFF3008024
:102DE00000B583B001900091019B002B05D14EF6F8
:102DF0007000C0F60000FEF7C3FB4FF0200383F322
:102E00001188FEF74DFA019B1B79012B09D0019B1C
:102E10001B79022B05D04EF68000C0F60000FEF7AD
:102E2000AFFB019B009ADA62019802F0B1FF019BAF
:102E30004FF002021A71FEF753FA4FF0000383F3CA
:102E4000118803B000BD00BFAFF30080AFF3008076
:102E500000B587B00190019B002B05D14EF6AC0068
:102E6000C0F60000FEF78CFB019B1B79022B09D0FA
:102E7000019B1B79052B05D04EF6BC00C0F6000067
:102E8000FEF77EFB019B4FF003021A71019802F0DE
:102E9000EFFF01984FF000014FF0000203F068F8D7
:102EA00003AB01984FF008014FF4D57203F0D0F84E
:102EB000034683F00103DBB2002B21D0019B4FF0CE
:102EC00001021A63039B4FEA132303F00F03012B44
:102ED00040F0FA8003AB01984FF037014FF0000249
:102EE00003F0B6F80346002B40F0FD80039A4EF243
:102EF0000803CFF6FF531340002B40F0F48003E0AB
:102F0000019B4FF000021A63019B1B6B03F00F0340
:102F1000012B05D14FF00003CCF21003049304E021
:102F20004FF00003C8F2100304934FF00003059321
:102F300003AB01984FF037014FF0000203F088F81F
:102F40000346002B40F0CF80039A4EF20803CFF6E1
:102F5000FF531340002B40F0C68003AB01984FF0A5
:102F60002901049A03F02CF80346002B40F0AE80B0
:102F7000039B002B0BDA039B03F08043002B13D041
:102F8000019B1B6B43F01002019B1A630CE0059B35
:102F900003F101030593059B632B00F299804FF029
:102FA0000A00FEF72DFFC3E700BF019B03F10803F2
:102FB00001984FF002014FF0000203F091F8034630
:102FC000002B40F08780019B03F1380301984FF0FC
:102FD00003014FF0000203F03BF80346002B7BD1C6
:102FE000019B9A6B019B03F1180301984FF00901B3
:102FF00003F076F80346002B70D1019802F060FFD1
:10300000019B9A6B03AB01984FF0070103F020F886
:103010000346002B64D103AB01984FF010014FF42D
:10302000007203F015F80346002B5CD1039A4EF2B0
:103030000803CFF6FF531340002B54D1019B1B6BA9
:1030400003F00F03012B2BD801984FF0010102F080
:103050005FFF019B9A6B03AB01984FF0370102F0C1
:10306000F7FF0346002B3ED1039A4EF20803CFF63A
:10307000FF531340002B36D103AB01984FF00601EC
:103080004FF0020202F0E4FF0346002B2BD1039A1B
:103090004EF20803CFF6FF531340002B23D100BF9D
:1030A000019B03F118031846FFF7AAFD0246019B96
:1030B0009A62019B9B6A002B14D0019B4FF0050282
:1030C0001A714FF0000317E000BF0CE000BF0AE0E8
:1030D00000BF08E000BF06E000BF04E000BF02E060
:1030E00000BF00E000BF019802F0FAFE019B4FF024
:1030F00002021A714FF00103184607B000BD00BF6D
:1031000000B583B00190019B002B05D14EF6D00095
:10311000C0F60000FEF734FA4FF0200383F3118865
:10312000FEF7BEF8019B1B79022B09D0019B1B798E
:10313000052B05D04EF6E400C0F60000FEF720FA9D
:10314000019B1B79022B08D1FEF7CAF84FF0000350
:1031500083F311884FF0000322E0019B4FF004023B
:103160001A71FEF7BDF84FF0000383F31188019840
:10317000FFF7D6FD0346002B09D0019802F0B0FE00
:10318000019B4FF002021A714FF0010308E0019811
:1031900002F0A6FE019B4FF002021A714FF00003ED
:1031A000184603B000BD00BFAFF30080AFF300804E
:1031B00000B587B00390029101920093039B002B0E
:1031C00005D0019B002B02D0009B002B05D14EF6B1
:1031D000F800C0F60000FEF7D3F9039B1B79052B1E
:1031E00005D04EF60410C0F60000FEF7C9F9029AA9
:1031F000009BD31803F1FF32039B9B6A9A4208D9C4
:10320000039B5B6B43F08002039B5A634FF0010307
:1032100012E0039B4FF006021A7103980299019A7B
:10322000009B03F0D5F803468DF81730039B4FF051
:1032300005021A719DF81730184607B000BD00BF8F
:1032400000B587B00390029101920093039B002B7D
:1032500005D0019B002B02D0009B002B05D14EF620
:103260001410C0F60000FEF78BF9039B1B79052BA9
:1032700005D04EF62410C0F60000FEF781F9029A40
:10328000009BD31803F1FF32039B9B6A9A4208D933
:10329000039B5B6B43F08002039B5A634FF0010377
:1032A00012E0039B4FF007021A7103980299019AEA
:1032B000009B03F0DDF803468DF81730039B4FF0B9
:1032C00005021A719DF81730184607B000BD00BFFF
:1032D00000B585B00190019B002B05D14EF66C1016
:1032E000C0F60000FEF74CF9019B1B79052B02D0BC
:1032F0004FF001030FE0019B4FF008021A71019893
:1033000003F006F903468DF80F30019B4FF00502DC
:103310001A719DF80F30184605B000BDAFF300805C
:1033200000B583B001900091019B002B02D0009B5F
:10333000002B05D14EF67810C0F60000FEF720F9FC
:10334000019B1B79052B02D04FF0010309E0019B83
:103350009A6A009B5A60009B4FF400721A604FF00B
:103360000003184603B000BDAFF30080AFF3008048
:1033700000B585B0039002910192039B03F13003E5
:1033800018460299019A4FF0FF33FFF729F90346D7
:10339000184605B000BD00BFAFF30080AFF300805A
:1033A00000B585B0039002910192039B03F10C03D9
:1033B00018460299019A4FF0FF33FEF7D9FF0346F2
:1033C000184605B000BD00BFAFF30080AFF300802A
:1033D00000B583B001900B468DF80330019B03F1DB
:1033E00030029DF80330104619464FF0FF32FFF7C8
:1033F00057F80346184603B000BD00BFAFF3008086
:1034000000B583B00190019B03F10C0318464FF007
:10341000FF31FEF75DFF0346184603B000BD00BF55
:1034200000B585B003900B4601928DF80B30039BDD
:1034300003F130029DF80B3010461946019AFFF750
:103440002FF80346184605B000BD00BFAFF300805B
:1034500000B583B001900091019B03F10C03184665
:103460000099FEF735FF0346184603B000BD00BFC4
:1034700000B585B00390029101920093039B03F184
:10348000300318460299019A009BFFF7A9F80346FA
:10349000184605B000BD00BFAFF30080AFF3008059
:1034A00000B585B00390029101920093039B03F154
:1034B0000C0318460299019A009BFEF759FF034638
:1034C000184605B000BD00BFAFF30080AFF3008029
:1034D00008B503F0B5FD08BDAFF30080AFF3008081
:1034E00000B587B0059004910392059A4EF690734B
:1034F000C0F600031360059B03F10402059B5A60AC
:10350000059B4FF001021A72059B03F10C02059B0B
:1035100003F1540305990091104619464FF04002FB
:10352000049BFEF75DFE059B03F13002059B03F152
:10353000940305990091104619464FF04002039BF1
:10354000FEF786FF07B000BDAFF30080AFF3008049
:1035500000B583B001900091019B002B05D14EF680
:10356000B010C0F60000FEF70BF84FF0200383F315
:103570001188FDF795FE019B1B7A012B09D0019B59
:103580001B7A022B05D04EF6BC10C0F60000FDF7EA
:10359000F7FF0198009903F083FD019B4FF00202B1
:1035A0001A72FDF79DFE4FF0000383F3118803B0FC
:1035B00000BD00BFAFF30080AFF30080AFF3008029
:1035C00000B583B001900B468DF80330FDF748FF3E
:1035D000019B002B05D14EF6E810C0F60000FDF768
:1035E000CFFF019B5B69002B07D1019B03F1040313
:1035F00018464FF00401FEF7BBFC019B03F10C02DF
:103600009DF8033010461946FEF712FE0346002BC4
:1036100007DA019B03F1040318464FF08001FEF71F
:10362000A7FC03B000BD00BFAFF30080AFF3008084
:1036300008B503F035FA08BDAFF30080AFF30080A2
:1036400000B583B00190019B4FF001021A70019BFD
:103650004FF000025A60019B4FF000029A60019BFC
:1036600003F10C031846FEF763FC03B000BD00BF76
:1036700000B583B001900091019B002B02D0009B0C
:10368000002B05D14EF61020C0F60000FDF778FFA4
:103690004FF0200383F31188FDF702FE019B1B7896
:1036A000012B09D0019B1B78022B05D04EF6202060
:1036B000C0F60000FDF764FF019B009A5A60019874
:1036C00003F02EFA019B4FF002021A70FDF708FE7C
:1036D0004FF0000383F3118803B000BDAFF3008007
:1036E00000B583B00190019B002B05D14EF64C2014
:1036F000C0F60000FDF744FF4FF0200383F311886C
:10370000FDF7CEFD019B1B78022B05D04EF65C2009
:10371000C0F60000FDF734FF019803F0A1FAFDF7B1
:10372000DFFD4FF0000383F3118803B000BD00BF3D
:1037300000B583B00190019B002B05D14EF66C20A3
:10374000C0F60000FDF71CFF4FF0200383F3118843
:10375000FDF7A6FD019B1B78022B05D04EF67C20C1
:10376000C0F60000FDF70CFF019803F089FAFDF7A1
:10377000B7FD4FF0000383F3118803B000BD00BF15
:1037800000B583B0FDF70CFE4FF4C043C4F2020352
:103790001B6803F03D0301934FF4C043C4F20203DE
:1037A0004FF03D029A6041F28423C2F200031B688D
:1037B000002B0CD041F28423C2F200031A6841F2BC
:1037C0008423C2F200035B68184601999047FDF715
:1037D00017FEFDF745FB03B000BD00BFAFF300804F
:1037E00000B583B0FDF7DCFD4FF4C043C4F2020323
:1037F0001B684FEA931303F03D0301934FF4C0435A
:10380000C4F202034FF474629A6041F28423C2F25C
:1038100000039B68002B0CD041F28423C2F200030A
:103820009A6841F28423C2F20003DB6818460199CA
:103830009047FDF7E5FDFDF713FB03B000BD00BFAA
:1038400000B583B0FDF7ACFD4FF4C043C4F20203F2
:103850001B684FEA134303F03D0301934FF4C04349
:10386000C4F202034FF474129A6041F28423C2F24C
:1038700000031B69002B0CD041F28423C2F2000329
:103880001A6941F28423C2F200035B691846019968
:103890009047FDF7B5FDFDF7E3FA03B000BD00BFAB
:1038A00000B583B0FDF77CFD4FF4C043C4F20203C2
:1038B0001B684FEA935303F03D0301934FF4C04359
:1038C000C4F202034FF074629A6041F28423C2F2A0
:1038D00000039B69002B0CD041F28423C2F2000349
:1038E0009A6941F28423C2F20003DB691846019908
:1038F0009047FDF785FDFDF7B3FA03B000BD00BFAB
:1039000000B583B0FDF74CFD4FF4C043C4F2020391
:103910005B6803F03D0301934FF4C043C4F202031C
:103920004FF03D02DA6041F28423C2F200031B6AC9
:10393000002B0CD041F28423C2F200031A6A41F238
:103940008423C2F200035B6A184601999047FDF791
:1039500057FDFDF785FA03B000BD00BFAFF300804F
:1039600000B583B0FDF71CFD4FF4C043C4F2020361
:103970005B684FEA931303F03D0301934FF4C04398
:10398000C4F202034FF47462DA6041F28423C2F29B
:1039900000039B6A002B0CD041F28423C2F2000387
:1039A0009A6A41F28423C2F20003DB6A1846019945
:1039B0009047FDF725FDFDF753FA03B000BD00BFAA
:1039C00000B583B0FDF7ECFC4FF4C043C4F2020332
:1039D0005B684FEA134303F03D0301934FF4C04388
:1039E000C4F202034FF47412DA6041F28423C2F28B
:1039F00000031B6B002B0CD041F28423C2F20003A6
:103A00001A6B41F28423C2F200035B6B18460199E2
:103A10009047FDF7F5FCFDF723FA03B000BD00BFAA
:103A200000B583B0FDF7BCFC4FF4C043C4F2020301
:103A30005B684FEA935303F03D0301934FF4C04397
:103A4000C4F202034FF07462DA6041F28423C2F2DE
:103A500000039B6B002B0CD041F28423C2F20003C5
:103A60009A6B41F28423C2F20003DB6B1846019982
:103A70009047FDF7C5FCFDF7F3F903B000BD00BFAB
:103A800000B583B0FDF78CFC4FF4C843C4F20203C9
:103A90001B6803F03D0301934FF4C843C4F20203D3
:103AA0004FF03D029A6041F28423C2F200031B6C86
:103AB000002B0CD041F28423C2F200031A6C41F2B5
:103AC0008423C2F200035B6C184601999047FDF70E
:103AD00097FCFDF7C5F903B000BD00BFAFF3008050
:103AE00000B583B0FDF75CFC4FF4C843C4F2020399
:103AF0001B684FEA931303F03D0301934FF4C8434F
:103B0000C4F202034FF474629A6041F28423C2F259
:103B100000039B6C002B0CD041F28423C2F2000303
:103B20009A6C41F28423C2F20003DB6C18460199BF
:103B30009047FDF765FCFDF793F903B000BD00BFAA
:103B400000B583B0FDF72CFC4FF4C843C4F2020368
:103B50001B684FEA134303F03D0301934FF4C8433E
:103B6000C4F202034FF474129A6041F28423C2F249
:103B700000031B6D002B0CD041F28423C2F2000322
:103B80001A6D41F28423C2F200035B6D184601995D
:103B90009047FDF735FCFDF763F903B000BD00BFAA
:103BA00000B583B0FDF7FCFB4FF4C843C4F2020339
:103BB0001B684FEA935303F03D0301934FF4C8434E
:103BC000C4F202034FF074629A6041F28423C2F29D
:103BD00000039B6D002B0CD041F28423C2F2000342
:103BE0009A6D41F28423C2F20003DB6D18460199FD
:103BF0009047FDF705FCFDF733F903B000BD00BFAA
:103C000000B583B0FDF7CCFB4FF4C843C4F2020308
:103C10005B6803F03D0301934FF4C843C4F2020311
:103C20004FF03D02DA6041F28423C2F200031B6EC2
:103C3000002B0CD041F28423C2F200031A6E41F231
:103C40008423C2F200035B6E184601999047FDF78A
:103C5000D7FBFDF705F903B000BD00BFAFF300804F
:103C600000B583B0FDF79CFB4FF4C843C4F20203D8
:103C70005B684FEA931303F03D0301934FF4C8438D
:103C8000C4F202034FF47462DA6041F28423C2F298
:103C900000039B6E002B0CD041F28423C2F2000380
:103CA0009A6E41F28423C2F20003DB6E184601993A
:103CB0009047FDF7A5FBFDF7D3F803B000BD00BFAB
:103CC00000B583B0FDF76CFB4FF4C843C4F20203A8
:103CD0005B684FEA134303F03D0301934FF4C8437D
:103CE000C4F202034FF47412DA6041F28423C2F288
:103CF00000031B6F002B0CD041F28423C2F200039F
:103D00001A6F41F28423C2F200035B6F18460199D7
:103D10009047FDF775FBFDF7A3F803B000BD00BFAA
:103D200000B583B0FDF73CFB4FF4C843C4F2020377
:103D30005B684FEA935303F03D0301934FF4C8438C
:103D4000C4F202034FF07462DA6041F28423C2F2DB
:103D500000039B6F002B0CD041F28423C2F20003BE
:103D60009A6F41F28423C2F20003DB6F1846019977
:103D70009047FDF745FBFDF773F803B000BD00BFAA
:103D800082B041F28023C2F200034FF000021A60B9
:103D90004FF0000301931CE04EF6B072C0F6000233
:103DA00001990B464FEA43035B184FEA8303D3188C
:103DB0001B684FF000021A6041F28423C2F2000334
:103DC000019A4FF0000143F83210019B03F1010307
:103DD0000193019B0F2BDFDD4FF4C043C4F20203BC
:103DE0004FF0FF329A604FF4C043C4F202034FF029
:103DF000FF32DA604FF4C843C4F202034FF0FF32DF
:103E00009A604FF4C843C4F202034FF0FF32DA6005
:103E100002B07047AFF30080AFF30080AFF30080D3
:103E200000B585B00390029101920093039B002B93
:103E300005D14EF65040C0F60000FDF7A1FB039BF4
:103E40005B7A4FF0010202FA03F31A4641F2802333
:103E5000C2F200031B681340002B02D04FF0010395
:103E600080E0039B5B7A1A4641F28423C2F200038E
:103E7000019943F83210039B5B7A41F28422C2F22B
:103E800000024FEAC303D318009A5A60039B5B7A7F
:103E90004FF0010202FA03F31A4641F28023C2F204
:103EA00000031B681A4341F28023C2F200031A6028
:103EB00041F28023C2F200031B68DBB2002B0BD05F
:103EC0004FF46053C4F202034FF46052C4F2020292
:103ED000126B42F400121A6341F28023C2F2000313
:103EE0001B6803F47F43002B0BD04FF46053C4F2E4
:103EF00002034FF46052C4F20202126B42F48002D9
:103F00001A63039B1B68039A1268126822F01F024F
:103F10001A60039B1B681B6803F00103002BF8D198
:103F2000039B5B68039A127A4FF03D0101FA02F29B
:103F30001A60039B1B684FF000021A60039B1B680A
:103F40004FF021025A61019B002B09D0039B9B7A01
:103F50001A46029B4FEA031310461946FDF720F854
:103F60004FF00003184605B000BD00BFAFF300805E
:103F70004FF4E043C4F200034FF4E042C4F2000205
:103F8000126842F480721A604FF46053C4F2020364
:103F90001B6F03F44073B3F5807F0DD04FF4605373
:103FA000C4F202034FF480321A674FF46053C4F234
:103FB00002034FF000021A674FF46053C4F2020389
:103FC0004FF46052C4F20202126F42F001021A670B
:103FD00000BF4FF46053C4F202031B6F03F00203EF
:103FE000002BF6D04FF46053C4F202031B6F03F4AE
:103FF0000043002B17D14FF46053C4F202034FF477
:104000006052C4F20202126F42F480721A674FF4D7
:104010006053C4F202034FF46052C4F20202126F02
:1040200042F400421A677047AFF30080AFF300809C
:1040300008B54FF46053C4F202031B694FF4605398
:10404000C4F202034FF0FF321A614FF46053C4F21E
:1040500002034FF000021A614FF46053C4F20203EE
:104060005B694FF46053C4F202034FF0FF325A61B0
:104070004FF46053C4F202034FF000025A614FF450
:104080006053C4F202039B694FF46053C4F202030D
:104090004FF0FF329A614FF46053C4F202034FF0C5
:1040A00000029A614FF46053C4F202034FF460526D
:1040B000C4F20202126A62F080521A624FF4605334
:1040C000C4F202034FF000021A624FF46053C4F2CC
:1040D00002035B6A4FF46053C4F202034FF0FF32F5
:1040E0005A624FF46053C4F202034FF000025A6266
:1040F0004EF21003CEF2000349F23F02C0F2020278
:104100005A604EF21003CEF200034FF000029A60A4
:104110004EF21003CEF200034FF007021A604EF683
:10412000F053CEF200034EF6F052CEF20002D26807
:1041300042F08072DA604FF48053CEF200034FF405
:104140008052CEF20002126842F001021A604FF46F
:104150006053C4F202034FF46052C4F20202126CC4
:1041600042F080521A64FFF703FFFFF709FE08BD13
:104170004FF46053C4F202034FF080521A644FF4BC
:10418000E043C4F200034FF480421A6000BF4FF4D2
:10419000E043C4F200035B6803F48043002BF6D0D5
:1041A0004FF46053C4F202034FF46052C4F20202AF
:1041B000126842F001021A6000BF4FF46053C4F26B
:1041C00002031B6803F00203002BF6D04FF4605388
:1041D000C4F202034FF46052C4F20202126842F4C5
:1041E00080321A6000BF4FF46053C4F202031B68B0
:1041F00003F40033002BF6D04FF46053C4F20203F3
:104200004FF46052C4F20202526F42F001025A6748
:1042100000BF4FF46053C4F202035B6F03F002036C
:10422000002BF6D04FF46053C4F202031B6F03F06F
:104230000103002B23D14FF4E043C4F200034FF4F9
:10424000E042C4F20002126842F480721A604FF435
:104250006053C4F202034FF46052C4F20202126FC0
:1042600042F001021A674FF4E043C4F200034FF436
:10427000E042C4F20002126822F480721A6000BFA9
:104280004FF46053C4F202031B6F03F00203002BD0
:10429000F6D04FF46053C4F2020345F21A42C0F262
:1042A00040725A604FF46053C4F202034FF46052FC
:1042B000C4F20202126842F080721A6000BF4FF42A
:1042C0006053C4F202031B6803F00073002BF6D0A6
:1042D0004FF46052C4F202024FF46053C4F202037E
:1042E00099684FF41443C3F608030B4393604FF4EB
:1042F0007053C4F2020340F205721A604FF4605327
:10430000C4F202034FF46052C4F20202926842F017
:1043100002029A6000BF4FF46053C4F202039B682C
:1043200003F00C03082BF6D14FF46053C4F20203E0
:104330004FF46052C4F20202526C42F480425A645A
:104340004FF46053C4F202034FF46052C4F202020D
:10435000526E42F480425A66704700BFAFF300804D
:1043600000B589B001900091009B03F00C03002B75
:104370003DD0019800F03CFC019B1B699B68002B21
:1043800012D0019B4FF005021A70019B1B699B68BC
:1043900001984FF000019847019B1B78052B03D132
:1043A000019B4FF002021A70019B4FF000021A614C
:1043B0004FF0200383F31188FCF7B2FF019B5B6988
:1043C000002B0DD0019B5B690793019B4FF000020E
:1043D0005A61079B4FF0FF329A620798FDF700FA87
:1043E000FCF7BEFF4FF0000383F31188B8E0019B98
:1043F0001B69002B00F0B480009B03F01003002B1E
:104400000FD0019B1B695B68002B0AD0019B1B69C5
:104410005B68019A9168019AD2684FEA520201984A
:104420009847009B03F02003002B00F09980019B2C
:104430001B691B78002B2DD0019B1B695B68002B2F
:1044400000F08E80019BDB68012B19D9019BDB6892
:104450004FEA53030693019B1B695B88069A02FB94
:1044600003F30593019B1B695B68019A9168059AA8
:104470004FEA42028A1801981146069A98476FE05F
:10448000019B1B695B68019A9168019AD268019847
:10449000984765E0019800F0ABFB019B1B695B68E6
:1044A000002B37D0019B4FF004021A70019BDB6890
:1044B000012B19D9019BDB684FEA53030493019B3D
:1044C0001B695B88049A02FB03F30393019B1B693E
:1044D0005B68019A9168039A4FEA42028A18019830
:1044E0001146049A984708E0019B1B695B68019A92
:1044F0009168019AD26801989847019B1B78042B18
:1045000010D1019B4FF002021A70019B4FF0000284
:104510001A6107E0019B4FF002021A70019B4FF0F5
:1045200000021A614FF0200383F31188FCF7F8FEB4
:10453000019B5B69002B0DD0019B5B690293019B82
:104540004FF000025A61029B4FF000029A620298FB
:10455000FDF746F9FCF704FF4FF0000383F31188E1
:1045600009B000BDAFF30080AFF30080AFF300806F
:1045700000B585B0FCF714FF4FF40053C4F20103FB
:104580001B6803934FF40053C4F201034FF0000281
:104590001A60039B03F02003002B6DD041F204331B
:1045A000C2F20003DB6A1B685B68002B64D041F237
:1045B0000433C2F200031B69002B5DD041F20430CA
:1045C000C2F2000000F014FB41F20433C2F2000317
:1045D0001B699B68002B21D041F20433C2F2000317
:1045E0004FF005021A7041F20433C2F200031B6956
:1045F0009B6841F20430C2F200004FF0010198477D
:1046000041F20433C2F200031B78052B06D141F2BC
:104610000433C2F200034FF002021A7041F2043375
:10462000C2F200034FF000021A614FF0200383F33F
:104630001188FCF775FE41F20433C2F200035B6996
:10464000002B13D041F20433C2F200035B690293E2
:1046500041F20433C2F200034FF000025A61029BA0
:104660004FF0FF329A620298FDF7BAF8FCF778FE35
:104670004FF0000383F311884FF40453C4F2010395
:104680001B6803934FF40453C4F201034FF000027C
:104690001A60039B03F02003002B6DD041F23833E6
:1046A000C2F20003DB6A1B685B68002B64D041F236
:1046B0003833C2F200031B69002B5DD041F2383061
:1046C000C2F2000000F094FA41F23833C2F2000363
:1046D0001B699B68002B21D041F23833C2F20003E2
:1046E0004FF005021A7041F23833C2F200031B6921
:1046F0009B6841F23830C2F200004FF00101984748
:1047000041F23833C2F200031B78052B06D141F287
:104710003833C2F200034FF002021A7041F238330C
:10472000C2F200034FF000021A614FF0200383F33E
:104730001188FCF7F5FD41F23833C2F200035B69E2
:10474000002B13D041F23833C2F200035B690193AE
:1047500041F23833C2F200034FF000025A61019B6C
:104760004FF0FF329A620198FDF73AF8FCF7F8FD36
:104770004FF0000383F311884FF40853C4F2010390
:104780001B6803934FF40853C4F201034FF0000277
:104790001A60039B03F02003002B6DD041F26C33B1
:1047A000C2F20003DB6A1B685B68002B64D041F235
:1047B0006C33C2F200031B69002B5DD041F26C30F8
:1047C000C2F2000000F014FA41F26C33C2F20003AE
:1047D0001B699B68002B21D041F26C33C2F20003AD
:1047E0004FF005021A7041F26C33C2F200031B69EC
:1047F0009B6841F26C30C2F200004FF00101984713
:1048000041F26C33C2F200031B78052B06D141F252
:104810006C33C2F200034FF002021A7041F26C33A3
:10482000C2F200034FF000021A614FF0200383F33D
:104830001188FCF775FD41F26C33C2F200035B692D
:10484000002B13D041F26C33C2F200035B6900937A
:1048500041F26C33C2F200034FF000025A61009B38
:104860004FF0FF329A620098FCF7BAFFFCF778FD30
:104870004FF0000383F31188FCF7C2FDFCF7F0FA58
:1048800005B000BDAFF30080AFF30080AFF3008050
:1048900008B541F20430C2F20000FDF7C9FF41F251
:1048A0000433C2F200034FF40052C4F201029A62D0
:1048B00041F20433C2F20003264ADA6241F20433C1
:1048C000C2F2000342F61642C0F202021A6341F23B
:1048D0003830C2F20000FDF7ABFF41F23833C2F2CC
:1048E00000034FF40452C4F201029A6241F23833D9
:1048F000C2F20003184ADA6241F23833C2F200030E
:1049000042F61642C0F202221A6341F26C30C2F241
:104910000000FDF78DFF41F26C33C2F200034FF44B
:104920000852C4F201029A6241F26C33C2F20003EF
:104930000A4ADA6241F26C33C2F2000342F61642CE
:10494000C0F202421A634FF012004FF05001FCF720
:1049500027FB08BD40F0000828F000081CF0000804
:1049600000B585B00190019B1B78012B40F0B98008
:10497000019A41F20433C2F200039A422CD1019B06
:10498000DB6A18464FF0050144F26132C0F60002BE
:10499000019BFFF745FA03468DF80F309DF80F3065
:1049A000002B05D04EF6A040C0F60000FCF7E8FD55
:1049B000019BDB6A1A6842F24C03C4F20103936064
:1049C0004FF46053C4F202034FF46052C4F2020287
:1049D000526C42F480725A64019A41F23833C2F246
:1049E00000039A422CD1019BDB6A18464FF0050167
:1049F00044F26132C0F60002019BFFF711FA034650
:104A00008DF80E309DF80E30002B05D04EF6B440D8
:104A1000C0F60000FCF7B4FD019BDB6A1A6842F2A5
:104A20004C13C4F2010393604FF46053C4F20203C9
:104A30004FF46052C4F20202526C42F400725A64A3
:104A4000019A41F26C33C2F200039A422CD1019BCD
:104A5000DB6A18464FF0050144F26132C0F60002ED
:104A6000019BFFF7DDF903468DF80D309DF80D3001
:104A7000002B05D04EF6C840C0F60000FCF780FDC4
:104A8000019BDB6A1A6842F24C23C4F20103936073
:104A90004FF46053C4F202034FF46052C4F20202B6
:104AA000526C42F480625A644FF40C53C4F2010316
:104AB0004FF40C52C4F20102526802F4400242F474
:104AC00080325A60019B9B6A4FF000025A60019B42
:104AD0009B6A4FF000029A60019B9B6A4FF00102B3
:104AE0009A6005B000BD00BFAFF30080AFF3008057
:104AF00084B00190019B1B690293019B1B6B039384
:104B0000029B1B78002B03D0039B43F48073039319
:104B1000019BDB68012B03D9039B43F0080303933C
:104B2000019BDB6A1B68019A9268DA60019BDB6A71
:104B30001B68029A52880199C96801FB02F25A6007
:104B4000019BDB6A1B68039A1A60019BDB6A1B6886
:104B5000019AD26A1268126842F001021A60019B3F
:104B60009B6A4FF000021A60019B9B6A029A52698D
:104B7000DA60019B9B6A029A92691A61019B9B6AA7
:104B8000029AD269DA62019B9B6A029A126A1A63DC
:104B9000019B9B6A029A526A5A63019B9A6A029B22
:104BA000DB6843F0806343F480735360029B1B69AE
:104BB00003F08043002B09D0019B9A6A029B1B697A
:104BC00043F4407343F00303936008E0019B9A6A47
:104BD000029B1B6943F4407343F00103936004B0EC
:104BE000704700BFAFF30080AFF30080AFF30080E9
:104BF00082B00190019BDB6A1B68019AD26A12683D
:104C0000126822F01F021A60019BDB6A1B681B6896
:104C100003F00103002BF7D1019BDB6A5B68019A6B
:104C2000D26A127A4FF03D0101FA02F21A60019B3A
:104C30009B6A4FF000025A60019B9B6A4FF0000292
:104C40009A60019B9B6A4FF001029A6002B0704724
:104C50004FF40C53C4F201034FF40C52C4F201029E
:104C6000526842F400025A60704700BFAFF3008000
:104C70004FF40C53C4F201034FF40C52C4F201027E
:104C8000526842F480025A60704700BFAFF3008060
:104C900008B5FCF785FB4FF47053C4F201034FF0E5
:104CA00001025A6141F2A033C2F200035B685B6803
:104CB00041F2A030C2F200004FF000019847FCF72B
:104CC0009FFBFCF7CDF808BDAFF30080AFF3008089
:104CD00008B5FCF765FB4FF47053C4F201034FF0C5
:104CE00002025A6141F2A033C2F200035B68DB6842
:104CF00041F2A030C2F200004FF001019847FCF7EA
:104D00007FFBFCF7ADF808BDAFF30080AFF3008088
:104D100008B5FCF745FB4FF47053C4F201034FF0A4
:104D200004025A6141F2A033C2F200035B685B697E
:104D300041F2A030C2F200004FF002019847FCF7A8
:104D40005FFBFCF78DF808BDAFF30080AFF3008088
:104D500008B5FCF725FB4FF47053C4F201034FF084
:104D600008025A6141F2A033C2F200035B68DB69BA
:104D700041F2A030C2F200004FF003019847FCF767
:104D80003FFBFCF76DF808BDAFF30080AFF3008088
:104D900008B5FCF705FB4FF47053C4F201034FF064
:104DA00010025A6141F2A033C2F200035B685B6AF1
:104DB00041F2A030C2F200004FF004019847FCF726
:104DC0001FFBFCF74DF808BDAFF30080AFF3008088
:104DD00000B583B0FCF7E4FA4FF47053C4F201035A
:104DE0005B6903F4787301934FF47053C4F20103C9
:104DF000019A5A61019B03F02003002B0CD041F271
:104E0000A033C2F200035B68DB6A41F2A030C2F259
:104E100000004FF005019847019B03F04003002B71
:104E20000CD041F2A033C2F200035B685B6B41F22D
:104E3000A030C2F200004FF006019847019B03F03A
:104E40008003002B0CD041F2A033C2F200035B6858
:104E5000DB6B41F2A030C2F200004FF0070198472F
:104E6000019B03F48073002B0CD041F2A033C2F2FB
:104E700000035B685B6C41F2A030C2F200004FF0AF
:104E800008019847019B03F40073002B0CD041F2FA
:104E9000A033C2F200035B68DB6C41F2A030C2F2C7
:104EA00000004FF009019847FCF7AAFAFBF7D8FF7A
:104EB00003B000BDAFF30080AFF30080AFF300801C
:104EC00000B583B0FCF76CFA4FF47053C4F20103E1
:104ED0005B6903F47C4301934FF47053C4F2010304
:104EE000019A5A61019B03F48063002B0CD041F2BC
:104EF000A033C2F200035B685B6D41F2A030C2F2E6
:104F000000004FF00A019847019B03F40063002B57
:104F10000CD041F2A033C2F200035B68DB6D41F2BA
:104F2000A030C2F200004FF00B019847019B03F440
:104F30008053002B0CD041F2A033C2F200035B6817
:104F40005B6E41F2A030C2F200004FF00C019847B6
:104F5000019B03F40053002B0CD041F2A033C2F2AA
:104F600000035B68DB6E41F2A030C2F200004FF03C
:104F70000D019847019B03F48043002B0CD041F2B4
:104F8000A033C2F200035B685B6F41F2A030C2F253
:104F900000004FF00E019847019B03F40043002BE3
:104FA0000CD041F2A033C2F200035B68DB6F41F228
:104FB000A030C2F200004FF00F019847FCF720FA32
:104FC000FBF74EFF03B000BDAFF30080AFF30080EE
:104FD00008B5FCF7E5F94FF47053C4F201034FF440
:104FE00080325A6141F2A033C2F200035B68D3F809
:104FF000843041F2A030C2F200004FF01001984717
:10500000FCF7FEF9FBF72CFF08BD00BFAFF30080F3
:1050100008B5FCF7C5F94FF47053C4F201034FF41F
:1050200080225A6141F2A033C2F200035B68D3F8D8
:10503000943041F2A030C2F200004FF012019847C4
:10504000FCF7DEF9FBF70CFF08BD00BFAFF30080F3
:1050500008B5FCF7A5F94FF47053C4F201034FF4FF
:1050600000225A6141F2A033C2F200035B68D3F818
:105070009C3041F2A030C2F200004FF0130198477B
:10508000FCF7BEF9FBF7ECFE08BD00BFAFF30080F4
:1050900008B5FCF785F94FF47053C4F201034FF4DF
:1050A00080125A6141F2A033C2F200035B68D3F868
:1050B000A43041F2A030C2F200004FF01401984732
:1050C000FCF79EF9FBF7CCFE08BD00BFAFF30080F4
:1050D00008B5FCF765F94FF47053C4F201034FF4BF
:1050E00080025A6141F2A033C2F200035B68D3F838
:1050F000B43041F2A030C2F200004FF016019847E0
:10510000FCF77EF9FBF7ACFE08BD00BFAFF30080F3
:1051100008B54FF006004FF06001FBF741FF4FF07C
:1051200007004FF06001FBF73BFF4FF008004FF026
:105130006001FBF735FF4FF009004FF06001FBF70E
:105140002FFF4FF00A004FF06001FBF729FF4FF0EF
:1051500017004FF06001FBF723FF4FF028004FF0DE
:105160006001FBF71DFF4FF001004FF06001FBF7FE
:1051700017FF4FF029004FF0F001FBF711FF4FF040
:105180002A004FF06001FBF70BFF4FF03E004FF09D
:105190006001FBF705FF4FF04C004FF06001FBF79B
:1051A000FFFE4FF002004FF0F001FBF7F9FE4FF069
:1051B00003004FF0F001FBF7F3FE08BDAFF30080F2
:1051C00008B541F2A030C2F20000FDF7E1FB08BDD6
:1051D00000B585B00190019B1B78012B01D1FFF731
:1051E00097FF4FF00003039315E0019B5B68039A60
:1051F00053F8323003F00403002B04D001980399D4
:1052000000F00EF803E00198039900F0F1F8039B19
:1052100003F101030393039B162BE6D905B000BDF0
:1052200086B001900091019B5B68009A53F8323080
:1052300003F00103002B10D04FF47053C4F20103AC
:105240004FF47052C4F201029168009A4FF00100CD
:1052500000FA02F20A439A6011E04FF47053C4F26C
:1052600001034FF47052C4F201029168009A4FF0AA
:10527000010000FA02F26FEA02020A409A60019B02
:105280005B68009A53F8323003F00203002B10D011
:105290004FF47053C4F201034FF47052C4F2010290
:1052A000D168009A4FF0010000FA02F20A43DA6076
:1052B00011E04FF47053C4F201034FF47052C4F282
:1052C0000102D168009A4FF0010000FA02F26FEA81
:1052D00002020A40DA60019B5A68009B4FEAC3034E
:1052E000D3185B68002B22D04FF47053C4F2010333
:1052F0004FF47052C4F201021168009A4FF001009D
:1053000000FA02F20A431A604FF47053C4F2010328
:105310004FF47052C4F201025168009A4FF001003C
:1053200000FA02F26FEA02020A405A6021E04FF4EA
:105330007053C4F201034FF47052C4F20102516879
:10534000009A4FF0010000FA02F20A435A604FF44B
:105350007053C4F201034FF47052C4F20102116899
:10536000009A4FF0010000FA02F26FEA02020A40CE
:105370001A60009B0F2B36D8009B4FEA93030593CE
:10538000009B03F003034FEA83034FF00F0202FA7E
:1053900003F36FEA03030493019B5B68009A53F8DD
:1053A000323003F0F0034FEA1312009B03F00303C3
:1053B0004FEA830302FA03F303934FF46053C4F2FA
:1053C00001034FF46052C4F20102059901F1020198
:1053D00052F82110049A1140039A1143059A02F1E0
:1053E000020243F8221006B0704700BFAFF30080FE
:1053F00082B0019000914FF47053C4F201034FF456
:105400007052C4F201021168009A4FF0010000FAD4
:1054100002F26FEA02020A401A604FF47053C4F2BB
:1054200001034FF47052C4F201025168009A4FF028
:10543000010000FA02F26FEA02020A405A604FF4D9
:105440007053C4F201034FF47052C4F20102916828
:10545000009A4FF0010000FA02F26FEA02020A40DD
:105460009A604FF47053C4F201034FF47052C4F2C7
:105470000102D168009A4FF0010000FA02F26FEACF
:1054800002020A40DA604FF47053C4F20103009A3A
:105490004FF0010101FA02F25A6102B0704700BFF9
:1054A00000B583B00190019BDB684FF000021A82C7
:1054B000019B1B78042B06D1019B4FF002021A704E
:1054C000019800F035F8019B5B685B68019898478C
:1054D00003B000BDAFF30080AFF30080AFF30080F6
:1054E00008B5FBF75DFF41F2A830C2F20000FFF7FC
:1054F000D7FFFBF785FFFBF7B3FC08BDAFF30080D8
:1055000008B541F2A833C2F200034FF40052C4F2CE
:105510000002DA6041F2A830C2F20000FDF788FA1A
:1055200008BD00BFAFF30080AFF30080AFF3008091
:1055300082B00190019BDB684FF000021A80019B52
:10554000DB684FF000021A82019BDB684FF000021B
:105550009A8102B0704700BFAFF30080AFF30080C4
:1055600000B585B00190019BDB681B8AADF80E3059
:10557000019BDB689B899AB2BDF80E301340ADF8F1
:105580000E30019BDB68BDF80E206FEA020292B27A
:105590001A82019B5B681B7D002B26D1BDF80E3063
:1055A00003F00203002B10D0019B1B788DF80D3007
:1055B000019B4FF004021A709DF80D30032B04D0AC
:1055C000019B5B68DB6801989847BDF80E3003F0DB
:1055D0000403002B2FD0019B4FF005021A70019B92
:1055E0005B689B680198984725E0BDF80E3003F092
:1055F0000203002B08D0019B4FF005021A70019B9B
:105600005B689B6801989847BDF80E3003F004036F
:10561000002B10D0019B1B788DF80C30019B4FF0B4
:1056200004021A709DF80C30032B04D0019B5B68B8
:10563000DB6801989847BDF80E3003F00103002B9A
:1056400004D0019B5B681B690198984705B000BDB9
:1056500008B5FBF7A5FE41F2B830C2F20000FFF733
:105660007FFFFBF7CDFEFBF7FBFB08BDAFF3008030
:1056700008B5FBF795FE41F2B830C2F20000FFF723
:105680006FFFFBF7BDFEFBF7EBFB08BDAFF3008040
:1056900008B541F2B830C2F20000FDF7E1F941F27D
:1056A000B833C2F200034FF00002C4F20102DA6024
:1056B00008BD00BFAFF30080AFF30080AFF3008000
:1056C00000B585B00190019B5B681B7D002B0AD063
:1056D000019B5B681B7D012B05D04EF6E040C0F6B8
:1056E0000000FBF74DFF019B1B78012B38D1019A7D
:1056F00041F2B833C2F200039A424FD14FF46053E3
:10570000C4F202034FF46052C4F20202526C42F03F
:1057100001025A644FF46053C4F202034FF4605222
:10572000C4F20202526A42F001025A624FF460531C
:10573000C4F202034FF000025A624FF019004FF01A
:105740007001FBF72DFC4FF01B004FF07001FBF7D1
:1057500027FC019A4FF4F443C0F6032393601DE045
:10576000019BDB684FF000021A80019BDB684FF061
:1057700000029A81019BDB684FF000021A82019BB4
:10578000DB684FF000025A63019BDB684FF00002B8
:105790009A63019BDB684FF000025A62019B9A6892
:1057A000019B5B685B68B2FBF3F303F1FF33039388
:1057B000039A4FF6FF739A420BD8039B03F1010340
:1057C000019A5268526802FB03F2019B9B689A425D
:1057D00005D04EF6E040C0F60000FBF7D1FE019B7D
:1057E000DB68039A92B21A85019BDB684FF6FF7261
:1057F000DA62019B5B681B7D002B26D1019BDB6875
:1058000040F201221A83019BDB684FF054021A8197
:10581000019B5B681B78002B05D1019BDB684FF077
:1058200031021A8404E0019BDB684FF013021A84F2
:10583000019BDB6803F13802019B1A61019BDB6865
:1058400003F13402019B5A6125E0019BDB684FF4B0
:1058500081721A83019BDB684FF064021A81019BFD
:105860005B681B78002B05D1019BDB684FF01302AE
:105870001A8404E0019BDB684FF031021A84019B1B
:10588000DB6803F13402019B1A61019BDB6803F1C1
:105890003802019B5A6105B000BD00BFAFF3008024
:1058A00082B00190019BDB684FF000021A82019BDD
:1058B0005B681B7D002B1ED1019B5B68DB68002BA6
:1058C00009D0019BDB68019AD268928992B242F0BA
:1058D000020292B29A81019B5B689B68002B28D0E0
:1058E000019BDB68019AD268928992B242F004026D
:1058F00092B29A811DE0019B5B689B68002B09D0E6
:10590000019BDB68019AD268928992B242F002024E
:1059100092B29A81019B5B68DB68002B09D0019BE6
:10592000DB68019AD268928992B242F0040292B284
:105930009A81019B5B681B69002B09D0019BDB6886
:10594000019AD268928992B242F0010292B29A818F
:10595000019BDB684FF005021A8002B0704700BF60
:1059600000B585B00390029101920093039B1B6BDD
:1059700003F01003002B03D1029B4FEA4323029351
:10598000019B012B15D903984FF01201029A009B3D
:1059900000F05EFB0346002B08D1009B1A684EF214
:1059A0000803CFF6FF531340002B18D04FF001032C
:1059B00017E003984FF01101029A009B00F048FB9A
:1059C0000346002B08D1009B1A684EF20803CFF65D
:1059D000FF531340002B02D04FF0010301E04FF0C2
:1059E0000003184605B000BDAFF30080AFF30080A0
:1059F00000B585B00390029101920093039B1B6B4D
:105A000003F01003002B03D1029B4FEA43230293C0
:105A1000019B012B15D903984FF01901029A009BA5
:105A200000F016FB0346002B08D1009B1A684EF2CB
:105A30000803CFF6FF531340002B18D04FF001039B
:105A400017E003984FF01801029A009B00F000FB4A
:105A50000346002B08D1009B1A684EF20803CFF6CC
:105A6000FF531340002B02D04FF0010301E04FF031
:105A70000003184605B000BDAFF30080AFF300800F
:105A800000B585B00390029101924FF0200383F39B
:105A90001188FBF705FC4FF43053C4F20103DB6BB4
:105AA000002B1ED0039BDB6B002B05D04EF6005065
:105AB000C0F60000FBF764FD41F23823C2F2000398
:105AC0009A69039BDA634FF00200FBF7C9FE039B60
:105AD000DB6B002B05D04EF62850C0F60000FBF71C
