:020000040800F2
:1000000000040020A10B0008A10D0008C001000899
:10001000A10D0008A10D0008A10D0008A10D000808
:10002000A10D0008A10D0008A10D0008D10D0008C8
:10003000A10D0008A10D0008A10D0008D10E0008B7
:10004000A10D000871380008A10D000871390008E1
:10005000A10D0008A10D000871360008A1360008A6
:10006000D13600080137000831370008712900082F
:10007000B1290008F1290008312A0008712A000876
:10008000B12A0008F12A0008C1340008A10D0008B7
:10009000A10D0008A10D0008A10D0008613700089E
:1000A000A10D0008413D0008A10D0008613D0008B8
:1000B000A10D0008A10D0008A10D0008A10D000868
:1000C000A10D0008A10D0008A10D0008A10D000858
:1000D000A10D0008D14C0008F14C0008A10D00084A
:1000E000E1370008A10D0008B1380008A10D000893
:1000F000A10D0008B13B0008A10D0008312B00083C
:10010000A10D0008E13D0008A10D0008A10D0008A7
:10011000A10D0008A10D0008A10D0008A10D000807
:10012000712B0008B12B0008F12B0008312C0008BE
:10013000712C0008A10D0008F1380008A10D00087D
:10014000A10D0008A10D0008A10D0008A10D0008D7
:10015000B12C0008F12C0008312D0008114D0008C9
:10016000A10D0008A10D0008A10D0008A10D0008B7
:1001700031390008A10D0008A10D0008A10D0008EB
:08018000A10D0008A10D00080B
:1001900010B50A4C0023236001F082FE00F020FF1E
:1001A00008F0E6F830B1032121604FF47A7001F0D5
:1001B00037FBFAE701202060F7E700BF441E01206B
:1001C0001EF0040F0CBFEFF30880EFF3098006F078
:1001D0009FBD0000000000000000000000000000C3
:1001E00081F0004102E000BF83F0004330B54FEAE8
:1001F00041044FEA430594EA050F08BF90EA020F55
:100200001FBF54EA000C55EA020C7FEA645C7FEAE7
:10021000655C00F0E2804FEA5454D4EB5555B8BF0A
:100220006D420CDD2C4480EA020281EA030382EA7B
:10023000000083EA010180EA020281EA0303362D0D
:1002400088BF30BD11F0004F4FEA01314FF4801CE0
:100250004CEA113102D0404261EB410113F0004FF2
:100260004FEA03334CEA133302D0524263EB4303A9
:1002700094EA050F00F0A780A4F10104D5F1200E47
:100280000DDB02FA0EFC22FA05F2801841F10001A2
:1002900003FA0EF2801843FA05F359410EE0A5F176
:1002A00020050EF1200E012A03FA0EFC28BF4CF0A7
:1002B000020C43FA05F3C01851EBE37101F000455D
:1002C00007D54FF0000EDCF1000C7EEB00006EEB6A
:1002D0000101B1F5801F1BD3B1F5001F0CD34908F4
:1002E0005FEA30004FEA3C0C04F101044FEA44524B
:1002F00012F5800F80F09A80BCF1004F08BF5FEAD2
:10030000500C50F1000041EB045141EA050130BDB1
:100310005FEA4C0C404141EB010111F4801FA4F154
:100320000104E9D191F0000F04BF01460020B1FAA9
:1003300081F308BF2033A3F10B03B3F120020CDAE1
:100340000C3208DD02F1140CC2F10C0201FA0CF0BF
:1003500021FA02F10CE002F11402D8BFC2F1200C24
:1003600001FA02F120FA0CFCDCBF41EA0C019040DA
:10037000E41AA2BF01EB0451294330BD6FEA040423
:100380001F3C1CDA0C340EDC04F11404C4F120020E
:1003900020FA04F001FA02F340EA030021FA04F320
:1003A00045EA030130BDC4F10C04C4F1200220FA77
:1003B00002F001FA04F340EA0300294630BD21FAB5
:1003C00004F0294630BD94F0000F83F4801306BF7B
:1003D00081F480110134013D4EE77FEA645C18BF6F
:1003E0007FEA655C29D094EA050F08BF90EA020F06
:1003F00005D054EA000C04BF1946104630BD91EAFE
:10040000030F1EBF0021002030BD5FEA545C05D100
:100410004000494128BF41F0004130BD14F580043F
:100420003CBF01F5801130BD01F0004545F0FE41B3
:1004300041F470014FF0000030BD7FEA645C1ABFE8
:10044000194610467FEA655C1CBF0B46024650EA1F
:10045000013406BF52EA033591EA030F41F400214B
:1004600030BD00BF90F0000F04BF0021704730B5D1
:100470004FF4806404F132044FF000054FF00001A6
:1004800050E700BF90F0000F04BF0021704730B567
:100490004FF4806404F1320410F0004548BF40423C
:1004A0004FF000013EE700BF42004FEAE2014FEA91
:1004B00031014FEA02701FBF12F07F4393F07F4F6C
:1004C00081F06051704792F0000F14BF93F07F4F9E
:1004D000704730B54FF4607401F0004521F00041E1
:1004E00020E700BF50EA010208BF704730B54FF067
:1004F00000050AE050EA010208BF704730B511F06C
:10050000004502D5404261EB41014FF4806404F1A3
:1005100032045FEA915C3FF4DCAE4FF003025FEA25
:10052000DC0C18BF03325FEADC0C18BF033202EBAD
:10053000DC02C2F1200300FA03FC20FA02F001FA07
:1005400003FE40EA0E0021FA02F11444C1E600BFA6
:1005500070B54FF0FF0C4CF4E06C1CEA11541DBF59
:100560001CEA135594EA0C0F95EA0C0F00F0DEF824
:100570002C4481EA030621EA4C5123EA4C5350EA09
:10058000013518BF52EA033541F4801143F480135A
:1005900038D0A0FB02CE4FF00005E1FB02E506F0EB
:1005A0000042E0FB03E54FF00006E1FB03569CF040
:1005B000000F18BF4EF0010EA4F1FF04B6F5007F46
:1005C00064F5407404D25FEA4E0E6D4146EB0606B8
:1005D00042EAC62141EA55514FEAC52040EA5E5041
:1005E0004FEACE2EB4F1FD0C88BFBCF5E06F1ED8EB
:1005F000BEF1004F08BF5FEA500E50F1000041EB22
:10060000045170BD06F0004646EA010140EA0200CE
:1006100081EA0301B4EB5C04C2BFD4EB0C0541EAF0
:10062000045170BD41F480114FF0000E013C00F305
:10063000AB8014F1360FDEBF002001F0004170BD29
:10064000C4F10004203C35DA0C341BDC04F1140442
:10065000C4F1200500FA05F320FA04F001FA05F2CE
:1006600040EA020001F0004221F0004110EBD3709B
:1006700021FA04F642EB06015EEA430E08BF20EAC7
:10068000D37070BDC4F10C04C4F1200500FA04F36A
:1006900020FA05F001FA04F240EA020001F00041FC
:1006A00010EBD37041F100015EEA430E08BF20EA6F
:1006B000D37070BDC4F1200500FA05F24EEA020EB7
:1006C00020FA04F301FA05F243EA020321FA04F0E6
:1006D00001F0004121FA04F220EA020000EBD3709D
:1006E0005EEA430E08BF20EAD37070BD94F0000F9D
:1006F0000FD101F00046400041EB010111F4801FD1
:1007000008BF013CF7D041EA060195F0000F18BF81
:10071000704703F00046520043EB030313F4801FBD
:1007200008BF013DF7D043EA0603704794EA0C0F77
:100730000CEA135518BF95EA0C0F0CD050EA41068D
:1007400018BF52EA4306D1D181EA030101F000410A
:100750004FF0000070BD50EA410606BF1046194632
:1007600052EA430619D094EA0C0F02D150EA01363E
:1007700013D195EA0C0F05D152EA03361CBF10467F
:1007800019460AD181EA030101F0004141F0FE411E
:1007900041F470014FF0000070BD41F0FE4141F4A2
:1007A000780170BD70B54FF0FF0C4CF4E06C1CEAA2
:1007B00011541DBF1CEA135594EA0C0F95EA0C0F57
:1007C00000F0A7F8A4EB050481EA030E52EA033512
:1007D0004FEA013100F088804FEA03334FF0805533
:1007E00045EA131343EA12634FEA022245EA111560
:1007F00045EA10654FEA00260EF000419D4208BF11
:10080000964244F1FD0404F5407402D25B084FEABD
:100810003202B61A65EB03055B084FEA32024FF469
:1008200080104FF4002CB6EB020E75EB030E22BFC6
:10083000B61A754640EA0C005B084FEA3202B6EB86
:10084000020E75EB030E22BFB61A754640EA5C0035
:100850005B084FEA3202B6EB020E75EB030E22BFC5
:10086000B61A754640EA9C005B084FEA3202B6EBC6
:10087000020E75EB030E22BFB61A754640EADC0085
:1008800055EA060E18D04FEA051545EA16754FEAE7
:1008900006164FEAC30343EA52734FEAC2025FEA05
:1008A0001C1CC0D111F4801F0BD141EA00014FF094
:1008B00000004FF0004CB6E711F4801F04BF014365
:1008C0000020B4F1FD0C88BFBCF5E06F3FF6AFAE81
:1008D000B5EB030C04BFB6EB020C5FEA500C50F111
:1008E000000041EB045170BD0EF0004E4EEA113194
:1008F00014EB5C04C2BFD4EB0C0541EA045170BD9B
:1009000041F480114FF0000E013C90E645EA060EDE
:100910008DE60CEA135594EA0C0F08BF95EA0C0F0C
:100920003FF43BAF94EA0C0F0AD150EA01347FF454
:1009300034AF95EA0C0F7FF425AF104619462CE72B
:1009400095EA0C0F06D152EA03353FF4FDAE10468E
:10095000194622E750EA410618BF52EA43067FF4DF
:10096000C5AE50EA41047FF40DAF52EA43057FF46F
:10097000EBAE12E7000000000000000000000000E5
:100980004FF0FF3C06E000BF4FF0010C02E000BF5B
:100990004FF0010C4DF804CD4FEA410C7FEA6C5C3E
:1009A0004FEA430C18BF7FEA6C5C1BD001B050EAE1
:1009B000410C0CBF52EA430C91EA030F02BF90EACC
:1009C000020F0020704710F1000F91EA030F58BF8B
:1009D000994208BF90422CBFD8176FEAE37040F0ED
:1009E000010070474FEA410C7FEA6C5C02D150EA8B
:1009F000013C07D14FEA430C7FEA6C5CD6D152EA46
:100A0000033CD3D05DF8040B704700BF844610460A
:100A100062468C461946634600E000BF01B5FFF709
:100A2000B7FF002848BF10F1000F01BD4DF808EDD9
:100A3000FFF7F4FF0CBF012000205DF808FB00BFAA
:100A40004DF808EDFFF7EAFF34BF012000205DF804
:100A500008FB00BF4DF808EDFFF7E0FF94BF012051
:100A600000205DF808FB00BF4DF808EDFFF7CEFF52
:100A700094BF012000205DF808FB00BF4DF808ED91
:100A8000FFF7C4FF34BF012000205DF808FB00BF62
:100A90004FEA410212F5001215D211D56FF47873A6
:100AA000B3EB625212D94FEAC12343F0004343EA49
:100AB000505311F0004F23FA02F018BF4042704724
:100AC0004FF00000704750EA013005D111F00040AE
:100AD00008BF6FF0004070474FF00000704700BF44
:100AE0004FEA4102B2F1E04324BFB3F5001CDCF150
:100AF000FE5C0DD901F0004C4FEAC0024CEA507088
:100B0000B2F1004F40EB830008BF20F001007047B6
:100B100011F0804F21D113F13872BCBF01F00040B9
:100B2000704741F480114FEA5252C2F11802C2F1EB
:100B3000200C10FA0CF320FA02F018BF40F001006C
:100B40004FEAC1234FEAD32303FA0CFC40EA0C001E
:100B500023FA02F34FEA4303CCE77FEA625307D15B
:100B600050EA01331EBF4FF0FE4040F44000704792
:100B700001F0004040F0FE4040F40000704700BF2C
:100B8000704700BFAFF30080AFF30080AFF3008089
:100B9000FEE700BFAFF30080AFF30080AFF300804B
:100BA00072B6704C84F309884EF63472CEF20002AD
:100BB0004EF68853CEF200034FF0404111601868A2
:100BC00040F470051D600022E1EE102A4EF63C73E1
:100BD000CEF2000306211A6081F31488BFF36F8FF1
:100BE0006148624DA84218D2EA1C051D531B23F030
:100BF0000302034610184FF0553183421960C2F3C7
:100C000080020AD01AB185422B46296005D01D1DED
:100C10005960083383426960F9D15548A04218D21F
:100C20005449041D0A1B22F00305034628184FF0FF
:100C3000553183421960C5F380020AD01AB184424B
:100C40002346216005D01D1D596008338342696029
:100C5000F9D104F01DF94849484881421BD2C61C0D
:100C60000C1D321B464822F00302161D05680423A2
:100C7000B3420D60C2F380020DD022B14568082353
:100C8000B342256007D01A1D1D5884585D500833A3
:100C9000B3428C50F7D13B483B49884217D2CB1C1A
:100CA000041D1A1B22F00305034628180021834265
:100CB0001960C5F380020AD01AB18442234621602C
:100CC00005D01D1D5960083383426960F9D1FFF7D3
:100CD00057FF2E4D2E498D421DD2CC1C2E1DA71B19
:100CE000B808471C01242A6800EA04089047BC425F
:100CF00011D0B8F1000F05D0022433689847BC42E8
:100D0000354608D0696888470234A8682E1D804798
:100D10000835BC42F6D1FFF73BFA1E4D1E4A9542FC
:100D20001DD2D41C2E1DA71BBB085F1C01242968E3
:100D300003EA04088847BC4211D0B8F1000F05D07F
:100D4000022430688047BC42354608D06A68904724
:100D50000234AB682E1D98470835BC42F6D1FFF728
:100D600017FF00BF00080020000000200004002042
:100D7000000400200308002000080020540C00207C
:100D800038DF0008580C00203022012088010008BC
:100D9000880100088801000888010008AFF300807E
:100DA000FEE700BFAFF30080AFF30080AFF3008039
:100DB00072B6FEE7AFF30080AFF30080AFF30080C0
:100DC00000F07EFA00F04CFC00F062FA00DF00BF99
:100DD000EFF309824EF63073D2F8CC10CEF2000356
:100DE0006832596098686830986082F309880023F7
:100DF00083F31188704700BFAFF30080AFF300802A
:100E000008B54FF46D43CEF200034FF44072C0F2C8
:100E1000FA520021996007201021DA6000F0B8F83A
:100E20000A204FF4007100F0B3F80B208021BDE8D8
:100E3000084000F0ADB800BFAFF30080AFF3008012
:100E4000202383F311884FF46D43CEF200035868DA
:100E500010F4006325D0EFF30983A3F1680282F355
:100E6000098816494FF080708A6943F84C0C92F853
:100E70002300096892688968B0B1914294BF00224A
:100E80000122BAB10E4A43F8502CF1EE10FA4EF698
:100E90003072CEF20002516841F001005966506094
:100EA000704783F311887047914234BF00220122BA
:100EB000002AE7D1034843F8500CE8E72412002049
:100EC000C10D0008CC0D0008AFF30080AFF3008027
:100ED00008B500F08DF9202383F3118800F0C0F9E4
:100EE00000F0BEF800F0A4F9002383F3118800F0AD
:100EF0005FF9BDE80840FFF7A3BF00BFAFF3008074
:100F00002DE9F04F2DED108AC1F80CD0D0F80CD09F
:100F1000BDEC108ABDE8F08FAFF30080AFF3008026
:100F200008B500F0B5F9002383F311882846A047DF
:100F300000F0CEFC08BD00BFAFF30080AFF300802F
:100F4000F0B44FF461438408CEF20003C03400F0E3
:100F5000030553F82470ED00FF26420906FA05F652
:100F600027EA060601FA05F500F01F0002F1600706
:100F7000012101FA00F02E4343F8246043F82700D2
:100F800043F82200F0BC7047AFF30080AFF300805D
:100F900082084FF46D43CEF20003063200F00300E6
:100FA00030B4C00053F82250FF2404FA00F425EABC
:100FB000040401FA00F10C4343F8224030BC7047AE
:100FC000024B034A98698261FEE700BF24120020A9
:100FD00090C10008AFF30080AFF30080AFF3008052
:100FE00030B583B0FFF70CFF00F0FAF900F090F98C
:100FF00000F0FEFE00F044FF00F06AF840F65840B2
:101000004021C2F2000000F03BFB41F2242440F2F8
:101010000043C2F20003C2F200040125C36180F85C
:101020002050A06100F064F9002383F3118862B6B8
:101030004CF21031A269C0F60001916140F6A8405F
:10104000009340F6C1734FF4AC712A46C0F600031A
:10105000C2F2000000F094FB03B030BDAFF300809B
:10106000F8B500F08DF8164B986990F8232012B16E
:10107000511E80F82310446A124D631C4362E868D5
:101080002C68421CAC42EA6018D0A768013FA760F8
:10109000A7B92168E6684D60E760296000F0C8F8EC
:1010A000002383F311882069B047202383F311883C
:1010B00000F0D6F82C68A368002BEAD0F8BD00BF7A
:1010C0002412002014120020AFF30080AFF3008040
:1010D00040F60463C2F200031A46402142F8081B9E
:1010E0005A607047AFF30080AFF30080AFF3008029
:1010F0000C490D4A10B4CC680C49536889691C60CE
:101100005960846A9C6003F1100190F8204002F558
:10111000816081421C732ABF02F108035160536051
:1011200010BC704714120020040E0020241200206E
:1011300008B541F21023C2F200031860012007F045
:101140000FF9BDE80840FFF733BE00BFAFF30080E2
:10115000054B186820B905490A68002A00DD704768
:101160000348FFF7E5BF00BF000E00200C1200206F
:10117000A0C10008AFF30080AFF30080AFF30080A0
:10118000054B1868002804DB04490A68002A00DDC2
:1011900070470348FFF7CCBF000E00200C12002060
:1011A000A8C10008AFF30080AFF30080AFF3008068
:1011B00010B5202383F31188084C2368002B02DD2F
:1011C000074A106818B10748FFF7B2FF2368591E95
:1011D0002160002383F3118810BD00BF000E0020A2
:1011E0000C120020B0C10008AFF30080AFF3008004
:1011F00010B5202383F31188084C2368002B02DBF1
:10120000074A106818B10748FFF792FF2368591C76
:101210002160002383F3118810BD00BF000E002061
:101220000C120020B8C10008AFF30080AFF30080BB
:10123000074B1868002810B5064C05DD2168002909
:1012400002DD0022226010BD0348FFF771FFF8E7BE
:10125000000E00200C120020C0C10008AFF3008077
:10126000064B1868002810B5054C01DD216811B146
:101270000448FFF75DFF0122226010BD000E002030
:101280000C120020C8C10008AFF30080AFF300804B
:10129000074B186810B5074C28B92168002902DDF2
:1012A0000022226010BD0448FFF742FFF8E700BFAC
:1012B000000E00200C120020D0C10008AFF3008007
:1012C000064B186810B5064C08B9216811B10548DD
:1012D000FFF72EFF0122226010BD00BF000E00208C
:1012E0000C120020D8C10008AFF30080AFF30080DB
:1012F000044B186810B904490A6812B10348FFF793
:1013000017BF7047000E00200C120020E0C100083B
:1013100041F21423C2F200034FF0FF3200205B6061
:101320001B609A60D8607047AFF30080AFF3008015
:10133000F8B505460C4616461F46FFF721FFCDB10E
:10134000C6B1BCB10D492F610B68EE609A6894423A
:1013500004D91B68A41A9A68A242FAD358682B6071
:101360008B42686005605D60AC6002D099680C1BC0
:101370009C60F8BD0248FFF7DBFEE3E71412002093
:1013800000C20008AFF30080AFF30080AFF300802D
:1013900010B50446FFF7F4FE84B1E36893B120680A
:1013A0000A4A904203D08168A368CA1882606168C3
:1013B0000860206800234160E36010BD0448FFF727
:1013C000B7FEEAE70348FFF7B3FEE8E71412002090
:1013D00010C2000820C20008AFF30080AFF3008005
:1013E00041F22423C2F2000300225B601B609A607A
:1013F0005B611B61704700BFAFF30080AFF30080FB
:1014000010B50446FFF7BCFE94F820308BB10E2BCC
:101410000FD00022A168094884F820200068836862
:101420008B42FBD24168206061600C6044602046C2
:1014300010BD0348FFF77CFEEBE700BF241200203D
:1014400040C20008AFF30080AFF30080AFF300802C
:1014500010B52023044683F31188FFF701FF94F8A9
:1014600020300D2B11D8DFE803F016101007100BF9
:10147000101010101010100BA06A8268511C8160AF
:1014800094E80C001A60206843604FF0FF33A362B9
:101490002046FFF7B5FFFFF7CBFE002383F311884B
:1014A00010BD00BFAFF30080AFF30080AFF300804A
:1014B00070B5114C0646FFF74BFE2368A5691A6804
:1014C00085F8206014210120546083F8200085F8FD
:1014D000231028462260A361FFF70AFEEB69ADF1F5
:1014E0006402934202D90548FFF722FEA06929460B
:1014F000BDE87040FFF704BD2412002054C200086C
:1015000070B50C4686B00646FFF722FE631C12D06B
:101510000B4D0C4AAB69214601A8FFF709FF304685
:10152000FFF7C6FF049B13B101A8FFF731FFA869BD
:10153000806A06B070BD3046FFF7BAFF004DF6E78F
:101540002412002051140008AFF30080AFF3008094
:1015500070B5144D04460E46FFF7FAFDA869A2685F
:101560008368A6629A4213D9FFF74AFF0121064613
:1015700084F82010AC61FFF7BBFDF069ADF16402A7
:1015800090420AD820463146BDE87040FFF7B8BC0B
:101590002046BDE87040FFF733BF0348FFF7C8FDA2
:1015A000F0E700BF2412002054C20008AFF300800F
:1015B00038B5104C2368A5691A68012114205460BD
:1015C00083F8201085F8230028462260A361FFF7E6
:1015D00017FF2846FFF78CFDEB69ADF164029342DB
:1015E00002D90548FFF7A4FDA0692946BDE83840A7
:1015F000FFF786BC2412002054C20008AFF300801D
:1016000070B5144E3368B5691A68AC68566001212C
:10161000002083F820103260B36185F8200000E0DC
:101620001B689A68A242FBD859682B6069602846FB
:101630005D600D60FFF75CFDEB69ADF16400834216
:1016400002D90548FFF774FDB0692946BDE870402E
:10165000FFF756BC2412002054C20008AFF30080EC
:10166000044B986990F8231009B1FFF7C9BFFFF741
:101670009FBF00BF24120020AFF30080AFF30080B3
:101680002DE9F00141F22424C2F200040022656930
:101690004164046100F13006816000F12C0C00F11E
:1016A0004C0745614FF0020860610121142480F865
:1016B000208080F8212080F823400264C2634262C7
:1016C00080F8221082612861C0F82CC0466306634E
:1016D000C761BDE8F0017047AFF30080AFF3008051
:1016E0002DE9F04704460D4617469846FFF748FD9A
:1016F00014B1B5F59C7F36D21E48FFF719FDA5F150
:10170000640161181C4E089BD6F814C0E1604B645C
:101710001A4BC1F840800B660221002504F130020B
:1017200004F12C0A04F14C0984F82010142301213F
:101730002661A760C4F814C02046746184F8215063
:1017400084F8233067642564E563656284F82210B9
:10175000A561CCF81040C4F82CA062632263C4F8E1
:101760001C90BDE8F0877F2FC6D8B8F1000FC6D116
:10177000C2E700BF70C2000824120020210F000839
:101780002DE9F04F9B4683B080468946924600F192
:101790004C0300F1010400F14D07FF26254604F833
:1017A000016C05F8016B6C1CBC42F7D108EB090712
:1017B000BB4215D21846552600F8016BD9437A185A
:1017C000B84202F001030BD01BB100F8016BB84224
:1017D00006D0054605F8016B4670681CB842F8D182
:1017E000202383F31188FFF76BFD0C9C5B46524668
:1017F000494600944046FFF773FF00210446FFF777
:10180000A7FEFFF745FD002383F31188204603B0B0
:10181000BDE8F08FAFF30080AFF30080AFF300803E
:1018200010B5044610B90948FFF782FC202383F362
:101830001188FFF745FD21460620FFF761FEFFF7FF
:1018400027FD002383F3118810BD00BFB0C200083C
:1018500010B52023044683F31188FFF731FD064BB2
:10186000D968611A02D00620FFF74AFEFFF710FD83
:10187000002383F3118810BD14120020AFF3008001
:1018800038B5104B9C692546A06255F82C0FA8422C
:1018900006D00168E162FFF7B3FDE06AA842F8D123
:1018A00094F82100830704D1636922691A612169D0
:1018B0004B610E20FFF7FCFD0348BDE83840FFF701
:1018C00037BC00BF24120020C0C20008AFF3008064
:1018D00010B52023044683F31188FFF7F1FC20465E
:1018E000BDE81040FFF7CCBFAFF30080AFF300803E
:1018F00038B504460D4628B1002903DB6460246036
:10190000A56038BD0148FFF713FCF7E730C30008B6
:1019100038B50446FFF71CFC1CB3A3682268002BF3
:101920000BDBA24203D01148FFF702FCA368581E4C
:101930000028A06007DB002038BDA242F3D0581E6B
:101940000028A060F7DA0A4DA9698C6262680C6011
:101950004A60032061601160FFF7AAFDAB69986AD5
:1019600038BD0448FFF7E4FBD7E700BF74C30008A5
:101970002412002064C30008AFF30080AFF300809E
:1019800010B52023044683F31188FFF799FC204605
:10199000FFF7BEFF0446FFF77BFC002383F31188AB
:1019A000204610BDAFF30080AFF30080AFF300809E
:1019B00010B5044618B3A3682068002B14DBA042BE
:1019C00002D01148FFF7B4FB202383F31188FFF7FF
:1019D00077FCA1684A1C002AA26008DDFFF758FCCA
:1019E000002383F3118810BDA042EDD1E9E7206800
:1019F0000368002123605C60FFF7AAFDEEE703485F
:101A0000FFF796FBD7E700BFC8C30008B8C30008BC
:101A100010B5044620B1002364602460A36010BDAB
:101A20000148FFF785FBF6E780C40008AFF30080AC
:101A300038B504460D46FFF7A3FBC4B1E26B94F83A
:101A4000203045EA0201082BE1630CD0092B00D0BD
:101A500038BDA06A01408842FAD12046FFF7D0FC89
:101A60000023836238BDA26A1142F6D138BD024814
:101A7000FFF75EFBE2E700BF5CC50008AFF3008044
:101A800070B505460E46FFF77BFB65B12C68A54295
:101A900008D0201D0BC83343E360FFF7C9FF24685B
:101AA000A542F6D170BD0248FFF742FBEEE700BF4A
:101AB00080C50008AFF30080AFF30080AFF3008073
:101AC00010B4024659B1084B9B69986244680D20D6
:101AD00083E814005360236010BCFFF711BD4FF082
:101AE000FF3010BC704700BF24120020AFF300800D
:101AF00010B4C361019B40608A18002400608460B8
:101B000041618161C1600261036210BC704700BF26
:101B100038B504460D46FFF733FB6369A269A06838
:101B200093421AD0411CA16003F8015B22696361F2
:101B300093420BD22068A0420DD0016821604C6016
:101B4000FFF75EFC00228262104638BD2068E36821
:101B5000A0426361F1D1002038BD0028E2D06FF0CF
:101B6000030038BDAFF30080AFF30080AFF3008017
:101B7000F8B504460E46202383F31188FFF7A0FB37
:101B8000E3690BB120469847A5682046314655B910
:101B9000FFF796FF071EF7DAFFF77AFB2B4683F372
:101BA00011883846F8BDA0692269013DA56010F88A
:101BB000017B9042A06124BFE068A061FFF768FB51
:101BC000002383F311883846F8BD00BFAFF30080CF
:101BD0002DE9F0470446154688461E46C769002A87
:101BE0003AD0202383F31188FFF76AFB08F1010A3A
:101BF0004FF00009A8440FB12046B847A568204619
:101C000031465DB9FFF75CFF0028F7D0FFF740FBD6
:101C10002B4683F311884846BDE8F087A369013D50
:101C2000A56013F8012B0AF8012C2069A3618342F7
:101C300024BFE368A361FFF72BFB002383F3118824
:101C4000C24509F10109E6D0202383F31188FFF78B
:101C500037FB0AF1010ACEE70148FFF769FAC0E74E
:101C6000C0C50008AFF30080AFF30080AFF3008081
:101C700010B4C361019B40608C18006082604161B8
:101C80008161C1600461036210BC7047AFF30080E2
:101C90002DE9F041202304468846164683F3118837
:101CA000FFF70EFBA568204631465DB9FFF708FF38
:101CB000071EF7DAFFF7ECFA2B4683F31188384654
:101CC000BDE8F0816369013DA56003F8018B2269DD
:101CD0006361934228BFE368E16928BF636109B18A
:101CE00020468847FFF7D4FA002383F311881F4664
:101CF0003846BDE8F08100BFAFF30080AFF300804D
:101D000038B50446FFF73CFAA3696269A0689A42B5
:101D100016D0411CA16013F8015B2269A3619342B4
:101D20000BD22068A04206D0016821604C60FFF70A
:101D300067FB00228262284638BDE368A361F0E7B2
:101D40000028E6D06FF0020038BD00BFAFF300807E
:101D50002DE9F0470446164688469A46D0F81C906E
:101D6000002A39D0202383F31188FFF7A9FA00272E
:101D7000A56820466B1E0DB3A360656918F8011BAA
:101D800005F8011B22696561954224BFE268626122
:101D9000B9F1000F00D0C847FFF77AFA002383F3A8
:101DA00011880137013E14D0202383F31188FFF7F7
:101DB00087FAA56820466B1E002DDDD120465146CE
:101DC000FFF77EFE0028D3D0FFF762FA2B4683F39D
:101DD00011883846BDE8F0870148FFF7A9F9C1E747
:101DE000D4C50008AFF30080AFF30080AFF30080EC
:101DF00041F2442241F240234CF200010648C2F273
:101E00000002C2F20003C2F2010120F0070021F03B
:101E1000070110601960704737220120AFF300807E
:101E200010B50446FFF7ACF9074A0849136809687A
:101E3000E01D20F00700C91A88429ABF18181060E8
:101E40000023184610BD00BF44120020401200209D
:101E500010B52023044683F31188FFF731FA20469A
:101E6000FFF7DEFF0446FFF713FA002383F3118820
:101E7000204610BDAFF30080AFF30080AFF30080C9
:101E800041F24823C2F2000341F651610022C0F63C
:101E9000000103F1100019609A60DA60FFF7B8BD25
:101EA00008B501F065F84CF6B070C0F6000002F01D
:101EB0001FFB00F015F800F083F800F0B9F800F00F
:101EC0000FF900F05DFC00F0DBFB00F0D9FC00F046
:101ED0006FF9BDE8084002F0FBBF00BFAFF3008020
:101EE00001F046B9AFF30080AFF30080AFF300809C
:101EF00000230122027043608360C3600361436179
:101F00001830FFF785BD00BFAFF30080AFF300804E
:101F100038B504460D46B8B1202383F31188FFF786
:101F2000CFF92378581E012802D90948FFF700F994
:101F30002046656001F064F902212170FFF7A8F9DD
:101F4000002383F3118838BD0248FFF7F1F8E3E777
:101F500000C60008F0C50008AFF30080AFF30080B2
:101F6000F8B504460E4617461D46FFF709F9CCB1F1
:101F7000C6B1BFB1012D01D0EB0713D420780228E0
:101F800006D0042804D0052802D00848FFF7D0F86E
:101F900003232046A760E56026612370BDE8F84072
:101FA00001F0AEB90248FFF7C3F8E7E744C60008FE
:101FB0002CC60008AFF30080AFF30080AFF30080C1
:101FC00001F036BDAFF30080AFF30080AFF30080C7
:101FD0000123002103704160704700BFAFF3008010
:101FE00038B504460D46C0B1B9B1202383F311883A
:101FF000FFF766F92378581E012802D90948FFF730
:1020000097F82046656001F093FD02212170FFF7EB
:102010003FF9002383F3118838BD0348FFF788F8A0
:10202000E3E700BF10C7000800C70008AFF3008057
:1020300001F0DEBDAFF30080AFF30080AFF30080AE
:102040000123002103704160704700BFAFF300809F
:1020500038B504460D46C0B1B9B1202383F31188C9
:10206000FFF72EF92378581E012802D90948FFF7F7
:102070005FF82046656001F0CBFD02212170FFF77B
:1020800007F9002383F3118838BD0348FFF750F8A0
:10209000E3E700BFDCC70008D0C70008AFF300804B
:1020A00038B504460D46FFF76BF86CB12378022B68
:1020B00002D00748FFF73CF804202070294620464C
:1020C000BDE8384001F0E4BD0248FFF731F8EDE724
:1020D00084C800086CC80008AFF30080AFF300802C
:1020E00001F04EBEAFF30080AFF30080AFF300808D
:1020F0000123002103704160704700BFAFF30080EF
:10210000914270B50C461546064615D38B1A1F2B07
:1021100012D804F01F02511C01206B0900FA01F2D1
:102120006409511EA34205F01F0509D356F8230088
:10213000084020FA05F070BD0848FEF7F9FFE8E70F
:1021400056F8240056F823200840C5F1200300FA71
:1021500003F022FA05F5284370BD00BFE0C800086F
:10216000C368990F70B5044617D149213E22FFF785
:10217000C7FF31212F2206462046FFF7C1FF50221C
:10218000054653212046FFF7BBFF0136AA1C06FA7D
:1021900002F5093805FA00F070BD012901D00020D0
:1021A00070BD45213022FFF7ABFF0130800270BDCA
:1021B00002F076BAAFF30080AFF30080AFF3008097
:1021C00038B504460D4678B171B1202383F31188E8
:1021D000FFF776F82046294602F08AFAFFF758F80A
:1021E000002383F3118838BD0148FEF7A1FFECE717
:1021F00010C90008AFF30080AFF30080AFF3008098
:1022000010B5044620B12046BDE8104002F090BA57
:102210000148FEF78DFFF6E700C90008AFF3008024
:1022200038B504460D4660B159B12379052B01D06C
:10223000012038BDA06A4FF4007168602960002059
:1022400038BD0248FEF774FFEFE700BF60C9000821
:10225000F0B5044683B0002800F024812379022BD6
:1022600004D0052B02D09148FEF762FF03202071B5
:10227000204601F02DFE00210A46204601F068FEAE
:102280004FF4D5722046082101AB01F099FE0246B9
:1022900070B9019B0121C3F30320884221636DD0F3
:1022A000204601F035FE02232371012003B0F0BD6A
:1022B000002121630025C8F210056426204637213D
:1022C000002201AB01F07CFE0028E9D14EF20800AB
:1022D0000199CFF6FF5008400028E1D1204629217E
:1022E0002A4601AB01F04CFE07460028D8D1019BDD
:1022F000002B5BDB013ED3D00A20FFF791FA20468A
:1023000037213A4601AB01F05BFE0028C8D14EF2FE
:102310000803019ACFF6FF531340002BC0D120468B
:1023200029212A4601AB01F02BFE07460028B7D130
:10233000019B002B3ADB0A20FFF772FA2046372177
:102340003A4601AB01F03CFE0028A9D14EF208004C
:102350000199CFF6FF5008400028A1D1204629213D
:102360002A4601AB01F00CFE002899D1019B002BFD
:102370001CDB0A20023EFFF753FA9FE72046372175
:1023800001AB01F01DFE00288AD14EF20803019A2C
:10239000CFF6FF531340002B82D1256B05F00F06BB
:1023A000012E87D10025CCF2100586E75B0003D50E
:1023B000226B42F01000206300222046022104F12B
:1023C000080301F0BDFE024600287FF469AF2046F5
:1023D000032104F1380301F0F3FD00287FF460AF1E
:1023E00004F1180520460921A26B2B4601F0A8FE36
:1023F00000287FF455AF204601F07AFD20460721E2
:10240000A26B01AB01F0DCFD00287FF449AF204650
:1024100010214FF4007201AB01F0D2FD00287FF4CF
:102420003FAF4EF20801019BCFF6FF511940002942
:102430007FF436AF226B02F00F00012827D801216C
:10244000204601F06DFD20463721A26B01AB01F063
:10245000B7FD00287FF424AF4EF20801019BCFF6B0
:10246000FF51194000297FF41BAF204606210222AC
:1024700001AB01F0A5FD00287FF412AF4EF2080277
:102480000198CFF6FF520240002A7FF409AF284698
:10249000FFF766FEA06200283FF402AF052121711C
:1024A000002003E70248FEF743FED7E680C9000894
:1024B00070C90008AFF30080AFF30080AFF3008075
:1024C00038B5044658B12579052D01D0012038BD15
:1024D00008232371204602F003F8257138BD024815
:1024E000FEF726FEEFE700BF94C90008AFF30080B7
:1024F000F8B504460E4617461D4690B18AB183B121
:102500002379052B02D00E48FEF712FE721EA06A38
:102510005119814209D9606B40F08001616301204B
:10252000F8BD0848FEF704FEEAE7072323713A46A0
:10253000204631462B4601F06BFF05222271F8BD83
:10254000B0C90008A0C90008AFF30080AFF3008055
:10255000F8B504460E4617461D4690B18AB183B1C0
:102560002379052B02D00E48FEF7E2FD721EA06A09
:102570005119814209D9606B40F0800161630120EB
:10258000F8BD0848FEF7D4FDEAE7062323713A4672
:10259000204631462B4601F0D3FE05222271F8BDBC
:1025A000CCC90008C0C90008AFF30080AFF30080B9
:1025B00010B5044682B001AB20460D21A26B01F09C
:1025C000FFFC4EF20803CFF6FF5338B9019A1340CF
:1025D000C2F3432113B9042909D002D2012002B069
:1025E00010BD0729FAD80120FFF71AF9E3E71846CA
:1025F000F5E700BFAFF30080AFF30080AFF30080DA
:1026000038B5044600282FD0202383F31188FEF725
:1026100057FE2379022B20D0052B05D01448FEF756
:1026200087FD2079022818D004212171FEF730FEA1
:10263000002383F311882046FFF7BAFF05462046A2
:102640002DB901F065FC02222271284638BD01F047
:102650005FFC02232371012038BDFEF719FE002321
:1026600083F31188184638BD0248FEF761FDCBE7B9
:10267000F0C90008DCC90008AFF30080AFF30080A8
:1026800001F0D6BBAFF30080AFF30080AFF3008062
:102690004CF640120023C0F60002012102600171D5
:1026A0004363C36283627047AFF30080AFF300807F
:1026B00038B504460D46B8B1202383F31188FEF7E0
:1026C000FFFD2379581E012802D90948FEF730FD85
:1026D0002046E56201F0C4FB02212171FEF7D8FD1E
:1026E000002383F3118838BD0248FEF721FDE3E79C
:1026F00014CA000804CA0008AFF30080AFF30080DA
:102700000C30FFF765BA00BFAFF30080AFF3008075
:102710000C304FF0FF33FFF75BBA00BFAFF3008020
:102720003030FFF715BB00BFAFF30080AFF3008080
:1027300030304FF0FF33FFF70BBB00BFAFF300802B
:102740000C30FFF715BA00BFAFF30080AFF3008085
:102750000C304FF0FF31FFF70BBA00BFAFF3008032
:102760003030FFF795BA00BFAFF30080AFF30080C1
:1027700030304FF0FF32FFF78BBA00BFAFF300806D
:1027800002F0D6BAAFF30080AFF30080AFF3008061
:1027900070B54CF600330546C0F60003044645F814
:1027A000043B82B0656001250B46164604F15401D6
:1027B0004022257200F10C000094FFF799F9009473
:1027C00004F1300004F1940140223346FFF750FA3F
:1027D00002B070BDAFF30080AFF30080AFF30080B4
:1027E00038B504460D46B8B1202383F31188FEF7AF
:1027F00067FD237A581E012802D90948FEF798FC84
:102800002046294602F0CCFA02212172FEF740FD53
:10281000002383F3118838BD0248FEF789FCE3E703
:10282000ACCA0008A0CA0008AFF30080AFF3008074
:1028300038B504460D46FEF7A3FCD4B163693BB13D
:1028400004F10C002946FFF763F900280BDB38BDC3
:10285000201D0421FFF714F904F10C002946FFF7AD
:1028600057F90028F3DA201D8021BDE83840FFF732
:1028700007B90248FEF75CFCE0E700BFD8CA0008D1
:1028800002F00EB8AFF30080AFF30080AFF300802A
:10289000002301220270436083600C30FFF7B8B858
:1028A00038B504460D46C0B1B9B1202383F3118871
:1028B000FEF706FD2378581E012802D90948FEF7C5
:1028C00037FC2046656002F02BF802212170FEF7EC
:1028D000DFFC002383F3118838BD0348FEF728FC92
:1028E000E3E700BF30CB000820CB0008AFF3008047
:1028F00010B5044698B1202383F31188FEF7E0FC5D
:102900002378022B02D00848FEF712FC204602F082
:1029100097F8FEF7BDFC002383F3118810BD034830
:10292000FEF706FCE7E700BF6CCB00085CCB0008B5
:1029300010B5044698B1202383F31188FEF7C0FC3C
:102940002378022B02D00848FEF7F2FB204602F063
:1029500087F8FEF79DFC002383F3118810BD034820
:10296000FEF7E6FBE7E700BF8CCB00087CCB000856
:1029700010B5FEF73DFC4FF4C043C4F20203084813
:10298000196802683D2401F03D019C600AB140686D
:102990009047FEF70DFCBDE81040FEF751BA00BFAE
:1029A00068120020AFF30080AFF30080AFF3008027
:1029B00010B5FEF71DFC4FF4C043C4F202030948F2
:1029C000196882688C0904F03D014FF474649C60BE
:1029D0000AB1C0689047FEF7EBFBBDE81040FEF778
:1029E0002FBA00BF68120020AFF30080AFF3008061
:1029F00010B5FEF7FDFB4FF4C043C4F202030948D3
:102A0000196802690C0C04F03D014FF474149C60C9
:102A10000AB140699047FEF7CBFBBDE81040FEF7D6
:102A20000FBA00BF68120020AFF30080AFF3008040
:102A300010B5FEF7DDFB4FF4C043C4F202030948B2
:102A4000196882698C0D04F03D014FF074649C603C
:102A50000AB1C0699047FEF7ABFBBDE81040FEF736
:102A6000EFB900BF68120020AFF30080AFF3008021
:102A700010B5FEF7BDFB4FF4C043C4F20203084893
:102A80005968026A3D2401F03D01DC600AB1406AE8
:102A90009047FEF78DFBBDE81040FEF7D1B900BFAF
:102AA00068120020AFF30080AFF30080AFF3008026
:102AB00010B5FEF79DFB4FF4C043C4F20203094872
:102AC0005968826A8C0904F03D014FF47464DC603B
:102AD0000AB1C06A9047FEF76BFBBDE81040FEF7F5
:102AE000AFB900BF68120020AFF30080AFF30080E1
:102AF00010B5FEF77DFB4FF4C043C4F20203094852
:102B00005968026B0C0C04F03D014FF47414DC6046
:102B10000AB1406B9047FEF74BFBBDE81040FEF753
:102B20008FB900BF68120020AFF30080AFF30080C0
:102B300010B5FEF75DFB4FF4C043C4F20203094831
:102B40005968826B8C0D04F03D014FF07464DC60B9
:102B50000AB1C06B9047FEF72BFBBDE81040FEF7B3
:102B60006FB900BF68120020AFF30080AFF30080A0
:102B700010B5FEF73DFB4FF4C843C4F2020308480A
:102B80001968026C3D2401F03D019C600AB1406C63
:102B90009047FEF70DFBBDE81040FEF751B900BFAE
:102BA00068120020AFF30080AFF30080AFF3008025
:102BB00010B5FEF71DFB4FF4C843C4F202030948E9
:102BC0001968826C8C0904F03D014FF474649C60B8
:102BD0000AB1C06C9047FEF7EBFABDE81040FEF773
:102BE0002FB900BF68120020AFF30080AFF3008060
:102BF00010B5FEF7FDFA4FF4C843C4F202030948CA
:102C00001968026D0C0C04F03D014FF474149C60C3
:102C10000AB1406D9047FEF7CBFABDE81040FEF7D1
:102C20000FB900BF68120020AFF30080AFF300803F
:102C300010B5FEF7DDFA4FF4C843C4F202030948A9
:102C40001968826D8C0D04F03D014FF074649C6036
:102C50000AB1C06D9047FEF7ABFABDE81040FEF731
:102C6000EFB800BF68120020AFF30080AFF3008020
:102C700010B5FEF7BDFA4FF4C843C4F2020308488A
:102C80005968026E3D2401F03D01DC600AB1406EDE
:102C90009047FEF78DFABDE81040FEF7D1B800BFAF
:102CA00068120020AFF30080AFF30080AFF3008024
:102CB00010B5FEF79DFA4FF4C843C4F20203094869
:102CC0005968826E8C0904F03D014FF47464DC6035
:102CD0000AB1C06E9047FEF76BFABDE81040FEF7F0
:102CE000AFB800BF68120020AFF30080AFF30080E0
:102CF00010B5FEF77DFA4FF4C843C4F20203094849
:102D00005968026F0C0C04F03D014FF47414DC6040
:102D10000AB1406F9047FEF74BFABDE81040FEF74E
:102D20008FB800BF68120020AFF30080AFF30080BF
:102D300010B5FEF75DFA4FF4C843C4F20203094828
:102D40005968826F8C0D04F03D014FF07464DC60B3
:102D50000AB1C06F9047FEF72BFABDE81040FEF7AE
:102D60006FB800BF68120020AFF30080AFF300809F
:102D70002DE9F00F41F2E8258AB0C2F2000546F2D3
:102D800040400295783046F21045C4F20205A0F5A5
:102D900080600495C4F2020046F240450390C4F2FC
:102DA000020546F228400695C4F2020046F270453C
:102DB0000590C4F2020546F258400195C4F20200A3
:102DC00046F2B8450790C4F2020546F288400995DC
:102DD000C4F20200029D089046F2100B002041F25E
:102DE000682346F2280A46F2400946F2580846F29D
:102DF000700C46F2880746F2A006C2F20003286073
:102E0000C4F2020B039DCBF80000C4F2020AC4F224
:102E10000209C4F20208C4F2020CC4F20207C4F2AE
:102E200002061860CAF800009860C9F8000018612E
:102E3000C8F800009861CCF8000018623860986209
:102E4000306018632860049D98632860059D1864AD
:102E50002860069D98642860079D186546F2104416
:102E600028606034019D986530342860C4F2020403
:102E7000089D18664FF4C0414FF4C8422860C4F260
:102E800002019866C4F202022060099C18674FF0A4
:102E9000FF35206098678D60CD609560D5600AB081
:102EA000BDE8F00F704700BFAFF30080AFF30080C4
:102EB0002DE9F041064684B0002848D0294F747AA5
:102EC0003868012505FA04FC1CEA000F3BD1264DA9
:102ED0004CEA000005EBC40810F0FF0F45F8342061
:102EE000C8F80430386007D04FF46053C4F20203CE
:102EF0001C6B44F400171F6310F47F4F1AD1346821
:102F0000276827F01F052560206810F00105FBD118
:102F1000307A73683D2707FA00F018602123256096
:102F2000636192B1B07A0901FEF70AF8284604B04D
:102F3000BDE8F0814FF46055C4F20205286B40F4FF
:102F400080032B63DBE72846F1E71046EFE70748ED
:102F5000039102920193FEF7EBF8019B029A039909
:102F6000ACE700BFE81200206812002060CD000826
:102F70004FF46053C4F2020300224FF0FF3019698E
:102F800070B418611A61596958615A6199699861F8
:102F90009A611E6A4EF2100166F080561E62CEF2F1
:102FA00000011A6249F23F054EF6F0545E6A58621B
:102FB000CEF200040720C0F202055A624D608A601A
:102FC0000860E0684FF48051CEF2000140F080705C
:102FD000E060086840F001000860186C4FF4E041C0
:102FE000C4F2000140F080501864086840F480701A
:102FF0000860196F01F44070B0F5807F03D04FF482
:10300000803119671A674FF46053C4F202031946FE
:103010001A6F42F0010018670A6F4FF4605390076F
:10302000C4F20203F8D5196F0A0407D4186F40F4EC
:1030300080721A67196F41F40040186770BCFFF77F
:1030400097BE00BFAFF30080AFF30080AFF3008006
:103050004FF46052C4F202024FF4E043C4F20003A2
:103060004FF0805111644FF4804218461A60436853
:103070005904FCD54FF46050C4F2020001460268C6
:1030800042F00103036008684FF460538207C4F202
:103090000203F8D5196841F480321A6019460868AD
:1030A0004FF460538003C4F20203F8D55A6F42F024
:1030B00001015967586F4FF460528107C4F2020250
:1030C000F8D5136FDB070FD44FF4E040C4F20000D3
:1030D000016841F480730360116F41F001031367CD
:1030E000026822F4807101604FF46051C4F2020161
:1030F000086F4FF460538007C4F20203F8D545F21D
:103100001A42C0F240725A60196841F0807018602B
:1031100019460A684FF460539201C4F20203F8D5CD
:1031200098684FF414424FF47051C3F60802C4F289
:103130000201104340F2057298600A60996841F0FC
:1031400002009860996801F00C004FF46052082862
:10315000C4F20202F6D1536C43F480415164506EC4
:1031600040F4804353667047AFF30080AFF30080B4
:10317000F8B541F2EC26C2F20006304641F22035A5
:10318000FEF7B6FEC2F200051A4F4FF4005242F6A7
:103190001643C4F20102C0F20203284641F254343D
:1031A000C2F20004B262F7623363FEF7A1FE4FF48D
:1031B000045242F61643A7F11801C4F20102C0F20C
:1031C00002232046AA62E9622B63FEF791FE4FF4C8
:1031D000085242F61643C4F20102243FC0F20243F1
:1031E00012205021A262E7622363BDE8F840FDF798
:1031F000A7BE00BF40CE0008AFF30080AFF3008051
:1032000038B50378012B044600D038BD354DA842AF
:1032100016D0354DA8422BD0344DA8423FD04FF4A4
:103220000C52C4F20102A36A516801F4400040F458
:103230008030506000210122596099609A6038BD49
:10324000C06A2B4A05212346FFF732FE00283DD1F4
:10325000EB6A42F24C0219684FF46050C4F202006B
:10326000C4F201028A60436C43F480724264D6E780
:10327000C06A1F4A05212346FFF71AFE50BBE96AC0
:1032800042F24C100A684FF46053C4F20203C4F2D5
:1032900001009060596C41F400705864BFE7C06A47
:1032A000134A05212346FFF703FEB8B9E86A42F244
:1032B0004C2201684FF46053C4F20203C4F20102CD
:1032C0008A60586C40F480625A64A8E70948FDF7A8
:1032D0002FFFBDE70848FDF72BFFD0E70748FDF7B4
:1032E00027FFE3E7EC1200202013002054130020F6
:1032F000B133000870CE000884CE000898CE0008D4
:103300000369026B19782DE9F00309B142F4807268
:10331000C468C56A5E8829688768D3F80CC0CF6026
:10332000012C88BF42F0080204FB06F44C600A60DE
:10333000D1F80090D3F814809F69DE691D6A5C6A39
:103340001B69826A49F00109C1F800904CF0806065
:10335000002113F0804F43F4407340F4807014BF99
:1033600043F0030343F001031160C2F80C801761BE
:10337000D6621563546350609360BDE8F0037047F4
:10338000C16A0A68136810B423F01F04146013683C
:1033900013F00103FBD10C7A826A49683D2000FAE0
:1033A00004F00860536093600123936010BC704781
:1033B00011F00C0F38B50D46044620D10369002BDF
:1033C00041D0CA0605D55B681BB1C2688168520846
:1033D0009847AB0637D520690178002938D0456871
:1033E000002D30D0E268012A2ED94088A368520807
:1033F00000FB02F103EB41012046A84738BDFFF76F
:10340000BFFF2569AB684BB1052220460021227021
:1034100098472078052801D10221217000252561D7
:10342000202383F31188FDF71BFF636933B14FF04D
:10343000FF32656118469A62FDF7E2FFFDF7F8FE7C
:10344000002383F3118838BD2046A168A84738BD02
:103450002046FFF795FF21694B6843B3E2680420DB
:10346000012A20701FD94D88A168520805FB02F57A
:10347000204601EB450198472378042B0ED02023EA
:1034800083F31188FDF7ECFE61690029D6D0002393
:10349000636108468B62FDF7B3FFCFE7022200208D
:1034A00022702061EBE72046A1689847E4E70222FA
:1034B00022702361E3E700BFAFF30080AFF3008029
:1034C00038B5FDF795FE4FF40053C4F20103002117
:1034D0001A681960930605D5524CE06A03685A6869
:1034E000002A6ED14FF40450C4F201000021036899
:1034F0000160980605D54C4CE26A10684368002BC1
:1035000038D14FF40850C4F2010000210368016073
:10351000990629D5454CE26A1068436823B32169AE
:1035200011B32046FFF72CFF2569AB683BB105229C
:1035300020460121227098472078052868D0002570
:103540002561202383F31188FDF78AFE606930B17D
:103550004FF0FF33354A83625561FDF751FFFDF7A8
:1035600067FE002383F31188FDF722FEBDE8384093
:10357000FDF766BC21690029C3D02046FFF700FF94
:103580002569AB683BB1052220460121227098478E
:103590002078052842D000252561202383F3118857
:1035A000FDF75EFE606930B14FF0FF331E4A836263
:1035B0005561FDF725FFFDF73BFE002383F31188DE
:1035C0009FE7216900298DD02046FFF7D9FE2569A4
:1035D000AB683BB105202070012120469847227836
:1035E000052A18D000252561202383F31188FDF7D3
:1035F00037FE606930B14FF0FF330A4A836255618C
:10360000FDF7FEFEFDF714FE002383F3118869E742
:103610000221217093E702212170E3E7022121704A
:10362000B9E700BFEC120020201300205413002043
:103630004FF40C53C4F201035A6842F4000058607E
:10364000704700BFAFF30080AFF30080AFF300809E
:103650004FF40C53C4F201035A6842F480005860DE
:10366000704700BFAFF30080AFF30080AFF300807E
:1036700010B5FDF7BDFD41F28830C2F200004FF4F5
:1036800070534268C4F20103012400215C61536855
:103690009847FDF78DFDBDE81040FDF7D1BB00BF99
:1036A00010B5FDF7A5FD41F28830C2F200004FF4DD
:1036B00070534268C4F20103022401215C61D368A3
:1036C0009847FDF775FDBDE81040FDF7B9BB00BF99
:1036D00010B5FDF78DFD41F28830C2F200004FF4C5
:1036E00070534268C4F20103042402215C615369EF
:1036F0009847FDF75DFDBDE81040FDF7A1BB00BF99
:1037000010B5FDF775FD41F28830C2F200004FF4AC
:1037100070534268C4F20103082403215C61D36939
:103720009847FDF745FDBDE81040FDF789BB00BF98
:1037300010B5FDF75DFD41F28830C2F200004FF494
:1037400070534268C4F20103102404215C61536A7F
:103750009847FDF72DFDBDE81040FDF771BB00BF98
:1037600010B5FDF745FD4FF47053C4F201035C69D9
:1037700004F478725A61A30624D460061CD421068E
:1037800014D4E2050CD4A30504D511484168CB6CD0
:1037900009219847FDF70CFDBDE81040FDF750BB2F
:1037A0000B48436808215A6C9047ECE70848416889
:1037B000CA6B07219047E4E7054842680621536B2E
:1037C0009847DCE702484168CB6A05219847D4E76F
:1037D00088130020AFF30080AFF30080AFF30080C8
:1037E00010B5FDF705FD4FF47053C4F201035C6999
:1037F00004F47C4261055A612CD4220524D4E304EC
:103800001CD4A00414D461040CD4220404D514489C
:1038100042680F21D36F9847FDF7CAFCBDE81040FE
:10382000FDF70EBB0E4841684B6F0E219847ECE741
:103830000B4843680D21DA6E9047E4E70848416879
:103840004A6E0C219047DCE7054842680B21D36D96
:103850009847D4E7024841684B6D0A219847CCE766
:1038600088130020AFF30080AFF30080AFF3008037
:1038700010B5FDF7BDFC41F28830C2F200004FF4F4
:1038800070534268C4F201034FF4803410215C612C
:10389000D2F884309847FDF78BFCBDE81040FDF767
:1038A000CFBA00BFAFF30080AFF30080AFF300806A
:1038B00010B5FDF79DFC41F28830C2F200004FF4D4
:1038C00070534268C4F201034FF4802412215C61FA
:1038D000D2F894309847FDF76BFCBDE81040FDF737
:1038E000AFBA00BFAFF30080AFF30080AFF300804A
:1038F00010B5FDF77DFC41F28830C2F200004FF4B4
:1039000070534268C4F201034FF4002413215C6138
:10391000D2F89C309847FDF74BFCBDE81040FDF70E
:103920008FBA00BFAFF30080AFF30080AFF3008029
:1039300010B5FDF75DFC41F28830C2F200004FF493
:1039400070534268C4F201034FF4801414215C6187
:10395000D2F8A4309847FDF72BFCBDE81040FDF7E6
:103960006FBA00BFAFF30080AFF30080AFF3008009
:1039700010B5FDF73DFC41F28830C2F200004FF473
:1039800070534268C4F201034FF4800416215C6155
:10399000D2F8B4309847FDF70BFCBDE81040FDF7B6
:1039A0004FBA00BFAFF30080AFF30080AFF30080E9
:1039B00008B506206021FDF7C3FA07206021FDF756
:1039C000BFFA08206021FDF7BBFA09206021FDF74E
:1039D000B7FA0A206021FDF7B3FA17206021FDF73E
:1039E000AFFA28206021FDF7ABFA01206021FDF736
:1039F000A7FA2920F021FDF7A3FA2A206021FDF77C
:103A00009FFA60213E20FDF79BFA4C206021FDF7D4
:103A100097FA0220F021FDF793FA0320F021BDE888
:103A20000840FDF78DBA00BFAFF30080AFF3008010
:103A300041F28830C2F20000FEF7CABAAFF300804C
:103A4000426852F83130D80770B441D54FF4705401
:103A5000C4F201040120A56800FA01F00543A56045
:103A6000C44313F0020F4FF47053C4F20103DD6836
:103A700014BF05432540DD6002EBC1035D68002DE6
:103A800032D04FF47053C4F201031D68284318600C
:103A9000586804405C600F2918D88C084FF46053B4
:103AA000A01CC4F2010352F8314053F8205001F039
:103AB000030189000F2202FA01F2C4F3031425EA7C
:103AC000020204FA01F10A4343F8202070BC704757
:103AD0004FF47055C4F201050120AE6800FA01F000
:103AE000C4432640AE60BCE74FF47053C4F20103F8
:103AF0005D6828435860186804401C60CBE700BF2D
:103B00004FF47053C4F201030122186802FA01F164
:103B1000CA431040186058681040586098681040B8
:103B20009860D8680240DA6059617047AFF300804E
:103B300038B50378012B054635D06868016811F067
:103B400004012CD028460021FFF77AFF01240EE063
:103B5000FFF776FF0134686850F834104B0716D52C
:103B6000214628460134FFF76BFF172C16D06A68F0
:103B700052F8343013F0040F28462146E8D1FFF7FD
:103B8000BFFF0134686850F834104B07E8D4214671
:103B900028460134FFF7B4FF172CE8D138BD28467A
:103BA000FFF7AEFFD2E7FFF703FFC6E7AFF30080F2
:103BB00008B5FDF71DFB0B4B1878DA6800210428C7
:103BC000118204D1022018701180118291815B68EA
:103BD00004485A689047FDF7EBFABDE80840FDF746
:103BE0002FB900BF90130020AFF30080AFF3008027
:103BF00041F29033C2F200034FF40052C4F20002CB
:103C00001846DA60FEF71CBAAFF30080AFF300800D
:103C100038B50378012B044615D06568A0682B6879
:103C2000B0FBF3F2511E8DB205FB0333984202D074
:103C30001248FDF77DFAE0680022082102808180A9
:103C40000585828138BD0E488442E6D14FF460512B
:103C5000C4F202010A6C42F480750D640B6A002202
:103C600043F4807008620A622D207021FDF768F924
:103C70004FF43D41C0F20151A160CEE7B0CE000843
:103C800090130020AFF30080AFF30080AFF300800B
:103C9000C368012200200139D9629A8258621882D1
:103CA0009A8105221A807047AFF30080AFF300803D
:103CB00038B5224CE3686268188A9D89117DADB2DF
:103CC0000540E84380B2188205F0020398B299B922
:103CD00038B1207804230328237002D0D26820460C
:103CE000904705F0040188B208BBEB0703D5636871
:103CF00012481969884738BD70B905F0040398B2B5
:103D00000028F2D021780D48042203292270ECD03B
:103D10004368D9688847E8E7052120462170926802
:103D2000904705F0040398B20028DED0EAE7636804
:103D300002489968052222708847D6E7A013002020
:103D400008B5FDF755FAFFF7B3FFFDF731FABDE807
:103D50000840FDF775B800BFAFF30080AFF30080F7
:103D600008B5FDF745FAFFF7A3FFFDF721FABDE817
:103D70000840FDF765B800BFAFF30080AFF30080E7
:103D800010B541F2A034C2F200042046FEF7B0F9AB
:103D90000023C4F20103E36010BD00BFAFF3008055
:103DA00001F001038A0748BF43F002034A0748BFF6
:103DB00043F008030A0748BF43F00403CA0648BF9C
:103DC00043F010038A0648BF43F020038A05426B84
:103DD00048BF43F0400342EA03014163704700BF1C
:103DE00038B5FDF705FA202383F311880C4CFDF755
:103DF00037FA4FF43053C4F20103E06B0025DD6362
:103E000010B1FDF7FDFAE563FDF712FA002383F325
:103E10001188FDF7CDF9BDE83840FDF711B800BFB6
:103E2000B8130020AFF30080AFF30080AFF3008041
:103E300010B541F2B834C2F200042046FEF728FC67
:103E40004FF430530348C4F201030022E26360647C
:103E5000A36410BD34CE0008AFF30080AFF3008040
:103E6000027945F22043C0F6A303012A10B50446A7
:103E7000036409D04FF43050C4F201000022026004
:103E80004260C262426210BD0022406C09211346AA
:103E9000FFF70EF8A8B9606C4FF432510368C4F212
:103EA00001010722996031205A619021FDF748F8FD
:103EB0004FF46050C4F20200416C41F4006343646B
:103EC000D8E70248FDF734F9E5E700BFD0CE000897
:103ED0004FF43053C4F2010378225A60186840F05E
:103EE000030119605A6842F480705860704700BF3F
:103EF0004FF43053C4F201035A6822F0FF005860B7
:103F0000704700BFAFF30080AFF30080AFF30080D5
:103F10004FF43053C4F2010300225A601A60704714
:103F20004FF43053C4F2010301295A6822F4C050FF
:103F300007D001D2586070470229FCD140F480506C
:103F4000F8E740F400615960704700BFAFF30080AC
:103F50004FF43053C4F2010341F480619A60184673
:103F6000D960426B4FF430531106C4F20103F8D507
:103F700080219963704700BFAFF30080AFF30080EA
:103F800010B54FF43054C4F2010441F48861A260CA
:103F9000E160616B4FF4305211F0450FC4F2010241
:103FA000F7D011F00404916303D1516920461960E0
:103FB00010BDFFF7F5FE012010BD00BFAFF300807C
:103FC00010B54FF43054C4F2010441F48861A2608A
:103FD000E160616B4FF4305211F0450FC4F2010201
:103FE000F7D011F00504916303D15169204619609F
:103FF00010BDFFF7D5FE012010BD00BFAFF300805C
:104000002DE9F041202306460F46904683F31188A0
:10401000FDF756F94FF43053C4F20103D86B78B171
:10402000F16B11B12248FDF783F8224A946902200E
:10403000F463FDF73DFAF36B13B11F48FDF778F811
:104040004FF43050C4F20100416B11F4807427D05A
:10405000726C15682C6814F00104FBD1117A526857
:104060004FF43050C4F201003D2540F2FF7305FAD1
:1040700001F1C0F2C00311608363C462FDF708F967
:10408000234683F31188012F07D930460C2122469D
:104090004346BDE8F041FFF793BF2046BDE8F081FD
:1040A000FDF7F6F8234683F311880120BDE8F0817F
:1040B000E4CE0008241200200CCF0008AFF30080EB
:1040C0002DE9F047466C4FF43053347A3568C4F22A
:1040D000010307464FF03D0E7068D3F834C00EFA66
:1040E00004F404602B6823F01F04894690462C607A
:1040F000296811F00104FBD1327A4FF43055C4F233
:1041000001053D2140F2FF7301FA02F2C0F2C00343
:1041100002606146AB633846EC63EC62FFF740FE39
:10412000B9F1010F07D938460C2122464346BDE8B4
:10413000F047FFF745BFBDE8F08700BFAFF3008051
:1041400010B54FF43054C4F2010441F49861A260F8
:10415000E160616B4FF4305211F0450FC4F201027F
:10416000F7D011F03F04916309D1106A1860D1694A
:1041700059609069986052692046DA6010BDFFF777
:104180000FFE012010BD00BFAFF30080AFF3008031
:104190002DE9F041B3F5004F82B01E4605460F46AB
:1041A00090464FD24FF43054C4F201044DF2C04354
:1041B000C0F2010363622846FEF7FAF918B1012044
:1041C00002B0BDE8F081686C296C03687202900847
:1041D000C3F80C8058601960186840F2FF7140F015
:1041E00001001860C0F2C00140F22A33A163E3630A
:1041F000A2622C6BE00658BF7F02012E01AC28465C
:1042000024D912213A462346FFF7DAFE98B94EF236
:104210000801019ACFF6FF51114061B94FF43050B7
:10422000C4F201009B23C362314628462246FFF7B1
:10423000E7FE0028C4D0284631462246FFF740FF5B
:104240000120BDE70548FCF773FFABE711213A46B3
:104250002346FFF7B5FE0028D9D0ECE734CF00089D
:104260002DE9F041B3F5004F82B01E4605460F46DA
:10427000904651D24FF43054C4F2010448F68053B2
:10428000C0F25B0363622846FEF792F918B1012081
:1042900002B0BDE8F081686C296C03687202900876
:1042A00041F04001C3F80C8058601960186840F272
:1042B000FF7140F001001860C0F2C00140F21A33F3
:1042C000A163E363A2622C6BE40658BF7F02012E58
:1042D00001AC284624D919213A462346FFF770FE3F
:1042E00098B94EF20801019ACFF6FF51114061B919
:1042F0004FF43050C4F201009923C362314628467E
:104300002246FFF77DFE0028C2D0284631462246CD
:10431000FFF7D6FE0120BBE70548FCF709FFA9E738
:1043200018213A462346FFF74BFE0028D9D0ECE788
:1043300034CF0008AFF30080AFF30080AFF300800C
:1043400012F0030F2DE9F047154680460C461E4635
:1043500052D0002B4DD003EB0109CE434E44012334
:10436000274A1E40FFF714FF00283FD12846244962
:104370004FF40072013407F06BFD4C4505F50075F4
:1043800037D02EB3404621461D4A0123FFF700FFD8
:1043900060BB28461A494FF40072013407F058FDFB
:1043A0004C4505F5007513D123E0284607F050FD74
:1043B0003146134A01234046FFF7EAFE4FF40072EC
:1043C0000F49BD1890B9384607F042FD4C4510D052
:1043D000214601230A4A661C4046F418FFF7D8FE1E
:1043E0004FF400720649AF180028DED00120BDE866
:1043F000F0870020BDE8F087BDE8F047FFF7C8BEB2
:1044000004140020AFF30080AFF30080AFF300800E
:1044100012F0030F2DE9F041154607460C461E46E3
:1044200057D0002B52D003EB01082C48CB43114648
:104430004FF4007203EB080607F00AFD38462146E8
:10444000264A012306F0010605F50075FFF708FF6F
:10445000002838D10134444538D0F6B129464FF40C
:1044600000721E4807F0F4FC384621461B4A01231F
:1044700005F50075FFF7F4FE28BB013444450CD167
:1044800024E0164807F0E4FC38463146134A01237D
:10449000FFF7E6FEB8B9444518D029464FF400723C
:1044A0000E4807F0D5FC661C214601230B4A38460E
:1044B000F418FFF7D5FE05F500754FF40072294694
:1044C000AD180028DDD00120BDE8F0810020BDE856
:1044D000F081BDE8F041FFF7C3BE00BF0414002027
:1044E00000207047AFF30080AFF30080AFF300808F
:1044F0004FF46053C4F202031A6B6FEA52216FEA61
:1045000041221A63196D6FEA51226FEA422119653F
:1045100000234168C4F202034FF48062596081684D
:104520009960C168D96001695961416919628169FD
:10453000596201681960016AC4F202024FF4006313
:104540005160416A9160816AD160C16A5161016BB9
:104550001162416B5162C1691160C4F20203C26B06
:104560005A60016C9960426CDA60816C5961C26C6E
:104570001A62016D5962816B4FF440621960816D5E
:10458000C4F202024FF480535160C16D9160016E1C
:10459000D160416E5161816E1162C16E5162416D97
:1045A0001160C4F20203426F5A60816F9960C26F5A
:1045B000DA60D0F880105961D0F884201A62D0F8FF
:1045C00088105962016F4FF4A0521960D0F8901012
:1045D000C4F202024FF4C0535160D0F894109160BD
:1045E000D0F89810D160D0F89C105161D0F8A0108C
:1045F0001162D0F8A4105162D0F88C101160D0F87C
:10460000AC10C4F202034FF4E0525960D0F8B0107D
:104610009960D0F8B410D960D0F8B8105961D0F8CA
:10462000BC101962D0F8C0105962D0F8A810C4F2BA
:1046300002021960D0F8C8305360D0F8CC109160F5
:10464000D0F8D030D360D0F8D4105161D0F8D83041
:104650001362D0F8DC105162D0F8C4104FF400534C
:104660001160D0F8E420C4F202035A60D0F8E810D8
:104670009960D0F8EC20DA60D0F8F0105961D0F8E9
:10468000F4201A62D0F8F8105962D0F8E0001860EF
:10469000704700BFAFF30080AFF30080AFF300803E
:1046A0004FF42053C4F200030F4ACA205321136071
:1046B00058625962DA68D10614D4D86840F0800193
:1046C000D9601846C2684FF420535206C4F2000362
:1046D000F8D5FF21C0F27F0119611961D86820F077
:1046E0008002DA60704700BF04160020AFF300803C
:1046F00070B40D4B1A68D0688406FCD51669956AAB
:104700001369146850684C607204540C5B04621B9B
:104710005B0C4FF47A7404FB02F20133B2FBF3F248
:10472000CA60086070BC704704160020AFF30080B8
:104730002DE9F04F202385B0044683F31188FCF760
:10474000BFFD20466946FFF7D3FFFCF7A1FD00231C
:1047500083F311889DE80C00C3F30230C3F3021108
:10476000C3F3032600EB8009C3F38057C2F3003084
:1047700003F00F0506EB490401EB810AC2F30111B6
:104780007E0005EB4A0A02F00F0801EB810B4FEAAD
:1047900044194FEA800CF419C3F30151C2F3032703
:1047A000C2F3034549EA5A0908EB4B066044C2F3D9
:1047B000035207EB400C01EB8101A400143549EAD8
:1047C000064602EB820204EB410005EB420246EA98
:1047D0004C51C3F3034341EA4261C31841EAC32089
:1047E00005B0BDE8F08F00BFAFF30080AFF30080ED
:1047F00011F00C0F70B504463CD1606A0268136872
:1048000023F01F0111601568E907FCD4057A216ABD
:1048100043680A683D2000FA05F01860156825F025
:104820001F0313601068C307FCD46568087A4A68E0
:104830002B683D2101FA00F11160C3B10425204627
:10484000257098472078042811D0A56875B10026F6
:10485000A660202383F31188FCF702FD2846FCF7AD
:10486000CFFDFCF7E5FC334683F3118870BD0222CF
:104870002270EAE7012003F073FDFCF799FABCE728
:1048800011F00C0F08B500D108BD012003F068FD40
:10489000BDE80840FCF78CBAAFF30080AFF30080AE
:1048A000F8B541F2086341F20C65C2F20005C2F2AC
:1048B0000003194E4FF6FF72284641F23C64C2F2E3
:1048C00000041A80FDF7E4FF4FF4405116224623FE
:1048D000C4F20101C0F20162C0F2016306F13C07BB
:1048E0002046E9612E62AA62EB626F62FDF7D0FF9B
:1048F0004FF4605116224623A6F13C00C4F2000199
:10490000303EC0F20102C0F20103E1612062666242
:10491000A262E362F8BD00BF10CE0008AFF30080D2
:1049200038B50378012B044627D0C36960684289F3
:10493000A06A02F4006189B2B9B1E16A20F4F040E2
:1049400021F4F04140F4205041F42051A062E16292
:1049500042F441720020072118801A8099801A8839
:1049600090B240F04001198038BDE16A20F4F04077
:1049700021F4F041A062E162EAE7274DA8420CD0A1
:10498000264DA84220D0216A626AE369086811684E
:1049900003F10C0282608A60C8E7006A204A0A219B
:1049A0002346FEF785FA50BB686A1E4A1A4B0A2155
:1049B000FEF77EFAF8B94FF46053C4F20203586C64
:1049C00040F480525A64DEE7006A154A0A21234601
:1049D000FEF76EFAD8B9686A124A104B0A21FEF740
:1049E00067FA80B94FF46050C4F20200026C42F4DE
:1049F00080410164C7E70C48FCF79AFBDBE70B48F2
:104A0000FCF796FBD0E70A48FCF792FBEAE7094877
:104A1000FCF78EFBDFE700BF0C1600203C160020E1
:104A2000F14700088148000864CF000850CF000813
:104A30008CCF000878CF0008AFF30080AFF3008080
:104A400043681A895868012101FA02F39AB2428335
:104A5000704700BFAFF30080AFF30080AFF300807A
:104A600043681A895868012101FA02F39AB2028355
:104A7000704700BFAFF30080AFF30080AFF300805A
:104A8000F0B4036A476AC66A1C68806A3B6841F2F0
:104A90006C65C2F2000546F48066E56061602060E6
:104AA000DA6059601E60226842F0010121601868D6
:104AB00040F001021A60F0BC704700BFAFF3008005
:104AC00070B4436A046A866A24681B68C06AE2603C
:104AD00041F2086546F48066C2F200056160266016
:104AE000DD6059601860226842F001012160186899
:104AF00040F001021A6070BC704700BFAFF3008045
:104B0000C26991811389D807FCD5908980B270471A
:104B10004FF48053C4F201039A8990B240F08001AF
:104B200099817047AFF30080AFF30080AFF300804E
:104B30004FF48843C4F200039A8990B240F0800198
:104B400099817047AFF30080AFF30080AFF300802E
:104B50004FF4A053C4F201039A8990B240F080014F
:104B600099817047AFF30080AFF30080AFF300800E
:104B70002DE9F843D0F8D450AF892C88B5F80480DB
:104B8000A4B222070646BFB21FFA88F855D104F432
:104B9000807399B200293AD104F0200290B230BB60
:104BA00007F0800399B221B104F0800290B200288E
:104BB0006CD104F04004A4B2BCB1202383F311886B
:104BC000FCF74EFB301D1021FCF75AFFFCF730FBC1
:104BD000002383F311884FF6BF703840A8812B88DB
:104BE00023F040010A04100C2880BDE8F88320233C
:104BF00083F31188FCF734FB30465FFA88F1FDF748
:104C000017FEFCF715FB002383F31188C8E7202368
:104C100083F31188FCF724FB301D4FF40071FCF77F
:104C20002FFFFCF705FB002383F311882A8822F469
:104C300080700304190C2980AEE704F008091FFAFC
:104C400089F0002814BF4FF080094FF00009E307F6
:104C500004F0020399B248BF49F0200909B149F0B4
:104C6000400904F0040290B208B149F4807920238D
:104C700083F31188FCF7F4FA301D4946FCF700FF76
:104C8000FCF7D6FA002383F3118880E7202383F30F
:104C90001188FCF7E5FA06F13000FDF731F800283D
:104CA00007DB83B2AB80FCF7C3FA002383F31188E0
:104CB0007FE70821301DFCF7E3FE27F0C00141F03B
:104CC0004002AA81EFE700BFAFF30080AFF300809E
:104CD00008B5FCF78DFA41F27060C2F20000FFF7F0
:104CE00047FFFCF765FABDE80840FCF7A9B800BF2C
:104CF00008B5FCF77DFA41F24870C2F20000FFF7F8
:104D000037FFFCF755FABDE80840FCF799B800BF3B
:104D100008B5FCF76DFA41F62000C2F20000FFF77B
:104D200027FFFCF745FABDE80840FCF789B800BF4B
:104D300070B541F27066C2F2000644F61132304698
:104D40000021C0F6000241F24875FDF721FDC2F2D4
:104D500000054FF4805344F63132C4F20103284673
:104D60000021C0F6000241F62004C2F20004C6F899
:104D7000D430FDF70DFD4FF4884344F65132C4F2B0
:104D8000000320460021C0F60002C5F8D430FDF72C
:104D9000FFFC4FF4A050C4F20100C4F8D40070BD71
:104DA00038B5037A364C002918BF0C46012B05464E
:104DB0002CD04FF48050D5F8D4302168C4F20100D3
:104DC000834239D04FF4A052C4F20102934233D04F
:104DD0004DF68060C0F28020B0FBF1F18AB21A81FA
:104DE000A288E088218942F4045240F0400080B259
:104DF00041F0010142F02C02188292B289B20020E7
:104E000099829A8118801A889B8838BD1D488542EE
:104E10001BD01D498D4225D01C4A9542C9D14FF463
:104E20006053C4F202034720596C41F020025A64D7
:104E3000C021FCF785F8BCE74FF43D40C0F20150BB
:104E4000B0FBF1F18AB21A81CAE74FF46053C4F2A1
:104E500002032520596C41F010025A64C021FCF76E
:104E60006FF8A6E74FF46053C4F202032620196CD2
:104E700041F400321A64C021FCF762F899E700BFE0
:104E8000A0CF00087016002048170020201800202E
:104E9000FEF7DEB8AFF30080AFF30080AFF3008021
:104EA0004FF44063C4F202031869C0F3001181F0AB
:104EB00001007047AFF30080AFF30080AFF30080D4
:104EC0004FF44063C4F202031869C0F34010704706
:104ED000704700BFAFF30080AFF30080AFF30080F6
:104EE000F0B4002B08BF0B46074600F10B0C00F195
:104EF0000A05B1FBF2F602FB161101F13004392C60
:104F0000C8BF01F13704E4B2B3FBF2F328463146DF
:104F100005F80149002BECD1C0EB0C03F943024624
:104F2000F8184318DB070AD507F8014B12F8014FB0
:104F300005E012F8014F7C7012F8014F5F1C3B46F0
:104F400003F8014B8342F4D1F0BC7047AFF300800B
:104F50000EB42DE9F04F2DED028B8CB00DF1180C35
:104F600017ABCDF808C0029A53F8046B0DF1190C79
:104F7000CDF804C0C2EB0C0C05938046CDF80CC0F4
:104F8000344614F8011B61B1252911D0D8F800600E
:104F9000B368264634464046984714F8011B00295A
:104FA000F2D10CB0BDEC028BBDE8F04F03B07047FE
:104FB00073782D2B00F0CD8100272E2B00F0C581BA
:104FC000202526460599002406E00A78043104EBE2
:104FD0008404337802EB4404A3F13000C2B20136FA
:104FE000092AF4D92A2BF0D000202E2B05914BD082
:104FF0006C2B55D04C2B53D0A3F1410119298CBFF8
:1050000000210121A3F14402342A00F29781DFE854
:1050100012F08B0195019501950195018B01950188
:1050200095019501950195018901950195019501DC
:1050300095019501810195019501700195019501F9
:1050400095019501950195019501950195019501B0
:1050500030018B019501EB00950195018B019501C4
:10506000950195019501950189019501950195019C
:105070004F00950181019501950170010A78043175
:1050800000EB800302EB430016F8013BA3F1300272
:10509000D2B2092AF4D92A2BF0D06C2B0591A9D1D0
:1050A0003178002900F059810B4601360121A9E72A
:1050B000059D4DF2B0092B68C0F60009002B18BF02
:1050C0009946291D99F80020059147F6FF7500289B
:1050D00008BF2846002A00F0628199F80130411E7D
:1050E00009EB000A09F1010201F00100002B77D061
:1050F0009245134608D000286DD055780132002D16
:105100006ED09245134666D1C9EB0A0ACAEB040475
:10511000202524EAE474002F00F0BD80BAF1000FCE
:105120002ADD4F46D8F8000017F8011B8368CA44EF
:105130006FEA090E40460AEB0E099847574509F0F9
:10514000010919D0B9F1000F04D0D8F8002017F8E0
:10515000011B0CE0D8F80000B946826819F8011B61
:1051600040469047D8F80020797809F10107936804
:10517000404698475745EDD1002C3FF401AFD8F891
:105180000070631EBA681C464046294603F00107BA
:105190009047002C3FF4F4AE47B1D8F800104046D9
:1051A0008B6829469847013C3FF4EAAED8F80000E6
:1051B0002946826840469047D8F80010013C8B6829
:1051C000404629469847013CF0D1D9E6557801324E
:1051D00035B19A4598D058785A1C531C0028F5D1FF
:1051E000C9EB020A20254FE0059AD01D20F00701E7
:1051F00001F10803D1E900010593FBF771FC08EE0A
:10520000100AB5EEC08AF1EE10FA00F1C08006A8CF
:10521000FDEEC88A0A22002318EE901AFFF760FEFE
:1052200081462E2009F8010B18EE100AFBF73CF915
:10523000824618EE900A8B46FBF724F902460B468D
:1052400050465946FAF7D0FF57A3D3E90023FBF79E
:105250007FF9FBF71DFC0A22014642F21073484613
:10526000FFF73EFEDDF808C00DF11809CCEB000A8F
:105270000AE0059DDDF80CA029682B1D05938DF82B
:10528000181020250DF11809CAEB040424EAE4746F
:10529000002F7FF443AF6442002C3FF43FAF99F8F6
:1052A00000102D2967D0D8F80010E2438B684046E3
:1052B000294602F00107984701343FF42FAF47B168
:1052C000D8F8001040468A682946904701343FF4D8
:1052D00025AFD8F800002946836840469847D8F89B
:1052E000001001348A684046294690470134F0D1C5
:1052F00014E71022059B89B1191D0591196806A8AC
:105300000023FFF7EDFDDDF808A00DF11809CAEB49
:10531000000AB9E70A22059B0029EDD1181D19687A
:105320000590ECE70822E5E7059B1A1DB9B119685D
:105330000592002917DB06A80A22E1E78DF818304C
:10534000DDF80CA00DF118099EE7637830250134D3
:1053500037E6B41CB37801272FE6012152E619681D
:1053600005920029E7DA2D208DF8180049420DF149
:1053700019000A22C4E7302D95D1D8F800704046B4
:10538000BB68984709F101090AF1FF3A8BE72D2222
:105390008DF81820B1EE488A0DF1190038E79246D1
:1053A000202571E7AFF3008000000000006AF8409C
:1053B00091E80C002DE9F00FC3F38056C2F30035DD
:1053C0004FEA46094FEA8508C2F30354C3F301517B
:1053D000A844B144C2F3032CC2F3011604EB840ABF
:1053E0000CEB480CC2F30347C3F30215C3F30234BA
:1053F00001EB810B4FEA8909C2F3423106EB8606C5
:1054000002F00F0207EB4A07C3F3032803F00F0A69
:1054100002EB460605EB85050CF1FF3204EB840434
:105420004FF0000C09EB4B09C3F30343072908BFF6
:10543000002164370AEB450508EB44044B44C0F8EF
:105440001CC04FF0FF3CC0F820C08161C660026103
:105450004761056044608360BDE8F00F704700BF9E
:1054600010B584B000230C466946009301938DF873
:1054700008300393FCF7A4FE20466946FFF798FF27
:1054800004B010BDAFF30080AFF30080AFF3008035
:10549000C36882689A4206D04268D154C1684B1CE6
:1054A000C360002070476FF001007047AFF30080C9
:1054B0000369C2689A4205D04168CA5C013303613E
:1054C000104670476FF00100704700BFAFF30080D7
:1054D00038B5044608462369E5686168ED1AAA42B2
:1054E00038BF15462A46C91806F0B2FC2069421991
:1054F0002261284638BD00BFAFF30080AFF30080C3
:1055000038B5C36885680446ED1A4068AA4238BFBA
:1055100015462A46C01806F09BFCE1684A19E2606D
:10552000284638BDAFF30080AFF30080AFF30080B2
:1055300010B44DF2C004C0F60004C3600023046040
:1055400041608260036110BC704700BFAFF3008010
:1055500010B560B907480479053C18BF0124FFF76E
:10556000AFFC10B144F00400C4B2204610BD0224C8
:10557000204610BDB8130020AFF30080AFF30080C9
:1055800010B560B907480479053C18BF0124FFF73E
:1055900097FC10B144F00400C4B2204610BD0224B0
:1055A000204610BDB8130020AFF30080AFF3008099
:1055B00010B40C4628B907480179052904D0032006
:1055C00000E0042010BC70471146224610BCFCF7D6
:1055D000BFBF00BFB8130020AFF30080AFF300805F
:1055E00010B40C4628B907480179052904D00320D6
:1055F00000E0042010BC70471146224610BCFCF7A6
:1056000077BF00BFB8130020AFF30080AFF3008076
:1056100028B9032903D8DFE801F007090E040420A4
:1056200070474FF4807313600020704704498B6A01
:105630000020136070474FF4007010800020704706
:10564000B8130020AFF30080AFF30080AFF3008009
:1056500041F20460C2F20000FCF7D2BDAFF300805B
:1056600008B518B103680BB11A780AB9092008BD4A
:10567000D98880888142F9D15878FFF781FF10F0EE
:10568000010F0CBF0020032008BD00BFAFF3008056
:10569000F8B50446007900B9F8BD256B607804F1CF
:1056A000340631462A460123FFF79AFF28BB626A77
:1056B000207195421FD3E369981885421BD2E77881
:1056C000012F18D9FA070CD5ED18607802E0E169CE
:1056D00060786D18012331462A46FFF781FFE369A0
:1056E000013FED18314601232A466078013FFFF75C
:1056F00077FF012FEBD10020F8BD0120F8BD00BFDE
:105700002DE9F84F0546FFF7C3FF044654B92B783F
:10571000032B09D0002168780A46FFF779FF003093
:1057200018BF0120BDE8F88F68790028F2D005F194
:1057300034012C6305F50D760F463A4602F8014B0D
:105740007C70571CB742F8D1EB682A6985F8203283
:105750004FF0550B61204FEA134C4FEA136E85F85A
:105760001C22522741247226C2F3072A4FEA12490B
:10577000C3F30728120E85F832B24FF0AA0B85F852
:10578000360085F81B0285F81F2285F833B285F8AC
:10579000347085F8357085F8374085F8186285F8DB
:1057A000196285F81A4285F81DA285F81E9285F8BF
:1057B000218285F822C285F823E268786A6901238C
:1057C000FFF70EFF00216971A4E700BFAFF300806F
:1057D00038B504460A46407804F134010123FFF746
:1057E000E7FE08B1032038BD94F8322294F8331252
:1057F0004AF6552342EA01210AB2CFF6FF739A42D4
:1058000001D0022038BD94F86C3094F86D5094F8B3
:105810006A1094F86B201B0443EA05630B4343EAC8
:10582000022144F2461321F07F42C0F254039A420F
:10583000E8D094F8882094F8895094F8861094F869
:105840008700120442EA05620A4342EA002121F07D
:105850007F40C01A18BF012038BD00BFAFF30080E1
:105860002DE9F04103681C78303C092C154602D81C
:105870005A783A2A18D000200860B24C2468002CCC
:1058800025D00C602178C1B16078FFF779FEC2079E
:1058900013D4002D26D000F00400C2B2002A14BF99
:1058A0000A200020BDE8F0810233002203600A6074
:1058B000002CE2D00B20BDE8F08100202070607049
:1058C000FFF746FEC30705D50320BDE8F0810C2095
:1058D000BDE8F0814DB100F00400C3B22BB10A2045
:1058E000BDE8F0812846BDE8F08100212046FFF7A1
:1058F0006FFF012807D00025032800F0B980D0B140
:105900000D20BDE8F08194F8F621002AF8D094F833
:10591000FC0194F8FD1194F8FA3194F8FB5102045B
:1059200042EA016040EA030141EA05252046294692
:10593000FFF74EFFE0E794F8402094F83F3043EA49
:105940000220B0F5007FDBD194F84B1094F84A2088
:1059500052EA01220DD194F85A1094F85B0094F8A1
:10596000583094F85920090441EA0060034343EA9F
:10597000022294F84400E261411E0129E070BFD880
:1059800094F84130A370002BBAD0591E1942B7D1F8
:1059900094F8451094F8466041EA0626B1B216F034
:1059A0000F0F2181ACD194F8487094F8476056EA03
:1059B00007260FD194F856C094F8578094F8546095
:1059C00094F855704FEA0C4E4EEA086C4CEA060605
:1059D00046EA072694F843E094F8427057EA0E2707
:1059E0008ED000FB02FC07EB11106044864287D387
:1059F000361AB6FBF3F3002B82D040F6F576B342AD
:105A000040F2C08006F57046B34200F29F80022645
:105A10000233EF194019A36125626762E062002931
:105A20003FF46EAF6744022EA76200F08980032125
:105A300001FB03F603F0010303EB5600012600F21D
:105A4000FF13B2EB532FFFF45BAF00204FF0FF3298
:105A5000032E2261E0600ED03B4A26701388591C49
:105A600000208BB21380E38020632071BDE8F081B9
:105A70000120BDE8F08194F8651094F864306071FD
:105A800043EA01202A186261607804F1340101239D
:105A9000FFF78EFD0028DFD194F8331294F83222FC
:105AA0004AF6552342EA012001B2CFF6FF7399422C
:105AB000D2D194F8362094F8370094F8343094F822
:105AC0003510120442EA0060184345F2522340EABE
:105AD0000121C4F261139942BED194F81A2294F8BC
