:020000040802F0
:1000000000040020710B0208A10C020890010208F4
:10001000A10C0208A10C0208A10C0208A10C020804
:10002000A10C0208A10C0208A10C0208F10C0208A4
:10003000A10C0208A10C0208A10C0208C10C0208C4
:10004000A10C020851620208A10C02089163020887
:10005000A10C0208A10C0208115F0208515F0208FE
:10006000915F0208D15F020811600208D1480208BE
:100070003149020891490208F1490208514A02082F
:10008000B14A0208114B020841570208A10C0208AC
:10009000A10C0208A10C0208A10C02085160020880
:1000A000A10C0208018F0208A10C0208218F02088E
:1000B000A10C0208A10C0208A10C0208A10C020864
:1000C000A10C0208017E0208217E0208A10C020890
:1000D000A10C0208E192020801930208A10C020897
:1000E0004161020891620208D1620208A10C020873
:1000F000A10C0208918B0208A10C0208714B0208A6
:10010000A10C0208A16B0208A10C0208A10C0208B4
:10011000A10C0208A10C0208A10C0208A10C020803
:10012000D14B0208314C0208914C0208F14C0208F4
:10013000514D0208A10C020811630208A10C02082B
:10014000A10C0208A10C0208A10C0208A10C0208D3
:10015000B14D0208114E0208714E020821930208A7
:10016000A10C0208A10C0208A10C0208A10C0208B3
:1001700051630208A10C0208A10C0208A10C02089C
:08018000A10C0208A10C020809
:100190001EF0040F0CBFEFF30880EFF309800DF0A1
:1001A0008FBA000000000000000000000000000006
:1001B00081F0004102E000BF83F0004330B54FEA18
:1001C00041044FEA430594EA050F08BF90EA020F85
:1001D0001FBF54EA000C55EA020C7FEA645C7FEA18
:1001E000655C00F0E2804FEA5454D4EB5555B8BF3B
:1001F0006D420CDD2C4480EA020281EA030382EAAC
:10020000000083EA010180EA020281EA0303362D3D
:1002100088BF30BD11F0004F4FEA01314FF4801C10
:100220004CEA113102D0404261EB410113F0004F22
:100230004FEA03334CEA133302D0524263EB4303D9
:1002400094EA050F00F0A780A4F10104D5F1200E77
:100250000DDB02FA0EFC22FA05F2801841F10001D2
:1002600003FA0EF2801843FA05F359410EE0A5F1A6
:1002700020050EF1200E012A03FA0EFC28BF4CF0D7
:10028000020C43FA05F3C01851EBE37101F000458D
:1002900007D54FF0000EDCF1000C7EEB00006EEB9A
:1002A0000101B1F5801F1BD3B1F5001F0CD3490824
:1002B0005FEA30004FEA3C0C04F101044FEA44527B
:1002C00012F5800F80F09A80BCF1004F08BF5FEA02
:1002D000500C50F1000041EB045141EA050130BDE2
:1002E0005FEA4C0C404141EB010111F4801FA4F185
:1002F0000104E9D191F0000F04BF01460020B1FADA
:1003000081F308BF2033A3F10B03B3F120020CDA11
:100310000C3208DD02F1140CC2F10C0201FA0CF0EF
:1003200021FA02F10CE002F11402D8BFC2F1200C54
:1003300001FA02F120FA0CFCDCBF41EA0C0190400A
:10034000E41AA2BF01EB0451294330BD6FEA040453
:100350001F3C1CDA0C340EDC04F11404C4F120023E
:1003600020FA04F001FA02F340EA030021FA04F350
:1003700045EA030130BDC4F10C04C4F1200220FAA7
:1003800002F001FA04F340EA0300294630BD21FAE5
:1003900004F0294630BD94F0000F83F4801306BFAB
:1003A00081F480110134013D4EE77FEA645C18BF9F
:1003B0007FEA655C29D094EA050F08BF90EA020F36
:1003C00005D054EA000C04BF1946104630BD91EA2E
:1003D000030F1EBF0021002030BD5FEA545C05D131
:1003E0004000494128BF41F0004130BD14F5800470
:1003F0003CBF01F5801130BD01F0004545F0FE41E4
:1004000041F470014FF0000030BD7FEA645C1ABF18
:10041000194610467FEA655C1CBF0B46024650EA4F
:10042000013406BF52EA033591EA030F41F400217B
:1004300030BD00BF90F0000F04BF0021704730B501
:100440004FF4806404F132044FF000054FF00001D6
:1004500050E700BF90F0000F04BF0021704730B597
:100460004FF4806404F1320410F0004548BF40426C
:100470004FF000013EE700BF42004FEAE2014FEAC1
:1004800031014FEA02701FBF12F07F4393F07F4F9C
:1004900081F06051704792F0000F14BF93F07F4FCE
:1004A000704730B54FF4607401F0004521F0004111
:1004B00020E700BF50EA010208BF704730B54FF097
:1004C00000050AE050EA010208BF704730B511F09C
:1004D000004502D5404261EB41014FF4806404F1D4
:1004E00032045FEA915C3FF4DCAE4FF003025FEA56
:1004F000DC0C18BF03325FEADC0C18BF033202EBDE
:10050000DC02C2F1200300FA03FC20FA02F001FA37
:1005100003FE40EA0E0021FA02F11444C1E600BFD6
:1005200070B54FF0FF0C4CF4E06C1CEA11541DBF89
:100530001CEA135594EA0C0F95EA0C0F00F0DEF854
:100540002C4481EA030621EA4C5123EA4C5350EA39
:10055000013518BF52EA033541F4801143F480138A
:1005600038D0A0FB02CE4FF00005E1FB02E506F01B
:100570000042E0FB03E54FF00006E1FB03569CF070
:10058000000F18BF4EF0010EA4F1FF04B6F5007F76
:1005900064F5407404D25FEA4E0E6D4146EB0606E8
:1005A00042EAC62141EA55514FEAC52040EA5E5071
:1005B0004FEACE2EB4F1FD0C88BFBCF5E06F1ED81B
:1005C000BEF1004F08BF5FEA500E50F1000041EB52
:1005D000045170BD06F0004646EA010140EA0200FF
:1005E00081EA0301B4EB5C04C2BFD4EB0C0541EA21
:1005F000045170BD41F480114FF0000E013C00F336
:10060000AB8014F1360FDEBF002001F0004170BD59
:10061000C4F10004203C35DA0C341BDC04F1140472
:10062000C4F1200500FA05F320FA04F001FA05F2FE
:1006300040EA020001F0004221F0004110EBD370CB
:1006400021FA04F642EB06015EEA430E08BF20EAF7
:10065000D37070BDC4F10C04C4F1200500FA04F39A
:1006600020FA05F001FA04F240EA020001F000412C
:1006700010EBD37041F100015EEA430E08BF20EA9F
:10068000D37070BDC4F1200500FA05F24EEA020EE7
:1006900020FA04F301FA05F243EA020321FA04F016
:1006A00001F0004121FA04F220EA020000EBD370CD
:1006B0005EEA430E08BF20EAD37070BD94F0000FCD
:1006C0000FD101F00046400041EB010111F4801F01
:1006D00008BF013CF7D041EA060195F0000F18BFB2
:1006E000704703F00046520043EB030313F4801FEE
:1006F00008BF013DF7D043EA0603704794EA0C0FA8
:100700000CEA135518BF95EA0C0F0CD050EA4106BD
:1007100018BF52EA4306D1D181EA030101F000413A
:100720004FF0000070BD50EA410606BF1046194662
:1007300052EA430619D094EA0C0F02D150EA01366E
:1007400013D195EA0C0F05D152EA03361CBF1046AF
:1007500019460AD181EA030101F0004141F0FE414E
:1007600041F470014FF0000070BD41F0FE4141F4D2
:10077000780170BD70B54FF0FF0C4CF4E06C1CEAD2
:1007800011541DBF1CEA135594EA0C0F95EA0C0F87
:1007900000F0A7F8A4EB050481EA030E52EA033542
:1007A0004FEA013100F088804FEA03334FF0805563
:1007B00045EA131343EA12634FEA022245EA111590
:1007C00045EA10654FEA00260EF000419D4208BF41
:1007D000964244F1FD0404F5407402D25B084FEAEE
:1007E0003202B61A65EB03055B084FEA32024FF49A
:1007F00080104FF4002CB6EB020E75EB030E22BFF7
:10080000B61A754640EA0C005B084FEA3202B6EBB6
:10081000020E75EB030E22BFB61A754640EA5C0065
:100820005B084FEA3202B6EB020E75EB030E22BFF5
:10083000B61A754640EA9C005B084FEA3202B6EBF6
:10084000020E75EB030E22BFB61A754640EADC00B5
:1008500055EA060E18D04FEA051545EA16754FEA17
:1008600006164FEAC30343EA52734FEAC2025FEA35
:100870001C1CC0D111F4801F0BD141EA00014FF0C4
:1008800000004FF0004CB6E711F4801F04BF014395
:100890000020B4F1FD0C88BFBCF5E06F3FF6AFAEB1
:1008A000B5EB030C04BFB6EB020C5FEA500C50F141
:1008B000000041EB045170BD0EF0004E4EEA1131C4
:1008C00014EB5C04C2BFD4EB0C0541EA045170BDCB
:1008D00041F480114FF0000E013C90E645EA060E0F
:1008E0008DE60CEA135594EA0C0F08BF95EA0C0F3D
:1008F0003FF43BAF94EA0C0F0AD150EA01347FF485
:1009000034AF95EA0C0F7FF425AF104619462CE75B
:1009100095EA0C0F06D152EA03353FF4FDAE1046BE
:10092000194622E750EA410618BF52EA43067FF40F
:10093000C5AE50EA41047FF40DAF52EA43057FF49F
:10094000EBAE12E700000000000000000000000015
:100950004FF0FF3C06E000BF4FF0010C02E000BF8B
:100960004FF0010C4DF804CD4FEA410C7FEA6C5C6E
:100970004FEA430C18BF7FEA6C5C1BD001B050EA11
:10098000410C0CBF52EA430C91EA030F02BF90EAFC
:10099000020F0020704710F1000F91EA030F58BFBB
:1009A000994208BF90422CBFD8176FEAE37040F01D
:1009B000010070474FEA410C7FEA6C5C02D150EABB
:1009C000013C07D14FEA430C7FEA6C5CD6D152EA76
:1009D000033CD3D05DF8040B704700BF844610463B
:1009E00062468C461946634600E000BF01B5FFF73A
:1009F000B7FF002848BF10F1000F01BD4DF808ED0A
:100A0000FFF7F4FF0CBF012000205DF808FB00BFDA
:100A10004DF808EDFFF7EAFF34BF012000205DF834
:100A200008FB00BF4DF808EDFFF7E0FF94BF012081
:100A300000205DF808FB00BF4DF808EDFFF7CEFF82
:100A400094BF012000205DF808FB00BF4DF808EDC1
:100A5000FFF7C4FF34BF012000205DF808FB00BF92
:100A60004FEA410212F5001215D211D56FF47873D6
:100A7000B3EB625212D94FEAC12343F0004343EA79
:100A8000505311F0004F23FA02F018BF4042704754
:100A90004FF00000704750EA013005D111F00040DE
:100AA00008BF6FF0004070474FF00000704700BF74
:100AB0004FEA4102B2F1E04324BFB3F5001CDCF180
:100AC000FE5C0DD901F0004C4FEAC0024CEA5070B8
:100AD000B2F1004F40EB830008BF20F001007047E7
:100AE00011F0804F21D113F13872BCBF01F00040EA
:100AF000704741F480114FEA5252C2F11802C2F11C
:100B0000200C10FA0CF320FA02F018BF40F001009C
:100B10004FEAC1234FEAD32303FA0CFC40EA0C004E
:100B200023FA02F34FEA4303CCE77FEA625307D18B
:100B300050EA01331EBF4FF0FE4040F440007047C2
:100B400001F0004040F0FE4040F40000704700BF5C
:100B5000704700BFAFF30080AFF30080AFF30080B9
:100B6000FEE700BFAFF30080AFF30080AFF300807B
:100B700072B640F60004C2F2000484F309884EF60F
:100B80003473CEF200034FF040421A604EF68853A1
:100B9000CEF200034EF68852CEF20002126842F402
:100BA00070021A604FF00004E1EE104A4EF63C73FA
:100BB000CEF200031C604FF0060484F31488BFF3E8
:100BC0006F8F40F20004C2F2000440F20045C2F20E
:100BD000000504E04FF05533236004F10404AC42F7
:100BE000F8D340F20044C2F2000440F60005C2F21D
:100BF000000504E04FF05533236004F10404AC42D7
:100C0000F8D308F0A5FC47F2B825C0F6030540F676
:100C10000004C2F2000405E02B68236004F1040420
:100C200005F1040540F66C63C2F200039C42F3D365
:100C300040F67064C2F200044BF6B855C2F20105EA
:100C400004E04FF00003236004F10404AC42F8D345
:100C5000FFF77EFF40F28814C0F6020403E0236829
:100C6000984704F1040440F28813C0F602039C4242
:100C7000F5D310F0E5FA40F28814C0F6020403E060
:100C80002368984704F1040440F28813C0F6020375
:100C90009C42F5D3FFF764FFAFF30080AFF3008011
:100CA000FEE700BFAFF30080AFF30080AFF300803A
:100CB00072B6FEE7AFF30080AFF30080AFF30080C1
:100CC00008B500F05DFB4FF0200383F3118800F0BE
:100CD00017FB00F02DFA00F033FB4FF0000383F315
:100CE000118800F07DFB00F053F808BDAFF30080E1
:100CF00010B483B0EFF309840194019B03F16803FE
:100D000001934EF63073CEF20003019A526E5A6090
:100D10004EF63073CEF200034EF63072CEF2000281
:100D2000926802F168029A60019B83F309884FF090
:100D3000000383F3118803B010BC7047AFF3008049
:100D400008B54FF46D43CEF200034FF400329A60C1
:100D50004FF46D43CEF200034FF44072C0F2FA52EA
:100D6000DA604FF007004FF0100100F049F94FF042
:100D70000A004FF4007100F043F94FF00B004FF000
:100D8000800100F03DF908BDAFF30080AFF30080B3
:100D900010B483B04FF0200383F311884FF46D43F8
:100DA000CEF200035B6803F40063002B5ED0EFF328
:100DB00009840194019BA3F168030193019B83F3D0
:100DC0000988019B4FF08072DA6141F23843C2F228
:100DD00000039B6993F82330002B11D041F2384374
:100DE000C2F200031B689A6841F23843C2F2000362
:100DF0009B699B689A4294BF00230123DBB210E0F9
:100E000041F23843C2F200031B689A6841F238434A
:100E1000C2F200039B699B689A4234BF00230123FE
:100E2000DBB2002B08D0019A40F68163C0F60203C2
:100E30009361F1EE10FA05E0019A40F68C63C0F67A
:100E400002039361019B03F168024EF63073CEF208
:100E500000035B680093009B53664EF63073CEF23E
:100E60000003009A42F001025A6003E04FF00003D1
:100E700083F3118803B010BC704700BFAFF300804C
:100E800000F0FEF900F0ACFE00F01AFA00DF00BF3F
:100E900003460A462DE9F04F2DED108AC2F80CD01A
:100EA000D3F80CD0BDEC108ABDE8F08FAFF3008012
:100EB00008B500F005FA4FF0000383F311882846C7
:100EC000A04701F01DF808BDAFF30080AFF300802C
:100ED00010B485B001900091019B03F003034FEA29
:100EE000C30303934FF46143CEF20003019A4FEA28
:100EF00092004FF46142CEF2000201994FEA910153
:100F000001F1C00152F82110039A4FF0FF0404FAD6
:100F100002F26FEA02021140039A009C04FA02F204
:100F2000114300F1C00243F822104FF46143CEF2A6
:100F30000003019A4FEA5212019901F01F014FF08C
:100F4000010000FA01F102F1600243F822104FF4AF
:100F50006143CEF20003019A4FEA5212019901F067
:100F60001F014FF0010000FA01F143F8221005B013
:100F700010BC7047AFF30080AFF30080AFF3008088
:100F800010B485B00190019B03F003034FEAC30343
:100F900003934FF46143CEF20003019A4FEA5212D9
:100FA000019901F01F014FF0010000FA01F102F177
:100FB000200243F822104FF46143CEF20003019A5D
:100FC0004FEA92004FF46142CEF2000201994FEADB
:100FD000910101F1C00152F82110039A4FF0FF0472
:100FE00004FA02F26FEA0202114000F1C00243F873
:100FF000221005B010BC7047AFF30080AFF3008043
:1010000010B485B001900091019B03F003034FEAF7
:10101000C30303934FF46D43CEF20003019A4FEAEA
:1010200092004FF46D42CEF2000201994FEA910115
:1010300001F1060152F82110039A4FF0FF0404FA5F
:1010400002F26FEA02021140039A009C04FA02F2D3
:10105000114300F1060243F8221005B010BC70479E
:1010600082B0019041F23843C2F200039A6945F21E
:101070001013C0F603039361FEE700BFAFF30080D7
:1010800000B583B0FFF75CFE00F06AFB00F080FA69
:1010900001F0C6FF02F034F800F002FA40F6C87022
:1010A000C2F200004FF0400100F0CAFD024641F2DA
:1010B0003843C2F200039A6141F23843C2F200039E
:1010C0009B694FF0010283F8202041F23843C2F2BD
:1010D00000039A6940F20043C2F20003D36100F0BA
:1010E000B7F84FF0000383F3118862B641F238433A
:1010F000C2F200039A6946F20053C0F603039361FB
:101100004FF00003009340F67060C2F200004FF40D
:10111000AC714FF0010241F26103C0F6020300F02E
:1011200047FE03B000BD00BFAFF30080AFF3008007
:1011300000B583B000F084F941F23843C2F20003F5
:101140009B6993F82330002B0BD041F23843C2F255
:1011500000039B6993F8232002F1FF32D2B283F897
:10116000232041F23843C2F200039B695A6A02F11C
:1011700001025A6241F22843C2F20003DB6803F124
:10118000010241F22843C2F20003DA6041F228432F
:10119000C2F200031A6841F22843C2F200039A42E5
:1011A00039D041F22843C2F200031B689A6802F169
:1011B000FF329A6025E0019BDB680093019B4FF0B2
:1011C0000002DA60019B1A6841F22843C2F2000370
:1011D0005360019B1A6841F22843C2F200031A606F
:1011E00000F0AEF84FF0000383F31188019B1A69F9
:1011F000009B104698474FF0200383F3118800F0BE
:101200007FF841F22843C2F200031B680193019B5F
:101210009B68002BCFD003B000BD00BFAFF30080B0
:1012200008B541F21403C2F200031B68002B06D17B
:1012300041F21803C2F200031B68002B05D045F2EF
:101240002010C0F6030000F08BF908BDAFF300805A
:1012500008B541F21403C2F200031B68002B06D14B
:1012600041F21803C2F200031B68002B05D045F2BF
:101270003010C0F6030000F073F908BDAFF3008032
:1012800008B541F21403C2F200031B68002B06D11B
:1012900041F21803C2F200031B68002B05D045F28F
:1012A0003810C0F6030000F05BF941F21803C2F2F7
:1012B00000034FF001021A6008BD00BFAFF30080C9
:1012C00008B541F21403C2F200031B68002B06D1DB
:1012D00041F21803C2F200031B68002B05DC45F243
:1012E0004010C0F6030000F03BF941F21803C2F2CF
:1012F00000034FF000021A6008BD00BFAFF300808A
:1013000008B541F21403C2F200031B68002B06DD8E
:1013100041F21803C2F200031B68002B05D045F20E
:101320004810C0F6030000F01BF941F21803C2F2A6
:1013300000034FF001021A6008BD00BFAFF3008048
:1013400008B541F21403C2F200031B68002B06DD4E
:1013500041F21803C2F200031B68002B05DC45F2C2
:101360005010C0F6030000F0FBF841F21803C2F27F
:1013700000034FF000021A6008BD00BFAFF3008009
:1013800008B54FF0200383F3118841F21403C2F231
:1013900000031B68002B06DB41F21803C2F20003B6
:1013A0001B68002B05D045F25810C0F6030000F072
:1013B000D7F841F21403C2F200031B6803F10102E3
:1013C00041F21403C2F200031A604FF0000383F3EA
:1013D000118808BDAFF30080AFF30080AFF3008049
:1013E00008B54FF0200383F3118841F21403C2F2D1
:1013F00000031B68002B06DD41F21803C2F2000354
:101400001B68002B05D045F26010C0F6030000F009
:10141000A7F841F21403C2F200031B6803F1FF3284
:1014200041F21403C2F200031A604FF0000383F389
:10143000118808BDAFF30080AFF30080AFF30080E8
:1014400008B541F21403C2F200031B68002B06DB4F
:1014500041F21803C2F200031B68002B05DC45F2C1
:101460006810C0F6030000F07BF808BDAFF3008001
:1014700008B541F21403C2F200031B68002B06D129
:1014800041F21803C2F200031B68002B05DC45F291
:101490007010C0F6030000F063F808BDAFF30080E1
:1014A00041F21C03C2F200034FF040021A6041F205
:1014B0001C03C2F20003014A5A6070472410002046
:1014C00082B0019041F21C03C2F200035A6841F25B
:1014D0002843C2F20003DB68136041F21C03C2F22E
:1014E00000035A6841F23843C2F200039B6953601B
:1014F00041F21C03C2F200035B68019A926A9A608F
:1015000041F21C03C2F200035B68019A92F82020AA
:101510001A7341F21C03C2F200035B6803F110026C
:1015200041F21C03C2F200035A6041F21C03C2F2F2
:1015300000035A68054B9A4205D341F21C03C2F2DC
:101540000003034A5A6002B0704700BF2414002011
:1015500024100020AFF30080AFF30080AFF30080D1
:1015600000B583B0019041F22443C2F20003019A16
:101570001A604FF001000FF0F3FCFFF799FB03B086
:1015800000BD00BFAFF30080AFF30080AFF3008079
:1015900041F22843C2F2000341F22842C2F20002A3
:1015A0005A6041F22843C2F200035A6841F22843CC
:1015B000C2F200031A6041F22843C2F200034FF066
:1015C000FF329A6041F22843C2F200034FF000025A
:1015D000DA607047AFF30080AFF30080AFF30080B4
:1015E00000B587B00390029101920093FFF728FFA6
:1015F000039B002B05D0019B002B02D0029B002BEC
:1016000005D145F28010C0F60300FFF7A9FF039B48
:10161000009A1A61039B019ADA6041F22843C2F2F0
:1016200000031B68059307E0059B9B68029AD31A89
:101630000293059B1B680593059B9A68029B9A423F
:10164000F2D3039B059A1A60039B1B685A68039B9D
:101650005A60039B5B68059A03995160059A52682A
:101660001A60039B029A9A60059A41F22843C2F2DB
:1016700000039A4205D0059B9A68029BD21A059BEB
:101680009A6007B000BD00BFAFF30080AFF30080E9
:1016900000B583B00190FFF7D3FE019B002B05D16D
:1016A00045F29010C0F60300FFF75AFF019BDB687C
:1016B000002B05D145F2A010C0F60300FFF750FF44
:1016C000019B1A6841F22843C2F200039A4208D0F3
:1016D000019B1B68019A12689168019A92688A18A6
:1016E0009A60019B5B68019A12681A60019B1B68F3
:1016F000019A52685A60019B4FF00002DA6003B011
:1017000000BD00BFAFF30080AFF30080AFF30080F7
:1017100084B00190019B1B680393039B1A68019B93
:101720001A60019B1B68019A5A60039B184604B01B
:10173000704700BFAFF30080AFF30080AFF30080CD
:1017400082B00190019B5B68019A12681A60019B4C
:101750001B68019A52685A60019B184602B0704794
:1017600041F23843C2F2000341F23842C2F20002B1
:101770005A6041F23843C2F200035A6841F23843DA
:10178000C2F200031A6041F23843C2F200034FF084
:1017900000029A6041F23843C2F2000341F238423B
:1017A000C2F200025A6141F23843C2F200035A69A0
:1017B00041F23843C2F200031A617047AFF3008070
:1017C00000B585B00190FFF73BFE019B93F82030F8
:1017D000002B04D0019B93F820300E2B05D145F24D
:1017E000C010C0F60300FFF7BBFE019B4FF00002E4
:1017F00083F8202041F23843C2F200030393039B95
:101800001B680393039B9A68019B9B689A42F6D2DC
:10181000019B039A1A60039B5A68019B5A60019BC3
:101820005B68039A01995160039A52681A60019BA0
:10183000184605B000BD00BFAFF30080AFF30080D5
:1018400000B585B003468DF80730FFF711FE41F271
:101850003843C2F200039B690393039B9DF8072062
:1018600083F82020039B4FF0140283F8232041F2D9
:101870003840C2F20000FFF74BFF024641F2384306
:10188000C2F200039A6141F23843C2F200039B693D
:101890004FF0010283F820200398FFF711FE6B46FA
:1018A000A3F16402039BDB699A4205D245F2D4108E
:1018B000C0F60300FFF754FE41F23843C2F20003C2
:1018C0009B6918460399FFF7E3FA05B000BD00BF16
:1018D00000B585B00190019B03934FF0200383F383
:1018E0001188FFF70DFD039B93F820300D2B2FD8A7
:1018F00001A252F823F000BF311902085119020861
:10190000511902083F190208511902084B1902081F
:1019100051190208511902085119020851190208F7
:101920005119020851190208511902084B190208ED
:10193000FFF706FD4FF0000383F3118815E0039BCA
:101940009B6A9A6802F101029A600398FFF7F8FE19
:10195000039B4FF0FF329A620398FFF731FFFFF7C6
:10196000EFFC4FF0000383F3118805B000BD00BF0A
:1019700000B589B0034600918DF80730FFF778FD78
:10198000009BB3F1FF3F1AD041F23843C2F200038B
:101990009B6903AA1046009941F6D102C0F60202E3
:1019A000FFF71EFE9DF807301846FFF749FF069B1C
:1019B000002B09D003AB1846FFF76AFE04E09DF840
:1019C00007301846FFF73CFF41F23843C2F20003EC
:1019D0009B699B6A184609B000BD00BFAFF3008049
:1019E00000B585B001900091FFF742FD019B009A80
:1019F0009A62019B9A6841F23843C2F200039B69E4
:101A00009B689A4203D80198FFF7DAFE27E041F27B
:101A10003843C2F200039B691846FFF7D1FE0390DA
:101A200041F23843C2F20003019A9A61019B4FF0E0
:101A3000010283F820200398FFF742FD6B46A3F1D3
:101A40006402039BDB699A4205D245F2D410C0F6CA
:101A50000300FFF785FD01980399FFF719FA05B018
:101A600000BD00BFAFF30080AFF30080AFF3008094
:101A700008B5FFF7FDFC41F23843C2F200031B68D2
:101A80009A6841F23843C2F200039B699B689A420C
:101A900001D900F045F808BDAFF30080AFF3008036
:101AA00000B583B041F23843C2F200039B69019351
:101AB00041F23840C2F20000FFF72AFE024641F22E
:101AC0003843C2F200039A6141F23843C2F2000384
:101AD0009B694FF0010283F82020019B4FF0140214
:101AE00083F823200198FFF76BFE0198FFF7E8FCCD
:101AF0006B46A3F16402019BDB699A4205D245F271
:101B0000D410C0F60300FFF72BFD41F23843C2F2B8
:101B100000039B6918460199FFF7BAF903B000BDAD
:101B200000B583B041F23843C2F200039B690093D1
:101B300041F23840C2F20000FFF7EAFD024641F2EE
:101B40003843C2F200039A6141F23843C2F2000303
:101B50009B694FF0010283F82020009B4FF00002A8
:101B600083F8202041F23843C2F200030193019B25
:101B70001B680193019B9A68009B9B689A42F6D868
:101B8000009B019A1A60019B5A68009B5A60009B57
:101B90005B68019A00995160019A52681A60009836
:101BA000FFF78EFC6B46A3F16402009BDB699A424F
:101BB00005D245F2D410C0F60300FFF7D1FC41F284
:101BC0003843C2F200039B6918460099FFF760F999
:101BD00003B000BDAFF30080AFF30080AFF300802F
:101BE00008B541F23843C2F200039B6993F82330F1
:101BF000002B02D1FFF754FF01E0FFF791FF08BD72
:101C000082B001900091009B1A68019B1A60009BB2
:101C1000019A1A6002B07047AFF30080AFF3008002
:101C200084B00190019B1B680393039B1A68019B7E
:101C30001A60039B184604B0704700BFAFF30080E2
:101C400082B001900091019B009A9A60019B4FF035
:101C5000020283F82020019B4FF0000283F821202C
:101C6000019B4FF0140283F82320019B009A5A64D1
:101C7000019B4FF000021A64019B4FF00002DA63EF
:101C8000019B4FF000025A62019B4FF0010283F862
:101C90002220019B4FF000029A61019A41F23843E1
:101CA000C2F20003136141F23843C2F200035A69E1
:101CB000019B5A61019B5A6941F23843C2F2000309
:101CC0000199596141F23843C2F200035B69136123
:101CD000019B03F12C02019BDA62019B03F13002AC
:101CE000019B5A63019B5A6B019B1A63019B03F191
:101CF0004C02019BDA61019B184602B0704700BF9D
:101D000084B00390029113468DF8073007E0039BDF
:101D10009DF807201A70039B03F101030393039AB4
:101D2000029B9A42F3D304B0704700BFAFF3008028
:101D300000B587B00390029101920093039B059335
:101D4000FFF77EFB039B002B0AD0029A40F2371369
:101D50009A4205D9019B7F2B02D8009B002B05D10D
:101D600045F2F010C0F60300FFF7FAFB029BA3F167
:101D70006403039AD218059BDA60059BDB68009A1E
:101D80001A64059BDB68089A5A64059BDA6840F67A
:101D9000B163C0F60203136605980199FFF750FF7F
:101DA0000346184607B000BDAFF30080AFF30080D4
:101DB00000B589B00590049103920293059B03F14D
:101DC0004C03059819464FF0FF02FFF799FF059B5A
:101DD00003F14C020599049BCB18104619464FF0AD
:101DE0005502FFF78DFF4FF0200383F31188FFF7B3
:101DF00047FA0A9B009305980499039A029BFFF700
:101E000097FF079007984FF00001FFF7E9FDFFF7F4
:101E100057FA4FF0000383F31188079B184609B067
:101E200000BD00BFAFF30080AFF30080AFF30080D0
:101E300000B583B001904FF0200383F31188FFF7C2
:101E40001FFA019B93F8213043F00403DAB2019B9F
:101E500083F82120FFF734FA4FF0000383F3118851
:101E600003B000BDAFF30080AFF30080AFF300809C
:101E700000B583B00190019B002B05D145F23020C5
:101E8000C0F60300FFF76CFB4FF0200383F31188CB
:101E9000FFF7F6F94FF006000199FFF769FDFFF72C
:101EA0000FFA4FF0000383F3118803B000BD00BFA9
:101EB00000B583B001904FF0200383F31188FFF742
:101EC000DFF941F22843C2F20003DB68019AD31A1A
:101ED0000193019B002B04D04FF006000199FFF7FE
:101EE00047FDFFF7EDF94FF0000383F3118803B0CE
:101EF00000BD00BFAFF30080AFF30080AFF3008000
:101F000000B583B001904FF0200383F31188FFF7F1
:101F1000B7F9019800F004F803B000BDAFF30080FA
:101F200000B585B0019041F23843C2F200039B69CD
:101F30000393039B019A9A6209E0039B03F12C032C
:101F40001846FFF76DFE03461846FFF739FC039B62
:101F5000DA6A039B03F12C039A42EED1039B93F8B8
:101F6000213003F00303002B09D1039B5B69039A23
:101F700012691A61039B1B69039A52695A614FF0F7
:101F80000E00FFF75DFC45F24020C0F60300FFF7AE
:101F9000E7FA05B000BD00BFAFF30080AFF30080EB
:101FA00000B585B00190019B002B05D145F254206E
:101FB000C0F60300FFF7D4FA4FF0200383F3118833
:101FC000FFF75EF941F23843C2F200039A69019BC0
:101FD0009A4205D145F26420C0F60300FFF7C0FA2B
:101FE000019B93F82230002B05D145F27420C0F6F6
:101FF0000300FFF7B5FA019B93F820300E2B0FD0AA
:1020000041F23843C2F200039A69019B03F12C03A9
:1020100010461946FFF7F4FD4FF00700FFF710FCDC
:10202000019B9B6A0393FFF74BF94FF0000383F387
:102030001188019800F004F8039B184605B000BD14
:1020400000B585B001904FF0200383F31188FFF7AE
:1020500017F9019B93F82230002B05D145F2A420FB
:10206000C0F60300FFF77CFA019B93F8223003F1DE
:10207000FF33DAB2019B83F82220019B93F82230D0
:102080008DF80F30FFF71CF94FF0000383F3118830
:102090009DF80F30002B2DD1019B93F820300E2B93
:1020A00028D1019B93F8213003F00303012B02D0C8
:1020B000022B0ED01EE0019B5B69019A12691A6126
:1020C000019B1B69019A52695A61019801F038F825
:1020D00010E0019B5B69019A12691A61019B1B69FF
:1020E000019A52695A61019B9B6C1846019901F053
:1020F000CFF800BF05B000BDAFF30080AFF30080A4
:1021000082B001900091019B009A1A60009B5A686E
:10211000019B5A60019B5B68009A01995160009A8B
:1021200052681A6002B07047AFF30080AFF30080CE
:1021300084B00190019B1B680393039B1A68019B69
:102140001A60019B1B68019A5A60039B184604B0F1
:10215000704700BFAFF30080AFF30080AFF30080A3
:1021600000B583B001900091019B002B02D0009B31
:10217000002B05DA45F2E020C0F60300FFF7F0F986
:10218000019A019B5A60019B5A68019B1A60019B4E
:10219000009A9A6003B000BDAFF30080AFF30080F7
:1021A00000B585B001904FF0200383F31188FFF74D
:1021B00067F8019800F00CF80390FFF781F84FF0F2
:1021C000000383F31188039B184605B000BD00BFD0
:1021D00000B583B00190FFF74BF9019B002B05D1AF
:1021E00045F21430C0F60300FFF7BAF9019B9B6873
:1021F000002B04DB019B1A68019B9A420ED0019BC5
:102200009B68002B04DA019B1A68019B9A4205D156
:1022100045F22430C0F60300FFF7A2F9019B9B684A
:1022200003F1FF32019B9A60019B9B68002B1BDA34
:1022300041F23843C2F200039B69019A9A6241F26B
:102240003843C2F200039A69019B10461946FFF712
:1022500057FF4FF00300FFF7F3FA41F23843C2F2A1
:1022600000039B699B6A01E04FF00003184603B02E
:1022700000BD00BFAFF30080AFF30080AFF300807C
:1022800000B583B001900091FFF7F2F8019B002B9D
:1022900005D145F23830C0F60300FFF761F9019B24
:1022A0009B68002B04DB019B1A68019B9A420ED0AD
:1022B000019B9B68002B04DA019B1A68019B9A42E0
:1022C00005D145F25030C0F60300FFF749F9019BF4
:1022D0009B6803F1FF32019B9A60019B9B68002B76
:1022E00023DA009B002B08D1019B9B6803F10102BC
:1022F000019B9A604FF0FF3319E041F23843C2F27C
:1023000000039B69019A9A6241F23843C2F20003CA
:102310009A69019B10461946FFF7F2FE4FF0030041
:102320000099FFF725FB034601E04FF00003184634
:1023300003B000BDAFF30080AFF30080AFF30080C7
:1023400000B583B00190019B002B05D145F26830A8
:10235000C0F60300FFF704F9019B9B68002B04DB28
:10236000019B1A68019B9A420ED0019B9B68002B2F
:1023700004DA019B1A68019B9A4205D145F2783034
:10238000C0F60300FFF7ECF84FF0200383F3118849
:10239000FEF776FF019B9B6803F10102019B9A60A7
:1023A000019B9B68002B09DC019B1846FFF7C0FED0
:1023B000034618464FF00001FFF712FBFEF780FFBF
:1023C0004FF0000383F3118803B000BDAFF300802A
:1023D00000B585B00190FFF733F8019B002B05D1C4
:1023E00045F28C30C0F60300FFF7BAF8019B9B68FA
:1023F000002B04DB019B1A68019B9A420ED0019BC3
:102400009B68002B04DA019B1A68019B9A4205D154
:1024100045F2A030C0F60300FFF7A2F8019B9B68CD
:1024200003F10102019B9A60019B9B68002B0BDC6E
:10243000019B1846FFF77CFE0390039B4FF00002C0
:102440009A620398FFF7BCF905B000BDAFF30080B6
:1024500084B001900091009B0393039B1B6803933E
:10246000039A009B9A4205D0039B9A68019B9B6844
:102470009A42F2D2019B039A1A60039B5A68019B0D
:102480005A60019B5B68039A01995160039A5268F4
:102490001A6004B0704700BFAFF30080AFF3008054
:1024A00084B00190019B1B680393039B1A68019BF6
:1024B0001A60019B1B68019A5A60039B184604B07E
:1024C000704700BFAFF30080AFF30080AFF3008030
:1024D00082B00190019B5B68019A12681A60019BAF
:1024E0001B68019A52685A60019B184602B07047F7
:1024F00000B583B00190019B002B05D145F230401F
:10250000C0F60300FFF72CF8019A019B5A60019B6B
:102510005A68019B1A60019B4FF000029A6003B059
:1025200000BD00BFAFF30080AFF30080AFF30080C9
:1025300000B583B001904FF0200383F31188FEF7BC
:102540009FFE019800F00CF8FEF7BAFE4FF0000372
:1025500083F3118803B000BDAFF30080AFF30080B8
:1025600000B585B0019041F23843C2F200039B6987
:102570000293FEF77DFF019B002B05D145F2404001
:10258000C0F60300FEF7ECFF019B9B68002B62D0B6
:10259000019B9B68039335E0029B9A68039B9A60BA
:1025A000039B93F82030042B04D0052B11D0002B73
:1025B0001AD026E00398FFF78BFF0246039B9B6A25
:1025C00010461946FFF744FF039B9B6A9B680393E1
:1025D00018E00398FFF77CFF0246039B9B6A1046B6
:1025E0001946FFF735FF0CE0039B4FF0010283F81B
:1025F00020200398FFF76CFF03461846FFF7E0F82A
:1026000000BF05E0039B9A68029B9B689A42C3D374
:10261000019B02981946FFF71BFF029B019A9A62E1
:102620004FF00400FFF70CF9019B9A68029B9A4255
:1026300005D045F25040C0F60300FEF791FF029B23
:102640001A6C019B9A4210D045F26440C0F6030018
:10265000FEF786FF09E0019B029A9A60029B1A6CC2
:10266000019BDA60029B019A1A6405B000BD00BFAD
:1026700000B587B041F23843C2F200039B6903936F
:102680004FF0200383F31188FEF7FAFD039B1B6CC8
:10269000002B05D145F28C40C0F60300FEF760FF29
:1026A000039B1B6C9A68039B9A4205D045F2A0409D
:1026B000C0F60300FEF754FF039B1B6C0293029BC2
:1026C000DA68039B1A64029B1A68029B9A4233D011
:1026D000039B5B6C0493039B1B6C059311E0059BB0
:1026E0001A68059B9A4209D0059B1B689A68049B4F
:1026F0009A4203D9059B1B689B680493059BDB6882
:102700000593059B002BEAD1039B049A9A60029BD8
:102710001846FFF7C5FE0190029B019A9A60019B43
:102720001A6C029BDA60019B029A1A6401984FF0BE
:102730000001FFF755F903E0029B4FF000029A6099
:10274000FEF7BEFD4FF0000383F31188029B18468D
:1027500007B000BDAFF30080AFF30080AFF300809F
:1027600000B585B001900091FEF76AFE019B002B39
:1027700005D145F20C50C0F60300FEF7F1FE019BB7
:102780001B68039310E0039BDA68009B1A43039BCA
:10279000DA60039B5A68039B9B681046194600F059
:1027A0000FF8039B1B680393039A019B9A42EAD19B
:1027B00005B000BDAFF30080AFF30080AFF3008041
:1027C00000B583B001900091FEF73AFE019B002B0B
:1027D00005D145F23450C0F60300FEF7C1FE019B5F
:1027E000DA6B009B1A43019BDA63019B93F820305C
:1027F000082B06D1019BDA6B019B9B6A1340002BCF
:102800000DD1019B93F82030092B0FD1019BDA6B7E
:10281000019B9B6A1A40019B9B6A9A4206D10198D0
:10282000FEF7CEFF03464FF000029A6203B000BDF0
:1028300000B585B0039002910192039B002B05D057
:10284000029B002B02D0019B002B05DC45F270504F
:10285000C0F60300FEF784FE039B029ADA60039B36
:10286000DA68039B9A60039B9A68039B1A60019B3A
:102870004FEA8303029AD218039B5A60039B03F129
:102880001C0318460199FFF76BFC039B03F110032F
:1028900018464FF00001FFF763FC05B000BD00BF14
:1028A00000B583B001900091FEF7CAFD019B002B9B
:1028B00005D145F2A050C0F60300FEF751FE019B82
:1028C0005B6A002B02DC4FF0FF331FE0019B5B6A69
:1028D00003F1FF32019B5A62019B9B68009A1A60C8
:1028E00003F10402019B9A60019B9A68019B5B685B
:1028F0009A4203D3019B1A68019B9A60019B03F1E2
:1029000010031846FFF764FD4FF00003184603B0AC
:1029100000BD00BFAFF30080AFF30080AFF30080D5
:1029200000B587B00390029101924FF0200383F32A
:102930001188FEF7A5FC03980299019A00F010F89F
:102940000590FEF7BDFC4FF0000383F31188059B53
:10295000184607B000BD00BFAFF30080AFF30080A2
:1029600000B587B0039002910192FEF781FD039BB1
:10297000002B02D0029B002B05D145F2D850C0F6A7
:102980000300FEF7EDFD039B03F1100318460199C8
:10299000FFF776FC0590059B002B1AD1039BDB68A3
:1029A0001968029A116003F10402039BDA60039B29
:1029B000DA68039B5B689A4203D3039B1A68039B04
:1029C000DA60039B03F11C031846FFF701FDFFF7D4
:1029D0004FF8059B184607B000BD00BFAFF300805D
:1029E00082B001900091019B009A1A60009B5A6886
:1029F000019B5A60019B5B68009A01995160009AA3
:102A000052681A6002B07047AFF30080AFF30080E5
:102A100084B00190019B1B680393039B1A68019B80
:102A20001A60019B1B68019A5A60039B184604B008
:102A3000704700BFAFF30080AFF30080AFF30080BA
:102A400000B583B001900091009B002B02D14FF0A4
:102A5000FF3316E041F23843C2F200039B69019A4A
:102A60009A6241F23843C2F200039A69019B104610
:102A70001946FFF7B5FF4FF00D000099FEF778FFFC
:102A80000346184603B000BDAFF30080AFF30080EB
:102A900084B00390029101920093039A039B5A60C1
:102AA000039B5A68039B1A60039B4FF000029A60D5
:102AB000039B029A5A61039B5A69039B9A61039B89
:102AC0009A69039BDA60029A019BD218039B1A61F0
:102AD000039B009ADA61039B049A1A6204B0704760
:102AE00000B583B00190FEF7ABFC019BDA68019B57
:102AF0005A61019B5A69019B9A61019B4FF0000248
:102B00009A600BE0019B1846FFF782FF03461846C8
:102B1000FEF756FE03466FF001029A62019B1A68A7
:102B2000019B9A42EED103B000BD00BFAFF300801D
:102B300000B583B001900B468DF80330FEF780FCA2
:102B4000019B5A69019B9B699A4206D1019B9B6834
:102B5000002B02D04FF0010301E04FF0000303F01F
:102B60000103DBB2002B02D06FF003032BE0019BCB
:102B70009B6803F10102019B9A60019B5B699DF8D0
:102B800003201A7003F10102019B5A61019B5A69EB
:102B9000019B1B699A4203D3019BDA68019B5A612E
:102BA000019B1A68019B9A420BD0019B1846FFF7C4
:102BB0002FFF03461846FEF703FE03464FF00002C0
:102BC0009A624FF00003184603B000BDAFF30080D7
:102BD00000B585B0019000914FF0200383F3118878
:102BE000FEF74EFB019BDB69002B14D0019BDB69D8
:102BF000019898470FE001980099FFF721FF039093
:102C0000039B002B08DAFEF75BFB4FF0000383F316
:102C10001188039B25E000BF019B9B68002BEAD035
:102C2000019B9B6803F1FF32019B9A60019B9B69AA
:102C30001A788DF80B2003F10102019B9A61019B28
:102C40009A69019B1B699A4203D3019BDA68019B35
:102C50009A61FEF735FB4FF0000383F311889DF86E
:102C60000B30184605B000BDAFF30080AFF3008015
:102C700000B587B00390029101920093039BDB693A
:102C800004934FF000030593019B002B05D145F2FF
:102C90000060C0F60300FEF763FC4FF0200383F3EF
:102CA0001188FEF7EDFA049B002B12D0049B0398C9
:102CB00098470EE003980099FFF7C2FE0346002BE9
:102CC00008D0FEF7FDFA4FF0000383F31188059B4F
:102CD0003BE000BF039B9B68002BEBD0039B9B68F2
:102CE00003F1FF32039B9A60039B9B691978029A58
:102CF0001170029A02F10102029203F10102039B98
:102D00009A61039B9A69039B1B699A4203D3039BB5
:102D1000DA68039B9A61FEF7D3FA4FF0000383F35E
:102D20001188059B03F101030593019B03F1FF3318
:102D30000193019B002B01D1059B06E04FF020037E
:102D400083F31188FEF79CFAADE7184607B000BD83
:102D500084B00390029101920093039A039B5A60FE
:102D6000039B5A68039B1A60039B019A9A60039B1A
:102D7000029A5A61039B5A69039B9A61039B9A6961
:102D8000039BDA60029A019BD218039B1A61039B92
:102D9000009ADA61039B049A1A6204B0704700BF7C
:102DA00000B583B00190FEF74BFB019BDA68019BF5
:102DB0005A61019B5A69019B9A61019B1B691A46E2
:102DC000019BDB68D31A1A46019B9A600BE0019BBA
:102DD0001846FFF71DFE03461846FEF7F1FC0346B2
:102DE0006FF001029A62019B1A68019B9A42EED130
:102DF00003B000BDAFF30080AFF30080AFF30080FD
:102E000000B587B003900B4601928DF80B304FF060
:102E1000200383F31188FEF733FA0FE0039801993A
:102E2000FFF70EFE0590059B002B07DAFEF748FA28
:102E30004FF0000383F31188059B2CE0039B9B68F4
:102E4000002BEBD0039B9B6803F1FF32039B9A603E
:102E5000039B5B699DF80B201A7003F10102039B31
:102E60005A61039B5A69039B1B699A4203D3039BD4
:102E7000DA68039B5A61039BDB69002B03D0039B39
:102E8000DB6903989847FEF71BFA4FF0000383F3C2
:102E900011884FF00003184607B000BDAFF3008063
:102EA00000B585B00190FEF7CBFA019B5A69019BF2
:102EB0009B699A4206D1019B9B68002B02D04FF080
:102EC000010301E04FF0000303F00103DBB2002B2C
:102ED00002D06FF002032BE0019B9B6803F101021B
:102EE000019B9A60019B9B691A788DF80F2003F172
:102EF0000102019B9A61019B9A69019B1B699A429D
:102F000003D3019BDA68019B9A61019B1A68019BBC
:102F10009A420BD0019B1846FFF77AFD03461846EC
:102F2000FEF74EFC03464FF000029A629DF80F3008
:102F3000184605B000BD00BFAFF30080AFF30080BE
:102F400000B587B00390029101920093039BDB6967
:102F500004934FF000030593019B002B05D145F22C
:102F60001460C0F60300FEF7FBFA4FF0200383F372
:102F70001188FEF785F90EE003980099FFF760FDD0
:102F80000346002B07D0FEF79BF94FF0000383F3B5
:102F90001188059B41E0039B9B68002BECD0039BB1
:102FA0009B6803F1FF32039B9A60039B5B69029A63
:102FB00012781A7003F10102039B5A61029B03F11C
:102FC00001030293039B5A69039B1B699A4203D333
:102FD000039BDA68039B5A61049B002B02D0049B7D
:102FE00003989847FEF76CF94FF0000383F31188BC
:102FF000059B03F101030593019B03F1FF3301934B
:10300000019B002B01D1059B07E04FF0200383F3C8
:103010001188FEF735F900BFBDE7184607B000BDBF
:103020004BF6B853C2F2010303F1070323F0070381
:103030001A4641F25443C2F200031A604CF20003F4
:10304000C2F2010323F007031A4641F25843C2F2C9
:1030500000031A60704700BFAFF30080AFF3008039
:1030600000B585B001904FF0200383F31188FEF77F
:1030700007F9019800F00CF80390FEF721F94FF0E2
:10308000000383F31188039B184605B000BD00BF01
:1030900000B585B00190FEF7D3F9019B03F107035A
:1030A00023F00703019341F25843C2F200031B6867
:1030B0001A4641F25443C2F200031B68D31A1A465F
:1030C000019B9A4202D24FF0000312E041F25443B6
:1030D000C2F200031B68039341F25443C2F200039F
:1030E0001A68019BD21841F25443C2F200031A60DD
:1030F000039B184605B000BDAFF30080AFF300801E
:1031000008B541F26043C2F2000343F26102C0F627
:1031100002021A6041F26043C2F200034FF0000263
:103120009A6041F26043C2F200034FF00002DA609D
:103130000148FFF7DDF908BD70140020AFF30080EF
:1031400000B587B00190019B002B05D145F240608E
:10315000C0F60300FEF704FA019BA3F108030493F1
:10316000049B1B680393039B03F108030593039BD4
:1031700003F110031846FFF7DBF9049A059B9A4206
:103180000ED3059B5B6803F10803059AD218049BD4
:103190009A4205D945F25060C0F60300FEF7E0F907
:1031A000039B03F10802059B9A4203D0049A059BF6
:1031B0009A423FD9059B1B68002B04D0059B1A68D7
:1031C000049B9A4236D9059B1A68049B1A60059B9A
:1031D000049A1A60049B5B6803F10803049AD218EE
:1031E000049B1B689A420ED1049B5A68049B1B687F
:1031F0005B68D31803F10802049B5A60049B1B68A8
:103200001A68049B1A60059B5B6803F10803059A22
:10321000D218049B9A4211D1059B5A68049B5B68A3
:10322000D31803F10802059B5A60049B1A68059B9A
:103230001A6003E0059B1B6805939EE700BFFFF73C
:1032400017FA00BF07B000BDAFF30080AFF30080F6
:1032500000B585B001900091009B0393FEF7F0F854
:10326000019B002B02D0009B002B05D145F2A860EA
:10327000C0F60300FEF774F9019B1A68039B1A60FD
:10328000019B039A1A6005B000BD00BFAFF3008038
:1032900000B583B0019000914FF0200383F31188B3
:1032A000FDF7EEFF01980099FFF7D2FFFEF708F84F
:1032B0004FF0000383F3118803B000BDAFF300802B
:1032C00008B501F0E5FF46F23060C0F6030004F0F7
:1032D000EFF800F015F800F03BF900F0B9F900F054
:1032E0007FFA00F085FB01F02BF900F0E1FC01F022
:1032F00017FA00F035FC06F063F908BDAFF3008063
:1033000008B502F0ADFB08BDAFF30080AFF300805D
:1033100000B583B00190019B4FF001021A70019B30
:103320004FF000025A60019B4FF000029A60019B2F
:103330004FF00002DA60019B4FF000021A61019B1E
:103340004FF000025A61019B03F118031846FFF782
:10335000CFF803B000BD00BFAFF30080AFF3008033
:1033600000B583B001900091019B002B05D145F27F
:10337000C060C0F60300FEF7F3F84FF0200383F3BC
:103380001188FDF77DFF019B1B78012B09D0019B64
:103390001B78022B05D045F2D060C0F60300FEF783
:1033A000DFF8019B009A5A60019802F0C1FB019B73
:1033B0004FF002021A70FDF783FF4FF0000383F312
:1033C000118803B000BD00BFAFF30080AFF30080F1
:1033D00000B583B00190019B002B05D145F2E06060
:1033E000C0F60300FEF7BCF84FF0200383F311880A
:1033F000FDF746FF019B1B78012B09D0019B1B7831
:10340000022B05D045F2EC60C0F60300FEF7A8F8E9
:10341000019802F055FC019B4FF001021A70FDF774
:103420004FFF4FF0000383F3118803B000BD00BFCE
:1034300000B585B00390029101920093FEF700F869
:10344000039B002B0DD0029B002B0AD0019B002B6D
:1034500007D0009B012B0AD0009B03F00103002B37
:1034600005D045F2FC60C0F60300FEF779F8039B37
:103470001B78022B0DD0039B1B78042B09D0039BD8
:103480001B78052B05D045F21470C0F60300FEF73B
:1034900067F8039B019A9A60039B009ADA60039B8A
:1034A000029A1A61039B4FF003021A70039802F00C
:1034B0005FFC05B000BD00BFAFF30080AFF300803C
:1034C00000B585B00190019B002B05D145F230700D
:1034D000C0F60300FEF744F84FF0200383F3118891
:1034E000FDF7CEFE019B1B78022B09D0019B1B78B8
:1034F000032B05D045F24870C0F60300FEF730F804
:10350000019B1B78022B1AD0019802F0B1FC019BA1
:103510004FF000021A61019B4FF002021A70019BEA
:103520005B69002B0BD0019B5B690393019B4FF000
:1035300000025A6103986FF00101FEF751FAFDF79E
:10354000BFFE4FF0000383F3118805B000BD00BF3C
:1035500008B502F0D5FF08BDAFF30080AFF30080DF
:1035600082B00190019B4FF001021A70019B4FF055
:1035700000025A6002B07047AFF30080AFF30080E2
:1035800000B583B001900091019B002B02D0009BFD
:10359000002B05D145F2D070C0F60300FDF7E0FF27
:1035A0004FF0200383F31188FDF76AFE019B1B781F
:1035B000012B09D0019B1B78022B05D045F2E0704E
:1035C000C0F60300FDF7CCFF019B009A5A600198FA
:1035D00002F09EFF019B4FF002021A70FDF770FE91
:1035E0004FF0000383F3118803B000BDAFF30080F8
:1035F00000B583B00190019B002B05D145F2F0701E
:10360000C0F60300FDF7ACFF4FF0200383F31188F1
:10361000FDF736FE019B1B78012B09D0019B1B781F
:10362000022B05D045F2FC70C0F60300FDF798FFB1
:10363000019802F095FF019B4FF001021A70FDF70F
:103640003FFE4FF0000383F3118803B000BD00BFBD
:1036500008B505F0ADFA08BDAFF30080AFF3008008
:1036600082B00190019B4FF001021A70019B4FF054
:1036700000025A6002B07047AFF30080AFF30080E1
:1036800000B583B001900091019B002B02D0009BFC
:10369000002B05D145F6A000C0F60300FDF760FF42
:1036A0004FF0200383F31188FDF7EAFD019B1B789F
:1036B000012B09D0019B1B78022B05D045F6AC00ED
:1036C000C0F60300FDF74CFF019B009A5A60019879
:1036D00005F086FA019B4FF002021A70FDF7F0FD2B
:1036E0004FF0000383F3118803B000BDAFF30080F7
:1036F00000B583B00190019B002B05D145F6BC00BD
:10370000C0F60300FDF72CFF4FF0200383F3118870
:10371000FDF7B6FD019B1B78012B09D0019B1B789F
:10372000022B05D045F6C800C0F60300FDF718FFD0
:10373000019805F0CDFA019B4FF001021A70FDF7D8
:10374000BFFD4FF0000383F3118803B000BD00BF3D
:1037500000B583B001900091FDF772FE019B002B34
:1037600005D145F63C10C0F60300FDF7F9FE019BBC
:103770001B78022B05D045F65410C0F60300FDF768
:10378000EFFE019B4FF004021A700198009905F0BA
:10379000CFFA03B000BD00BFAFF30080AFF30080ED
:1037A00000B583B001900091019B1B78022B05D0DE
:1037B00045F69410C0F60300FDF7D2FE019B4FF0D2
:1037C00004021A700198009905F0F2FA019B4FF07B
:1037D00002021A7003B000BDAFF30080AFF30080A7
:1037E00008B504F04DFB08BDAFF30080AFF30080D7
:1037F00000B583B00190019B4FF001021A70019B4C
:103800004FF000025A60019B03F10C031846FEF7CB
:103810006FFE03B000BD00BFAFF30080AFF30080C8
:1038200000B583B001900091019B002B02D0009B5A
:10383000002B05D145F6B010C0F60300FDF790FE51
:10384000019B1B78012B0DD0019B1B78022B09D00B
:10385000019B1B78052B05D045F6C010C0F6030070
:10386000FDF77EFE4FF0200383F31188FDF708FD7E
:10387000019B009A5A60019804F02AFB019B4FF0CB
:1038800002021A70FDF71CFD4FF0000383F311884C
:1038900003B000BDAFF30080AFF30080AFF3008052
:1038A00000B583B00190019B002B05D145F6EC10CB
:1038B000C0F60300FDF754FE019B9B68184603B059
:1038C00000BD00BFAFF30080AFF30080AFF3008016
:1038D00000B58BB00790059204930B46ADF81A30F3
:1038E000079B002B15D0BDF81A30002B11D0049B7C
:1038F000002B0ED0059B002B0BD00D9B002B05D071
:103900000D9B002B05D00C9B002B02D00E9B002B97
:1039100005D145F60020C0F60300FDF721FE079B08
:103920001B78022B05D045F62020C0F60300FDF7DA
:1039300017FE4FF0200383F31188FDF7A1FC079BCE
:103940004FF000029A60079B4FF003021A70BDF817
:103950001A300C9A00920D9A01920E9A02920798D0
:103960001946059A049B04F063FB0990099BB3F187
:10397000FF3F04D1079B4FF005021A7003E0079B3D
:103980004FF002021A70FDF79BFC4FF0000383F327
:103990001188099B18460BB000BD00BFAFF3008033
:1039A00000B583B00190019B002B05D145F6742032
:1039B000C0F60300FDF7D4FD019B03F10C0318468C
:1039C000FEF7B6FD03B000BDAFF30080AFF300809B
:1039D00000B583B00190019B002B05D145F68820EE
:1039E000C0F60300FDF7BCFDFEF742FE03B000BDCC
:1039F00008B505F0A5FA08BDAFF30080AFF300806D
:103A000082B00190019B4FF001021A70019B4FF0B0
:103A100000025A6002B07047AFF30080AFF300803D
:103A200000B589B0039002910192029A019B9A42DB
:103A300004D3029A019BD31A1F2B05D945F6A02067
:103A4000C0F60300FDF78CFD019B4FEA531307936B
:103A5000019B03F01F030693029B4FEA5313059348
:103A6000029B03F01F0303F101034FF0010202FA6E
:103A700003F303F1FF330493079A059B9A4217D28D
:103A8000079B4FEA8303039AD3181A68069B22FA0E
:103A900003F2059B4FEA83030399CB181968049B33
:103AA0001940069BC3F1200301FA03F313430AE014
:103AB000079B4FEA8303039AD3181A68049B1A40A2
:103AC000069B22FA03F3184609B000BDAFF300804D
:103AD00000B587B00190019B03F10C031B684FEA0E
:103AE0009373002B02D0012B26D032E001984FF0C7
:103AF00049014FF03E02FFF793FF059001984FF008
:103B000031014FF02F02FFF78BFF049001984FF027
:103B100053014FF05002FFF783FF0390059B03F121
:103B20000102049B03F1020302FA03F2039BA3F1D7
:103B3000090302FA03F30EE001984FF045014FF03C
:103B40003002FFF76DFF034603F101034FEA8323C1
:103B500001E04FF00003184607B000BDAFF300804E
:103B600008B504F015FB08BDAFF30080AFF300808B
:103B700000B583B001900091019B002B02D0009B07
:103B8000002B05D145F6C020C0F60300FDF7E8FC88
:103B90004FF0200383F31188FDF772FB0198009921
:103BA00004F066FBFDF78CFB4FF0000383F31188F4
:103BB00003B000BDAFF30080AFF30080AFF300802F
:103BC00000B583B001900091019B002B02D0009BB7
:103BD000002B05D145F6D020C0F60300FDF7C0FC50
:103BE0004FF0200383F31188FDF74AFB01980099F9
:103BF00004F09EFBFDF764FB4FF0000383F3118894
:103C000003B000BDAFF30080AFF30080AFF30080DE
:103C100000B583B00190019B002B05D145F6C02073
:103C2000C0F60300FDF79CFC019804F0C9FB0346B5
:103C3000184603B000BD00BFAFF30080AFF30080B3
:103C400000B585B00190019B9A6B03AB01984FF0D2
:103C50000D0103F09DF90346002B07D1039A4EF2A4
:103C60000803CFF6FF531340002B02D04FF001039F
:103C700015E0039B4FEA532303F00F03042B04D0FA
:103C8000042B0AD3072B08D802E04FF0000306E00C
:103C90004FF00100FEF7ECF8D5E74FF001031846AE
:103CA00005B000BDAFF30080AFF30080AFF300803C
:103CB00008B502F0ADFF08BDAFF30080AFF30080A0
:103CC00082B00190019A46F22053C0F603031360BC
:103CD000019B4FF001021A71019B4FF000025A63E1
:103CE000019B4FF00002DA62019B4FF000029A62E2
:103CF00002B07047AFF30080AFF30080AFF30080F5
:103D000000B583B001900091019B002B05D145F6D1
:103D10000030C0F60300FDF723FC4FF0200383F3CF
:103D20001188FDF7ADFA019B1B79012B09D0019B8E
:103D30001B79022B05D045F61030C0F60300FDF7C5
:103D40000FFC019B009ADA62019802F081FF019B4F
:103D50004FF002021A71FDF7B3FA4FF0000383F33C
:103D6000118803B000BD00BFAFF30080AFF3008047
:103D700000B583B00190019B002B05D145F62030A2
:103D8000C0F60300FDF7ECFB4FF0200383F311882E
:103D9000FDF776FA019B1B79012B09D0019B1B795A
:103DA000022B05D045F62C30C0F60300FDF7D8FBFA
:103DB000019802F0BDFF019B4FF001021A71FDF75F
:103DC0007FFA4FF0000383F3118803B000BD00BFFA
:103DD00000B587B00190019B002B05D145F63C3022
:103DE000C0F60300FDF7BCFB019B1B79022B09D039
:103DF000019B1B79052B05D045F64C30C0F603001E
:103E0000FDF7AEFB019B4FF003021A71019802F01F
:103E1000CFFF01984FF000014FF0000203F048F887
:103E200003AB01984FF008014FF4D57203F0B0F8DE
:103E3000034683F00103DBB2002B21D0019B4FF03E
:103E400001021A63039B4FEA132303F00F03012BB4
:103E500040F0FA8003AB01984FF037014FF00002B9
:103E600003F096F80346002B40F0FD80039A4EF2D3
:103E70000803CFF6FF531340002B40F0F48003E01B
:103E8000019B4FF000021A63019B1B6B03F00F03B1
:103E9000012B05D14FF00003CCF21003049304E092
:103EA0004FF00003C8F2100304934FF00003059392
:103EB00003AB01984FF037014FF0000203F068F8B0
:103EC0000346002B40F0CF80039A4EF20803CFF652
:103ED000FF531340002B40F0C68003AB01984FF016
:103EE0002901049A03F00CF80346002B40F0AE8041
:103EF000039B002B0BDA039B03F08043002B13D0B2
:103F0000019B1B6B43F01002019B1A630CE0059BA5
:103F100003F101030593059B632B00F299804FF099
:103F20000A00FDF7A5FFC3E700BF019B03F10803EB
:103F300001984FF002014FF0000203F071F80346C0
:103F4000002B40F08780019B03F1380301984FF06C
:103F500003014FF0000203F01BF80346002B7BD156
:103F6000019B9A6B019B03F1180301984FF0090123
:103F700003F056F80346002B70D1019802F040FF81
:103F8000019B9A6B03AB01984FF0070103F000F817
:103F90000346002B64D103AB01984FF010014FF49E
:103FA000007202F0F5FF0346002B5CD1039A4EF23B
:103FB0000803CFF6FF531340002B54D1019B1B6B1A
:103FC00003F00F03012B2BD801984FF0010102F0F1
:103FD0003FFF019B9A6B03AB01984FF0370102F052
:103FE000D7FF0346002B3ED1039A4EF20803CFF6CB
:103FF000FF531340002B36D103AB01984FF006015D
:104000004FF0020202F0C4FF0346002B2BD1039AAB
:104010004EF20803CFF6FF531340002B23D100BF0D
:10402000019B03F118031846FFF752FD0246019B5E
:104030009A62019B9B6A002B14D0019B4FF00502F2
:104040001A714FF0000317E000BF0CE000BF0AE058
:1040500000BF08E000BF06E000BF04E000BF02E0D0
:1040600000BF00E000BF019802F0DAFE019B4FF0B4
:1040700002021A714FF00103184607B000BD00BFDD
:1040800000B583B00190019B002B05D145F660304F
:10409000C0F60300FDF764FA4FF0200383F31188A4
:1040A000FDF7EEF8019B1B79022B09D0019B1B79D0
:1040B000052B05D045F67430C0F60300FDF750FA25
:1040C000019B1B79022B08D1FDF7FAF84FF0000392
:1040D00083F311884FF0000322E0019B4FF00402AC
:1040E0001A71FDF7EDF84FF0000383F31188019882
:1040F000FFF7A6FD0346002B09D0019802F090FEC1
:10410000019B4FF002021A714FF0010308E0019881
:1041100002F086FE019B4FF002021A714FF000037D
:10412000184603B000BD00BFAFF30080AFF30080BE
:1041300000B587B00390029101920093039B002B7E
:1041400005D0019B002B02D0009B002B05D145F62A
:104150008830C0F60300FDF703FA039B1B79052B9B
:1041600005D045F69430C0F60300FDF7F9F9029A40
:10417000009BD31803F1FF32039B9B6A9A4208D934
:10418000039B5B6B43F08002039B5A634FF0010378
:1041900012E0039B4FF006021A7103980299019AEC
:1041A000009B03F0B5F803468DF81730039B4FF0E2
:1041B00005021A719DF81730184607B000BD00BF00
:1041C00000B587B00390029101920093039B002BEE
:1041D00005D0019B002B02D0009B002B05D145F69A
:1041E000A430C0F60300FDF7BBF9039B1B79052B38
:1041F00005D045F6B430C0F60300FDF7B1F9029AD8
:10420000009BD31803F1FF32039B9B6A9A4208D9A3
:10421000039B5B6B43F08002039B5A634FF00103E7
:1042200012E0039B4FF007021A7103980299019A5A
:10423000009B03F0BDF803468DF81730039B4FF049
:1042400005021A719DF81730184607B000BD00BF6F
:1042500000B585B00190019B002B05D145F6FC30DF
:10426000C0F60300FDF77CF9019B1B79052B02D0FA
:104270004FF001030FE0019B4FF008021A71019803
:1042800003F0E6F803468DF80F30019B4FF005026E
:104290001A719DF80F30184605B000BDAFF30080CD
:1042A00000B583B001900091019B002B02D0009BD0
:1042B000002B05D145F60840C0F60300FDF750F984
:1042C000019B1B79052B02D04FF0010309E0019BF4
:1042D0009A6A009B5A60009B4FF400721A604FF07C
:1042E0000003184603B000BDAFF30080AFF30080B9
:1042F00000B587B0039002910192039B002B05D17A
:1043000045F61840C0F60300FDF72AF9039B1B7918
:10431000052B05D045F62840C0F60300FDF720F92F
:10432000039B4FF007021A71039B1B6B03F01003F2
:10433000002B07D1029B4FEA43230293019B4FEAD4
:10434000432301930398FFF77BFC05AB03984FF0E1
:104350002001029A02F01CFE0346002B36D1059A7A
:104360004EF20803CFF6FF531340002B2ED105ABBE
:1043700003984FF02101019A02F00AFE0346002B38
:1043800024D1059A4EF20803CFF6FF531340002BB9
:104390001CD105AB03984FF026014FF0000202F04C
:1043A000F7FD0346002B11D1059A4EF20803CFF614
:1043B000FF531340002B09D10398FFF741FC039BE7
:1043C0004FF005021A714FF0000305E0039B4FF018
:1043D00005021A714FF00103184607B000BD00BF77
:1043E00000B585B0039002910192039B03F1300365
:1043F00018460299019A4FF0FF33FEF7A1FD0346DC
:10440000184605B000BD00BFAFF30080AFF30080D9
:1044100000B585B0039002910192039B03F10C0358
:1044200018460299019A4FF0FF33FEF721FC03462C
:10443000184605B000BD00BFAFF30080AFF30080A9
:1044400000B583B001900B468DF80330019B03F15A
:1044500030029DF80330104619464FF0FF32FEF748
:10446000CFFC0346184603B000BD00BFAFF3008089
:1044700000B583B00190019B03F10C0318464FF087
:10448000FF31FEF7A5FB0346184603B000BD00BF91
:1044900000B585B003900B4601928DF80B30039B5D
:1044A00003F130029DF80B3010461946019AFEF7D1
:1044B000A7FC0346184605B000BD00BFAFF300805F
:1044C00000B583B001900091019B03F10C031846E5
:1044D0000099FEF77DFB0346184603B000BD00BF00
:1044E00000B585B00390029101920093039B03F104
:1044F000300318460299019A009BFEF721FD0346FE
:10450000184605B000BD00BFAFF30080AFF30080D8
:1045100000B585B00390029101920093039B03F1D3
:104520000C0318460299019A009BFEF7A1FB034673
:10453000184605B000BD00BFAFF30080AFF30080A8
:1045400008B504F0FDFE08BDAFF30080AFF30080B6
:1045500000B587B0059004910392059A46F2405346
:10456000C0F603031360059B03F10402059B5A6028
:10457000059B4FF001021A72059B03F10C02059B8B
:1045800003F1540305990091104619464FF040027B
:10459000049BFEF77DFA059B03F13002059B03F1B6
:1045A000940305990091104619464FF04002039B71
:1045B000FEF7CEFB07B000BDAFF30080AFF3008085
:1045C00000B583B001900091019B002B05D145F609
:1045D0004040C0F60300FCF7C3FF4FF0200383F315
:1045E0001188FCF74DFE019B1B7A012B09D0019B22
:1045F0001B7A022B05D045F64C40C0F60300FCF7B1
:10460000AFFF0198009904F0E3FE019B4FF0020216
:104610001A72FCF755FE4FF0000383F3118803B0C4
:1046200000BD00BFAFF30080AFF30080AFF30080A8
:1046300000B583B00190019B002B05D145F65C408D
:10464000C0F60300FCF78CFF4FF0200383F31188C2
:10465000FCF716FE019B1B7A012B09D0019B1B7AEC
:10466000022B05D045F66840C0F60300FCF778FF42
:10467000019804F015FF019B4FF001021A72019B93
:1046800003F130031846FEF78BFB019B03F10C038B
:104690001846FEF725FAFDF7EBF9FCF711FE4FF08F
:1046A000000383F3118803B000BD00BFAFF30080A7
:1046B00000B583B001900B468DF80330FCF7C0FEC7
:1046C000019B002B05D145F67840C0F60300FCF7AE
:1046D00047FF019B5B69002B07D1019B03F104039A
:1046E00018464FF00401FEF73BF8019B03F10C0262
:1046F0009DF8033010461946FEF71AFA0346002BC0
:1047000007DA019B03F1040318464FF08001FEF71E
:1047100027F803B000BD00BFAFF30080AFF3008007
:1047200008B503F0B5FF08BDAFF30080AFF300801C
:1047300000B583B00190019B4FF001021A70019BFC
:104740004FF000025A60019B4FF000029A60019BFB
:1047500003F10C031846FDF7CBFE03B000BD00BF0C
:1047600000B583B001900091019B002B02D0009B0B
:10477000002B05D145F6A040C0F60300FCF7F0FE83
:104780004FF0200383F31188FCF77AFD019B1B781F
:10479000012B09D0019B1B78022B05D045F6B040B8
:1047A000C0F60300FCF7DCFE019B009A5A600198FA
:1047B00003F0DEFF019B4FF002021A70FCF780FD50
:1047C0004FF0000383F3118803B000BDAFF3008006
:1047D00000B583B00190019B002B05D145F6C04088
:1047E000C0F60300FCF7BCFE4FF0200383F31188F2
:1047F000FCF746FD019B1B78012B09D0019B1B7820
:10480000022B05D045F6CC40C0F60300FCF7A8FE0D
:10481000019804F095F8019B4FF001021A70FCF723
:104820004FFD4FF0000383F3118803B000BD00BFBC
:1048300000B583B00190019B002B05D145F6DC400B
:10484000C0F60300FCF78CFE4FF0200383F31188C1
:10485000FCF716FD019B1B78022B05D045F6EC40BA
:10486000C0F60300FCF77CFE019804F0B1F8FCF7F9
:1048700027FD4FF0000383F3118803B000BD00BF94
:1048800000B583B00190019B002B05D145F6FC409B
:10489000C0F60300FCF764FE4FF0200383F3118899
:1048A000FCF7EEFC019B1B78022B05D045F60C5063
:1048B000C0F60300FCF754FE019804F099F8FCF7E9
:1048C000FFFC4FF0000383F3118803B000BD00BF6D
:1048D00000B583B0FCF754FD4FF4C043C4F20203AB
:1048E0001B6803F03D0301934FF4C043C4F202037D
:1048F0004FF03D029A6041F28443C2F200031B680C
:10490000002B0CD041F28443C2F200031A6841F23A
:104910008443C2F200035B68184601999047FCF794
:104920005FFDFCF735FA03B000BD00BFAFF30080B8
:1049300000B583B0FCF724FD4FF4C043C4F202037A
:104940001B684FEA931303F03D0301934FF4C043F8
:10495000C4F202034FF474629A6041F28443C2F2DB
:1049600000039B68002B0CD041F28443C2F2000389
:104970009A6841F28443C2F20003DB681846019949
:104980009047FCF72DFDFCF703FA03B000BD00BF14
:1049900000B583B0FCF7F4FC4FF4C043C4F202034B
:1049A0001B684FEA134303F03D0301934FF4C043E8
:1049B000C4F202034FF474129A6041F28443C2F2CB
:1049C00000031B69002B0CD041F28443C2F20003A8
:1049D0001A6941F28443C2F200035B6918460199E7
:1049E0009047FCF7FDFCFCF7D3F903B000BD00BF16
:1049F00000B583B0FCF7C4FC4FF4C043C4F202031B
:104A00001B684FEA935303F03D0301934FF4C043F7
:104A1000C4F202034FF074629A6041F28443C2F21E
:104A200000039B69002B0CD041F28443C2F20003C7
:104A30009A6941F28443C2F20003DB691846019986
:104A40009047FCF7CDFCFCF7A3F903B000BD00BF15
:104A500000B583B0FCF794FC4FF4C043C4F20203EA
:104A60005B6803F03D0301934FF4C043C4F20203BB
:104A70004FF03D02DA6041F28443C2F200031B6A48
:104A8000002B0CD041F28443C2F200031A6A41F2B7
:104A90008443C2F200035B6A184601999047FCF711
:104AA0009FFCFCF775F903B000BD00BFAFF30080B9
:104AB00000B583B0FCF764FC4FF4C043C4F20203BA
:104AC0005B684FEA931303F03D0301934FF4C04337
:104AD000C4F202034FF47462DA6041F28443C2F21A
:104AE00000039B6A002B0CD041F28443C2F2000306
:104AF0009A6A41F28443C2F20003DB6A18460199C4
:104B00009047FCF76DFCFCF743F903B000BD00BF14
:104B100000B583B0FCF734FC4FF4C043C4F2020389
:104B20005B684FEA134303F03D0301934FF4C04326
:104B3000C4F202034FF47412DA6041F28443C2F209
:104B400000031B6B002B0CD041F28443C2F2000324
:104B50001A6B41F28443C2F200035B6B1846019961
:104B60009047FCF73DFCFCF713F903B000BD00BF14
:104B700000B583B0FCF704FC4FF4C043C4F2020359
:104B80005B684FEA935303F03D0301934FF4C04336
:104B9000C4F202034FF07462DA6041F28443C2F25D
:104BA00000039B6B002B0CD041F28443C2F2000344
:104BB0009A6B41F28443C2F20003DB6B1846019901
:104BC0009047FCF70DFCFCF7E3F803B000BD00BF15
:104BD00000B583B0FCF7D4FB4FF4C843C4F2020322
:104BE0001B6803F03D0301934FF4C843C4F2020372
:104BF0004FF03D029A6041F28443C2F200031B6C05
:104C0000002B0CD041F28443C2F200031A6C41F233
:104C10008443C2F200035B6C184601999047FCF78D
:104C2000DFFBFCF7B5F803B000BD00BFAFF30080B9
:104C300000B583B0FCF7A4FB4FF4C843C4F20203F1
:104C40001B684FEA931303F03D0301934FF4C843ED
:104C5000C4F202034FF474629A6041F28443C2F2D8
:104C600000039B6C002B0CD041F28443C2F2000382
:104C70009A6C41F28443C2F20003DB6C184601993E
:104C80009047FCF7ADFBFCF783F803B000BD00BF15
:104C900000B583B0FCF774FB4FF4C843C4F20203C1
:104CA0001B684FEA134303F03D0301934FF4C843DD
:104CB000C4F202034FF474129A6041F28443C2F2C8
:104CC00000031B6D002B0CD041F28443C2F20003A1
:104CD0001A6D41F28443C2F200035B6D18460199DC
:104CE0009047FCF77DFBFCF753F803B000BD00BF15
:104CF00000B583B0FCF744FB4FF4C843C4F2020391
:104D00001B684FEA935303F03D0301934FF4C843EC
:104D1000C4F202034FF074629A6041F28443C2F21B
:104D200000039B6D002B0CD041F28443C2F20003C0
:104D30009A6D41F28443C2F20003DB6D184601997B
:104D40009047FCF74DFBFCF723F803B000BD00BF14
:104D500000B583B0FCF714FB4FF4C843C4F2020360
:104D60005B6803F03D0301934FF4C843C4F20203B0
:104D70004FF03D02DA6041F28443C2F200031B6E41
:104D8000002B0CD041F28443C2F200031A6E41F2B0
:104D90008443C2F200035B6E184601999047FCF70A
:104DA0001FFBFBF7F5FF03B000BD00BFAFF30080B2
:104DB00000B583B0FCF7E4FA4FF4C843C4F2020331
:104DC0005B684FEA931303F03D0301934FF4C8432C
:104DD000C4F202034FF47462DA6041F28443C2F217
:104DE00000039B6E002B0CD041F28443C2F20003FF
:104DF0009A6E41F28443C2F20003DB6E18460199B9
:104E00009047FCF7EDFAFBF7C3FF03B000BD00BF0E
:104E100000B583B0FCF7B4FA4FF4C843C4F2020300
:104E20005B684FEA134303F03D0301934FF4C8431B
:104E3000C4F202034FF47412DA6041F28443C2F206
:104E400000031B6F002B0CD041F28443C2F200031D
:104E50001A6F41F28443C2F200035B6F1846019956
:104E60009047FCF7BDFAFBF793FF03B000BD00BF0E
:104E700000B583B0FCF784FA4FF4C843C4F20203D0
:104E80005B684FEA935303F03D0301934FF4C8432B
:104E9000C4F202034FF07462DA6041F28443C2F25A
:104EA00000039B6F002B0CD041F28443C2F200033D
:104EB0009A6F41F28443C2F20003DB6F18460199F6
:104EC0009047FCF78DFAFBF763FF03B000BD00BF0E
:104ED00082B041F28043C2F200034FF000021A6038
:104EE0004FF0000301931CE046F26052C0F603024B
:104EF00001990B464FEA43035B184FEA8303D3182B
:104F00001B684FF000021A6041F28443C2F20003B2
:104F1000019A4FF0000143F83210019B03F10103A5
:104F20000193019B0F2BDFDD4FF4C043C4F202035A
:104F30004FF0FF329A604FF4C043C4F202034FF0C7
:104F4000FF32DA604FF4C843C4F202034FF0FF327D
:104F50009A604FF4C843C4F202034FF0FF32DA60A4
:104F600002B07047AFF30080AFF30080AFF3008072
:104F700000B585B00390029101920093039B002B32
:104F800005D145F6E060C0F60300FCF7E9FA039BA3
:104F90005B7A4FF0010202FA03F31A4641F28043B2
:104FA000C2F200031B681340002B02D04FF0010334
:104FB00080E0039B5B7A1A4641F28443C2F200030D
:104FC000019943F83210039B5B7A41F28442C2F2AA
:104FD00000024FEAC303D318009A5A60039B5B7A1E
:104FE0004FF0010202FA03F31A4641F28043C2F283
:104FF00000031B681A4341F28043C2F200031A60A7
:1050000041F28043C2F200031B68DBB2002B0BD0DD
:105010004FF46053C4F202034FF46052C4F2020230
:10502000126B42F400121A6341F28043C2F2000391
:105030001B6803F47F43002B0BD04FF46053C4F282
:1050400002034FF46052C4F20202126B42F4800277
:105050001A63039B1B68039A1268126822F01F02EE
:105060001A60039B1B681B6803F00103002BF8D137
:10507000039B5B68039A127A4FF03D0101FA02F23A
:105080001A60039B1B684FF000021A60039B1B68A9
:105090004FF021025A61019B002B09D0039B9B7AA0
:1050A0001A46029B4FEA031310461946FBF710FFFE
:1050B0004FF00003184605B000BD00BFAFF30080FD
:1050C00000B583B00190019B002B05D145F6F86037
:1050D000C0F60300FCF744FA019B5B7A4FF0010233
:1050E00002FA03F31A4641F28043C2F200031B683E
:1050F0001340002B05D145F61070C0F60300FCF7F5
:105100002FFA019B9B7A1846FBF73AFF019B5B7ACB
:105110004FF0010202FA03F36FEA03031A4641F269
:105120008043C2F200031B681A4041F28043C2F27E
:1051300000031A6041F28043C2F200031B68DBB235
:10514000002B0BD14FF46053C4F202034FF46052B2
:10515000C4F20202126B22F400121A6341F280437D
:10516000C2F200031B6803F47F43002B0BD14FF402
:105170006053C4F202034FF46052C4F20202126B95
:1051800022F480021A6303B000BD00BFAFF30080B9
:105190004FF4E043C4F200034FF4E042C4F20002D3
:1051A000126842F480721A604FF46053C4F2020332
:1051B0001B6F03F44073B3F5807F0DD04FF4605341
:1051C000C4F202034FF480321A674FF46053C4F202
:1051D00002034FF000021A674FF46053C4F2020357
:1051E0004FF46052C4F20202126F42F001021A67D9
:1051F00000BF4FF46053C4F202031B6F03F00203BD
:10520000002BF6D04FF46053C4F202031B6F03F47B
:105210000043002B17D14FF46053C4F202034FF444
:105220006052C4F20202126F42F480721A674FF4A5
:105230006053C4F202034FF46052C4F20202126FD0
:1052400042F400421A674FF46053C4F202034FF471
:105250006052C4F20202126B42F480221A634FF4CD
:10526000E043C4F200034FF4E042C4F2000252688B
:1052700042F400725A6000BF4FF4E043C4F20003EE
:105280005B6803F00803002BF6D07047AFF3008093
:1052900008B54FF46053C4F202031B694FF4605326
:1052A000C4F202034FF0FF321A614FF46053C4F2AC
:1052B00002034FF000021A614FF46053C4F202037C
:1052C0005B694FF46053C4F202034FF0FF325A613E
:1052D0004FF46053C4F202034FF000025A614FF4DE
:1052E0006053C4F202034FF46052C4F20202126A25
:1052F00062F080521A624FF46053C4F202034FF01E
:1053000000021A624FF46053C4F202035B6A4FF466
:105310006053C4F202034FF0FF325A624FF46053FD
:10532000C4F202034FF000025A624EF21003CEF2B2
:10533000000349F23F02C0F202025A604EF210032B
:10534000CEF200034FF000029A604EF21003CEF24C
:1053500000034FF007021A604EF6F053CEF200033E
:105360004EF6F052CEF20002D26842F08072DA605D
:105370004FF48053CEF200034FF48052CEF200027D
:10538000126842F001021A604FF46053C4F2020343
:105390004FF46052C4F20202126C42F080521A645E
:1053A000FFF7F6FEFFF794FD08BD00BFAFF30080E6
:1053B0004FF46053C4F202034FF080521A644FF46A
:1053C000E043C4F200034FF480421A6000BF4FF480
:1053D000E043C4F200035B6803F48043002BF6D083
:1053E0004FF46053C4F202034FF46052C4F202025D
:1053F000126842F001021A6000BF4FF46053C4F219
:1054000002031B6803F00203002BF6D04FF4605335
:10541000C4F202034FF46052C4F20202126842F472
:1054200080321A6000BF4FF46053C4F202031B685D
:1054300003F40033002BF6D04FF46053C4F20203A0
:105440004FF46052C4F20202526F42F001025A67F6
:1054500000BF4FF46053C4F202035B6F03F002031A
:10546000002BF6D04FF46053C4F2020345F21A4207
:10547000C0F240725A604FF46053C4F202034FF41A
:105480006052C4F20202126842F080721A6000BFD9
:105490004FF46053C4F202031B6803F00073002B47
:1054A000F6D04FF46052C4F202024FF46053C4F2DB
:1054B000020399684FF41443C3F608030B43936047
:1054C0004FF47053C4F2020340F205721A604FF4B5
:1054D0006053C4F202034FF46052C4F202029268B5
:1054E00042F002029A6000BF4FF46053C4F202031C
:1054F0009B6803F00C03082BF6D14FF46053C4F201
:1055000002034FF46052C4F20202526C42F4804231
:105510005A644FF46053C4F202034FF46052C4F271
:105520000202526E42F480425A667047AFF3008026
:1055300000B589B001900091009B03F00C03002B93
:105540003DD0019800F094FC019B1B699B68002BE7
:1055500012D0019B4FF005021A70019B1B699B68DA
:1055600001984FF000019847019B1B78052B03D150
:10557000019B4FF002021A70019B4FF000021A616A
:105580004FF0200383F31188FBF7BAFE019B5B69A0
:10559000002B0DD0019B5B690793019B4FF000022C
:1055A0005A61079B4FF0FF329A620798FCF708F99F
:1055B000FBF7C6FE4FF0000383F31188B8E0019BB0
:1055C0001B69002B00F0B480009B03F01003002B3C
:1055D0000FD0019B1B695B68002B0AD0019B1B69E4
:1055E0005B68019A9168019AD2684FEA5202019869
:1055F0009847009B03F02003002B00F09980019B4B
:105600001B691B78002B2DD0019B1B695B68002B4D
:1056100000F08E80019BDB68012B19D9019BDB68B0
:105620004FEA53030693019B1B695B88069A02FBB2
:1056300003F30593019B1B695B68019A9168059AC6
:105640004FEA42028A1801981146069A98476FE07D
:10565000019B1B695B68019A9168019AD268019865
:10566000984765E0019800F003FC019B1B695B68AB
:10567000002B37D0019B4FF004021A70019BDB68AE
:10568000012B19D9019BDB684FEA53030493019B5B
:105690001B695B88049A02FB03F30393019B1B695C
:1056A0005B68019A9168039A4FEA42028A1801984E
:1056B0001146049A984708E0019B1B695B68019AB0
:1056C0009168019AD26801989847019B1B78042B36
:1056D00010D1019B4FF002021A70019B4FF00002A3
:1056E0001A6107E0019B4FF002021A70019B4FF014
:1056F00000021A614FF0200383F31188FBF700FECC
:10570000019B5B69002B0DD0019B5B690293019BA0
:105710004FF000025A61029B4FF000029A62029819
:10572000FCF74EF8FBF70CFE4FF0000383F31188F3
:1057300009B000BDAFF30080AFF30080AFF300808D
:1057400000B585B0FBF71CFE4FF40053C4F2010313
:105750001B6803934FF40053C4F201034FF000029F
:105760001A60039B03F02003002B6DD041F2045319
:10577000C2F20003DB6A1B685B68002B64D041F255
:105780000453C2F200031B69002B5DD041F20450A8
:10579000C2F2000000F06CFB41F20453C2F20003BD
:1057A0001B699B68002B21D041F20453C2F2000315
:1057B0004FF005021A7041F20453C2F200031B6954
:1057C0009B6841F20450C2F200004FF0010198477B
:1057D00041F20453C2F200031B78052B06D141F2BB
:1057E0000453C2F200034FF002021A7041F2045354
:1057F000C2F200034FF000021A614FF0200383F35E
:105800001188FBF77DFD41F20453C2F200035B698E
:10581000002B13D041F20453C2F200035B690293E0
:1058200041F20453C2F200034FF000025A61029B9E
:105830004FF0FF329A620298FBF7C2FFFBF780FD40
:105840004FF0000383F311884FF40453C4F20103B3
:105850001B6803934FF40453C4F201034FF000029A
:105860001A60039B03F02003002B6DD041F23853E4
:10587000C2F20003DB6A1B685B68002B64D041F254
:105880003853C2F200031B69002B5DD041F238503F
:10589000C2F2000000F0ECFA41F23853C2F2000309
:1058A0001B699B68002B21D041F23853C2F20003E0
:1058B0004FF005021A7041F23853C2F200031B691F
:1058C0009B6841F23850C2F200004FF00101984746
:1058D00041F23853C2F200031B78052B06D141F286
:1058E0003853C2F200034FF002021A7041F23853EB
:1058F000C2F200034FF000021A614FF0200383F35D
:105900001188FBF7FDFC41F23853C2F200035B69DA
:10591000002B13D041F23853C2F200035B690193AC
:1059200041F23853C2F200034FF000025A61019B6A
:105930004FF0FF329A620198FBF742FFFBF700FD40
:105940004FF0000383F311884FF40853C4F20103AE
:105950001B6803934FF40853C4F201034FF0000295
:105960001A60039B03F02003002B6DD041F26C53AF
:10597000C2F20003DB6A1B685B68002B64D041F253
:105980006C53C2F200031B69002B5DD041F26C50D6
:10599000C2F2000000F06CFA41F26C53C2F2000354
:1059A0001B699B68002B21D041F26C53C2F20003AB
:1059B0004FF005021A7041F26C53C2F200031B69EA
:1059C0009B6841F26C50C2F200004FF00101984711
:1059D00041F26C53C2F200031B78052B06D141F251
:1059E0006C53C2F200034FF002021A7041F26C5382
:1059F000C2F200034FF000021A614FF0200383F35C
:105A00001188FBF77DFC41F26C53C2F200035B6925
:105A1000002B13D041F26C53C2F200035B69009378
:105A200041F26C53C2F200034FF000025A61009B36
:105A30004FF0FF329A620098FBF7C2FEFBF780FC42
:105A40004FF0000383F31188FBF7CAFCFBF7A0F9C2
:105A500005B000BDAFF30080AFF30080AFF300806E
:105A600008B541F20450C2F20000FDF751FC41F2CA
:105A70000453C2F200034FF40052C4F201029A62CE
:105A800041F20453C2F20003264ADA6241F204539F
:105A9000C2F2000342F61642C0F202021A6341F259
:105AA0003850C2F20000FDF733FC41F23853C2F225
:105AB00000034FF40452C4F201029A6241F23853D7
:105AC000C2F20003184ADA6241F23853C2F200030C
:105AD00042F61642C0F202221A6341F26C50C2F240
