:020000040800F2
:1000000000040020710C0008710E0008C0010008F7
:10001000710E0008710E0008710E0008710E0008C4
:10002000710E0008710E0008710E0008A10E000884
:10003000710E0008710E0008710E0008A10F000873
:10004000710E000831380008710E000831390008BF
:10005000710E0008710E0008313600086136000884
:1000600091360008C1360008F13600083129000831
:1000700071290008B1290008F1290008312A000877
:10008000712A0008B12A000881340008710E0008A6
:10009000710E0008710E0008710E0008213700086B
:1000A000710E0008613C0008710E0008813C0008D8
:1000B000710E0008710E0008710E0008710E000824
:1000C000710E0008710E0008710E0008710E000814
:1000D000710E0008214C0008414C0008710E000808
:1000E000A1370008710E000871380008710E000871
:1000F000710E0008713B0008710E0008F12A00081B
:10010000710E0008513E0008710E0008710E0008C3
:10011000710E0008710E0008710E0008710E0008C3
:10012000312B0008712B0008B12B0008F12B0008BF
:10013000312C0008710E0008B1380008710E00085B
:10014000710E0008710E0008710E0008710E000893
:10015000712C0008B12C0008F12C0008710E000869
:10016000710E0008710E0008710E0008710E000873
:10017000F1380008710E0008710E0008710E0008B9
:08018000710E0008710E000869
:1001900010B50A4C0023236001F05AFE00F088FFDE
:1001A00008F056FF30B1032121604FF47A7001F05E
:1001B0009FFBFAE701202060F7E700BF189E0020B0
:1001C0001EF0040F0CBFEFF30880EFF3098005F079
:1001D000D7B8000000000000000000000000000090
:1001E00081F0004102E000BF83F0004330B54FEAE8
:1001F00041044FEA430594EA050F08BF90EA020F55
:100200001FBF54EA000C55EA020C7FEA645C7FEAE7
:10021000655C00F0E2804FEA5454D4EB5555B8BF0A
:100220006D420CDD2C4480EA020281EA030382EA7B
:10023000000083EA010180EA020281EA0303362D0D
:1002400088BF30BD11F0004F4FEA01314FF4801CE0
:100250004CEA113102D0404261EB410113F0004FF2
:100260004FEA03334CEA133302D0524263EB4303A9
:1002700094EA050F00F0A780A4F10104D5F1200E47
:100280000DDB02FA0EFC22FA05F2801841F10001A2
:1002900003FA0EF2801843FA05F359410EE0A5F176
:1002A00020050EF1200E012A03FA0EFC28BF4CF0A7
:1002B000020C43FA05F3C01851EBE37101F000455D
:1002C00007D54FF0000EDCF1000C7EEB00006EEB6A
:1002D0000101B1F5801F1BD3B1F5001F0CD34908F4
:1002E0005FEA30004FEA3C0C04F101044FEA44524B
:1002F00012F5800F80F09A80BCF1004F08BF5FEAD2
:10030000500C50F1000041EB045141EA050130BDB1
:100310005FEA4C0C404141EB010111F4801FA4F154
:100320000104E9D191F0000F04BF01460020B1FAA9
:1003300081F308BF2033A3F10B03B3F120020CDAE1
:100340000C3208DD02F1140CC2F10C0201FA0CF0BF
:1003500021FA02F10CE002F11402D8BFC2F1200C24
:1003600001FA02F120FA0CFCDCBF41EA0C019040DA
:10037000E41AA2BF01EB0451294330BD6FEA040423
:100380001F3C1CDA0C340EDC04F11404C4F120020E
:1003900020FA04F001FA02F340EA030021FA04F320
:1003A00045EA030130BDC4F10C04C4F1200220FA77
:1003B00002F001FA04F340EA0300294630BD21FAB5
:1003C00004F0294630BD94F0000F83F4801306BF7B
:1003D00081F480110134013D4EE77FEA645C18BF6F
:1003E0007FEA655C29D094EA050F08BF90EA020F06
:1003F00005D054EA000C04BF1946104630BD91EAFE
:10040000030F1EBF0021002030BD5FEA545C05D100
:100410004000494128BF41F0004130BD14F580043F
:100420003CBF01F5801130BD01F0004545F0FE41B3
:1004300041F470014FF0000030BD7FEA645C1ABFE8
:10044000194610467FEA655C1CBF0B46024650EA1F
:10045000013406BF52EA033591EA030F41F400214B
:1004600030BD00BF90F0000F04BF0021704730B5D1
:100470004FF4806404F132044FF000054FF00001A6
:1004800050E700BF90F0000F04BF0021704730B567
:100490004FF4806404F1320410F0004548BF40423C
:1004A0004FF000013EE700BF42004FEAE2014FEA91
:1004B00031014FEA02701FBF12F07F4393F07F4F6C
:1004C00081F06051704792F0000F14BF93F07F4F9E
:1004D000704730B54FF4607401F0004521F00041E1
:1004E00020E700BF50EA010208BF704730B54FF067
:1004F00000050AE050EA010208BF704730B511F06C
:10050000004502D5404261EB41014FF4806404F1A3
:1005100032045FEA915C3FF4DCAE4FF003025FEA25
:10052000DC0C18BF03325FEADC0C18BF033202EBAD
:10053000DC02C2F1200300FA03FC20FA02F001FA07
:1005400003FE40EA0E0021FA02F11444C1E600BFA6
:1005500070B54FF0FF0C4CF4E06C1CEA11541DBF59
:100560001CEA135594EA0C0F95EA0C0F00F0DEF824
:100570002C4481EA030621EA4C5123EA4C5350EA09
:10058000013518BF52EA033541F4801143F480135A
:1005900038D0A0FB02CE4FF00005E1FB02E506F0EB
:1005A0000042E0FB03E54FF00006E1FB03569CF040
:1005B000000F18BF4EF0010EA4F1FF04B6F5007F46
:1005C00064F5407404D25FEA4E0E6D4146EB0606B8
:1005D00042EAC62141EA55514FEAC52040EA5E5041
:1005E0004FEACE2EB4F1FD0C88BFBCF5E06F1ED8EB
:1005F000BEF1004F08BF5FEA500E50F1000041EB22
:10060000045170BD06F0004646EA010140EA0200CE
:1006100081EA0301B4EB5C04C2BFD4EB0C0541EAF0
:10062000045170BD41F480114FF0000E013C00F305
:10063000AB8014F1360FDEBF002001F0004170BD29
:10064000C4F10004203C35DA0C341BDC04F1140442
:10065000C4F1200500FA05F320FA04F001FA05F2CE
:1006600040EA020001F0004221F0004110EBD3709B
:1006700021FA04F642EB06015EEA430E08BF20EAC7
:10068000D37070BDC4F10C04C4F1200500FA04F36A
:1006900020FA05F001FA04F240EA020001F00041FC
:1006A00010EBD37041F100015EEA430E08BF20EA6F
:1006B000D37070BDC4F1200500FA05F24EEA020EB7
:1006C00020FA04F301FA05F243EA020321FA04F0E6
:1006D00001F0004121FA04F220EA020000EBD3709D
:1006E0005EEA430E08BF20EAD37070BD94F0000F9D
:1006F0000FD101F00046400041EB010111F4801FD1
:1007000008BF013CF7D041EA060195F0000F18BF81
:10071000704703F00046520043EB030313F4801FBD
:1007200008BF013DF7D043EA0603704794EA0C0F77
:100730000CEA135518BF95EA0C0F0CD050EA41068D
:1007400018BF52EA4306D1D181EA030101F000410A
:100750004FF0000070BD50EA410606BF1046194632
:1007600052EA430619D094EA0C0F02D150EA01363E
:1007700013D195EA0C0F05D152EA03361CBF10467F
:1007800019460AD181EA030101F0004141F0FE411E
:1007900041F470014FF0000070BD41F0FE4141F4A2
:1007A000780170BD70B54FF0FF0C4CF4E06C1CEAA2
:1007B00011541DBF1CEA135594EA0C0F95EA0C0F57
:1007C00000F0A7F8A4EB050481EA030E52EA033512
:1007D0004FEA013100F088804FEA03334FF0805533
:1007E00045EA131343EA12634FEA022245EA111560
:1007F00045EA10654FEA00260EF000419D4208BF11
:10080000964244F1FD0404F5407402D25B084FEABD
:100810003202B61A65EB03055B084FEA32024FF469
:1008200080104FF4002CB6EB020E75EB030E22BFC6
:10083000B61A754640EA0C005B084FEA3202B6EB86
:10084000020E75EB030E22BFB61A754640EA5C0035
:100850005B084FEA3202B6EB020E75EB030E22BFC5
:10086000B61A754640EA9C005B084FEA3202B6EBC6
:10087000020E75EB030E22BFB61A754640EADC0085
:1008800055EA060E18D04FEA051545EA16754FEAE7
:1008900006164FEAC30343EA52734FEAC2025FEA05
:1008A0001C1CC0D111F4801F0BD141EA00014FF094
:1008B00000004FF0004CB6E711F4801F04BF014365
:1008C0000020B4F1FD0C88BFBCF5E06F3FF6AFAE81
:1008D000B5EB030C04BFB6EB020C5FEA500C50F111
:1008E000000041EB045170BD0EF0004E4EEA113194
:1008F00014EB5C04C2BFD4EB0C0541EA045170BD9B
:1009000041F480114FF0000E013C90E645EA060EDE
:100910008DE60CEA135594EA0C0F08BF95EA0C0F0C
:100920003FF43BAF94EA0C0F0AD150EA01347FF454
:1009300034AF95EA0C0F7FF425AF104619462CE72B
:1009400095EA0C0F06D152EA03353FF4FDAE10468E
:10095000194622E750EA410618BF52EA43067FF4DF
:10096000C5AE50EA41047FF40DAF52EA43057FF46F
:10097000EBAE12E7000000000000000000000000E5
:100980004FF0FF3C06E000BF4FF0010C02E000BF5B
:100990004FF0010C4DF804CD4FEA410C7FEA6C5C3E
:1009A0004FEA430C18BF7FEA6C5C1BD001B050EAE1
:1009B000410C0CBF52EA430C91EA030F02BF90EACC
:1009C000020F0020704710F1000F91EA030F58BF8B
:1009D000994208BF90422CBFD8176FEAE37040F0ED
:1009E000010070474FEA410C7FEA6C5C02D150EA8B
:1009F000013C07D14FEA430C7FEA6C5CD6D152EA46
:100A0000033CD3D05DF8040B704700BF844610460A
:100A100062468C461946634600E000BF01B5FFF709
:100A2000B7FF002848BF10F1000F01BD4DF808EDD9
:100A3000FFF7F4FF0CBF012000205DF808FB00BFAA
:100A40004DF808EDFFF7EAFF34BF012000205DF804
:100A500008FB00BF4DF808EDFFF7E0FF94BF012051
:100A600000205DF808FB00BF4DF808EDFFF7CEFF52
:100A700094BF012000205DF808FB00BF4DF808ED91
:100A8000FFF7C4FF34BF012000205DF808FB00BF62
:100A90004FEA410212F5001215D211D56FF47873A6
:100AA000B3EB625212D94FEAC12343F0004343EA49
:100AB000505311F0004F23FA02F018BF4042704724
:100AC0004FF00000704750EA013005D111F00040AE
:100AD00008BF6FF0004070474FF00000704700BF44
:100AE0004FEA4102B2F1E04324BFB3F5001CDCF150
:100AF000FE5C0DD901F0004C4FEAC0024CEA507088
:100B0000B2F1004F40EB830008BF20F001007047B6
:100B100011F0804F21D113F13872BCBF01F00040B9
:100B2000704741F480114FEA5252C2F11802C2F1EB
:100B3000200C10FA0CF320FA02F018BF40F001006C
:100B40004FEAC1234FEAD32303FA0CFC40EA0C001E
:100B500023FA02F34FEA4303CCE77FEA625307D15B
:100B600050EA01331EBF4FF0FE4040F44000704792
:100B700001F0004040F0FE4040F40000704700BF2C
:100B800038B50022002305460C46FFF759FF28B967
:100B900028462146BDE8384000F012B8284604F146
:100BA000004100F00DF8424261EB41031046194646
:100BB00038BD00BF00000000000000000000000081
:100BC000002370B50022C3F6F05304460D46FFF72C
:100BD000BFFC00F01DF80646FFF744FC002300228E
:100BE000C4F2F013FFF7B4FC02460B462046294638
:100BF000FFF7FAFA00F00CF80022024310463146E3
:100C000070BD00BF000000000000000000000000F8
:100C10004A0011D212F5001211D20DD56FF478737B
:100C2000B3EB62520ED44FEAC12343F0004343EAD0
:100C3000505323FA02F070474FF00000704750EA1B
:100C4000013002D14FF0FF3070474FF00000704785
:100C5000704700BFAFF30080AFF30080AFF30080B8
:100C6000FEE700BFAFF30080AFF30080AFF300807A
:100C700072B6704C84F309884EF63472CEF20002DC
:100C80004EF68853CEF200034FF0404111601868D1
:100C900040F470051D600022E1EE102A4EF63C7310
:100CA000CEF2000306211A6081F31488BFF36F8F20
:100CB0006148624DA84218D2EA1C051D531B23F05F
:100CC0000302034610184FF0553183421960C2F3F6
:100CD00080020AD01AB185422B46296005D01D1D1D
:100CE0005960083383426960F9D15548A04218D24F
:100CF0005449041D0A1B22F00305034628184FF02F
:100D0000553183421960C5F380020AD01AB184427A
:100D10002346216005D01D1D596008338342696058
:100D2000F9D104F02DF84849484881421BD2C61C2D
:100D30000C1D321B464822F00302161D05680423D1
:100D4000B3420D60C2F380020DD022B14568082382
:100D5000B342256007D01A1D1D5884585D500833D2
:100D6000B3428C50F7D13B483B49884217D2CB1C49
:100D7000041D1A1B22F00305034628180021834294
:100D80001960C5F380020AD01AB18442234621605B
:100D900005D01D1D5960083383426960F9D1FFF702
:100DA00057FF2E4D2E498D421DD2CC1C2E1DA71B48
:100DB000B808471C01242A6800EA04089047BC428E
:100DC00011D0B8F1000F05D0022433689847BC4217
:100DD000354608D0696888470234A8682E1D8047C8
:100DE0000835BC42F6D1FFF7D3F91E4D1E4A954295
:100DF0001DD2D41C2E1DA71BBB085F1C0124296813
:100E000003EA04088847BC4211D0B8F1000F05D0AE
:100E1000022430688047BC42354608D06A68904753
:100E20000234AB682E1D98470835BC42F6D1FFF757
:100E300017FF00BF00080020000000200004002071
:100E4000000400200308002000080020640C00209B
:100E5000B8BC0008680C002008A200208801000827
:100E6000880100088801000888010008AFF30080AD
:100E7000FEE700BFAFF30080AFF30080AFF3008068
:100E800072B6FEE7AFF30080AFF30080AFF30080EF
:100E900000F07EFA00F04CFC00F062FA00DF00BFC8
:100EA000EFF309824EF63073D2F8CC10CEF2000385
:100EB0006832596098686830986082F30988002326
:100EC00083F31188704700BFAFF30080AFF3008059
:100ED00008B54FF46D43CEF200034FF44072C0F2F8
:100EE000FA520021996007201021DA6000F0B8F86A
:100EF0000A204FF4007100F0B3F80B208021BDE808
:100F0000084000F0ADB800BFAFF30080AFF3008041
:100F1000202383F311884FF46D43CEF20003586809
:100F200010F4006325D0EFF30983A3F1680282F384
:100F3000098816494FF080708A6943F84C0C92F882
:100F40002300096892688968B0B1914294BF002279
:100F50000122BAB10E4A43F8502CF1EE10FA4EF6C7
:100F60003072CEF20002516841F0010059665060C3
:100F7000704783F311887047914234BF00220122E9
:100F8000002AE7D1034843F8500CE8E73412002068
:100F9000910E00089C0E0008AFF30080AFF30080B4
:100FA00008B500F08DF9202383F3118800F0C0F913
:100FB00000F0BEF800F0A4F9002383F3118800F0DC
:100FC0005FF9BDE80840FFF7A3BF00BFAFF30080A3
:100FD0002DE9F04F2DED108AC1F80CD0D0F80CD0CF
:100FE000BDEC108ABDE8F08FAFF30080AFF3008056
:100FF00008B500F0B5F9002383F311882846A0470F
:1010000000F0CEFC08BD00BFAFF30080AFF300805E
:10101000F0B44FF461438408CEF20003C03400F012
:10102000030553F82470ED00FF26420906FA05F681
:1010300027EA060601FA05F500F01F0002F1600735
:10104000012101FA00F02E4343F8246043F8270001
:1010500043F82200F0BC7047AFF30080AFF300808C
:1010600082084FF46D43CEF20003063200F0030015
:1010700030B4C00053F82250FF2404FA00F425EAEB
:10108000040401FA00F10C4343F8224030BC7047DD
:10109000024B034A98698261FEE700BF34120020C8
:1010A00060A30008AFF30080AFF30080AFF30080CF
:1010B00030B583B0FFF70CFF00F0FAF900F090F9BB
:1010C00000F06EFE00F0B4FE00F06AF840F66840F2
:1010D0004021C2F2000000F03BFB41F2342440F218
:1010E0000043C2F20003C2F200040125C36180F88C
:1010F0002050A06100F064F9002383F3118862B6E8
:101100004AF2E041A269C0F60001916140F6B840A0
:10111000009341F291034FF4AC712A46C0F60003EC
:10112000C2F2000000F094FB03B030BDAFF30080CA
:10113000F8B500F08DF8164B986990F8232012B19D
:10114000511E80F82310446A124D631C4362E86804
:101150002C68421CAC42EA6018D0A768013FA76027
:10116000A7B92168E6684D60E760296000F0C8F81B
:10117000002383F311882069B047202383F311886B
:1011800000F0D6F82C68A368002BEAD0F8BD00BFA9
:101190003412002024120020AFF30080AFF300804F
:1011A00040F61463C2F200031A46402142F8081BBD
:1011B0005A607047AFF30080AFF30080AFF3008058
:1011C0000C490D4A10B4CC680C49536889691C60FD
:1011D0005960846A9C6003F1100190F8204002F588
:1011E000816081421C732ABF02F108035160536081
:1011F00010BC704724120020140E0020341200206E
:1012000008B541F22023C2F200031860012007F064
:1012100007FFBDE80840FFF733BE00BFAFF3008013
:10122000054B186820B905490A68002A00DD704797
:101230000348FFF7E5BF00BF100E00201C1200207E
:1012400070A30008AFF30080AFF30080AFF300801D
:10125000054B1868002804DB04490A68002A00DDF1
:1012600070470348FFF7CCBF100E00201C1200206F
:1012700078A30008AFF30080AFF30080AFF30080E5
:1012800010B5202383F31188084C2368002B02DD5E
:10129000074A106818B10748FFF7B2FF2368591EC4
:1012A0002160002383F3118810BD00BF100E0020C1
:1012B0001C12002080A30008AFF30080AFF3008071
:1012C00010B5202383F31188084C2368002B02DB20
:1012D000074A106818B10748FFF792FF2368591CA6
:1012E0002160002383F3118810BD00BF100E002081
:1012F0001C12002088A30008AFF30080AFF3008029
:10130000074B1868002810B5064C05DD2168002938
:1013100002DD0022226010BD0348FFF771FFF8E7ED
:10132000100E00201C12002090A30008AFF30080D4
:10133000064B1868002810B5054C01DD216811B175
:101340000448FFF75DFF0122226010BD100E00204F
:101350001C12002098A30008AFF30080AFF30080B8
:10136000074B186810B5074C28B92168002902DD21
:101370000022226010BD0448FFF742FFF8E700BFDB
:10138000100E00201C120020A0A30008AFF3008064
:10139000064B186810B5064C08B9216811B105480C
:1013A000FFF72EFF0122226010BD00BF100E0020AB
:1013B0001C120020A8A30008AFF30080AFF3008048
:1013C000044B186810B904490A6812B10348FFF7C2
:1013D00017BF7047100E00201C120020B0A3000899
:1013E00041F22423C2F200034FF0FF3200205B6081
:1013F0001B609A60D8607047AFF30080AFF3008045
:10140000F8B505460C4616461F46FFF721FFCDB13D
:10141000C6B1BCB10D492F610B68EE609A68944269
:1014200004D91B68A41A9A68A242FAD358682B60A0
:101430008B42686005605D60AC6002D099680C1BEF
:101440009C60F8BD0248FFF7DBFEE3E724120020B2
:10145000D0A30008AFF30080AFF30080AFF30080AB
:1014600010B50446FFF7F4FE84B1E36893B1206839
:101470000A4A904203D08168A368CA1882606168F2
:101480000860206800234160E36010BD0448FFF756
:10149000B7FEEAE70348FFF7B3FEE8E724120020AF
:1014A000E0A30008F0A30008AFF30080AFF30080D2
:1014B00041F23423C2F2000300225B601B609A6099
:1014C0005B611B61704700BFAFF30080AFF300802A
:1014D00010B50446FFF7BCFE94F820308BB10E2BFC
:1014E0000FD00022A168094884F820200068836892
:1014F0008B42FBD24168206061600C6044602046F2
:1015000010BD0348FFF77CFEEBE700BF341200205C
:1015100010A40008AFF30080AFF30080AFF30080A9
:1015200010B52023044683F31188FFF701FF94F8D8
:1015300020300D2B11D8DFE803F016101007100B28
:10154000101010101010100BA06A8268511C8160DE
:1015500094E80C001A60206843604FF0FF33A362E8
:101560002046FFF7B5FFFFF7CBFE002383F311887A
:1015700010BD00BFAFF30080AFF30080AFF3008079
:1015800070B5114C0646FFF74BFE2368A5691A6833
:1015900085F8206014210120546083F8200085F82C
:1015A000231028462260A361FFF70AFEEB69ADF124
:1015B0006402934202D90548FFF722FEA06929463A
:1015C000BDE87040FFF704BD3412002024A40008D9
:1015D00070B50C4686B00646FFF722FE631C12D09B
:1015E0000B4D0C4AAB69214601A8FFF709FF3046B5
:1015F000FFF7C6FF049B13B101A8FFF731FFA869ED
:10160000806A06B070BD3046FFF7BAFF004DF6E7BE
:101610003412002021150008AFF30080AFF30080E2
:1016200070B5144D04460E46FFF7FAFDA869A2688E
:101630008368A6629A4213D9FFF74AFF0121064642
:1016400084F82010AC61FFF7BBFDF069ADF16402D6
:1016500090420AD820463146BDE87040FFF7B8BC3A
:101660002046BDE87040FFF733BF0348FFF7C8FDD1
:10167000F0E700BF3412002024A40008AFF300807C
:1016800038B5104C2368A5691A68012114205460EC
:1016900083F8201085F8230028462260A361FFF715
:1016A00017FF2846FFF78CFDEB69ADF1640293420A
:1016B00002D90548FFF7A4FDA0692946BDE83840D6
:1016C000FFF786BC3412002024A40008AFF300808A
:1016D00070B5144E3368B5691A68AC68566001215C
:1016E000002083F820103260B36185F8200000E00C
:1016F0001B689A68A242FBD859682B60696028462B
:101700005D600D60FFF75CFDEB69ADF16400834245
:1017100002D90548FFF774FDB0692946BDE870405D
:10172000FFF756BC3412002024A40008AFF3008059
:10173000044B986990F8231009B1FFF7C9BFFFF770
:101740009FBF00BF34120020AFF30080AFF30080D2
:101750002DE9F00141F23424C2F20004002265694F
:101760004164046100F13006816000F12C0C00F14D
:101770004C0745614FF0020860610121142480F894
:10178000208080F8212080F823400264C2634262F6
:1017900080F8221082612861C0F82CC0466306637D
:1017A000C761BDE8F0017047AFF30080AFF3008080
:1017B0002DE9F04704460D4617469846FFF748FDC9
:1017C00014B1B5F59C7F36D21E48FFF719FDA5F17F
:1017D000640161181C4E089BD6F814C0E1604B648C
:1017E0001A4BC1F840800B660221002504F130023B
:1017F00004F12C0A04F14C0984F82010142301216F
:101800002661A760C4F814C02046746184F8215092
:1018100084F8233067642564E563656284F82210E8
:10182000A561CCF81040C4F82CA062632263C4F810
:101830001C90BDE8F0877F2FC6D8B8F1000FC6D145
:10184000C2E700BF40A4000834120020F10F0008D6
:101850002DE9F04F9B4683B080468946924600F1C1
:101860004C0300F1010400F14D07FF26254604F862
:10187000016C05F8016B6C1CBC42F7D108EB090741
:10188000BB4215D21846552600F8016BD9437A1889
:10189000B84202F001030BD01BB100F8016BB84253
:1018A00006D0054605F8016B4670681CB842F8D1B1
:1018B000202383F31188FFF76BFD0C9C5B46524697
:1018C000494600944046FFF773FF00210446FFF7A6
:1018D000A7FEFFF745FD002383F31188204603B0E0
:1018E000BDE8F08FAFF30080AFF30080AFF300806E
:1018F00010B5044610B90948FFF782FC202383F392
:101900001188FFF745FD21460620FFF761FEFFF72E
:1019100027FD002383F3118810BD00BF80A40008B9
:1019200010B52023044683F31188FFF731FD064BE1
:10193000D968611A02D00620FFF74AFEFFF710FDB2
:10194000002383F3118810BD24120020AFF3008020
:1019500038B5104B9C692546A06255F82C0FA8425B
:1019600006D00168E162FFF7B3FDE06AA842F8D152
:1019700094F82100830704D1636922691A612169FF
:101980004B610E20FFF7FCFD0348BDE83840FFF730
:1019900037BC00BF3412002090A40008AFF30080D1
:1019A00010B52023044683F31188FFF7F1FC20468D
:1019B000BDE81040FFF7CCBFAFF30080AFF300806D
:1019C00010B5044620B1002364602460A36010BDFC
:1019D0000148FFF715FCF6E700A50008AFF300800B
:1019E00038B504460D46FFF733FCC4B1E26B94F8FA
:1019F000203045EA0201082BE1630CD0092B00D00E
:101A000038BDA06A01408842FAD12046FFF760FD48
:101A10000023836238BDA26A1142F6D138BD024864
:101A2000FFF7EEFBE2E700BFDCA50008AFF30080A4
:101A300070B505460E46FFF70BFC65B12C68A54254
:101A400008D0201D0BC83343E360FFF7C9FF2468AB
:101A5000A542F6D170BD0248FFF7D2FBEEE700BF0A
:101A600000A60008AFF30080AFF30080AFF3008062
:101A700010B4024659B1084B9B69986244680D2026
:101A800083E814005360236010BCFFF7A1BD4FF042
:101A9000FF3010BC704700BF34120020AFF300804D
:101AA00010B4C361019B40608A1800240060846008
:101AB00041618161C1600261036210BC704700BF77
:101AC00038B504460D46FFF7C3FB6369A269A068F9
:101AD00093421AD0411CA16003F8015B2269636143
:101AE00093420BD22068A0420DD0016821604C6067
:101AF000FFF7EEFC00228262104638BD2068E368E2
:101B0000A0426361F1D1002038BD0028E2D06FF01F
:101B1000030038BDAFF30080AFF30080AFF3008067
:101B2000F8B504460E46202383F31188FFF730FCF6
:101B3000E3690BB120469847A5682046314655B960
:101B4000FFF796FF071EF7DAFFF70AFC2B4683F331
:101B500011883846F8BDA0692269013DA56010F8DA
:101B6000017B9042A06124BFE068A061FFF7F8FB11
:101B7000002383F311883846F8BD00BFAFF300801F
:101B80002DE9F0470446154688461E46C769002AD7
:101B90003AD0202383F31188FFF7FAFB08F1010AFA
:101BA0004FF00009A8440FB12046B847A568204669
:101BB00031465DB9FFF75CFF0028F7D0FFF7D0FB97
:101BC0002B4683F311884846BDE8F087A369013DA1
:101BD000A56013F8012B0AF8012C2069A361834248
:101BE00024BFE368A361FFF7BBFB002383F31188E5
:101BF000C24509F10109E6D0202383F31188FFF7DC
:101C0000C7FB0AF1010ACEE70148FFF7F9FAC0E77E
:101C100040A60008AFF30080AFF30080AFF3008070
:101C200010B4C361019B40608C1800608260416108
:101C30008161C1600461036210BC7047AFF3008032
:101C40002DE9F041202304468846164683F3118887
:101C5000FFF79EFBA568204631465DB9FFF708FFF8
:101C6000071EF7DAFFF77CFB2B4683F31188384613
:101C7000BDE8F0816369013DA56003F8018B22692D
:101C80006361934228BFE368E16928BF636109B1DA
:101C900020468847FFF764FB002383F311881F4623
:101CA0003846BDE8F08100BFAFF30080AFF300809D
:101CB00038B50446FFF7CCFAA3696269A0689A4276
:101CC00016D0411CA16013F8015B2269A361934205
:101CD0000BD22068A04206D0016821604C60FFF75B
:101CE000F7FB00228262284638BDE368A361F0E773
:101CF0000028E6D06FF0020038BD00BFAFF30080CF
:101D00002DE9F0470446164688469A46D0F81C90BE
:101D1000002A39D0202383F31188FFF739FB0027ED
:101D2000A56820466B1E0DB3A360656918F8011BFA
:101D300005F8011B22696561954224BFE268626172
:101D4000B9F1000F00D0C847FFF70AFB002383F367
:101D500011880137013E14D0202383F31188FFF747
:101D600017FBA56820466B1E002DDDD1204651468D
:101D7000FFF77EFE0028D3D0FFF7F2FA2B4683F35D
:101D800011883846BDE8F0870148FFF739FAC1E706
:101D900054A60008AFF30080AFF30080AFF30080DB
:101DA00041F2542241F250234CF200010648C2F2A3
:101DB0000002C2F20003C2F2010120F0070021F08C
:101DC00007011060196070470FA20020AFF3008078
:101DD00010B50446FFF73CFA074A0849136809683A
:101DE000E01D20F00700C91A88429ABF1818106039
:101DF0000023184610BD00BF5412002050120020CE
:101E000010B52023044683F31188FFF7C1FA20465A
:101E1000FFF7DEFF0446FFF7A3FA002383F31188E0
:101E2000204610BDAFF30080AFF30080AFF3008019
:101E300041F25823C2F2000341F601610022C0F6CC
:101E4000000103F1100019609A60DA60FFF7B8BD75
:101E500008B501F06DF84AF68070C0F6000002F097
:101E60007FFB00F015F800F083F800F0B9F800F0FF
:101E7000C7F800F065FC00F0E3FB00F0E1FC00F0C7
:101E800077F9BDE8084002F09BBF00BFAFF30080C8
:101E900001F04EB9AFF30080AFF30080AFF30080E4
:101EA00000230122027043608360C36003614361C9
:101EB0001830FFF785BD00BFAFF30080AFF300809F
:101EC00038B504460D46B8B1202383F31188FFF7D7
:101ED0005FFA2378581E012802D90948FFF790F9C4
:101EE0002046656001F06CF902212170FFF738FA95
:101EF000002383F3118838BD0248FFF781F9E3E737
:101F000080A6000870A60008AFF30080AFF3008041
:101F1000F8B504460E4617461D46FFF799F9CCB1B1
:101F2000C6B1BFB1012D01D0EB0713D42078022830
:101F300006D0042804D0052802D00848FFF760F92D
:101F400003232046A760E56026612370BDE8F840C2
:101F500001F0B6B90248FFF753F9E7E7C4A6000855
:101F6000ACA60008AFF30080AFF30080AFF30080B1
:101F700001F03EBDAFF30080AFF30080AFF300800F
:101F80000123002103704160704700BFAFF3008060
:101F900038B504460D46C0B1B9B1202383F311888A
:101FA000FFF7F6F92378581E012802D90948FFF7F0
:101FB00027F92046656001F09BFD02212170FFF7A3
:101FC000CFF9002383F3118838BD0348FFF718F9D0
:101FD000E3E700BF90A7000880A70008AFF30080E8
:101FE00001F0E6BDAFF30080AFF30080AFF30080F7
:101FF0000123002103704160704700BFAFF30080F0
:1020000001F04EBEAFF30080AFF30080AFF300806D
:102010000123002103704160704700BFAFF30080CF
:1020200038B504460D46C0B1B9B1202383F31188F9
:10203000FFF7AEF92378581E012802D90948FFF7A7
:10204000DFF82046656001F03BFE02212170FFF7BA
:1020500087F9002383F3118838BD0348FFF7D0F8D0
:10206000E3E700BF60A8000850A80008AFF30080B5
:1020700010B50446A8B1202383F31188FFF788F92F
:102080002378022B02D00948FFF7BAF8204601F066
:102090008FFE03202070FFF763F9002383F311887C
:1020A00010BD0348FFF7ACF8E5E700BF9CA80008A7
:1020B0008CA80008AFF30080AFF30080AFF300807E
:1020C000914270B50C461546064615D38B1A1F2B48
:1020D00012D804F01F02511C01206B0900FA01F212
:1020E0006409511EA34205F01F0509D356F82300C9
:1020F000084020FA05F070BD0848FFF781F8E8E7CE
:1021000056F8240056F823200840C5F1200300FAB1
:1021100003F022FA05F5284370BD00BFD0A80008DF
:10212000C368990F70B5044617D149213E22FFF7C5
:10213000C7FF31212F2206462046FFF7C1FF50225C
:10214000054653212046FFF7BBFF0136AA1C06FABD
:1021500002F5093805FA00F070BD012901D0002010
:1021600070BD45213022FFF7ABFF0130800270BD0A
:1021700002F0CEBAAFF30080AFF30080AFF300807F
:1021800038B504460D4678B171B1202383F3118828
:10219000FFF7FEF82046294602F0E2FAFFF7E0F8E2
:1021A000002383F3118838BD0148FFF729F8ECE7D5
:1021B00000A90008AFF30080AFF30080AFF3008008
:1021C00010B5044620B12046BDE8104002F0E8BA40
:1021D0000148FFF715F8F6E7F0A80008AFF3008014
:1021E00038B504460D4660B159B12379052B01D0AD
:1021F000012038BDA06A4FF400716860296000209A
:1022000038BD0248FEF7FCFFEFE700BF50A9000809
:10221000F0B5044683B0002800F024812379022B16
:1022200004D0052B02D09148FEF7EAFF032020716D
:10223000204601F085FE00210A46204601F0C0FE3E
:102240004FF4D5722046082101AB01F0F1FE0246A1
:1022500070B9019B0121C3F30320884221636DD033
:10226000204601F08DFE02232371012003B0F0BD52
:10227000002121630025C8F210056426204637217D
:10228000002201AB01F0D4FE0028E9D14EF2080093
:102290000199CFF6FF5008400028E1D120462921BE
:1022A0002A4601AB01F0A4FE07460028D8D1019BC5
:1022B000002B5BDB013ED3D00A20FFF719FB204641
:1022C00037213A4601AB01F0B3FE0028C8D14EF2E7
:1022D0000803019ACFF6FF531340002BC0D12046CC
:1022E00029212A4601AB01F083FE07460028B7D119
:1022F000019B002B3ADB0A20FFF7FAFA2046372130
:102300003A4601AB01F094FE0028A9D14EF2080034
:102310000199CFF6FF5008400028A1D1204629217D
:102320002A4601AB01F064FE002899D1019B002BE5
:102330001CDB0A20023EFFF7DBFA9FE7204637212D
:1023400001AB01F075FE00288AD14EF20803019A14
:10235000CFF6FF531340002B82D1256B05F00F06FB
:10236000012E87D10025CCF2100586E75B0003D54E
:10237000226B42F01000206300222046022104F16B
:10238000080301F015FF024600287FF469AF2046DC
:10239000032104F1380301F04BFE00287FF460AF05
:1023A00004F1180520460921A26B2B4601F000FF1D
:1023B00000287FF455AF204601F0D2FD20460721CA
:1023C000A26B01AB01F034FE00287FF449AF204638
:1023D00010214FF4007201AB01F02AFE00287FF4B7
:1023E0003FAF4EF20801019BCFF6FF511940002983
:1023F0007FF436AF226B02F00F00012827D80121AD
:10240000204601F0C5FD20463721A26B01AB01F04B
:102410000FFE00287FF424AF4EF20801019BCFF697
:10242000FF51194000297FF41BAF204606210222EC
:1024300001AB01F0FDFD00287FF412AF4EF208025F
:102440000198CFF6FF520240002A7FF409AF2846D8
:10245000FFF766FEA06200283FF402AF052121715C
:10246000002003E70248FEF7CBFED7E670A900087C
:1024700060A90008AFF30080AFF30080AFF30080E5
:1024800038B5044658B12579052D01D0012038BD55
:1024900008232371204602F05BF8257138BD0248FD
:1024A000FEF7AEFEEFE700BF84A90008AFF300809F
:1024B000F8B504460E4617461D4690B18AB183B161
:1024C0002379052B02D00E48FEF79AFE721EA06AF1
:1024D0005119814209D9606B40F08001616301208C
:1024E000F8BD0848FEF78CFEEAE7072323713A4659
:1024F000204631462B4601F0C3FF05222271F8BD6C
:10250000A0A9000890A90008AFF30080AFF30080F5
:10251000F8B504460E4617461D4690B18AB183B100
:102520002379052B02D00E48FEF76AFE721EA06AC0
:102530005119814209D9606B40F08001616301202B
:10254000F8BD0848FEF75CFEEAE7062323713A4629
:10255000204631462B4601F02BFF05222271F8BDA3
:10256000BCA90008B0A90008AFF30080AFF3008059
:1025700010B5044682B001AB20460D21A26B01F0DC
:1025800057FD4EF20803CFF6FF5338B9019A1340B6
:10259000C2F3432113B9042909D002D2012002B0A9
:1025A00010BD0729FAD80120FFF7A2F9E3E7184682
:1025B000F5E700BFAFF30080AFF30080AFF300801A
:1025C00038B5044600282FD0202383F31188FEF766
:1025D000DFFE2379022B20D0052B05D01448FEF70F
:1025E0000FFE2079022818D004212171FEF7B8FED1
:1025F000002383F311882046FFF7BAFF05462046E3
:102600002DB901F0BDFC02222271284638BD01F02F
:10261000B7FC02232371012038BDFEF7A1FE002381
:1026200083F31188184638BD0248FEF7E9FDCBE771
:10263000E0A90008CCA90008AFF30080AFF3008048
:1026400001F02EBCAFF30080AFF30080AFF3008049
:102650004AF630120023C0F6000201210260017127
:102660004363C36283627047AFF30080AFF30080BF
:1026700038B504460D46B8B1202383F31188FEF720
:1026800087FE2379581E012802D90948FEF7B8FDB4
:102690002046E56201F01CFC02212171FEF760FE7C
:1026A000002383F3118838BD0248FEF7A9FDE3E754
:1026B00004AA0008F4A90008AFF30080AFF300807B
:1026C0000C30FFF75DBA00BFAFF30080AFF30080BE
:1026D0000C304FF0FF33FFF753BA00BFAFF3008069
:1026E0003030FFF70DBB00BFAFF30080AFF30080C9
:1026F00030304FF0FF33FFF703BB00BFAFF3008074
:102700000C30FFF70DBA00BFAFF30080AFF30080CD
:102710000C304FF0FF31FFF703BA00BFAFF300807A
:102720003030FFF78DBA00BFAFF30080AFF3008009
:1027300030304FF0FF32FFF783BA00BFAFF30080B5
:1027400002F08EBAAFF30080AFF30080AFF30080E9
:1027500070B54AF6F0230546C0F60003044645F876
:10276000043B82B0656001250B46164604F1540116
:102770004022257200F10C000094FFF791F90094BB
:1027800004F1300004F1940140223346FFF748FA87
:1027900002B070BDAFF30080AFF30080AFF30080F4
:1027A00038B504460D46B8B1202383F31188FEF7EF
:1027B000EFFD237A581E012802D90948FEF720FDB3
:1027C0002046294602F074FA02212172FEF7C8FD64
:1027D000002383F3118838BD0248FEF711FDE3E7BB
:1027E0009CAA000890AA0008AFF30080AFF3008015
:1027F00038B504460D46FEF72BFDD4B163693BB1F5
:1028000004F10C002946FFF75BF900280BDB38BD0B
:10281000201D0421FFF70CF904F10C002946FFF7F5
:102820004FF90028F3DA201D8021BDE83840FFF77A
:10283000FFB80248FEF7E4FCE0E700BFC8AA0008C2
:1028400002F066B8AFF30080AFF30080AFF3008012
:10285000002301220270436083600C30FFF7B0B8A0
:1028600038B504460D46C0B1B9B1202383F31188B1
:10287000FEF78EFD2378581E012802D90948FEF77D
:10288000BFFC2046656002F06BF802212170FEF764
:1028900067FD002383F3118838BD0348FEF7B0FCC1
:1028A000E3E700BF20AB000810AB0008AFF30080E7
:1028B00010B5044698B1202383F31188FEF768FD14
:1028C0002378022B02D00848FEF79AFC204602F03B
:1028D000AFF8FEF745FD002383F3118810BD0348D0
:1028E000FEF78EFCE7E700BF5CAB00084CAB0008CE
:1028F00010B5044698B1202383F31188FEF748FDF4
:102900002378022B02D00848FEF77AFC204602F01A
:102910009FF8FEF725FD002383F3118810BD0348BF
:10292000FEF76EFCE7E700BF7CAB00086CAB00086D
:1029300010B5FEF7C5FC4FF4C043C4F202030848CB
:10294000196802683D2401F03D019C600AB14068AD
:102950009047FEF795FCBDE81040FEF7D9BA00BFDE
:1029600078120020AFF30080AFF30080AFF3008057
:1029700010B5FEF7A5FC4FF4C043C4F202030948AA
:10298000196882688C0904F03D014FF474649C60FE
:102990000AB1C0689047FEF773FCBDE81040FEF72F
:1029A000B7BA00BF78120020AFF30080AFF3008009
:1029B00010B5FEF785FC4FF4C043C4F2020309488A
:1029C000196802690C0C04F03D014FF474149C600A
:1029D0000AB140699047FEF753FCBDE81040FEF78E
:1029E00097BA00BF78120020AFF30080AFF30080E9
:1029F00010B5FEF765FC4FF4C043C4F2020309486A
:102A0000196882698C0D04F03D014FF074649C607C
:102A10000AB1C0699047FEF733FCBDE81040FEF7ED
:102A200077BA00BF78120020AFF30080AFF30080C8
:102A300010B5FEF745FC4FF4C043C4F2020308484A
:102A40005968026A3D2401F03D01DC600AB1406A28
:102A50009047FEF715FCBDE81040FEF759BA00BFDD
:102A600078120020AFF30080AFF30080AFF3008056
:102A700010B5FEF725FC4FF4C043C4F20203094829
:102A80005968826A8C0904F03D014FF47464DC607B
:102A90000AB1C06A9047FEF7F3FBBDE81040FEF7AD
:102AA00037BA00BF78120020AFF30080AFF3008088
:102AB00010B5FEF705FC4FF4C043C4F20203094809
:102AC0005968026B0C0C04F03D014FF47414DC6087
:102AD0000AB1406B9047FEF7D3FBBDE81040FEF70C
:102AE00017BA00BF78120020AFF30080AFF3008068
:102AF00010B5FEF7E5FB4FF4C043C4F202030948EA
:102B00005968826B8C0D04F03D014FF07464DC60F9
:102B10000AB1C06B9047FEF7B3FBBDE81040FEF76B
:102B2000F7B900BF78120020AFF30080AFF3008048
:102B300010B5FEF7C5FB4FF4C843C4F202030848C2
:102B40001968026C3D2401F03D019C600AB1406CA3
:102B50009047FEF795FBBDE81040FEF7D9B900BFDE
:102B600078120020AFF30080AFF30080AFF3008055
:102B700010B5FEF7A5FB4FF4C843C4F202030948A1
:102B80001968826C8C0904F03D014FF474649C60F8
:102B90000AB1C06C9047FEF773FBBDE81040FEF72A
:102BA000B7B900BF78120020AFF30080AFF3008008
:102BB00010B5FEF785FB4FF4C843C4F20203094881
:102BC0001968026D0C0C04F03D014FF474149C6004
:102BD0000AB1406D9047FEF753FBBDE81040FEF789
:102BE00097B900BF78120020AFF30080AFF30080E8
:102BF00010B5FEF765FB4FF4C843C4F20203094861
:102C00001968826D8C0D04F03D014FF074649C6076
:102C10000AB1C06D9047FEF733FBBDE81040FEF7E8
:102C200077B900BF78120020AFF30080AFF30080C7
:102C300010B5FEF745FB4FF4C843C4F20203084841
:102C40005968026E3D2401F03D01DC600AB1406E1E
:102C50009047FEF715FBBDE81040FEF759B900BFDD
:102C600078120020AFF30080AFF30080AFF3008054
:102C700010B5FEF725FB4FF4C843C4F20203094820
:102C80005968826E8C0904F03D014FF47464DC6075
:102C90000AB1C06E9047FEF7F3FABDE81040FEF7A8
:102CA00037B900BF78120020AFF30080AFF3008087
:102CB00010B5FEF705FB4FF4C843C4F20203094800
:102CC0005968026F0C0C04F03D014FF47414DC6081
:102CD0000AB1406F9047FEF7D3FABDE81040FEF707
:102CE00017B900BF78120020AFF30080AFF3008067
:102CF00010B5FEF7E5FA4FF4C843C4F202030948E1
:102D00005968826F8C0D04F03D014FF07464DC60F3
:102D10000AB1C06F9047FEF7B3FABDE81040FEF766
:102D2000F7B800BF78120020AFF30080AFF3008047
:102D30002DE9F00F41F2F8258AB0C2F2000546F203
:102D400040400295783046F21045C4F20205A0F5E5
:102D500080600495C4F2020046F240450390C4F23C
:102D6000020546F228400695C4F2020046F270457C
:102D70000590C4F2020546F258400195C4F20200E3
:102D800046F2B8450790C4F2020546F2884009951C
:102D9000C4F20200029D089046F2100B002041F29E
:102DA000782346F2280A46F2400946F2580846F2CD
:102DB000700C46F2880746F2A006C2F200032860B3
:102DC000C4F2020B039DCBF80000C4F2020AC4F265
:102DD0000209C4F20208C4F2020CC4F20207C4F2EF
:102DE00002061860CAF800009860C9F8000018616F
:102DF000C8F800009861CCF800001862386098624A
:102E0000306018632860049D98632860059D1864ED
:102E10002860069D98642860079D186546F2104456
:102E200028606034019D986530342860C4F2020443
:102E3000089D18664FF4C0414FF4C8422860C4F2A0
:102E400002019866C4F202022060099C18674FF0E4
:102E5000FF35206098678D60CD609560D5600AB0C1
:102E6000BDE8F00F704700BFAFF30080AFF3008004
:102E70002DE9F041064684B0002848D0294F747AE5
:102E80003868012505FA04FC1CEA000F3BD1264DE9
:102E90004CEA000005EBC40810F0FF0F45F83420A1
:102EA000C8F80430386007D04FF46053C4F202030E
:102EB0001C6B44F400171F6310F47F4F1AD1346861
:102EC000276827F01F052560206810F00105FBD159
:102ED000307A73683D2707FA00F0186021232560D7
:102EE000636192B1B07A0901FEF792F8284604B006
:102EF000BDE8F0814FF46055C4F20205286B40F440
:102F000080032B63DBE72846F1E71046EFE707482D
:102F1000039102920193FEF773F9019B029A0399C0
:102F2000ACE700BFF81200207812002050AD000876
:102F30004FF46053C4F2020300224FF0FF301969CE
:102F400070B418611A61596958615A619969986138
:102F50009A611E6A4EF2100166F080561E62CEF231
:102F600000011A6249F23F054EF6F0545E6A58625B
:102F7000CEF200040720C0F202055A624D608A605A
:102F80000860E0684FF48051CEF2000140F080709C
:102F9000E060086840F001000860186C4FF4E04100
:102FA000C4F2000140F080501864086840F480705A
:102FB0000860196F01F44070B0F5807F03D04FF4C2
:102FC000803119671A674FF46053C4F2020319463F
:102FD0001A6F42F0010018670A6F4FF460539007B0
:102FE000C4F20203F8D5196F0A0407D4186F40F42D
:102FF00080721A67196F41F40040186770BCFFF7C0
:1030000097BE00BFAFF30080AFF30080AFF3008046
:103010004FF46052C4F202024FF4E043C4F20003E2
:103020004FF0805111644FF4804218461A60436893
:103030005904FCD54FF46050C4F202000146026806
:1030400042F00103036008684FF460538207C4F242
:103050000203F8D5196841F480321A6019460868ED
:103060004FF460538003C4F20203F8D55A6F42F064
:1030700001015967586F4FF460528107C4F2020290
:10308000F8D5136FDB070FD44FF4E040C4F2000013
:10309000016841F480730360116F41F0010313670D
:1030A000026822F4807101604FF46051C4F20201A1
:1030B000086F4FF460538007C4F20203F8D545F25D
:1030C0001A42C0F240725A60196841F0807018606C
:1030D00019460A684FF460539201C4F20203F8D50E
:1030E00098684FF414424FF47051C3F60802C4F2CA
:1030F0000201104340F2057298600A60996841F03D
:1031000002009860996801F00C004FF460520828A2
:10311000C4F20202F6D1536C43F480415164506E04
:1031200040F4804353667047AFF30080AFF30080F4
:10313000F8B541F2FC26C2F20006304641F23035C5
:10314000FEF7AEFEC2F200051A4F4FF4005242F6EF
:103150001643C4F20102C0F20203284641F264346D
:10316000C2F20004B262F7623363FEF799FE4FF4D5
:10317000045242F61643A7F11801C4F20102C0F24C
:1031800002232046AA62E9622B63FEF789FE4FF410
:10319000085242F61643C4F20102243FC0F2024331
:1031A00012205021A262E7622363BDE8F840FDF7D8
:1031B0002FBF00BF30AE0008AFF30080AFF3008038
:1031C00038B50378012B044600D038BD354DA842F0
:1031D00016D0354DA8422BD0344DA8423FD04FF4E5
:1031E0000C52C4F20102A36A516801F4400040F499
:1031F0008030506000210122596099609A6038BD8A
:10320000C06A2B4A05212346FFF732FE00283DD134
:10321000EB6A42F24C0219684FF46050C4F20200AB
:10322000C4F201028A60436C43F480724264D6E7C0
:10323000C06A1F4A05212346FFF71AFE50BBE96A00
:1032400042F24C100A684FF46053C4F20203C4F215
:1032500001009060596C41F400705864BFE7C06A87
:10326000134A05212346FFF703FEB8B9E86A42F284
:103270004C2201684FF46053C4F20203C4F201020D
:103280008A60586C40F480625A64A8E70948FDF7E8
:10329000B7FFBDE70848FDF7B3FFD0E70748FDF7E4
:1032A000AFFFE3E7FC12002030130020641300207E
:1032B0007133000860AE000874AE000888AE0008E4
:1032C0000369026B19782DE9F00309B142F48072A9
:1032D000C468C56A5E8829688768D3F80CC0CF6067
:1032E000012C88BF42F0080204FB06F44C600A601F
:1032F000D1F80090D3F814809F69DE691D6A5C6A7A
:103300001B69826A49F00109C1F800904CF08060A5
:10331000002113F0804F43F4407340F4807014BFD9
:1033200043F0030343F001031160C2F80C801761FE
:10333000D6621563546350609360BDE8F003704734
:10334000C16A0A68136810B423F01F04146013687C
:1033500013F00103FBD10C7A826A49683D2000FA20
:1033600004F00860536093600123936010BC7047C1
:1033700011F00C0F38B50D46044620D10369002B1F
:1033800041D0CA0605D55B681BB1C2688168520886
:103390009847AB0637D520690178002938D04568B1
:1033A000002D30D0E268012A2ED94088A368520847
:1033B00000FB02F103EB41012046A84738BDFFF7AF
:1033C000BFFF2569AB684BB1052220460021227062
:1033D00098472078052801D1022121700025256118
:1033E000202383F31188FDF7A3FF636933B14FF006
:1033F000FF32656118469A62FEF76AF8FDF780FFB2
:10340000002383F3118838BD2046A168A84738BD42
:103410002046FFF795FF21694B6843B3E26804201B
:10342000012A20701FD94D88A168520805FB02F5BA
:10343000204601EB450198472378042B0ED020232A
:1034400083F31188FDF774FF61690029D6D000234A
:10345000636108468B62FEF73BF8CFE7022200204B
:1034600022702061EBE72046A1689847E4E702223A
:1034700022702361E3E700BFAFF30080AFF3008069
:1034800038B5FDF71DFF4FF40053C4F201030021CE
:103490001A681960930605D5524CE06A03685A68A9
:1034A000002A6ED14FF40450C4F2010000210368D9
:1034B0000160980605D54C4CE26A10684368002B01
:1034C00038D14FF40850C4F20100002103680160B4
:1034D000990629D5454CE26A1068436823B32169EF
:1034E00011B32046FFF72CFF2569AB683BB10522DD
:1034F00020460121227098472078052868D00025B1
:103500002561202383F31188FDF712FF606930B134
:103510004FF0FF33354A83625561FDF7D9FFFDF760
:10352000EFFE002383F31188FDF7AAFEBDE83840C3
:10353000FDF7EEBC21690029C3D02046FFF700FF4C
:103540002569AB683BB105222046012122709847CE
:103550002078052842D000252561202383F3118897
:10356000FDF7E6FE606930B14FF0FF331E4A83621B
:103570005561FDF7ADFFFDF7C3FE002383F311880E
:103580009FE7216900298DD02046FFF7D9FE2569E4
:10359000AB683BB105202070012120469847227876
:1035A000052A18D000252561202383F31188FDF713
:1035B000BFFE606930B14FF0FF330A4A8362556144
:1035C000FDF786FFFDF79CFE002383F3118869E772
:1035D0000221217093E702212170E3E7022121708B
:1035E000B9E700BFFC120020301300206413002054
:1035F0004FF40C53C4F201035A6842F400005860BF
:10360000704700BFAFF30080AFF30080AFF30080DE
:103610004FF40C53C4F201035A6842F4800058601E
:10362000704700BFAFF30080AFF30080AFF30080BE
:1036300010B5FDF745FE41F29830C2F200004FF49C
:1036400070534268C4F20103012400215C61536895
:103650009847FDF715FEBDE81040FDF759BC00BFC7
:1036600010B5FDF72DFE41F29830C2F200004FF484
:1036700070534268C4F20103022401215C61D368E3
:103680009847FDF7FDFDBDE81040FDF741BC00BFC8
:1036900010B5FDF715FE41F29830C2F200004FF46C
:1036A00070534268C4F20103042402215C6153692F
:1036B0009847FDF7E5FDBDE81040FDF729BC00BFC8
:1036C00010B5FDF7FDFD41F29830C2F200004FF455
:1036D00070534268C4F20103082403215C61D3697A
:1036E0009847FDF7CDFDBDE81040FDF711BC00BFC8
:1036F00010B5FDF7E5FD41F29830C2F200004FF43D
:1037000070534268C4F20103102404215C61536ABF
:103710009847FDF7B5FDBDE81040FDF7F9BB00BFC8
:1037200010B5FDF7CDFD4FF47053C4F201035C6991
:1037300004F478725A61A30624D460061CD42106CE
:1037400014D4E2050CD4A30504D511484168CB6C10
:1037500009219847FDF794FDBDE81040FDF7D8BB5F
:103760000B48436808215A6C9047ECE708484168C9
:10377000CA6B07219047E4E7054842680621536B6E
:103780009847DCE702484168CB6A05219847D4E7AF
:1037900098130020AFF30080AFF30080AFF30080F8
:1037A00010B5FDF78DFD4FF47053C4F201035C6951
:1037B00004F47C4261055A612CD4220524D4E3042C
:1037C0001CD4A00414D461040CD4220404D51448DD
:1037D00042680F21D36F9847FDF752FDBDE81040B6
:1037E000FDF796BB0E4841684B6F0E219847ECE7FA
:1037F0000B4843680D21DA6E9047E4E708484168BA
:103800004A6E0C219047DCE7054842680B21D36DD6
:103810009847D4E7024841684B6D0A219847CCE7A6
:1038200098130020AFF30080AFF30080AFF3008067
:1038300010B5FDF745FD41F29830C2F200004FF49B
:1038400070534268C4F201034FF4803410215C616C
:10385000D2F884309847FDF713FDBDE81040FDF71E
:1038600057BB00BFAFF30080AFF30080AFF3008021
:1038700010B5FDF725FD41F29830C2F200004FF47B
:1038800070534268C4F201034FF4802412215C613A
:10389000D2F894309847FDF7F3FCBDE81040FDF7EF
:1038A00037BB00BFAFF30080AFF30080AFF3008001
:1038B00010B5FDF705FD41F29830C2F200004FF45B
:1038C00070534268C4F201034FF4002413215C6179
:1038D000D2F89C309847FDF7D3FCBDE81040FDF7C7
:1038E00017BB00BFAFF30080AFF30080AFF30080E1
:1038F00010B5FDF7E5FC41F29830C2F200004FF43C
:1039000070534268C4F201034FF4801414215C61C7
:10391000D2F8A4309847FDF7B3FCBDE81040FDF79E
:10392000F7BA00BFAFF30080AFF30080AFF30080C1
:1039300010B5FDF7C5FC41F29830C2F200004FF41B
:1039400070534268C4F201034FF4800416215C6195
:10395000D2F8B4309847FDF793FCBDE81040FDF76E
:10396000D7BA00BFAFF30080AFF30080AFF30080A1
:1039700008B506206021FDF74BFB07206021FDF70D
:1039800047FB08206021FDF743FB09206021FDF77C
:103990003FFB0A206021FDF73BFB17206021FDF76C
:1039A00037FB28206021FDF733FB01206021FDF764
:1039B0002FFB2920F021FDF72BFB2A206021FDF7AA
:1039C00027FB60213E20FDF723FB4C206021FDF703
:1039D0001FFB0220F021FDF71BFB0320F021BDE8B7
:1039E0000840FDF715BB00BFAFF30080AFF30080C8
:1039F00041F29830C2F20000FEF7C2BAAFF3008085
:103A0000426852F83130D80770B441D54FF4705441
:103A1000C4F201040120A56800FA01F00543A56085
:103A2000C44313F0020F4FF47053C4F20103DD6876
:103A300014BF05432540DD6002EBC1035D68002D26
:103A400032D04FF47053C4F201031D68284318604C
:103A5000586804405C600F2918D88C084FF46053F4
:103A6000A01CC4F2010352F8314053F8205001F079
:103A7000030189000F2202FA01F2C4F3031425EABC
:103A8000020204FA01F10A4343F8202070BC704797
:103A90004FF47055C4F201050120AE6800FA01F040
:103AA000C4432640AE60BCE74FF47053C4F2010338
:103AB0005D6828435860186804401C60CBE700BF6D
:103AC0004FF47053C4F201030122186802FA01F1A5
:103AD000CA431040186058681040586098681040F9
:103AE0009860D8680240DA6059617047AFF300808F
:103AF00038B50378012B054635D06868016811F0A8
:103B000004012CD028460021FFF77AFF01240EE0A3
:103B1000FFF776FF0134686850F834104B0716D56C
:103B2000214628460134FFF76BFF172C16D06A6830
:103B300052F8343013F0040F28462146E8D1FFF73D
:103B4000BFFF0134686850F834104B07E8D42146B1
:103B500028460134FFF7B4FF172CE8D138BD2846BA
:103B6000FFF7AEFFD2E7FFF703FFC6E7AFF3008032
:103B700008B5FDF7A5FB0B4B1878DA68002104287F
:103B8000118204D1022018701180118291815B682A
:103B900004485A689047FDF773FBBDE80840FDF7FD
:103BA000B7B900BFA0130020AFF30080AFF30080CF
:103BB00041F2A033C2F200034FF40052C4F20002FB
:103BC0001846DA60FEF714BAAFF30080AFF3008056
:103BD00038B5224CE3686268188A9D89117DADB2C0
:103BE0000540E84380B2188205F0020398B299B903
:103BF00038B1207804230328237002D0D2682046ED
:103C0000904705F0040188B208BBEB0703D5636851
:103C100012481969884738BD70B905F0040398B295
:103C20000028F2D021780D48042203292270ECD01C
:103C30004368D9688847E8E70521204621709268E3
:103C4000904705F0040398B20028DED0EAE76368E5
:103C500002489968052222708847D6E7B0130020F1
:103C600008B5FDF72DFBFFF7B3FFFDF709FBBDE836
:103C70000840FDF74DB900BFAFF30080AFF30080FF
:103C800008B5FDF71DFBFFF7A3FFFDF7F9FABDE847
:103C90000840FDF73DB900BFAFF30080AFF30080EF
:103CA00010B541F2B034C2F200042046FEF7B0F97C
:103CB0000023C4F20103E36010BD00BFAFF3008036
:103CC00038B543680446187D012802D93448FDF709
:103CD00097FA2178012943D0E56800222A80AA8139
:103CE0002A826A63AA636A626268A3685068B3FB47
:103CF000F0F14D1EB5F5803F03D200FB01F18B4280
:103D000003D02748FDF77CFA6268117DE3681278DA
:103D1000ADB24FF6FF701D85D86269B940F201213E
:103D2000542019831881C2B113221A8403F1380078
:103D300034332061636138BD4FF48171642019838D
:103D400018813AB131221A8403F1340038332061EA
:103D5000636138BD13211984F6E731211984E5E741
:103D6000104B9C42C0D14FF46055C4F20205686C00
:103D700040F0010169646A6A42F0010300226B624B
:103D800019206A6270214FF4F445FDF741F9C0F63D
:103D900003251B207021FDF73BF9A560A4E700BFB8
:103DA000A0AE0008B0130020AFF30080AFF3008096
:103DB0004268C368117D00201882B9B9D06820B16B
:103DC000998988B240F002019981906820B199895F
:103DD00088B240F004019981126922B1988981B2B8
:103DE00041F001029A81052018807047916821B145
:103DF000988981B241F002009881D1680029E6D10A
:103E0000EAE700BFAFF30080AFF30080AFF30080BC
:103E100001F001038A0748BF43F002034A0748BF85
:103E200043F008030A0748BF43F00403CA0648BF2B
:103E300043F010038A0648BF43F020038A05426B13
:103E400048BF43F0400342EA03014163704700BFAB
:103E500038B5FDF735FA202383F311880C4CFDF7B4
:103E600067FA4FF43053C4F20103E06B0025DD63C1
:103E700010B1FDF72DFBE563FDF742FA002383F354
:103E80001188FDF7FDF9BDE83840FDF741B800BFE6
:103E9000C8130020AFF30080AFF30080AFF30080C1
:103EA00010B541F2C834C2F200042046FEF7D0FB40
:103EB0004FF430530348C4F201030022E26360640C
:103EC000A36410BD24AE0008AFF30080AFF3008000
:103ED000027945F22043C0F6A303012A10B5044637
:103EE000036409D04FF43050C4F201000022026094
:103EF0004260C262426210BD0022406C092113463A
:103F0000FEF7B6FFA8B9606C4FF432510368C4F2F3
:103F100001010722996031205A619021FDF778F85C
:103F20004FF46050C4F20200416C41F400634364FA
:103F3000D8E70248FDF764F9E5E700BFC0AE000826
:103F40004FF43053C4F2010378225A60186840F0ED
:103F5000030119605A6842F480705860704700BFCE
:103F60004FF43053C4F201035A6822F0FF00586046
:103F7000704700BFAFF30080AFF30080AFF3008065
:103F80004FF43053C4F2010300225A601A607047A4
:103F90004FF43053C4F2010301295A6822F4C0508F
:103FA00007D001D2586070470229FCD140F48050FC
:103FB000F8E740F400615960704700BFAFF300803C
:103FC0004FF43053C4F2010341F480619A60184603
:103FD000D960426B4FF430531106C4F20103F8D597
:103FE00080219963704700BFAFF30080AFF300807A
:103FF00010B54FF43054C4F2010441F48861A2605A
:10400000E160616B4FF4305211F0450FC4F20102D0
:10401000F7D011F00404916303D15169204619606F
:1040200010BDFFF7F5FE012010BD00BFAFF300800B
:1040300010B54FF43054C4F2010441F48861A26019
:10404000E160616B4FF4305211F0450FC4F2010290
:10405000F7D011F00504916303D15169204619602E
:1040600010BDFFF7D5FE012010BD00BFAFF30080EB
:104070002DE9F041202306460F46904683F3118830
:10408000FDF786F94FF43053C4F20103D86B78B1D1
:10409000F16B11B12248FDF7B3F8224A946902206E
:1040A000F463FDF76DFAF36B13B11F48FDF7A8F841
:1040B0004FF43050C4F20100416B11F4807427D0EA
:1040C000726C15682C6814F00104FBD1117A5268E7
:1040D0004FF43050C4F201003D2540F2FF7305FA61
:1040E00001F1C0F2C00311608363C462FDF738F9C7
:1040F000234683F31188012F07D930460C2122462D
:104100004346BDE8F041FFF793BF2046BDE8F0818C
:10411000FDF726F9234683F311880120BDE8F081DD
:10412000D4AE000834120020FCAE0008AFF30080CB
:104130002DE9F047466C4FF43053347A3568C4F2B9
:10414000010307464FF03D0E7068D3F834C00EFAF5
:1041500004F404602B6823F01F04894690462C6009
:10416000296811F00104FBD1327A4FF43055C4F2C2
:1041700001053D2140F2FF7301FA02F2C0F2C003D3
:1041800002606146AB633846EC63EC62FFF740FEC9
:10419000B9F1010F07D938460C2122464346BDE844
:1041A000F047FFF745BFBDE8F08700BFAFF30080E1
:1041B00010B54FF43054C4F2010441F49861A26088
:1041C000E160616B4FF4305211F0450FC4F201020F
:1041D000F7D011F03F04916309D1106A1860D169DA
:1041E00059609069986052692046DA6010BDFFF707
:1041F0000FFE012010BD00BFAFF30080AFF30080C1
:104200002DE9F041B3F5004F82B01E4605460F463A
:1042100090464FD24FF43054C4F201044DF2C043E3
:10422000C0F2010363622846FEF7A2F918B101202B
:1042300002B0BDE8F081686C296C036872029008D6
:10424000C3F80C8058601960186840F2FF7140F0A4
:1042500001001860C0F2C00140F22A33A163E36399
:10426000A2622C6BE00658BF7F02012E01AC2846EB
:1042700024D912213A462346FFF7DAFE98B94EF2C6
:104280000801019ACFF6FF51114061B94FF4305047
:10429000C4F201009B23C362314628462246FFF741
:1042A000E7FE0028C4D0284631462246FFF740FFEB
:1042B0000120BDE70548FCF7A3FFABE711213A4613
:1042C0002346FFF7B5FE0028D9D0ECE724AF00085D
:1042D0002DE9F041B3F5004F82B01E4605460F466A
:1042E000904651D24FF43054C4F2010448F6805342
:1042F000C0F25B0363622846FEF73AF918B1012069
:1043000002B0BDE8F081686C296C03687202900805
:1043100041F04001C3F80C8058601960186840F201
:10432000FF7140F001001860C0F2C00140F21A3382
:10433000A163E363A2622C6BE40658BF7F02012EE7
:1043400001AC284624D919213A462346FFF770FECE
:1043500098B94EF20801019ACFF6FF51114061B9A8
:104360004FF43050C4F201009923C362314628460D
:104370002246FFF77DFE0028C2D02846314622465D
:10438000FFF7D6FE0120BBE70548FCF739FFA9E798
:1043900018213A462346FFF74BFE0028D9D0ECE718
:1043A00024AF0008AFF30080AFF30080AFF30080CC
:1043B00012F0030F2DE9F047154680460C461E46C5
:1043C00052D0002B4DD003EB0109CE434E440123C4
:1043D000274A1E40FFF714FF00283FD128462449F2
:1043E0004FF40072013405F01BFE4C4505F50075D5
:1043F00037D02EB3404621461D4A0123FFF700FF68
:1044000060BB28461A494FF40072013405F008FEDB
:104410004C4505F5007513D123E0284605F000FE54
:104420003146134A01234046FFF7EAFE4FF400727B
:104430000F49BD1890B9384605F0F2FD4C4510D033
:10444000214601230A4A661C4046F418FFF7D8FEAD
:104450004FF400720649AF180028DED00120BDE8F5
:10446000F0870020BDE8F087BDE8F047FFF7C8BE41
:1044700014140020AFF30080AFF30080AFF300808E
:1044800012F0030F2DE9F041154607460C461E4673
:1044900057D0002B52D003EB01082C48CB431146D8
:1044A0004FF4007203EB080605F0BAFD38462146CA
:1044B000264A012306F0010605F50075FFF708FFFF
:1044C000002838D10134444538D0F6B129464FF49C
:1044D00000721E4805F0A4FD384621461B4A012300
:1044E00005F50075FFF7F4FE28BB013444450CD1F7
:1044F00024E0164805F094FD38463146134A01235E
:10450000FFF7E6FEB8B9444518D029464FF40072CB
:104510000E4805F085FD661C214601230B4A3846EE
:10452000F418FFF7D5FE05F500754FF40072294623
:10453000AD180028DDD00120BDE8F0810020BDE8E5
:10454000F081BDE8F041FFF7C3BE00BF14140020A6
:1045500000207047AFF30080AFF30080AFF300801E
:104560004FF46053C4F202031A6B6FEA52216FEAF0
:1045700041221A63196D6FEA51226FEA42211965CF
:1045800000234168C4F202034FF4806259608168DD
:104590009960C168D960016959614169196281698D
:1045A000596201681960016AC4F202024FF40063A3
:1045B0005160416A9160816AD160C16A5161016B49
:1045C0001162416B5162C1691160C4F20203C26B96
:1045D0005A60016C9960426CDA60816C5961C26CFE
:1045E0001A62016D5962816B4FF440621960816DEE
:1045F000C4F202024FF480535160C16D9160016EAC
:10460000D160416E5161816E1162C16E5162416D26
:104610001160C4F20203426F5A60816F9960C26FE9
:10462000DA60D0F880105961D0F884201A62D0F88E
:1046300088105962016F4FF4A0521960D0F89010A1
:10464000C4F202024FF4C0535160D0F8941091604C
:10465000D0F89810D160D0F89C105161D0F8A0101B
:104660001162D0F8A4105162D0F88C101160D0F80B
:10467000AC10C4F202034FF4E0525960D0F8B0100D
:104680009960D0F8B410D960D0F8B8105961D0F85A
:10469000BC101962D0F8C0105962D0F8A810C4F24A
:1046A00002021960D0F8C8305360D0F8CC10916085
:1046B000D0F8D030D360D0F8D4105161D0F8D830D1
:1046C0001362D0F8DC105162D0F8C4104FF40053DC
:1046D0001160D0F8E420C4F202035A60D0F8E81068
:1046E0009960D0F8EC20DA60D0F8F0105961D0F879
:1046F000F4201A62D0F8F8105962D0F8E00018607F
:10470000704700BFAFF30080AFF30080AFF30080CD
:104710004FF42053C4F200030F4ACA205321136000
:1047200058625962DA68D10614D4D86840F0800122
:10473000D9601846C2684FF420535206C4F20003F1
:10474000F8D5FF21C0F27F0119611961D86820F006
:104750008002DA60704700BF14160020AFF30080BB
:1047600070B40D4B1A68D0688406FCD51669956A3A
:104770001369146850684C607204540C5B04621B2B
:104780005B0C4FF47A7404FB02F20133B2FBF3F2D8
:10479000CA60086070BC704714160020AFF3008038
:1047A0002DE9F04F202385B0044683F31188FCF7F0
:1047B000EFFD20466946FFF7D3FFFCF7D1FD00234C
:1047C00083F311889DE80C00C3F30230C3F3021198
:1047D000C3F3032600EB8009C3F38057C2F3003014
:1047E00003F00F0506EB490401EB810AC2F3011146
:1047F0007E0005EB4A0A02F00F0801EB810B4FEA3D
:1048000044194FEA800CF419C3F30151C2F3032792
:10481000C2F3034549EA5A0908EB4B066044C2F368
:10482000035207EB400C01EB8101A400143549EA67
:10483000064602EB820204EB410005EB420246EA27
:104840004C51C3F3034341EA4261C31841EAC32018
:1048500005B0BDE8F08F00BFAFF30080AFF300807C
:1048600011F00C0F70B504463CD1606A0268136801
:1048700023F01F0111601568E907FCD4057A216A4D
:1048800043680A683D2000FA05F01860156825F0B5
:104890001F0313601068C307FCD46568087A4A6870
:1048A0002B683D2101FA00F11160C3B104252046B7
:1048B000257098472078042811D0A56875B1002686
:1048C000A660202383F31188FCF732FD2846FCF70D
:1048D000FFFDFCF715FD334683F3118870BD0222FE
:1048E0002270EAE7012004F09BFBFCF7C9FABCE761
:1048F00011F00C0F08B500D108BD012004F090FBA9
:10490000BDE80840FCF7BCBAAFF30080AFF300800D
:1049100038B541F2186341F21C64C2F20004C2F2DD
:1049200000034FF6FF7220461A80FDF791FF0949F8
:104930004FF4405016224623C4F2010001F13C0519
:10494000C0F20162C0F20163E06121626562A262AD
:10495000E36238BD00AE0008AFF30080AFF3008023
:1049600038B50378012B044627D0C36960684289B3
:10497000A06A02F4006189B2B9B1E16A20F4F040A2
:1049800021F4F04140F4205041F42051A062E16252
:1049900042F441720020072118801A8099801A88F9
:1049A00090B240F04001198038BDE16A20F4F04037
:1049B00021F4F041A062E162EAE7164DA84209D075
:1049C000626A206AE3691168006803F10C02826080
:1049D0008A60CBE7006A104A0A212346FEF748FAAC
:1049E00078B9686A0D4A0B4B0A21FEF741FA60B9A3
:1049F0004FF46050C4F20200426C42F480514164B2
:104A0000DEE70748FCF7FCFBEBE70648FCF7F8FBA2
:104A1000EEE700BF1C16002061480008F1480008BE
:104A200040AF000854AF0008AFF30080AFF3008040
:104A300043681A895868012101FA02F39AB2428345
:104A4000704700BFAFF30080AFF30080AFF300808A
:104A500043681A895868012101FA02F39AB2028365
:104A6000704700BFAFF30080AFF30080AFF300806A
:104A7000C26991811389D807FCD5908980B27047AB
:104A80004FF48053C4F201039A8990B240F0800140
:104A900099817047AFF30080AFF30080AFF30080DF
:104AA0004FF48843C4F200039A8990B240F0800129
:104AB00099817047AFF30080AFF30080AFF30080BF
:104AC0002DE9F843D0F8D450AF892C88B5F804808C
:104AD000A4B222070646BFB21FFA88F855D104F4E3
:104AE000807399B200293AD104F0200290B230BB11
:104AF00007F0800399B221B104F0800290B200283F
:104B00006CD104F04004A4B2BCB1202383F311881B
:104B1000FCF70EFC301D1021FCF78AFFFCF7F0FBC0
:104B2000002383F311884FF6BF703840A8812B888B
:104B300023F040010A04100C2880BDE8F8832023EC
:104B400083F31188FCF7F4FB30465FFA88F1FDF738
:104B50004FFEFCF7D5FB002383F31188C8E7202321
:104B600083F31188FCF7E4FB301D4FF40071FCF770
:104B70005FFFFCF7C5FB002383F311882A8822F42A
:104B800080700304190C2980AEE704F008091FFAAD
:104B900089F0002814BF4FF080094FF00009E307A7
:104BA00004F0020399B248BF49F0200909B149F065
:104BB000400904F0040290B208B149F4807920233E
:104BC00083F31188FCF7B4FB301D4946FCF730FF36
:104BD000FCF796FB002383F3118880E7202383F3FF
:104BE0001188FCF7A5FB06F13000FDF761F80028FD
:104BF00007DB83B2AB80FCF783FB002383F31188D0
:104C00007FE70821301DFCF713FF27F0C00141F0BA
:104C10004002AA81EFE700BFAFF30080AFF300804E
:104C200008B5FCF74DFB41F24C60C2F20000FFF703
:104C300047FFFCF725FBBDE80840FCF769B900BF5A
:104C400008B5FCF73DFB41F22470C2F20000FFF70B
:104C500037FFFCF715FBBDE80840FCF759B900BF6A
:104C600038B541F24C65C2F2000544F6812228466F
:104C70000021C0F6000241F22474FDF769FDC2F282
:104C800000044FF4805344F6A122C4F201032046ED
:104C90000021C0F60002C5F8D430FDF759FD4FF4ED
:104CA0008840C4F20000C4F8D40038BDAFF30080DF
:104CB00038B5037A2E4C002918BF0C46012B054647
:104CC0002CD04FF48050D5F8D4302168C4F20100C4
:104CD000834236D04FF4A052C4F20102934230D046
:104CE0004DF68060C0F28020B0FBF1F18AB21A81EB
:104CF000A288E088218942F4045240F0400080B24A
:104D000041F0010142F02C02188292B289B20020D7
:104D100099829A8118801A889B8838BD15488542E7
:104D200018D015498D42CCD14FF46053C4F2020320
:104D300026201A6C42F400311964C021FCF768F98E
:104D4000BFE74FF43D40C0F20150B0FBF1F18AB231
:104D50001A81CDE74FF46053C4F2020325205A6C48
:104D600042F010015964C021FCF752F9A9E700BFD5
:104D700070AF00084C16002024170020AFF300800D
:104D8000FEF746B9AFF30080AFF30080AFF30080C9
:104D90004FF44063C4F202031869C0F3001181F0BC
:104DA00001007047AFF30080AFF30080AFF30080E5
:104DB0004FF44063C4F202031869C0F34010704717
:104DC000704700BFAFF30080AFF30080AFF3008007
:104DD000F0B400F10B0C074600F10A050C46B1FBDC
:104DE000F2F602FB161101F13003392BC8BF01F1B5
:104DF0003703DBB2B4FBF2F42846314605F801393B
:104E0000002CECD1C0EB0C020146B818FA43821812
:104E1000D2070AD507F8013B11F8013F05E011F868
:104E2000013F7B7011F8013F571C3A4602F8013BE5
:104E30008242F4D1F0BC7047AFF30080AFF3008042
:104E40000EB42DE9F04F86B00FAB0DF10D010DF151
:104E50000C0B53F8044B0091CBEB010C029305466D
:104E6000CDF804C0264616F8011B59B125290ED0ED
:104E70002C68A368344626462846984716F8011B36
:104E80000029F3D106B0BDE8F04F03B07047637856
:104E90002D2B00F07A814FF000082E2B00F071814D
:104EA000202734460299002606E00A78043106EBF2
:104EB0008606237802EB4606A3F13002D2B2013413
:104EC000092AF4D92A2BF0D000202E2B02914BD0A6
:104ED0006C2B55D04C2B53D0A3F1410119298CBF19
:104EE00000210121A3F14402342A00F24481DFE8C9
:104EF00012F03301420142014201420133014201F9
:104F0000420142014201420131014201420142019A
:104F1000420142012901420142011C0142014201B8
:104F20004201420142014201420142014201420169
:104F3000E2003301420142014201420133014201D8
:104F4000420142014201420131014201420142015A
:104F50004F0042012901420142011C010A7804313B
:104F600000EB800302EB430014F8013BA3F1300295
:104F7000D2B2092AF4D92A2BF0D06C2B0291A9D1F4
:104F80002178002900F006810B4601340121A9E7B0
:104F9000029F4BF280093B68C0F60009002B18BF46
:104FA0009946391D99F80020029147F6FF770028AD
:104FB00008BF3846002A00F0098199F80130411EE7
:104FC00009EB000A09F1010201F00100B3B19245B9
:104FD000134600F0F78060B15778013277B19245FF
:104FE000134606D1EEE0577801323FB19A4500F002
:104FF000E98058785A1C531C0028F4D1C9EB020AE6
:10500000CAEB0606202726EAE676B8F1000F63D041
:10501000BAF1000F27DDC846286818F8011B83681D
:10502000CA446FEA09090AEB0902284602F001099D
:105030009847D04517D0B9F1000F03D0286818F869
:10504000011B0BE02868C146826819F8011B28463D
:105050009047286898F8011009F1010883682846EC
:105060009847D045EED1002E3FF4FCAE2968731E60
:105070008A681E462846394603F001089047002EEC
:105080003FF4F0AEB8F1000F07D0296828468B68CE
:1050900039469847013E3FF4E5AE286839468268B4
:1050A000284690472968013E8B682846394698472C
:1050B000013EF2D1D6E60298DDF804A00268011D97
:1050C00002918DF80C202027D946CAEB060626EA65
:1050D000E676B8F1000F9BD17642002E98D099F871
:1050E00000102D2963D02968F2438B682846394681
:1050F00002F00108984701368AD0B8F1000F06D0B7
:10510000296828468A6839469047013680D0286841
:105110003946836828469847296801368A682846B0
:10512000394690470136F2D172E71022029B69B1ED
:10513000191D029119685846FFF74AFED946CBEB74
:10514000000AC2E70A22029B0029F1D1181D196842
:105150000290F0E70822E9E7029B1A1DE1B91968FD
:10516000029200291CDB58460A22FFF731FED9467D
:10517000CBEB000AA9E78DF80C30DDF804A0D94686
:10518000A3E77378302701368BE6A61CA3784FF08F
:10519000010882E60121A5E6196802920029E2DAF7
:1051A0002D208DF80C0049420DF10D00DCE7302F69
:1051B00099D12B6828469A68904709F101090AF1AC
:1051C000FF3A90E7C9EB0A0A20277EE7924620279C
:1051D0007BE700BFAFF30080AFF30080AFF3008048
:1051E00091E80C002DE9F00FC3F38056C2F30035AF
:1051F0004FEA46094FEA8508C2F30354C3F301514D
:10520000A844B144C2F3032CC2F3011604EB840A90
:105210000CEB480CC2F30347C3F30215C3F302348B
:1052200001EB810B4FEA8909C2F3423106EB860696
:1052300002F00F0207EB4A07C3F3032803F00F0A3B
:1052400002EB460605EB85050CF1FF3204EB840406
:105250004FF0000C09EB4B09C3F30343072908BFC8
:10526000002164370AEB450508EB44044B44C0F8C1
:105270001CC04FF0FF3CC0F820C08161C6600261D5
:105280004761056044608360BDE8F00F704700BF70
:1052900010B584B000230C466946009301938DF845
:1052A00008300393FCF76CFF20466946FFF798FF30
:1052B00004B010BDAFF30080AFF30080AFF3008007
:1052C000C36882689A4206D04268D154C1684B1CB8
:1052D000C360002070476FF001007047AFF300809B
:1052E0000369C2689A4205D04168CA5C0133036110
:1052F000104670476FF00100704700BFAFF30080A9
:1053000038B5044608462369E5686168ED1AAA4283
:1053100038BF15462A46C91804F082FE2069421992
:105320002261284638BD00BFAFF30080AFF3008094
:1053300038B5C36885680446ED1A4068AA4238BF8C
:1053400015462A46C01804F06BFEE1684A19E2606F
:10535000284638BDAFF30080AFF30080AFF3008084
:1053600010B44BF29004C0F60004C3600023046044
:1053700041608260036110BC704700BFAFF30080E2
:10538000FEE700BFAFF30080AFF30080AFF3008013
:1053900010B560B907480479053C18BF0124FFF730
:1053A00007FD10B144F00400C4B2204610BD022431
:1053B000204610BDC8130020AFF30080AFF300807B
:1053C00010B560B907480479053C18BF0124FFF700
:1053D000EFFC10B144F00400C4B2204610BD02241A
:1053E000204610BDC8130020AFF30080AFF300804B
:1053F00010B40C4628B907480179052904D00320C8
:1054000000E0042010BC70471146224610BCFDF796
:105410007FB800BFC8130020AFF30080AFF3008057
:1054200010B40C4628B907480179052904D0032097
:1054300000E0042010BC70471146224610BCFDF766
:1054400037B800BFC8130020AFF30080AFF300806F
:1054500028B9032903D8DFE801F007090E04042066
:1054600070474FF4807313600020704704498B6AC3
:105470000020136070474FF40070108000207047C8
:10548000C8130020AFF30080AFF30080AFF30080BB
:1054900041F21460C2F20000FCF792BEAFF300804C
:1054A00008B518B103680BB11A780AB9092008BD0C
:1054B000D98880888142F9D15878FFF781FF10F0B0
:1054C000010F0CBF0020032008BD00BFAFF3008018
:1054D000F8B50446007900B9F8BD256B607804F191
:1054E000340631462A460123FFF79AFF28BB626A39
:1054F000207195421FD3E369981885421BD2E77843
:10550000012F18D9FA070CD5ED18607802E0E1698F
:1055100060786D18012331462A46FFF781FFE36961
:10552000013FED18314601232A466078013FFFF71D
:1055300077FF012FEBD10020F8BD0120F8BD00BF9F
:105540002DE9F84F0546FFF7C3FF044654B92B7801
:10555000032B09D0002168780A46FFF779FF003055
:1055600018BF0120BDE8F88F68790028F2D005F156
:1055700034012C6305F50D760F463A4602F8014BCF
:105580007C70571CB742F8D1EB682A6985F8203245
:105590004FF0550B61204FEA134C4FEA136E85F81C
:1055A0001C22522741247226C2F3072A4FEA1249CD
:1055B000C3F30728120E85F832B24FF0AA0B85F814
:1055C000360085F81B0285F81F2285F833B285F86E
:1055D000347085F8357085F8374085F8186285F89D
:1055E000196285F81A4285F81DA285F81E9285F881
:1055F000218285F822C285F823E268786A6901234E
:10560000FFF70EFF00216971A4E700BFAFF3008030
:1056100038B504460A46407804F134010123FFF707
:10562000E7FE08B1032038BD94F8322294F8331213
:105630004AF6552342EA01210AB2CFF6FF739A4295
:1056400001D0022038BD94F86C3094F86D5094F875
:105650006A1094F86B201B0443EA05630B4343EA8A
:10566000022144F2461321F07F42C0F254039A42D1
:10567000E8D094F8882094F8895094F8861094F82B
:105680008700120442EA05620A4342EA002121F03F
:105690007F40C01A18BF012038BD00BFAFF30080A3
:1056A0002DE9F04103681C78303C092C154602D8DE
:1056B0005A783A2A18D000200860B24C2468002C8E
:1056C00025D00C602178C1B16078FFF779FEC20760
:1056D00013D4002D26D000F00400C2B2002A14BF5B
:1056E0000A200020BDE8F0810233002203600A6036
:1056F000002CE2D00B20BDE8F0810020207060700B
:10570000FFF746FEC30705D50320BDE8F0810C2056
:10571000BDE8F0814DB100F00400C3B22BB10A2006
:10572000BDE8F0812846BDE8F08100212046FFF762
:105730006FFF012807D00025032800F0B980D0B101
:105740000D20BDE8F08194F8F621002AF8D094F8F5
:10575000FC0194F8FD1194F8FA3194F8FB5102041D
:1057600042EA016040EA030141EA05252046294654
:10577000FFF74EFFE0E794F8402094F83F3043EA0B
:105780000220B0F5007FDBD194F84B1094F84A204A
:1057900052EA01220DD194F85A1094F85B0094F863
:1057A000583094F85920090441EA0060034343EA61
:1057B000022294F84400E261411E0129E070BFD842
:1057C00094F84130A370002BBAD0591E1942B7D1BA
:1057D00094F8451094F8466041EA0626B1B216F0F6
:1057E0000F0F2181ACD194F8487094F8476056EAC5
:1057F00007260FD194F856C094F8578094F8546057
:1058000094F855704FEA0C4E4EEA086C4CEA0606C6
:1058100046EA072694F843E094F8427057EA0E27C8
:105820008ED000FB02FC07EB11106044864287D348
:10583000361AB6FBF3F3002B82D040F6F576B3426E
:1058400040F2C08006F57046B34200F29F80022607
:105850000233EF194019A36125626762E0620029F3
:105860003FF46EAF6744022EA76200F089800321E7
:1058700001FB03F603F0010303EB5600012600F2DF
:10588000FF13B2EB532FFFF45BAF00204FF0FF325A
:10589000032E2261E0600ED03B4A26701388591C0B
:1058A00000208BB21380E38020632071BDE8F0817B
:1058B0000120BDE8F08194F8651094F864306071BF
:1058C00043EA01202A186261607804F1340101235F
:1058D000FFF78EFD0028DFD194F8331294F83222BE
:1058E0004AF6552342EA012001B2CFF6FF739942EE
:1058F000D2D194F8362094F8370094F8343094F8E4
:105900003510120442EA0060184345F2522340EA7F
:105910000121C4F261139942BED194F81A2294F87D
:105920001B0294F8183294F81912120442EA00602B
:10593000184347F2722340EA0121C6F2411399420B
:10594000AAD194F8227294F81E5294F8238294F803
:105950001FE294F8202294F81C3294F8210294F863
:105960001D123F042D0447EA086745EA0E653A43D5
:105970002B4342EA002043EA0121E06021618BE7EA
:1059800058007CE700180020FC1700200233EF19B4
:105990004019A36125626762E06200297FF4D0AEFE
:1059A00094F8626094F8637094F8601094F8610061
:1059B000360446EA0766314341EA0020A062032626
:1059C00098005CE7012643E7AFF30080AFF3008067
:1059D00038B5036B8B4204460D460FD0FFF778FDB8
:1059E00008B1012038BD607804F134012A46012352
:1059F000FFF7FEFC0028F4D1256338BD002038BD38
:105A00000129F8B50C4605460CD98369994209D29B
:105A10000178022946D0032928D0012904D04FF06B
:105A2000FF30F8BD0120F8BD426A04EB540602EBDA
:105A30005621FFF7CDFF0028F1D1F005C70D696AA7
:105A4000EB190136284601EB562193F83470FFF725
:105A5000BFFF0028E3D1F605F60DAD19E10795F873
:105A6000342047EA02202FD50009F8BD436A03EB32
:105A7000D411FFF7ADFF0028D1D16406E20DA818BC
:105A8000044690F8372090F8361090F8350094F8D6
:105A90003430120642EA014141EA0020184320F066
:105AA0007040F8BD436A03EB1421FFF791FF002813
:105AB000B5D12406E20DA9180C4691F8343091F8BE
:105AC000350043EA0020F8BD0105080DF8BD00BF10
:105AD00070B50C468168C4800129054603D0006872
