:020000040802F0
:1000000000040020E10B0208E10D020800020208D2
:10001000E10D0208E10D0208E10D0208E10D020800
:10002000E10D0208E10D0208E10D0208110E0208BF
:10003000E10D0208E10D0208E10D0208110F0208AE
:10004000E10D020841430208E10D02088144020863
:10005000E10D0208E10D0208414102087141020868
:10006000A1410208D14102080142020851330208AD
:1000700091330208D13302081134020851340208C6
:1000800091340208D1340208913F0208E10D0208C0
:10009000E10D0208E10D0208E10D020831420208FB
:1000A000E10D020841490208E10D02086149020818
:1000B000E10D0208E10D0208E10D0208E10D020860
:1000C000E10D0208E10D0208E10D0208E10D020850
:1000D000E10D0208C1590208E1590208E10D0208C8
:1000E000B142020881430208C1430208E10D02083F
:1000F000E10D020851470208E10D0208113502081E
:10010000E10D0208E1490208E10D0208E10D0208D3
:10011000E10D0208E10D0208E10D0208E10D0208FF
:100120005135020891350208D1350208113602080E
:1001300051360208E10D020801440208E10D0208EF
:10014000E10D0208E10D0208E10D0208E10D0208CF
:1001500091360208D136020811370208015A020806
:10016000E10D0208E10D0208E10D0208E10D0208AF
:1001700041440208E10D0208E10D0208E10D020808
:08018000E10D0208E10D020887
:1001900010B50AF005F8154C20B315490320086086
:1001A000642001F0BDFB2278002AF9D00AF0B8F8EB
:1001B0000E4800240470C4F202042169CA07FCD46A
:1001C000BFF34F8F4FF46D42CEF200020424D36888
:1001D000C0F2FA5403F4E06040EA0401D160BFF3D6
:1001E0004F8FFEE7024B01221A60D9E78C210020D5
:1001F00018270120AFF30080AFF30080AFF3008039
:100200001EF0040F0CBFEFF30880EFF3098007F036
:10021000BFBE000000000000000000000000000061
:1002200081F0004102E000BF83F0004330B54FEAA7
:1002300041044FEA430594EA050F08BF90EA020F14
:100240001FBF54EA000C55EA020C7FEA645C7FEAA7
:10025000655C00F0E2804FEA5454D4EB5555B8BFCA
:100260006D420CDD2C4480EA020281EA030382EA3B
:10027000000083EA010180EA020281EA0303362DCD
:1002800088BF30BD11F0004F4FEA01314FF4801CA0
:100290004CEA113102D0404261EB410113F0004FB2
:1002A0004FEA03334CEA133302D0524263EB430369
:1002B00094EA050F00F0A780A4F10104D5F1200E07
:1002C0000DDB02FA0EFC22FA05F2801841F1000162
:1002D00003FA0EF2801843FA05F359410EE0A5F136
:1002E00020050EF1200E012A03FA0EFC28BF4CF067
:1002F000020C43FA05F3C01851EBE37101F000451D
:1003000007D54FF0000EDCF1000C7EEB00006EEB29
:100310000101B1F5801F1BD3B1F5001F0CD34908B3
:100320005FEA30004FEA3C0C04F101044FEA44520A
:1003300012F5800F80F09A80BCF1004F08BF5FEA91
:10034000500C50F1000041EB045141EA050130BD71
:100350005FEA4C0C404141EB010111F4801FA4F114
:100360000104E9D191F0000F04BF01460020B1FA69
:1003700081F308BF2033A3F10B03B3F120020CDAA1
:100380000C3208DD02F1140CC2F10C0201FA0CF07F
:1003900021FA02F10CE002F11402D8BFC2F1200CE4
:1003A00001FA02F120FA0CFCDCBF41EA0C0190409A
:1003B000E41AA2BF01EB0451294330BD6FEA0404E3
:1003C0001F3C1CDA0C340EDC04F11404C4F12002CE
:1003D00020FA04F001FA02F340EA030021FA04F3E0
:1003E00045EA030130BDC4F10C04C4F1200220FA37
:1003F00002F001FA04F340EA0300294630BD21FA75
:1004000004F0294630BD94F0000F83F4801306BF3A
:1004100081F480110134013D4EE77FEA645C18BF2E
:100420007FEA655C29D094EA050F08BF90EA020FC5
:1004300005D054EA000C04BF1946104630BD91EABD
:10044000030F1EBF0021002030BD5FEA545C05D1C0
:100450004000494128BF41F0004130BD14F58004FF
:100460003CBF01F5801130BD01F0004545F0FE4173
:1004700041F470014FF0000030BD7FEA645C1ABFA8
:10048000194610467FEA655C1CBF0B46024650EADF
:10049000013406BF52EA033591EA030F41F400210B
:1004A00030BD00BF90F0000F04BF0021704730B591
:1004B0004FF4806404F132044FF000054FF0000166
:1004C00050E700BF90F0000F04BF0021704730B527
:1004D0004FF4806404F1320410F0004548BF4042FC
:1004E0004FF000013EE700BF42004FEAE2014FEA51
:1004F00031014FEA02701FBF12F07F4393F07F4F2C
:1005000081F06051704792F0000F14BF93F07F4F5D
:10051000704730B54FF4607401F0004521F00041A0
:1005200020E700BF50EA010208BF704730B54FF026
:1005300000050AE050EA010208BF704730B511F02B
:10054000004502D5404261EB41014FF4806404F163
:1005500032045FEA915C3FF4DCAE4FF003025FEAE5
:10056000DC0C18BF03325FEADC0C18BF033202EB6D
:10057000DC02C2F1200300FA03FC20FA02F001FAC7
:1005800003FE40EA0E0021FA02F11444C1E600BF66
:1005900070B54FF0FF0C4CF4E06C1CEA11541DBF19
:1005A0001CEA135594EA0C0F95EA0C0F00F0DEF8E4
:1005B0002C4481EA030621EA4C5123EA4C5350EAC9
:1005C000013518BF52EA033541F4801143F480131A
:1005D00038D0A0FB02CE4FF00005E1FB02E506F0AB
:1005E0000042E0FB03E54FF00006E1FB03569CF000
:1005F000000F18BF4EF0010EA4F1FF04B6F5007F06
:1006000064F5407404D25FEA4E0E6D4146EB060677
:1006100042EAC62141EA55514FEAC52040EA5E5000
:100620004FEACE2EB4F1FD0C88BFBCF5E06F1ED8AA
:10063000BEF1004F08BF5FEA500E50F1000041EBE1
:10064000045170BD06F0004646EA010140EA02008E
:1006500081EA0301B4EB5C04C2BFD4EB0C0541EAB0
:10066000045170BD41F480114FF0000E013C00F3C5
:10067000AB8014F1360FDEBF002001F0004170BDE9
:10068000C4F10004203C35DA0C341BDC04F1140402
:10069000C4F1200500FA05F320FA04F001FA05F28E
:1006A00040EA020001F0004221F0004110EBD3705B
:1006B00021FA04F642EB06015EEA430E08BF20EA87
:1006C000D37070BDC4F10C04C4F1200500FA04F32A
:1006D00020FA05F001FA04F240EA020001F00041BC
:1006E00010EBD37041F100015EEA430E08BF20EA2F
:1006F000D37070BDC4F1200500FA05F24EEA020E77
:1007000020FA04F301FA05F243EA020321FA04F0A5
:1007100001F0004121FA04F220EA020000EBD3705C
:100720005EEA430E08BF20EAD37070BD94F0000F5C
:100730000FD101F00046400041EB010111F4801F90
:1007400008BF013CF7D041EA060195F0000F18BF41
:10075000704703F00046520043EB030313F4801F7D
:1007600008BF013DF7D043EA0603704794EA0C0F37
:100770000CEA135518BF95EA0C0F0CD050EA41064D
:1007800018BF52EA4306D1D181EA030101F00041CA
:100790004FF0000070BD50EA410606BF10461946F2
:1007A00052EA430619D094EA0C0F02D150EA0136FE
:1007B00013D195EA0C0F05D152EA03361CBF10463F
:1007C00019460AD181EA030101F0004141F0FE41DE
:1007D00041F470014FF0000070BD41F0FE4141F462
:1007E000780170BD70B54FF0FF0C4CF4E06C1CEA62
:1007F00011541DBF1CEA135594EA0C0F95EA0C0F17
:1008000000F0A7F8A4EB050481EA030E52EA0335D1
:100810004FEA013100F088804FEA03334FF08055F2
:1008200045EA131343EA12634FEA022245EA11151F
:1008300045EA10654FEA00260EF000419D4208BFD0
:10084000964244F1FD0404F5407402D25B084FEA7D
:100850003202B61A65EB03055B084FEA32024FF429
:1008600080104FF4002CB6EB020E75EB030E22BF86
:10087000B61A754640EA0C005B084FEA3202B6EB46
:10088000020E75EB030E22BFB61A754640EA5C00F5
:100890005B084FEA3202B6EB020E75EB030E22BF85
:1008A000B61A754640EA9C005B084FEA3202B6EB86
:1008B000020E75EB030E22BFB61A754640EADC0045
:1008C00055EA060E18D04FEA051545EA16754FEAA7
:1008D00006164FEAC30343EA52734FEAC2025FEAC5
:1008E0001C1CC0D111F4801F0BD141EA00014FF054
:1008F00000004FF0004CB6E711F4801F04BF014325
:100900000020B4F1FD0C88BFBCF5E06F3FF6AFAE40
:10091000B5EB030C04BFB6EB020C5FEA500C50F1D0
:10092000000041EB045170BD0EF0004E4EEA113153
:1009300014EB5C04C2BFD4EB0C0541EA045170BD5A
:1009400041F480114FF0000E013C90E645EA060E9E
:100950008DE60CEA135594EA0C0F08BF95EA0C0FCC
:100960003FF43BAF94EA0C0F0AD150EA01347FF414
:1009700034AF95EA0C0F7FF425AF104619462CE7EB
:1009800095EA0C0F06D152EA03353FF4FDAE10464E
:10099000194622E750EA410618BF52EA43067FF49F
:1009A000C5AE50EA41047FF40DAF52EA43057FF42F
:1009B000EBAE12E7000000000000000000000000A5
:1009C0004FF0FF3C06E000BF4FF0010C02E000BF1B
:1009D0004FF0010C4DF804CD4FEA410C7FEA6C5CFE
:1009E0004FEA430C18BF7FEA6C5C1BD001B050EAA1
:1009F000410C0CBF52EA430C91EA030F02BF90EA8C
:100A0000020F0020704710F1000F91EA030F58BF4A
:100A1000994208BF90422CBFD8176FEAE37040F0AC
:100A2000010070474FEA410C7FEA6C5C02D150EA4A
:100A3000013C07D14FEA430C7FEA6C5CD6D152EA05
:100A4000033CD3D05DF8040B704700BF84461046CA
:100A500062468C461946634600E000BF01B5FFF7C9
:100A6000B7FF002848BF10F1000F01BD4DF808ED99
:100A7000FFF7F4FF0CBF012000205DF808FB00BF6A
:100A80004DF808EDFFF7EAFF34BF012000205DF8C4
:100A900008FB00BF4DF808EDFFF7E0FF94BF012011
:100AA00000205DF808FB00BF4DF808EDFFF7CEFF12
:100AB00094BF012000205DF808FB00BF4DF808ED51
:100AC000FFF7C4FF34BF012000205DF808FB00BF22
:100AD0004FEA410212F5001215D211D56FF4787366
:100AE000B3EB625212D94FEAC12343F0004343EA09
:100AF000505311F0004F23FA02F018BF40427047E4
:100B00004FF00000704750EA013005D111F000406D
:100B100008BF6FF0004070474FF00000704700BF03
:100B20004FEA4102B2F1E04324BFB3F5001CDCF10F
:100B3000FE5C0DD901F0004C4FEAC0024CEA507047
:100B4000B2F1004F40EB830008BF20F00100704776
:100B500011F0804F21D113F13872BCBF01F0004079
:100B6000704741F480114FEA5252C2F11802C2F1AB
:100B7000200C10FA0CF320FA02F018BF40F001002C
:100B80004FEAC1234FEAD32303FA0CFC40EA0C00DE
:100B900023FA02F34FEA4303CCE77FEA625307D11B
:100BA00050EA01331EBF4FF0FE4040F44000704752
:100BB00001F0004040F0FE4040F40000704700BFEC
:100BC000704700BFAFF30080AFF30080AFF3008049
:100BD000FEE700BFAFF30080AFF30080AFF300800B
:100BE00072B6704C84F309884EF63472CEF200026D
:100BF0004EF68853CEF200034FF040411160186862
:100C000040F470051D600022E1EE102A4EF63C73A0
:100C1000CEF2000306211A6081F31488BFF36F8FB0
:100C20006148624DA84218D2EA1C051D531B23F0EF
:100C30000302034610184FF0553183421960C2F386
:100C400080020AD01AB185422B46296005D01D1DAD
:100C50005960083383426960F9D15548A04218D2DF
:100C60005449041D0A1B22F00305034628184FF0BF
:100C7000553183421960C5F380020AD01AB184420B
:100C80002346216005D01D1D5960083383426960E9
:100C9000F9D104F0B5FF4849484881421BD2C61C2F
:100CA0000C1D321B464822F00302161D0568042362
:100CB000B3420D60C2F380020DD022B14568082313
:100CC000B342256007D01A1D1D5884585D50083363
:100CD000B3428C50F7D13B483B49884217D2CB1CDA
:100CE000041D1A1B22F00305034628180021834225
:100CF0001960C5F380020AD01AB1844223462160EC
:100D000005D01D1D5960083383426960F9D1FFF792
:100D100057FF2E4D2E498D421DD2CC1C2E1DA71BD8
:100D2000B808471C01242A6800EA04089047BC421E
:100D300011D0B8F1000F05D0022433689847BC42A7
:100D4000354608D0696888470234A8682E1D804758
:100D50000835BC42F6D1FFF71BFA1E4D1E4A9542DC
:100D60001DD2D41C2E1DA71BBB085F1C01242968A3
:100D700003EA04088847BC4211D0B8F1000F05D03F
:100D8000022430688047BC42354608D06A689047E4
:100D90000234AB682E1D98470835BC42F6D1FFF7E8
:100DA00017FF00BF00080020000000200004002002
:100DB0000004002003080020000800206C0E002022
:100DC000C8FF0208700E0020F02A012088010208E6
:100DD000880102088801020888010208AFF3008038
:100DE000FEE700BFAFF30080AFF30080AFF30080F9
:100DF00072B6FEE7AFF30080AFF30080AFF3008080
:100E000000F09EFA00F094FC00F082FA00DF00BFD0
:100E1000EFF309824EF63073D2F8CC10CEF2000315
:100E20006832596098686830986082F309880023B6
:100E300083F31188704700BFAFF30080AFF30080E9
:100E400008B54FF46D43CEF200034FF44072C0F288
:100E5000FA524FF40031996007201021DA6000F057
:100E6000D7F80A204FF4007100F0D2F80B2080214F
:100E7000BDE8084000F0CCB8AFF30080AFF30080CD
:100E8000202383F311884FF46D43CEF2000358689A
:100E900010F4006325D0EFF30983A3F1680282F315
:100EA000098816494FF080708A6943F84C0C92F813
:100EB0002300096892688968B0B1914294BF00220A
:100EC0000122BAB10E4A43F8502CF1EE10FA4EF658
:100ED0003072CEF20002516841F001005966506054
:100EE000704783F311887047914234BF002201227A
:100EF000002AE7D1034843F8500CE8E73C140020EF
:100F0000010E02080C0E0208AFF30080AFF3008060
:100F100008B500F0ADF9202383F3118800F0E0F963
:100F200000F0DEF800F0C4F9002383F3118800F02C
:100F30007FF9BDE80840FFF7A3BF00BFAFF3008013
:100F40002DE9F04F2DED108AC1F80CD0D0F80CD05F
:100F5000BDEC108ABDE8F08FAFF30080AFF30080E6
:100F600008B500F0D5F9002383F311882846A0477F
:100F700000F02EFD08BD00BFAFF30080AFF300808E
:100F8000F0B44FF461438408CEF20003C03400F0A3
:100F9000030553F82470ED00FF26420906FA05F612
:100FA00027EA060601FA05F500F01F0002F16007C6
:100FB000012101FA00F02E4343F8246043F8270092
:100FC00043F82200F0BC7047AFF30080AFF300801D
:100FD00041094FF4614310B4CEF2000300F01F0248
:100FE0002031012404FA02F4820843F82140C0327F
:100FF00000F0030053F82210C000FF2404FA00F0B0
:1010000021EA000143F8221010BC7047AFF30080C2
:1010100082084FF46D43CEF20003063200F0030065
:1010200030B4C00053F82250FF2404FA00F425EA3B
:10103000040401FA00F10C4343F8224030BC70472D
:10104000024B034A98698261FEE700BF3C1400200E
:1010500070E00208AFF30080AFF30080AFF30080D0
:1010600030B583B0FFF7ECFE00F00AFA00F0A0F90B
:1010700001F0C6F901F00CFA00F06AF840F6706071
:101080004021C2F2000000F063FB41F23C4440F218
:101090000043C2F20003C2F200040125C36180F8DC
:1010A0002050A06100F064F9002383F3118862B638
:1010B0004EF24021A269C0F60201916140F6C06083
:1010C000009341F241034FF4AC712A46C0F602038B
:1010D000C2F2000000F0BCFB03B030BDAFF30080F3
:1010E000F8B500F08DF8164B986990F8232012B1EE
:1010F000511E80F82310446A124D631C4362E86855
:101100002C68421CAC42EA6018D0A768013FA76077
:10111000A7B92168E6684D60E760296000F0C8F86B
:10112000002383F311882069B047202383F31188BB
:1011300000F0D6F82C68A368002BEAD0F8BD00BFF9
:101140003C1400202C140020AFF30080AFF300808B
:1011500041F21C03C2F200031A46402142F8081B68
:101160005A607047AFF30080AFF30080AFF30080A8
:101170000C490D4A10B4CC680C49536889691C604D
:101180005960846A9C6003F1100190F8204002F5D8
:10119000816081421C732ABF02F1080351605360D1
:1011A00010BC70472C1400201C1000203C140020A0
:1011B00008B541F22843C2F200031860012008F08C
:1011C000E7FFBDE80840FFF713BE00BFAFF30080A4
:1011D000054B186820B905490A68002A00DD7047E8
:1011E0000348FFF7E5BF00BF1810002024140020BB
:1011F00080E00208AFF30080AFF30080AFF300801F
:10120000054B1868002804DB04490A68002A00DD41
:1012100070470348FFF7CCBF1810002024140020AB
:1012200088E00208AFF30080AFF30080AFF30080E6
:1012300010B5202383F31188084C2368002B02DDAE
:10124000074A106818B10748FFF7B2FF2368591E14
:101250002160002383F3118810BD00BF1810002007
:101260002414002090E00208AFF30080AFF3008068
:1012700010B5202383F31188084C2368002B02DB70
:10128000074A106818B10748FFF792FF2368591CF6
:101290002160002383F3118810BD00BF18100020C7
:1012A0002414002098E00208AFF30080AFF3008020
:1012B000074B1868002810B5064C05DD2168002989
:1012C00002DD0022226010BD0348FFF771FFF8E73E
:1012D0001810002024140020A0E00208AFF30080C2
:1012E000064B1868002810B5054C01DD216811B1C6
:1012F0000448FFF75DFF0122226010BD1810002096
:1013000024140020A8E00208AFF30080AFF30080AF
:10131000074B186810B5074C28B92168002902DD71
:101320000022226010BD0448FFF742FFF8E700BF2B
:101330001810002024140020B0E00208AFF3008051
:10134000064B186810B5064C08B9216811B105485C
:10135000FFF72EFF0122226010BD00BF18100020F1
:1013600024140020B8E00208AFF30080AFF300803F
:10137000044B186810B904490A6812B10348FFF712
:1013800017BF70471810002024140020C0E0020886
:10139000044B186810B904490A6812B10348FFF7F2
:1013A00007BF70471810002024140020D0E0020866
:1013B00041F22C43C2F200034FF0FF3200205B6089
:1013C0001B609A60D8607047AFF30080AFF3008075
:1013D000F8B505460C4616461F46FFF711FFCDB17E
:1013E000C6B1BCB10D492F610B68EE609A6894429A
:1013F00004D91B68A41A9A68A242FAD358682B60D1
:101400008B42686005605D60AC6002D099680C1B1F
:101410009C60F8BD0248FFF7CBFEE3E72C140020E8
:10142000E0E00208AFF30080AFF30080AFF300808C
:1014300010B50446FFF7E4FE84B1E36893B1206879
:101440000A4A904203D08168A368CA188260616822
:101450000860206800234160E36010BD0448FFF786
:10146000A7FEEAE70348FFF7A3FEE8E72C140020F5
:10147000F0E0020800E10208AFF30080AFF3008063
:1014800041F23C43C2F2000300225B601B609A60A1
:101490005B611B61704700BFAFF30080AFF300805A
:1014A00010B50446FFF7ACFE94F820308BB10E2B3C
:1014B0000FD00022A168094884F8202000688368C2
:1014C0008B42FBD24168206061600C604460204622
:1014D00010BD0348FFF76CFEEBE700BF3C14002093
:1014E00020E10208AFF30080AFF30080AFF300808B
:1014F00010B52023044683F31188FFF7F1FE94F81A
:1015000020300D2B11D8DFE803F016101007100B58
:10151000101010101010100BA06A8268511C81600E
:1015200094E80C001A60206843604FF0FF33A36218
:101530002046FFF7B5FFFFF7BBFE002383F31188BA
:1015400010BD00BFAFF30080AFF30080AFF30080A9
:1015500070B5114C0646FFF73BFE2368A5691A6873
:1015600085F8206014210120546083F8200085F85C
:10157000231028462260A361FFF7FAFDEB69ADF165
:101580006402934202D90548FFF712FEA06929467A
:10159000BDE87040FFF7D4BC3C14002034E10208E1
:1015A00070B50C4686B00646FFF712FE631C12D0DB
:1015B0000B4D0C4AAB69214601A8FFF709FF3046E5
:1015C000FFF7C6FF049B13B101A8FFF731FFA8691D
:1015D000806A06B070BD3046FFF7BAFF004DF6E7EF
:1015E0003C140020F1140208AFF30080AFF3008038
:1015F00070B5144D04460E46FFF7EAFDA869A268CF
:101600008368A6629A4213D9FFF74AFF0121064672
:1016100084F82010AC61FFF7ABFDF069ADF1640216
:1016200090420AD820463146BDE87040FFF788BC9A
:101630002046BDE87040FFF733BF0348FFF7B8FD11
:10164000F0E700BF3C14002034E10208AFF3008053
:1016500038B5104C2368A5691A680121142054601C
:1016600083F8201085F8230028462260A361FFF745
:1016700017FF2846FFF77CFDEB69ADF1640293424A
:1016800002D90548FFF794FDA0692946BDE8384016
:10169000FFF756BC3C14002034E10208AFF3008091
:1016A00070B5144E3368B5691A68AC68566001218C
:1016B000002083F820103260B36185F8200000E03C
:1016C0001B689A68A242FBD859682B60696028465B
:1016D0005D600D60FFF74CFDEB69ADF16400834286
:1016E00002D90548FFF764FDB0692946BDE870409E
:1016F000FFF726BC3C14002034E10208AFF3008061
:1017000008B5FFF765FD064B1A689869916883680C
:10171000994200D808BDBDE80840FFF7C1BF00BF2F
:101720003C140020AFF30080AFF30080AFF30080E3
:10173000044B986990F8231009B1FFF7B1BFFFF788
:1017400087BF00BF3C140020AFF30080AFF30080E0
:101750002DE9F00141F23C44C2F200040022656927
:101760004164046100F13006816000F12C0C00F14D
:101770004C0745614FF0020860610121142480F894
:10178000208080F8212080F823400264C2634262F6
:1017900080F8221082612861C0F82CC0466306637D
:1017A000C761BDE8F0017047AFF30080AFF3008080
:1017B0002DE9F04704460D4617469846FFF720FDF1
:1017C00014B1B5F59C7F36D21E48FFF7F1FCA5F1A8
:1017D000640161181C4E089BD6F814C0E1604B648C
:1017E0001A4BC1F840800B660221002504F130023B
:1017F00004F12C0A04F14C0984F82010142301216F
:101800002661A760C4F814C02046746184F8215092
:1018100084F8233067642564E563656284F82210E8
:10182000A561CCF81040C4F82CA062632263C4F810
:101830001C90BDE8F0877F2FC6D8B8F1000FC6D145
:10184000C2E700BF50E102083C140020610F02080B
:101850002DE9F04F9B4683B080468946924600F1C1
:101860004C0300F1010400F14D07FF26254604F862
:10187000016C05F8016B6C1CBC42F7D108EB090741
:10188000BB4215D21846552600F8016BD9437A1889
:10189000B84202F001030BD01BB100F8016BB84253
:1018A00006D0054605F8016B4670681CB842F8D1B1
:1018B000202383F31188FFF743FD0C9C5B465246BF
:1018C000494600944046FFF773FF00210446FFF7A6
:1018D0008FFEFFF71DFD002383F31188204603B020
:1018E000BDE8F08FAFF30080AFF30080AFF300806E
:1018F00010B52023044683F31188FFF721FD94F8E7
:10190000213043F0040084F82100FFF701FD00239B
:1019100083F3118810BD00BFAFF30080AFF30080E8
:1019200010B5044610B90948FFF742FC202383F3A1
:101930001188FFF705FD21460620FFF731FEFFF76E
:10194000E7FC002383F3118810BD00BF90E102087B
:1019500010B52023044683F31188FFF7F1FC064BF2
:10196000D968611A02D00620FFF71AFEFFF7D0FCF3
:10197000002383F3118810BD2C140020AFF30080E6
:1019800038B5104B9C692546A06255F82C0FA8422B
:1019900006D00168E162FFF783FDE06AA842F8D152
:1019A00094F82100830704D1636922691A612169CF
:1019B0004B610E20FFF7CCFD0348BDE83840FFF730
:1019C000F7BB00BF3C140020A0E10208AFF3008089
:1019D00010B52023044683F31188FFF7B1FC20469D
:1019E000BDE81040FFF7CCBFAFF30080AFF300803D
:1019F00038B5044648B3202383F31188154DFFF70B
:101A00009FFCAB69A3421CD094F82200A8B194F8C3
:101A100020100E2906D0AD69E26A07202A60E5622F
:101A2000FFF796FDA56AFFF773FC002383F3118887
:101A3000204600F01DF8284638BD0748FFF7B8FBE0
:101A4000E5E70648FFF7B4FBDEE70548FFF7B0FB24
:101A5000D1E700BF3C140020D4E10208C4E1020831
:101A6000B4E10208AFF30080AFF30080AFF3008071
:101A700038B50446202383F31188FFF761FC94F8FE
:101A80002230002B21D0581EC5B284F82250FFF717
:101A90003FFC002383F311881DB994F820100E2910
:101AA00000D038BD94F8212002F00303012B12D09E
:101AB000022BF6D163692169A06C19612269214664
:101AC0005361BDE8384000F063BD0848FFF770FB84
:101AD00094F82230D7E763692069186121692046AC
:101AE0004B61BDE8384000F0E3BC00BF04E20208EF
:101AF00038B504460D4628B1002903DB6460246034
:101B0000A56038BD0148FFF753FBF7E760E2020824
:101B100038B50446FFF75CFB1CB3A3682268002BB2
:101B20000BDBA24203D01148FFF742FBA368581E0B
:101B30000028A06007DB002038BDA242F3D0581E69
:101B40000028A060F7DA0A4DA9698C6262680C600F
:101B50004A60032061601160FFF7FAFCAB69986A84
:101B600038BD0448FFF724FBD7E700BFA4E2020812
:101B70003C14002094E20208AFF30080AFF3008031
:101B800010B52023044683F31188FFF7D9FB2046C4
:101B9000FFF7BEFF0446FFF7BBFB002383F311886A
:101BA000204610BDAFF30080AFF30080AFF300809C
:101BB00038B504460D46FFF70BFB002C24D0A36874
:101BC0002268002B0BDBA24203D01348FFF7F0FA88
:101BD000A368581E0028A06007DB002038BDA24281
:101BE000F3D0581E0028A060F7DA8DB10B498B693D
:101BF0009C6262681C60032029465A60636013601F
:101C0000BDE83840FFF7CCBC0548FFF7D1FAD6E76E
:101C1000A3604FF0FF3038BDD0E202083C14002032
:101C2000B8E20208AFF30080AFF30080AFF30080AA
:101C300010B5044618B3A3682068002B14DBA0423B
:101C400002D01148FFF7B4FA202383F31188FFF77D
:101C500077FBA1684A1C002AA26008DDFFF758FB49
:101C6000002383F3118810BDA042EDD1E9E720687D
:101C70000368002123605C60FFF7BAFCEEE70348CD
:101C8000FFF796FAD7E700BFF8E20208E8E2020899
:101C900010B50446FFF7B4FA002C1FD0A3682268E1
:101CA000002B0ADBA24203D00E48FFF781FAA3689B
:101CB000581C0028A06006DD10BDA242F4D0581CBC
:101CC0000028A060F8DC21680A680023084622602A
:101CD00054608B62BDE81040FFF7E2BB0248FFF79B
:101CE00067FADBE720E302080CE30208AFF30080A9
:101CF00010B5044620B1002364602460A36010BDC9
:101D00000148FFF755FAF6E7B0E30208AFF30080A9
:101D1000F8B53B4B05469C69FFF75AFA002D6BD08E
:101D2000A868002836D0A2688168914208D290F84D
:101D300020308260042B45D0052B30D0002B1ED0E4
:101D400028460068854203D08168A2689142F8D293
:101D50004368206063601C604460A5620420FFF754
:101D6000F7FBA868A04202D02648FFF721FA216CB1
:101D7000A94213D02448BDE8F840FFF719BA90E80B
:101D80000C001A600268012180F820105360FFF7F0
:101D900087FBD5E7206CAC60E8602564F8BD41683E
:101DA0000768866A0F600768334679601B689E4241
:101DB00002D099689142F9D25A680360426010607B
:101DC0005860BDE741680768866A0F600768334658
:101DD00079601B689E420DD099689142F9D25A6889
:101DE0000360426010605860B068A26883689342E4
:101DF0009DD3A5E73346F2E70448FFF7D9F98FE70B
:101E00003C140020D0E30208E4E30208C0E3020827
:101E100010B52023044683F31188FFF791FA20467A
:101E2000FFF776FFFFF774FA002383F3118810BDE4
:101E30001E4A70B52023956983F31188FFF780FA55
:101E40002C6C002C2DD0A368AB4203D01848FFF7B0
:101E5000AFF92C6C2668E368A6422B641ED0696C2F
:101E60004BB11A689A4203D09068814238BF01464C
:101E7000DB68002BF5D13368326CA96030462360F3
:101E800000215C60A660E2603464FFF7B1FBFFF7FD
:101E90003FFA002383F31188204670BD0020A06024
:101EA000F5E70448FFF784F92C6CCCE73C140020DC
:101EB00020E402080CE40208AFF30080AFF30080D6
:101EC00038B504460D46FFF79BF9C4B1E26B94F8B0
:101ED000203045EA0201082BE1630CD0092B00D029
:101EE00038BDA06A01408842FAD12046FFF7D8FAEF
:101EF0000023836238BDA26A1142F6D138BD024880
:101F0000FFF756F9E2E700BF8CE40208AFF3008068
:101F100070B505460E46FFF773F965B12C68A5420A
:101F200008D0201D0BC83343E360FFF7C9FF2468C6
:101F3000A542F6D170BD0248FFF73AF9EEE700BFBF
:101F4000B0E40208AFF30080AFF30080AFF300808D
:101F500070B504460D461646A0B199B1002A11DDB0
:101F600005EB860304F11C003146E560A5602560A1
:101F70006360FFF7BDFD04F110000021BDE8704073
:101F8000FFF7B6BD0148FFF713F9E9E7F0E40208EF
:101F900038B504460D46FFF733F9A4B1626A002A4A
:101FA00015DDA3686168501E606243F8045B8B42D4
:101FB000A36028BF236804F1100028BFA360FFF7C7
:101FC00067FE002038BD0348FFF7F2F8E6E74FF060
:101FD000FF3038BD20E50208AFF30080AFF300808A
:101FE00070B504460E461546FFF7F2F8D4B1CEB1EF
:101FF000294604F11000FFF7DBFD054680B9E368D0
:10200000626853F8041B93423160E36028BF236881
:1020100004F11C0028BFE360FFF73AFEFFF770FBF6
:10202000284670BD0148FFF7C3F8E1E758E502080C
:1020300070B5202306460D46144683F31188FFF73A
:102040007FF9224629463046FFF7CAFF0446FFF7CC
:102050005FF9002383F31188204670BDAFF3008041
:1020600010B4024659B1084B9B69986244680D2030
:1020700083E814005360236010BCFFF791BA4FF05F
:10208000FF3010BC704700BF3C140020AFF300804D
:1020900010B4C361019B40608A1800240060846012
:1020A00041618161C1600261036210BC704700BF81
:1020B00038B50446FFF7A4F82068E3680021A04281
:1020C0006361A361A1600AD06FF00105026822601C
:1020D0005460FFF7E5F985622068A042F6D138BD6B
:1020E00038B504460D46FFF78BF86369A269A0680E
:1020F00093421AD0411CA16003F8015B226963611D
:1021000093420BD22068A0420DD0016821604C6040
:10211000FFF7C6F900228262104638BD2068E368E6
:10212000A0426361F1D1002038BD0028E2D06FF0F9
:10213000030038BDAFF30080AFF30080AFF3008041
:10214000F8B504460E46202383F31188FFF7F8F80C
:10215000E3690BB120469847A5682046314655B93A
:10216000FFF77EFF071EF7DAFFF7D2F82B4683F35F
:1021700011883846F8BDA0692269013DA56010F8B4
:10218000017B9042A06124BFE068A061FFF7C0F826
:10219000002383F311883846F8BD00BFAFF30080F9
:1021A0002DE9F0470446154688461E46C769002AB1
:1021B0003AD0202383F31188FFF7C2F808F1010A0F
:1021C0004FF00009A8440FB12046B847A568204643
:1021D00031465DB9FFF744FF0028F7D0FFF798F8C4
:1021E0002B4683F311884846BDE8F087A369013D7B
:1021F000A56013F8012B0AF8012C2069A361834222
:1022000024BFE368A361FFF783F8002383F31188F9
:10221000C24509F10109E6D0202383F31188FFF7B5
:102220008FF80AF1010ACEE70148FEF7C1FFC0E7C7
:1022300080E50208AFF30080AFF30080AFF30080C9
:1022400010B4C361019B40608C18006082604161E2
:102250008161C1600461036210BC7047AFF300800C
:1022600038B50446FEF7CCFFE36822692068636155
:10227000D11AA042A361A1600AD06FF001050368E2
:1022800023605C60FFF70CF985622068A042F6D1FC
:1022900038BD00BFAFF30080AFF30080AFF3008024
:1022A0002DE9F041202304468846164683F3118821
:1022B000FFF746F8A568204631465DB9FFF7D0FE26
:1022C000071EF7DAFFF724F82B4683F31188384608
:1022D000BDE8F0816369013DA56003F8018B2269C7
:1022E0006361934228BFE368E16928BF636109B174
:1022F00020468847FFF70CF8002383F311881F4618
:102300003846BDE8F08100BFAFF30080AFF3008036
:1023100038B50446FEF774FFA3696269A0689A4263
:1023200016D0411CA16013F8015B2269A36193429E
:102330000BD22068A04206D0016821604C60FFF7F4
:10234000AFF800228262284638BDE368A361F0E757
:102350000028E6D06FF0020038BD00BFAFF3008068
:102360002DE9F0470446164688469A46D0F81C9058
:10237000002A39D0202383F31188FEF7E1FF0027DC
:10238000A56820466B1E0DB3A360656918F8011B94
:1023900005F8011B22696561954224BFE26862610C
:1023A000B9F1000F00D0C847FEF7B2FF002383F356
:1023B00011880137013E14D0202383F31188FEF7E2
:1023C000BFFFA56820466B1E002DDDD1204651467B
:1023D000FFF746FE0028D3D0FEF79AFF2B4683F383
:1023E00011883846BDE8F0870148FEF7E1FEC1E7F5
:1023F00094E50208AFF30080AFF30080AFF30080F4
:1024000041F25C4241F258434CF200010648C2F2EC
:102410000002C2F20003C2F2010120F0070021F025
:102420000701106019607047F72A0120AFF30080A0
:1024300010B50446FEF7E4FE074A08491368096828
:10244000E01D20F00700C91A88429ABF18181060D2
:102450000023184610BD00BF5C1400205814002053
:1024600010B52023044683F31188FEF769FF204648
:10247000FFF7DEFF0446FEF74BFF002383F31188CE
:10248000204610BDAFF30080AFF30080AFF30080B3
:1024900041F26043C2F2000342F261410022C0F601
:1024A000020103F1100019609A60DA60FFF720BCA6
:1024B000F8B5074600284BD057F8086C06F1100015
:1024C000FFF7A6FC0836A7F108053446AC4204D84D
:1024D00063680833E01885421FD3B442216801D0F5
:1024E000AC4202D219B18D4201D30C46EEE757F847
:1024F000042C47F8081C256002F1080357F8080C63
:10250000E91881420DD0606800F1080163189D420E
:1025100015D0BDE8F840FFF78BBC0F48FEF748FE2A
:10252000DBE74868EB581218083247F8042C60685B
:1025300047F8083C00F1080163189D42E9D157F8BB
:10254000041C57F8082C4318083384E80C00E0E713
:102550000248FEF72DFEAFE7D0E50208C0E502080D
:1025600038B504460D46FEF74BFE24B11DB1236875
:102570002B60256038BD0248FEF71AFEF7E700BF62
:1025800014E60208AFF30080AFF30080AFF30080E1
:1025900038B505460C46202383F31188FEF7D0FE9C
:1025A00028462146FFF7DCFFFEF7B2FE002383F347
:1025B000118838BDAFF30080AFF30080AFF3008027
:1025C00008B501F005FA4FF20000C0F6020002F073
:1025D000AFFD00F015F800F0DBF800F039F900F07D
:1025E000CFF900F065FD00F0BBFC00F011FE00F03B
:1025F0002FFABDE8084003F023BB00BFAFF3008013
:1026000001F0E6BAAFF30080AFF30080AFF30080D3
:1026100000230122027043608360C3600361436151
:102620001830FFF765BB00BFAFF30080AFF3008049
:1026300038B504460D46B8B1202383F31188FEF760
:102640007FFE2378581E012802D90948FEF7B0FD05
:102650002046656001F004FB02212170FEF758FE60
:10266000002383F3118838BD0248FEF7A1FDE3E79C
:1026700050E6020840E60208AFF30080AFF30080A6
:1026800010B50446B0B1202383F31188FEF758FE3D
:102690002378581E012802D90848FEF789FD2046F4
:1026A00001F05EFB01212170FEF732FE002383F36F
:1026B000118810BD0248FEF77BFDE4E76CE60208D6
:1026C00060E60208AFF30080AFF30080AFF3008054
:1026D000F8B504460E4617461D46FEF791FDCCB1EF
:1026E000C6B1BFB1012D01D0EB0713D42078022869
:1026F00006D0042804D0052802D00848FEF758FD6B
:1027000003232046A760E56026612370BDE8F840FA
:1027100001F05EBB0248FEF74BFDE7E794E60208D6
:102720007CE60208AFF30080AFF30080AFF30080D7
:1027300010B5044610B3202383F31188FEF700FE82
:1027400023789A1E012A03D90E48FEF731FD23781B
:10275000022B0DD0204601F07BFB60690021022294
:102760002161227020B161616FF00101FEF740FF2D
:10277000FEF7CEFD002383F3118810BD0248FEF75B
:1027800017FDD8E7C8E60208B0E60208AFF30080FC
:1027900001F006BFAFF30080AFF30080AFF300801D
:1027A0000123002103704160704700BFAFF3008038
:1027B00038B504460D46C0B1B9B1202383F3118862
:1027C000FEF7BEFD2378581E012802D90948FEF7FE
:1027D000EFFC2046656001F07BFF02212170FEF7CF
:1027E00097FD002383F3118838BD0348FEF7E0FC12
:1027F000E3E700BF60E7020850E70208AFF300809C
:1028000010B50446B0B1202383F31188FEF798FD7C
:102810002378581E012802D90848FEF7C9FC204633
:1028200001F0C6FE01212170FEF772FD002383F343
:10283000118810BD0248FEF7BBFCE4E77CE7020804
:1028400070E70208AFF30080AFF30080AFF30080C1
:1028500001F09EBFAFF30080AFF30080AFF30080C4
:102860000123002103704160704700BFAFF3008077
:1028700038B504460D46C0B1B9B1202383F31188A1
:10288000FEF75EFD2378581E012802D90948FEF79D
:102890008FFC2046656001F08BFF02212170FEF75E
:1028A00037FD002383F3118838BD0348FEF780FC11
:1028B000E3E700BF2CE8020820E80208AFF300803D
:1028C00010B50446B0B1202383F31188FEF738FD1C
:1028D0002378581E012802D90848FEF769FC2046D3
:1028E00001F0A6FF01212170FEF712FD002383F302
:1028F000118810BD0248FEF75BFCE4E748E80208D7
:102900003CE80208AFF30080AFF30080AFF3008033
:1029100038B504460D46FEF773FC6CB12378022BE4
:1029200002D00748FEF744FC0420207029462046C8
:10293000BDE8384001F09CBF0248FEF739FCEDE7E6
:10294000D4E80208BCE80208AFF30080AFF30080CF
:1029500038B50378022B04460D4602D00548FEF731
:1029600027FC042020702946204601F091FF022117
:10297000217038BD14E90208AFF30080AFF3008086
:1029800001F0FEBFAFF30080AFF30080AFF3008033
:102990000123002103704160704700BFAFF3008046
:1029A000914270B50C461546064615D38B1A1F2B5F
:1029B00012D804F01F02511C01206B0900FA01F229
:1029C0006409511EA34205F01F0509D356F82300E0
:1029D000084020FA05F070BD0848FEF7E9FBE8E77B
:1029E00056F8240056F823200840C5F1200300FAC9
:1029F00003F022FA05F5284370BD00BF30E9020854
:102A0000C368990F70B5044617D149213E22FFF7DC
:102A1000C7FF31212F2206462046FFF7C1FF502273
:102A2000054653212046FFF7BBFF0136AA1C06FAD4
:102A300002F5093805FA00F070BD012901D0002027
:102A400070BD45213022FFF7ABFF0130800270BD21
:102A500002F046BCAFF30080AFF30080AFF300801C
:102A600038B504460D4678B171B1202383F311883F
:102A7000FEF766FC2046294602F05AFCFEF748FCA9
:102A8000002383F3118838BD0148FEF791FBECE782
:102A900050E90208AFF30080AFF30080AFF300808D
:102AA00038B504460D4678B171B1202383F31188FF
:102AB000FEF746FC2046294602F05AFCFEF728FCA9
:102AC000002383F3118838BD0148FEF771FBECE762
:102AD00060E90208AFF30080AFF30080AFF300803D
:102AE00010B5044620B12046BDE8104002F060BC9D
:102AF0000148FEF75DFBF6E750E90208AFF30080FE
:102B000038B504460D4660B159B12379052B01D083
:102B1000012038BDA06A4FF4007168602960002070
:102B200038BD0248FEF744FBEFE700BFB0E90208FA
:102B3000F0B5044683B0002800F024812379022BED
:102B400004D0052B02D09148FEF732FB0320207100
:102B5000204601F0DDFF00210A46204602F018F869
:102B60004FF4D5722046082101AB02F049F8024625
:102B700070B9019B0121C3F30320884221636DD00A
:102B8000204601F0E5FF02232371012003B0F0BDD0
:102B9000002121630025C8F2100564262046372154
:102BA000002201AB02F02CF80028E9D14EF2080017
:102BB0000199CFF6FF5008400028E1D12046292195
:102BC0002A4601AB01F0FCFF07460028D8D1019B43
:102BD000002B5BDB013ED3D00A20FEF7A1FE20468E
:102BE00037213A4601AB02F00BF80028C8D14EF26B
:102BF0000803019ACFF6FF531340002BC0D12046A3
:102C000029212A4601AB01F0DBFF07460028B7D196
:102C1000019B002B3ADB0A20FEF782FE204637217B
:102C20003A4601AB01F0ECFF0028A9D14EF20800B2
:102C30000199CFF6FF5008400028A1D12046292154
:102C40002A4601AB01F0BCFF002899D1019B002B63
:102C50001CDB0A20023EFEF763FE9FE72046372179
:102C600001AB01F0CDFF00288AD14EF20803019A92
:102C7000CFF6FF531340002B82D1256B05F00F06D2
:102C8000012E87D10025CCF2100586E75B0003D525
:102C9000226B42F01000206300222046022104F142
:102CA000080302F06DF8024600287FF469AF204661
:102CB000032104F1380301F0A3FF00287FF460AF83
:102CC00004F1180520460921A26B2B4602F058F8A2
:102CD00000287FF455AF204601F02AFF2046072147
:102CE000A26B01AB01F08CFF00287FF449AF2046B6
:102CF00010214FF4007201AB01F082FF00287FF435
:102D00003FAF4EF20801019BCFF6FF511940002959
:102D10007FF436AF226B02F00F00012827D8012183
:102D2000204601F01DFF20463721A26B01AB01F0C8
:102D300067FF00287FF424AF4EF20801019BCFF615
:102D4000FF51194000297FF41BAF204606210222C3
:102D500001AB01F055FF00287FF412AF4EF20802DC
:102D60000198CFF6FF520240002A7FF409AF2846AF
:102D7000FFF746FEA06200283FF402AF0521217153
:102D8000002003E70248FEF713FAD7E6D0E902086D
:102D9000C0E90208AFF30080AFF30080AFF300801A
:102DA00038B5044658B12579052D01D0012038BD2C
:102DB00008232371204602F0B3F9257138BD02487B
:102DC000FEF7F6F9EFE700BFE4E90208AFF3008091
:102DD000F8B504460E4617461D4690B18AB183B138
:102DE0002379052B02D00E48FEF7E2F9721EA06A85
:102DF0005119814209D9606B40F080016163012063
:102E0000F8BD0848FEF7D4F9EAE7072323713A46EC
:102E1000204631462B4602F01BF905222271F8BDEF
:102E200000EA0208F0E90208AFF30080AFF3008087
:102E3000F8B504460E4617461D4690B18AB183B1D7
:102E40002379052B02D00E48FEF7B2F9721EA06A54
:102E50005119814209D9606B40F080016163012002
:102E6000F8BD0848FEF7A4F9EAE7062323713A46BD
:102E7000204631462B4602F083F805222271F8BD28
:102E80001CEA020810EA0208AFF30080AFF30080EA
:102E900010B5044682B001AB20460D21A26B01F0B3
:102EA000AFFE4EF20803CFF6FF5338B9019A134034
:102EB000C2F3432113B9042909D002D2012002B080
:102EC00010BD0729FAD80120FEF72AFDE3E71846CE
:102ED000F5E700BFAFF30080AFF30080AFF30080F1
:102EE00038B5044600282FD0202383F31188FEF73D
:102EF00027FA2379022B20D0052B05D01448FEF7A2
:102F000057F92079022818D004212171FEF700FA20
:102F1000002383F311882046FFF7BAFF05462046B9
:102F20002DB901F015FE02222271284638BD01F0AC
:102F30000FFE02232371012038BDFEF7E9F90023BB
:102F400083F31188184638BD0248FEF731F9CBE704
:102F500040EA02082CEA0208AFF30080AFF30080D9
:102F600001F066BDAFF30080AFF30080AFF30080E7
:102F70004EF690120023C0F6020201210260017198
:102F80004363C36283627047AFF30080AFF3008096
:102F900038B504460D46B8B1202383F31188FEF7F7
:102FA000CFF92379581E012802D90948FEF700F904
:102FB0002046E56201F054FD02212171FEF7A8F9D7
:102FC000002383F3118838BD0248FEF7F1F8E3E7E8
:102FD00064EA020854EA0208AFF30080AFF300800D
:102FE00010B50446B0B1202383F31188FEF7A8F989
:102FF0002379581E012802D90848FEF7D9F820463F
:1030000001F066FD01212171FEF782F9002383F3AF
:10301000118810BD0248FEF7CBF8E4E780EA020809
:1030200074EA0208AFF30080AFF30080AFF30080D2
:103030000C30FFF7B5B800BFAFF30080AFF30080EE
:103040000C304FF0FF33FFF7ABB800BFAFF3008099
:103050003030FFF785B900BFAFF30080AFF30080D9
:1030600030304FF0FF33FFF77BB900BFAFF3008084
:103070000C30FFF765B800BFAFF30080AFF30080FE
:103080000C304FF0FF31FFF75BB800BFAFF30080AB
:103090003030FFF705B900BFAFF30080AFF3008019
:1030A00030304FF0FF32FFF7FBB800BFAFF30080C6
:1030B00002F0B6BCAFF30080AFF30080AFF3008046
:1030C00070B54EF650330546C0F60203044645F887
:1030D000043B82B0656001250B46164604F154019D
:1030E0004022257200F10C000094FEF7D1FF0094FD
:1030F00004F1300004F1940140223346FFF7A0F8B8
:1031000002B070BDAFF30080AFF30080AFF300807A
:1031100038B504460D46B8B1202383F31188FEF775
:103120000FF9237A581E012802D90948FEF740F802
:103130002046294602F0ACFC02212172FEF7E8F895
:10314000002383F3118838BD0248FEF731F8E3E726
:10315000FCEA0208F0EA0208AFF30080AFF3008057
:1031600010B5044600B3202383F31188FEF7E8F876
:10317000237A581E012802D90D48FEF719F8204677
:1031800002F0FEFC0121217204F13000FFF768F823
:1031900004F10C00FEF78CFFFEF7B2FAFEF7B8F868
:1031A000002383F3118810BD0248FEF701F8DAE727
:1031B00018EB02080CEB0208AFF30080AFF30080BD
:1031C00038B504460D46FEF71BF8D4B163693BB130
:1031D00004F10C002946FEF783FF00280BDB38BD05
:1031E000201D0421FEF794FE04F10C002946FEF791
:1031F00077FF0028F3DA201D8021BDE83840FEF774
:1032000087BE0248FDF7D4FFE0E700BF28EB0208C5
:1032100002F08EB9AFF30080AFF30080AFF300800F
:10322000002301220270436083600C30FEF760BD12
:1032300038B504460D46C0B1B9B1202383F31188D7
:10324000FEF77EF82378581E012802D90948FDF7B9
:10325000AFFF2046656002F0ABF902212170FEF756
:1032600057F8002383F3118838BD0348FDF7A0FF0A
:10327000E3E700BF80EB020870EB0208AFF30080C9
:1032800010B50446B0B1202383F31188FEF758F837
:103290002378581E012802D90848FDF789FF2046E7
:1032A00002F016FA01212170FEF732F8002383F3B1
:1032B000118810BD0248FDF77BFFE4E79CEB020894
:1032C00090EB0208AFF30080AFF30080AFF3008013
:1032D00010B5044698B1202383F31188FEF730F827
:1032E0002378022B02D00848FDF762FF204602F047
:1032F0001FFAFEF70DF8002383F3118810BD034871
:10330000FDF756FFE7E700BFBCEB0208ACEB020895
:1033100010B5044698B1202383F31188FEF710F806
:103320002378022B02D00848FDF742FF204602F026
:103330000FFAFDF7EDFF002383F3118810BD03485A
:10334000FDF736FFE7E700BFDCEB0208CCEB020835
:1033500010B5FDF78DFF4FF4C043C4F202030848D7
:10336000196802683D2401F03D019C600AB1406883
:103370009047FDF75DFFBDE81040FDF781BD00BF40
:1033800080140020AFF30080AFF30080AFF3008023
:1033900010B5FDF76DFF4FF4C043C4F202030948B6
:1033A000196882688C0904F03D014FF474649C60D4
:1033B0000AB1C0689047FDF73BFFBDE81040FDF73C
:1033C0005FBD00BF80140020AFF30080AFF300802A
:1033D00010B5FDF74DFF4FF4C043C4F20203094896
:1033E000196802690C0C04F03D014FF474149C60E0
:1033F0000AB140699047FDF71BFFBDE81040FDF79B
:103400003FBD00BF80140020AFF30080AFF3008009
:1034100010B5FDF72DFF4FF4C043C4F20203094875
:10342000196882698C0D04F03D014FF074649C6052
:103430000AB1C0699047FDF7FBFEBDE81040FDF7FB
:103440001FBD00BF80140020AFF30080AFF30080E9
:1034500010B5FDF70DFF4FF4C043C4F20203084856
:103460005968026A3D2401F03D01DC600AB1406AFE
:103470009047FDF7DDFEBDE81040FDF701BD00BF40
:1034800080140020AFF30080AFF30080AFF3008022
:1034900010B5FDF7EDFE4FF4C043C4F20203094836
:1034A0005968826A8C0904F03D014FF47464DC6051
:1034B0000AB1C06A9047FDF7BBFEBDE81040FDF7BA
:1034C000DFBC00BF80140020AFF30080AFF30080AA
:1034D00010B5FDF7CDFE4FF4C043C4F20203094816
:1034E0005968026B0C0C04F03D014FF47414DC605D
:1034F0000AB1406B9047FDF79BFEBDE81040FDF719
:10350000BFBC00BF80140020AFF30080AFF3008089
:1035100010B5FDF7ADFE4FF4C043C4F202030948F5
:103520005968826B8C0D04F03D014FF07464DC60CF
:103530000AB1C06B9047FDF77BFEBDE81040FDF778
:103540009FBC00BF80140020AFF30080AFF3008069
:1035500010B5FDF78DFE4FF4C843C4F202030848CE
:103560001968026C3D2401F03D019C600AB1406C79
:103570009047FDF75DFEBDE81040FDF781BC00BF40
:1035800080140020AFF30080AFF30080AFF3008021
:1035900010B5FDF76DFE4FF4C843C4F202030948AD
:1035A0001968826C8C0904F03D014FF474649C60CE
:1035B0000AB1C06C9047FDF73BFEBDE81040FDF737
:1035C0005FBC00BF80140020AFF30080AFF3008029
:1035D00010B5FDF74DFE4FF4C843C4F2020309488D
:1035E0001968026D0C0C04F03D014FF474149C60DA
:1035F0000AB1406D9047FDF71BFEBDE81040FDF796
:103600003FBC00BF80140020AFF30080AFF3008008
:1036100010B5FDF72DFE4FF4C843C4F2020309486C
:103620001968826D8C0D04F03D014FF074649C604C
:103630000AB1C06D9047FDF7FBFDBDE81040FDF7F6
:103640001FBC00BF80140020AFF30080AFF30080E8
:1036500010B5FDF70DFE4FF4C843C4F2020308484D
:103660005968026E3D2401F03D01DC600AB1406EF4
:103670009047FDF7DDFDBDE81040FDF701BC00BF40
:1036800080140020AFF30080AFF30080AFF3008020
:1036900010B5FDF7EDFD4FF4C843C4F2020309482D
:1036A0005968826E8C0904F03D014FF47464DC604B
:1036B0000AB1C06E9047FDF7BBFDBDE81040FDF7B5
:1036C000DFBB00BF80140020AFF30080AFF30080A9
:1036D00010B5FDF7CDFD4FF4C843C4F2020309480D
:1036E0005968026F0C0C04F03D014FF47414DC6057
:1036F0000AB1406F9047FDF79BFDBDE81040FDF714
:10370000BFBB00BF80140020AFF30080AFF3008088
:1037100010B5FDF7ADFD4FF4C843C4F202030948EC
:103720005968826F8C0D04F03D014FF07464DC60C9
:103730000AB1C06F9047FDF77BFDBDE81040FDF773
:103740009FBB00BF80140020AFF30080AFF3008068
:103750002DE9F00F41F200558AB0C2F2000546F2A1
:1037600040400295783046F21045C4F20205A0F5BB
:1037700080600495C4F2020046F240450390C4F212
:10378000020546F228400695C4F2020046F2704552
:103790000590C4F2020546F258400195C4F20200B9
:1037A00046F2B8450790C4F2020546F288400995F2
:1037B000C4F20200029D089046F2100B002041F274
:1037C000804346F2280A46F2400946F2580846F27B
:1037D000700C46F2880746F2A006C2F20003286089
:1037E000C4F2020B039DCBF80000C4F2020AC4F23B
:1037F0000209C4F20208C4F2020CC4F20207C4F2C5
:1038000002061860CAF800009860C9F80000186144
:10381000C8F800009861CCF800001862386098621F
:10382000306018632860049D98632860059D1864C3
:103830002860069D98642860079D186546F210442C
:1038400028606034019D986530342860C4F2020419
:10385000089D18664FF4C0414FF4C8422860C4F276
:1038600002019866C4F202022060099C18674FF0BA
:10387000FF35206098678D60CD609560D5600AB097
:10388000BDE8F00F704700BFAFF30080AFF30080DA
:103890002DE9F041064684B0002848D0294F747ABB
:1038A0003868012505FA04FC1CEA000F3BD1264DBF
:1038B0004CEA000005EBC40810F0FF0F45F8342077
:1038C000C8F80430386007D04FF46053C4F20203E4
:1038D0001C6B44F400171F6310F47F4F1AD1346837
:1038E000276827F01F052560206810F00105FBD12F
:1038F000307A73683D2707FA00F0186021232560AD
:10390000636192B1B07A0901FDF73AFB284604B031
:10391000BDE8F0814FF46055C4F20205286B40F415
:1039200080032B63DBE72846F1E71046EFE7074803
:10393000039102920193FDF73BFC019B029A0399CC
:10394000ACE700BF0015002080140020B0ED020895
:1039500038B5044668B3194D627A2B68012101FA23
:1039600002F0184221D0A07AFDF732FB637A2A6870
:10397000012101FA03F022EA000313F0FF0F2B608C
:1039800007D14FF46052C4F20202116B21F400100F
:10399000106313F47F4F07D14FF46053C4F2020356
:1039A0001A6B22F48001196338BD0548FDF700FC4D
:1039B000D9E70448FDF7FCFBCDE700BF0015002068
:1039C000E0ED0208C8ED0208AFF30080AFF300801D
:1039D0004FF46053C4F2020370B400224FF0FF347E
:1039E00019691C611A6159695C615A611E6A4EF25B
:1039F000100166F080561E62CEF200011A6249F292
:103A00003F054EF6F0505E6A5C62CEF2000007247D
:103A1000C0F202055A624D608A600C60C4684FF4BF
:103A20008051CEF2000144F08074C460086840F018
:103A300001000860186C4FF4E041C4F2000140F04E
:103A400080501864086840F480700860196F01F4B1
:103A50004070B0F5807F03D04FF4803119671A674A
:103A60004FF46053C4F202031A6F120407D4186FA4
:103A700040F4807119671A6F42F4004018674FF4E0
:103A80006053C4F202034FF4E042196BC4F2000227
:103A900041F480201863536843F40071516050680A
:103AA0000307FCD570BCFFF753BE00BFAFF3008027
:103AB0004FF46052C4F202024FF4E043C4F2000338
:103AC0004FF0805111644FF4804218461A604368E9
:103AD0005B04FCD54FF46050C4F20200014602685A
:103AE00042F00103036008684FF460538007C4F29A
:103AF0000203F8D5196841F480321A60184601684B
:103B00004FF460538A03C4F20203F8D55A6F42F0AF
:103B100001005867596F4FF460528807C4F20202DF
:103B2000F8D5136FD9070FD44FF4E040C4F200006A
:103B3000016841F480730360116F41F00103136762
:103B4000026822F4807101604FF46050C4F20200F8
:103B5000026F4FF460539207C4F20203F8D545F2A6
:103B60001A41C0F240715960186840F080721A60C2
:103B7000194608684FF460538001C4F20203F8D577
:103B800098684FF414424FF47051C3F60802C4F21F
:103B90000201104340F2057298600A60996841F092
:103BA00002009860996801F00C004FF460520828F8
:103BB000C4F20202F6D1536C43F480415164506E5A
:103BC00040F4804353667047AFF30080AFF300804A
:103BD000F8B541F20456C2F20006304641F23855BB
:103BE000FEF716FDC2F200051A4F4FF4005242F6DE
:103BF0001643C4F20102C0F20203284641F26C549B
:103C0000C2F20004B262F7623363FEF701FD4FF4C3
:103C1000045242F61643A7F11801C4F20102C0F2A1
:103C200002232046AA62E9622B63FEF7F1FC4FF4FF
:103C3000085242F61643C4F20102243FC0F2024386
:103C400012205021A262E7622363BDE8F840FDF72D
:103C500097B900BF90EE0208AFF30080AFF3008089
:103C600038B50378012B044600D038BD354DA84245
:103C700016D0354DA8422BD0344DA8423FD04FF43A
:103C80000C52C4F20102A36A516801F4400040F4EE
:103C90008030506000210122596099609A6038BDDF
:103CA000C06A2B4A05212346FFF7F2FD00283DD1CB
:103CB000EB6A42F24C0219684FF46050C4F2020001
:103CC000C4F201028A60436C43F480724264D6E716
:103CD000C06A1F4A05212346FFF7DAFD50BBE96A97
:103CE00042F24C100A684FF46053C4F20203C4F26B
:103CF00001009060596C41F400705864BFE7C06ADD
:103D0000134A05212346FFF7C3FDB8B9E86A42F21A
:103D10004C2201684FF46053C4F20203C4F2010262
:103D20008A60586C40F480625A64A8E70948FDF73D
:103D30003FFABDE70848FDF73BFAD0E70748FDF733
:103D400037FAE3E704150020381500206C15002031
:103D5000813E0208C0EE0208D4EE0208E8EE020836
:103D60000378022B10B5044600D010BDC06AFFF7DF
:103D7000EFFD1449A06A00228C424260826017D095
:103D8000114B9C420BD011488442EED14FF460514C
:103D9000C4F202014A6C22F480634B64E5E74FF4FD
:103DA0006050C4F20200416C21F40072426410BD04
:103DB0004FF46053C4F20203586C20F480715964CC
:103DC00010BD00BF04150020381500206C15002020
:103DD0000369026B19782DE9F00309B142F480728E
:103DE000C468C56A5E8829688768D3F80CC0CF604C
:103DF000012C88BF42F0080204FB06F44C600A6004
:103E0000D1F80090D3F814809F69DE691D6A5C6A5E
:103E10001B69826A49F00109C1F800904CF080608A
:103E2000002113F0804F43F4407340F4807014BFBE
:103E300043F0030343F001031160C2F80C801761E3
:103E4000D6621563546350609360BDE8F003704719
:103E5000C16A0A68136810B423F01F041460136861
:103E600013F00103FBD10C7A826A49683D2000FA05
:103E700004F00860536093600123936010BC7047A6
:103E800011F00C0F38B50D46044620D10369002B04
:103E900041D0CA0605D55B681BB1C268816852086B
:103EA0009847AB0637D520690178002938D0456896
:103EB000002D30D0E268012A2ED94088A36852082C
:103EC00000FB02F103EB41012046A84738BDFFF794
:103ED000BFFF2569AB684BB1052220460021227047
:103EE00098472078052801D10221217000252561FD
:103EF000202383F31188FDF7F3F9636933B14FF0A1
:103F0000FF32656118469A62FDF7CAFAFDF7D0F9EB
:103F1000002383F3118838BD2046A168A84738BD27
:103F20002046FFF795FF21694B6843B3E268042000
:103F3000012A20701FD94D88A168520805FB02F59F
:103F4000204601EB450198472378042B0ED020230F
:103F500083F31188FDF7C4F961690029D6D00023E5
:103F6000636108468B62FDF79BFACFE702220020CF
:103F700022702061EBE72046A1689847E4E702221F
:103F800022702361E3E700BFAFF30080AFF300804E
:103F900038B5FDF76DF94FF40053C4F20103002169
:103FA0001A681960930605D5524CE06A03685A688E
:103FB000002A6ED14FF40450C4F2010000210368BE
:103FC0000160980605D54C4CE26A10684368002BE6
:103FD00038D14FF40850C4F2010000210368016099
:103FE000990629D5454CE26A1068436823B32169D4
:103FF00011B32046FFF72CFF2569AB683BB10522C2
:1040000020460121227098472078052868D0002595
:104010002561202383F31188FDF762F9606930B1CF
:104020004FF0FF33354A83625561FDF739FAFDF7EA
:104030003FF9002383F31188FDF7FAF8BDE8384013
:10404000FCF71EBF21690029C3D02046FFF700FFFF
:104050002569AB683BB105222046012122709847B3
:104060002078052842D000252561202383F311887C
:10407000FDF736F9606930B14FF0FF331E4A8362B5
:104080005561FDF70DFAFDF713F9002383F311884D
:104090009FE7216900298DD02046FFF7D9FE2569C9
:1040A000AB683BB10520207001212046984722785B
:1040B000052A18D000252561202383F31188FDF7F8
:1040C0000FF9606930B14FF0FF330A4A83625561DE
:1040D000FDF7E6F9FDF7ECF8002383F3118869E7B3
:1040E0000221217093E702212170E3E70221217070
:1040F000B9E700BF04150020381500206C1500201A
:104100004FF40C53C4F201035A6842F400005860A3
:10411000704700BFAFF30080AFF30080AFF30080C3
:104120004FF40C53C4F201035A6842F48000586003
:10413000704700BFAFF30080AFF30080AFF30080A3
:1041400010B5FDF795F841F2A050C2F200004FF40F
:1041500070534268C4F20103012400215C6153687A
:104160009847FDF765F8BDE81040FCF789BE00BF31
:1041700010B5FDF77DF841F2A050C2F200004FF4F7
:1041800070534268C4F20103022401215C61D368C8
:104190009847FDF74DF8BDE81040FCF771BE00BF31
:1041A00010B5FDF765F841F2A050C2F200004FF4DF
:1041B00070534268C4F20103042402215C61536914
:1041C0009847FDF735F8BDE81040FCF759BE00BF31
:1041D00010B5FDF74DF841F2A050C2F200004FF4C7
:1041E00070534268C4F20103082403215C61D3695F
:1041F0009847FDF71DF8BDE81040FCF741BE00BF31
:1042000010B5FDF735F841F2A050C2F200004FF4AE
:1042100070534268C4F20103102404215C61536AA4
:104220009847FDF705F8BDE81040FCF729BE00BF30
:1042300010B5FDF71DF84FF47053C4F201035C692B
:1042400004F478725A61A30624D460061CD42106B3
:1042500014D4E2050CD4A30504D511484168CB6CF5
:1042600009219847FCF7E4FFBDE81040FCF708BEC1
:104270000B48436808215A6C9047ECE708484168AE
:10428000CA6B07219047E4E7054842680621536B53
:104290009847DCE702484168CB6A05219847D4E794
:1042A000A0150020AFF30080AFF30080AFF30080D3
:1042B00010B5FCF7DDFF4FF47053C4F201035C69E5
:1042C00004F47C4261055A612CD4220524D4E30411
:1042D0001CD4A00414D461040CD4220404D51448C2
:1042E00042680F21D36F9847FCF7A2FFBDE810404A
:1042F000FCF7C6BD0E4841684B6F0E219847ECE7AE
:104300000B4843680D21DA6E9047E4E7084841689E
:104310004A6E0C219047DCE7054842680B21D36DBB
:104320009847D4E7024841684B6D0A219847CCE78B
:10433000A0150020AFF30080AFF30080AFF3008042
:1043400010B5FCF795FF41F2A050C2F200004FF407
:1043500070534268C4F201034FF4803410215C6151
:10436000D2F884309847FCF763FFBDE81040FCF7B3
:1043700087BD00BFAFF30080AFF30080AFF30080D4
:1043800010B5FCF775FF41F2A050C2F200004FF4E7
:1043900070534268C4F201034FF4003411215C6190
:1043A000D2F88C309847FCF743FFBDE81040FCF78B
:1043B00067BD00BFAFF30080AFF30080AFF30080B4
:1043C00010B5FCF755FF41F2A050C2F200004FF4C7
:1043D00070534268C4F201034FF4802412215C61DF
:1043E000D2F894309847FCF723FFBDE81040FCF763
:1043F00047BD00BFAFF30080AFF30080AFF3008094
:1044000010B5FCF735FF41F2A050C2F200004FF4A6
:1044100070534268C4F201034FF4002413215C611D
:10442000D2F89C309847FCF703FFBDE81040FCF73A
:1044300027BD00BFAFF30080AFF30080AFF3008073
:1044400010B5FCF715FF41F2A050C2F200004FF486
:1044500070534268C4F201034FF4801414215C616C
:10446000D2F8A4309847FCF7E3FEBDE81040FCF713
:1044700007BD00BFAFF30080AFF30080AFF3008053
:1044800010B5FCF7F5FE41F2A050C2F200004FF467
:1044900070534268C4F201034FF4800416215C613A
:1044A000D2F8B4309847FCF7C3FEBDE81040FCF7E3
:1044B000E7BC00BFAFF30080AFF30080AFF3008034
:1044C00008B506206021FCF75BFD07206021FCF7A2
:1044D00057FD08206021FCF753FD09206021FCF7FF
:1044E0004FFD0A206021FCF74BFD17206021FCF7EF
:1044F00047FD28206021FCF743FD01206021FCF7E7
:104500003FFD2920F021FCF73BFD2A206021FCF72C
:1045100037FD60213E20FCF733FD4C206021FCF785
:104520002FFD0220F021FCF72BFD0320F021BDE838
:104530000840FCF725BD00BFAFF30080AFF300805B
:1045400008B50620FCF744FD0720FCF741FD0820D4
:10455000FCF73EFD0920FCF73BFD0A20FCF738FD87
:104560001720FCF735FD2820FCF732FD0120FCF771
:104570002FFD2920FCF72CFD2A20FCF729FD3E20E9
:10458000FCF726FD4C20FCF723FD0220FCF720FD64
:104590000320BDE80840FCF71BBD00BFAFF300805F
:1045A00041F2A050C2F20000FEF7FAB8AFF300806B
:1045B00008B50378022B0AD04FF47050C4F2010002
:1045C00000224FF0FF3142600260416108BDFFF7F9
:1045D000B7FFF1E7AFF30080AFF30080AFF30080E7
:1045E000426852F83130D80770B441D54FF4705456
:1045F000C4F201040120A56800FA01F00543A5609A
:10460000C44313F0020F4FF47053C4F20103DD688A
:1046100014BF05432540DD6002EBC1035D68002D3A
:1046200032D04FF47053C4F201031D682843186060
:10463000586804405C600F2918D88C084FF4605308
:10464000A01CC4F2010352F8314053F8205001F08D
:10465000030189000F2202FA01F2C4F3031425EAD0
:10466000020204FA01F10A4343F8202070BC7047AB
:104670004FF47055C4F201050120AE6800FA01F054
:10468000C4432640AE60BCE74FF47053C4F201034C
:104690005D6828435860186804401C60CBE700BF81
:1046A0004FF47053C4F201030122186802FA01F1B9
:1046B000CA4310401860586810405860986810400D
:1046C0009860D8680240DA6059617047AFF30080A3
:1046D00038B50378012B054635D06868016811F0BC
:1046E00004012CD028460021FFF77AFF01240EE0B8
:1046F000FFF776FF0134686850F834104B0716D581
:10470000214628460134FFF76BFF172C16D06A6844
:1047100052F8343013F0040F28462146E8D1FFF751
:10472000BFFF0134686850F834104B07E8D42146C5
:1047300028460134FFF7B4FF172CE8D138BD2846CE
:10474000FFF7AEFFD2E7FFF7BBFEC6E7AFF300808F
:1047500008B5FCF78DFD0B4B1878DA6800210428AA
:10476000118204D1022018701180118291815B683E
:1047700004485A689047FCF75BFDBDE80840FCF729
:104780007FBB00BFA8150020AFF30080AFF300800F
:1047900041F2A853C2F200034FF40052C4F20002E7
:1047A0001846DA60FEF75CB8AFF30080AFF3008024
:1047B00038B50378012B044615D06568A0682B68CE
:1047C000B0FBF3F2511E8DB205FB0333984202D0C9
:1047D0001248FCF7EDFCE06800220821028081808D
:1047E0000585828138BD0E488442E6D14FF4605180
:1047F000C4F202010A6C42F480750D640B6A002257
:1048000043F4807008620A622D207021FCF7B8FB27
:104810004FF43D41C0F20151A160CEE700EF020824
:10482000A8150020AFF30080AFF30080AFF3008045
:1048300008B50378022B00D008BD0A4BC1680022DE
:1048400098420A808A810A82F6D12D20FCF7C0FBAB
:104850004FF46050C4F20200016C21F480720264D3
:10486000EAE700BFA8150020AFF30080AFF3008097
:10487000C368012200200139D9629A8258621882E5
:104880009A8105221A807047AFF30080AFF3008051
:10489000C2680139D162012300200D219382108268
:1048A0001180138ADB07FCD5704700BFAFF300808F
:1048B00038B5224CE3686268188A9D89117DADB2D3
:1048C0000540E84380B2188205F0020398B299B916
:1048D00038B1207804230328237002D0D268204600
:1048E000904705F0040188B208BBEB0703D5636865
:1048F00012481969884738BD70B905F0040398B2A9
:104900000028F2D021780D48042203292270ECD02F
:104910004368D9688847E8E70521204621709268F6
:10492000904705F0040398B20028DED0EAE76368F8
:1049300002489968052222708847D6E7B8150020FA
:1049400008B5FCF795FCFFF7B3FFFCF771FCBDE879
:104950000840FCF795BA00BFAFF30080AFF30080CA
:1049600008B5FCF785FCFFF7A3FFFCF761FCBDE889
:104970000840FCF785BA00BFAFF30080AFF30080BA
:1049800010B541F2B854C2F200042046FEF700F818
:104990000023C4F20103E36010BD00BFAFF3008049
:1049A00001F001038A0748BF43F002034A0748BFEA
:1049B00043F008030A0748BF43F00403CA0648BF90
:1049C00043F010038A0648BF43F020038A05426B78
:1049D00048BF43F0400342EA03014163704700BF10
:1049E00038B5FCF745FC202383F311880C4CFCF709
:1049F00077FC4FF43053C4F20103E06B0025DD6314
:104A000010B1FCF74DFDE563FCF752FC002383F386
:104A10001188FCF70DFCBDE83840FCF731BA00BF47
:104A2000D0150020AFF30080AFF30080AFF300801B
:104A300010B541F2D054C2F200042046FEF798FAB5
:104A40004FF430530348C4F201030022E263606470
:104A5000A36410BD84EE0208AFF30080AFF30080C2
:104A6000027945F22043C0F6A303012A10B504469B
:104A7000036409D04FF43050C4F2010000220260F8
:104A80004260C262426210BD0022406C092113469E
:104A9000FEF7FEFEA8B9606C4FF432510368C4F211
:104AA00001010722996031205A619021FCF768FAD0
:104AB0004FF46050C4F20200416C41F4006343645F
:104AC000D8E70248FCF774FBE5E700BF20EF0208D7
:104AD0000379012B10B5044616D04FF43051C4F2BF
:104AE000010100220A6031204A60CA624A62FCF772
:104AF0006FFA606CFEF72CFF4FF46050C4F20200B6
:104B0000436C23F40061416410BD00BFAFF300802B
:104B10004FF43053C4F2010378225A60186840F011
:104B2000030119605A6842F480705860704700BFF2
:104B30004FF43053C4F201035A6822F0FF0058606A
:104B4000704700BFAFF30080AFF30080AFF3008089
:104B50004FF43053C4F2010300225A601A607047C8
:104B60004FF43053C4F2010301295A6822F4C050B3
:104B700007D001D2586070470229FCD140F4805020
:104B8000F8E740F400615960704700BFAFF3008060
:104B90004FF43053C4F2010341F480619A60184627
:104BA000D960426B4FF430531106C4F20103F8D5BB
:104BB00080219963704700BFAFF30080AFF300809E
:104BC00010B54FF43054C4F2010441F48861A2607E
:104BD000E160616B4FF4305211F0450FC4F20102F5
:104BE000F7D011F00404916303D151692046196094
:104BF00010BDFFF7D5FE012010BD00BFAFF3008050
:104C000010B54FF43054C4F2010441F48861A2603D
:104C1000E160616B4FF4305211F0450FC4F20102B4
:104C2000F7D011F00504916303D151692046196052
:104C300010BDFFF7B5FE012010BD00BFAFF300802F
:104C40002DE9F041202306460F46904683F3118854
:104C5000FCF776FB4FF43053C4F20103D86B78B104
:104C6000F16B11B12248FCF7A3FA224A94690220A1
:104C7000F463FCF76DFCF36B13B11F48FCF798FA73
:104C80004FF43050C4F20100416B11F4807427D00E
:104C9000726C15682C6814F00104FBD1117A52680B
:104CA0004FF43050C4F201003D2540F2FF7305FA85
:104CB00001F1C0F2C00311608363C462FCF728FBFA
:104CC000234683F31188012F07D930460C21224651
:104CD0004346BDE8F041FFF793BF2046BDE8F081B1
:104CE000FCF716FB234683F311880120BDE8F08111
:104CF00034EF02083C1400205CEF0208AFF30080A0
:104D00002DE9F047466C4FF43053347A3568C4F2DD
:104D1000010307464FF03D0E7068D3F834C00EFA19
:104D200004F404602B6823F01F04894690462C602D
:104D3000296811F00104FBD1327A4FF43055C4F2E6
:104D400001053D2140F2FF7301FA02F2C0F2C003F7
:104D500002606146AB633846EC63EC62FFF720FE0D
:104D6000B9F1010F07D938460C2122464346BDE868
:104D7000F047FFF745BFBDE8F08700BFAFF3008005
:104D800010B54FF43054C4F2010441F49861A260AC
:104D9000E160616B4FF4305211F0450FC4F2010233
:104DA000F7D011F03F04916309D1106A1860D169FE
:104DB00059609069986052692046DA6010BDFFF72B
:104DC000EFFD012010BD00BFAFF30080AFF3008006
:104DD0002DE9F041B3F5004F82B01E4605460F465F
:104DE00090464FD24FF43054C4F201044DF2C04308
:104DF000C0F2010363622846FEF74AF818B10120A9
:104E000002B0BDE8F081686C296C036872029008FA
:104E1000C3F80C8058601960186840F2FF7140F0C8
:104E200001001860C0F2C00140F22A33A163E363BD
:104E3000A2622C6BE00658BF7F02012E01AC28460F
:104E400024D912213A462346FFF7DAFE98B94EF2EA
:104E50000801019ACFF6FF51114061B94FF430506B
:104E6000C4F201009B23C362314628462246FFF765
:104E7000E7FE0028C4D0284631462246FFF740FF0F
:104E80000120BDE70548FCF793F9ABE711213A464D
:104E90002346FFF7B5FE0028D9D0ECE784EF0208DF
:104EA0002DE9F041B3F5004F82B01E4605460F468E
:104EB000904651D24FF43054C4F2010448F6805366
:104EC000C0F25B0363622846FDF7E2FF18B10120E0
:104ED00002B0BDE8F081686C296C0368720290082A
:104EE00041F04001C3F80C8058601960186840F226
:104EF000FF7140F001001860C0F2C00140F21A33A7
:104F0000A163E363A2622C6BE40658BF7F02012E0B
:104F100001AC284624D919213A462346FFF770FEF2
:104F200098B94EF20801019ACFF6FF51114061B9CC
:104F30004FF43050C4F201009923C3623146284631
:104F40002246FFF77DFE0028C2D028463146224681
:104F5000FFF7D6FE0120BBE70548FCF729F9A9E7D2
:104F600018213A462346FFF74BFE0028D9D0ECE73C
:104F700084EF0208AFF30080AFF30080AFF300804E
:104F800012F0030F2DE9F047154680460C461E46E9
:104F900052D0002B4DD003EB0109CE434E440123E8
:104FA000274A1E40FFF714FF00283FD12846244916
:104FB0004FF40072013408F0B3FE4C4505F500755E
:104FC00037D02EB3404621461D4A0123FFF700FF8C
:104FD00060BB28461A494FF40072013408F0A0FE65
:104FE0004C4505F5007513D123E0284608F098FEDE
:104FF0003146134A01234046FFF7EAFE4FF40072A0
:105000000F49BD1890B9384608F08AFE4C4510D0BB
:10501000214601230A4A661C4046F418FFF7D8FED1
:105020004FF400720649AF180028DED00120BDE819
:10503000F0870020BDE8F087BDE8F047FFF7C8BE65
:105040001C160020AFF30080AFF30080AFF30080A8
:1050500012F0030F2DE9F041154607460C461E4697
:1050600057D0002B52D003EB01082C48CB431146FC
:105070004FF4007203EB080608F052FE3846214652
:10508000264A012306F0010605F50075FFF708FF23
:10509000002838D10134444538D0F6B129464FF4C0
:1050A00000721E4808F03CFE384621461B4A012388
:1050B00005F50075FFF7F4FE28BB013444450CD11B
:1050C00024E0164808F02CFE38463146134A0123E6
:1050D000FFF7E6FEB8B9444518D029464FF40072F0
:1050E0000E4808F01DFE661C214601230B4A384677
:1050F000F418FFF7D5FE05F500754FF40072294648
:10510000AD180028DDD00120BDE8F0810020BDE809
:10511000F081BDE8F041FFF7C3BE00BF1C160020C0
:1051200000207047AFF30080AFF30080AFF3008042
:105130004FF46053C4F202031A6B6FEA52216FEA14
:1051400041221A63196D6FEA51226FEA42211965F3
:1051500000234168C4F202034FF480625960816801
:105160009960C168D96001695961416919628169B1
:10517000596201681960016AC4F202024FF40063C7
:105180005160416A9160816AD160C16A5161016B6D
:105190001162416B5162C1691160C4F20203C26BBA
:1051A0005A60016C9960426CDA60816C5961C26C22
:1051B0001A62016D5962816B4FF440621960816D12
:1051C000C4F202024FF480535160C16D9160016ED0
:1051D000D160416E5161816E1162C16E5162416D4B
:1051E0001160C4F20203426F5A60816F9960C26F0E
:1051F000DA60D0F880105961D0F884201A62D0F8B3
:1052000088105962016F4FF4A0521960D0F89010C5
:10521000C4F202024FF4C0535160D0F89410916070
:10522000D0F89810D160D0F89C105161D0F8A0103F
:105230001162D0F8A4105162D0F88C101160D0F82F
:10524000AC10C4F202034FF4E0525960D0F8B01031
:105250009960D0F8B410D960D0F8B8105961D0F87E
:10526000BC101962D0F8C0105962D0F8A810C4F26E
:1052700002021960D0F8C8305360D0F8CC109160A9
:10528000D0F8D030D360D0F8D4105161D0F8D830F5
:105290001362D0F8DC105162D0F8C4104FF4005300
:1052A0001160D0F8E420C4F202035A60D0F8E8108C
:1052B0009960D0F8EC20DA60D0F8F0105961D0F89D
:1052C000F4201A62D0F8F8105962D0F8E0001860A3
:1052D000704700BFAFF30080AFF30080AFF30080F2
:1052E0004FF42053C4F200030F4ACA205321136025
:1052F00058625962DA68D10614D4D86840F0800147
:10530000D9601846C2684FF420535206C4F2000315
:10531000F8D5FF21C0F27F0119611961D86820F02A
:105320008002DA60704700BF1C180020AFF30080D5
:105330000E4B1A68D06840F08003D360D0684006F6
:10534000FCD50B7A63B9906820F0400393604868FD
:10535000096810605160D36823F08000D060704706
:10536000906840F040039360F1E700BF1C180020F4
:1053700070B40D4B1A68D0688406FCD51669956A1E
:105380001369146850684C607204540C5B04621B0F
:105390005B0C4FF47A7404FB02F20133B2FBF3F2BC
:1053A000CA60086070BC70471C180020AFF3008012
:1053B0002DE9F04F202385B0044683F31188FBF7D5
:1053C000BFFF20466946FFF7D3FFFBF7A1FF00238D
:1053D00083F311889DE80C00C3F30230C3F302117C
:1053E000C3F3032600EB8009C3F38057C2F30030F8
:1053F00003F00F0506EB490401EB810AC2F301112A
:105400007E0005EB4A0A02F00F0801EB810B4FEA20
:1054100044194FEA800CF419C3F30151C2F3032776
:10542000C2F3034549EA5A0908EB4B066044C2F34C
:10543000035207EB400C01EB8101A400143549EA4B
:10544000064602EB820204EB410005EB420246EA0B
:105450004C51C3F3034341EA4261C31841EAC320FC
:1054600005B0BDE8F08F00BFAFF30080AFF3008060
:1054700011F00C0F38B504463DD1606A026813681C
:1054800023F01F0111601568E907FCD4057A216A31
:1054900043680A683D2000FA05F01860136823F09D
:1054A0001F0010601368DB07FCD46368087A4A6841
:1054B0001B683D2101FA00F11160CBB1042020707E
:1054C000204698472278042A12D0202383F311889B
:1054D000FBF706FFA16829B10022A26008468A6294
:1054E000FBF7DEFFFBF7E4FE002383F3118838BDF2
:1054F00002232370E9E7012004F04AFEFBF778FC61
:10550000BBE700BFAFF30080AFF30080AFF30080D4
:1055100011F00C0F08B500D108BD012004F038FED1
:10552000BDE80840FBF764BCAFF30080AFF3008038
:10553000F8B541F6200341F62405C2F20005C2F297
:105540000003194E4FF6FF72284641F65404C2F28A
:1055500000041A80FDF764FE4FF4405116224623E2
:10556000C4F20101C0F20162C0F2016306F13C071E
:105570002046E9612E62AA62EB626F62FDF750FE7F
:105580004FF4605116224623A6F13C00C4F20001FC
:10559000303EC0F20102C0F20103E16120626662A6
:1055A000A262E362F8BD00BF60EE0208AFF30080C4
:1055B00038B50378012B044627D0C3696068428957
:1055C000A06A02F4006189B2B9B1E16A20F4F04046
:1055D00021F4F04140F4205041F42051A062E162F6
:1055E00042F441720020072118801A8099801A889D
:1055F00090B240F04001198038BDE16A20F4F040DB
:1056000021F4F041A062E162EAE7274DA8420CD004
:10561000264DA84220D0216A626AE36908681168B1
:1056200003F10C0282608A60C8E7006A204A0A21FE
:105630002346FEF72DF950BB686A1E4A1A4B0A2111
:10564000FEF726F9F8B94FF46053C4F20203586C20
:1056500040F480525A64DEE7006A154A0A21234664
:10566000FEF716F9D8B9686A124A104B0A21FEF7FC
:105670000FF980B94FF46050C4F20200026C42F49A
:1056800080410164C7E70C48FBF792FDDBE70B485C
:10569000FBF78EFDD0E70A48FBF78AFDEAE70948E9
:1056A000FBF786FDDFE700BF241800205418002018
:1056B0007154020811550208B4EF0208A0EF020865
:1056C000DCEF0208C8EF0208AFF30080AFF3008000
:1056D0000378022B10B5044600D010BDC169006AE2
:1056E00000220A808A80FEF733F9606AFEF730F9FB
:1056F0000B4884420BD00B4B9C42EED14FF46051CF
:10570000C4F202010A6C22F480400864E5E74FF419
:105710006053C4F20203596C21F480525A6410BDE4
:105720002418002054180020AFF30080AFF300804D
:1057300043681A895868012101FA02F39AB2428338
:10574000704700BFAFF30080AFF30080AFF300807D
:1057500043681A895868012101FA02F39AB2028358
:10576000704700BFAFF30080AFF30080AFF300805D
:10577000F0B4036A476AC66A1C68806A3B6841F6EF
:105780008405C2F2000546F48066E5606160206031
:10579000DA6059601E60226842F0010121601868D9
:1057A00040F001021A60F0BC704700BFAFF3008008
:1057B00070B4436A046A866A24681B68C06AE2603F
:1057C00041F6200546F48066C2F20005616026605D
:1057D000DD6059601860226842F00101216018689C
:1057E00040F001021A6070BC704700BFAFF3008048
:1057F000C26991811389D807FCD5908980B270471E
:105800004FF48053C4F201039A8990B240F08001B2
:1058100099817047AFF30080AFF30080AFF3008051
:105820004FF48843C4F200039A8990B240F080019B
:1058300099817047AFF30080AFF30080AFF3008031
:105840004FF4A053C4F201039A8990B240F0800152
:1058500099817047AFF30080AFF30080AFF3008011
:105860002DE9F843D0F8D450AF892C88B5F80480DE
:10587000A4B222070646BFB21FFA88F855D104F435
:10588000807399B200293AD104F0200290B230BB63
:1058900007F0800399B221B104F0800290B2002891
:1058A0006CD104F04004A4B2BCB1202383F311886E
:1058B000FBF716FD301D1021FCF72AFBFBF7F8FC67
:1058C000002383F311884FF6BF703840A8812B88DE
:1058D00023F040010A04100C2880BDE8F88320233F
:1058E00083F31188FBF7FCFC30465FFA88F1FDF783
:1058F00067FCFBF7DDFC002383F31188C8E7202356
:1059000083F31188FBF7ECFC301D4FF40071FCF7BA
:10591000FFFAFBF7CDFC002383F311882A8822F4D9
:1059200080700304190C2980AEE704F008091FFAFF
:1059300089F0002814BF4FF080094FF00009E307F9
:1059400004F0020399B248BF49F0200909B149F0B7
:10595000400904F0040290B208B149F48079202390
:1059600083F31188FBF7BCFC301D4946FCF7D0FAE5
:10597000FBF79EFC002383F3118880E7202383F349
:105980001188FBF7ADFC06F13000FCF7C1FC0028E4
:1059900007DB83B2AB80FBF78BFC002383F311881A
:1059A0007FE70821301DFCF7B3FA27F0C00141F072
:1059B0004002AA81EFE700BFAFF30080AFF30080A1
:1059C00008B5FBF755FC41F68800C2F20000FFF76E
:1059D00047FFFBF72DFCBDE80840FBF751BA00BFBD
:1059E00008B5FBF745FC41F66010C2F20000FFF776
:1059F00037FFFBF71DFCBDE80840FBF741BA00BFCD
:105A000008B5FBF735FC41F63820C2F20000FFF77D
:105A100027FFFBF70DFCBDE80840FBF731BA00BFDC
:105A200070B541F68806C2F2000645F6010230461E
:105A30000021C0F6020241F66015FDF741FBC2F2FB
:105A400000054FF4805345F62102C4F201032846B5
:105A50000021C0F6020241F63824C2F20004C6F862
:105A6000D430FDF72DFB4FF4884345F64102C4F2D4
:105A7000000320460021C0F60202C5F8D430FDF72D
:105A80001FFB4FF4A050C4F20100C4F8D40070BD55
:105A900038B5037A364C002918BF0C46012B054651
:105AA0002CD04FF48050D5F8D4302168C4F20100D6
:105AB000834239D04FF4A052C4F20102934233D052
:105AC0004DF68060C0F28020B0FBF1F18AB21A81FD
:105AD000A288E088218942F4045240F0400080B25C
