:020000040800F2
:1000000000040020710B0008A10C000890010008FA
:10001000A10C0008A10C0008A10C0008A10C00080C
:10002000A10C0008A10C0008A10C0008F10C0008AC
:10003000A10C0008A10C0008A10C0008C10C0008CC
:10004000A10C0008014E0008A10C0008014F000897
:10005000A10C0008A10C0008C14A0008014B0008CF
:10006000414B0008814B0008C14B0008B135000826
:100070001136000871360008D13600083137000803
:1000800091370008F1370008A1430008A10C0008CF
:10009000A10C0008A10C0008A10C0008014C0008EC
:1000A000A10C0008B1550008A10C0008D1550008AA
:1000B000A10C0008A10C0008A10C0008A10C00086C
:1000C000A10C0008A10C0008A10C0008A10C00085C
:1000D000A10C0008E16E0008016F0008A10C0008E7
:1000E000F14C0008A10C0008414E0008A10C0008CA
:1000F000A10C000811530008A10C00085138000899
:10010000A10C0008A1590008A10C0008A10C0008CE
:10011000A10C0008A10C0008A10C0008A10C00080B
:10012000B13800081139000871390008D1390008C8
:10013000313A0008A10C0008814E0008A10C00080B
:10014000A10C0008A10C0008A10C0008A10C0008DB
:10015000913A0008F13A0008513B0008216F00086D
:10016000A10C0008A10C0008A10C0008A10C0008BB
:10017000C14E0008A10C0008A10C0008A10C000849
:08018000A10C0008A10C00080D
:100190001EF0040F0CBFEFF30880EFF309800AF0A4
:1001A000E7B90000000000000000000000000000AF
:1001B00081F0004102E000BF83F0004330B54FEA18
:1001C00041044FEA430594EA050F08BF90EA020F85
:1001D0001FBF54EA000C55EA020C7FEA645C7FEA18
:1001E000655C00F0E2804FEA5454D4EB5555B8BF3B
:1001F0006D420CDD2C4480EA020281EA030382EAAC
:10020000000083EA010180EA020281EA0303362D3D
:1002100088BF30BD11F0004F4FEA01314FF4801C10
:100220004CEA113102D0404261EB410113F0004F22
:100230004FEA03334CEA133302D0524263EB4303D9
:1002400094EA050F00F0A780A4F10104D5F1200E77
:100250000DDB02FA0EFC22FA05F2801841F10001D2
:1002600003FA0EF2801843FA05F359410EE0A5F1A6
:1002700020050EF1200E012A03FA0EFC28BF4CF0D7
:10028000020C43FA05F3C01851EBE37101F000458D
:1002900007D54FF0000EDCF1000C7EEB00006EEB9A
:1002A0000101B1F5801F1BD3B1F5001F0CD3490824
:1002B0005FEA30004FEA3C0C04F101044FEA44527B
:1002C00012F5800F80F09A80BCF1004F08BF5FEA02
:1002D000500C50F1000041EB045141EA050130BDE2
:1002E0005FEA4C0C404141EB010111F4801FA4F185
:1002F0000104E9D191F0000F04BF01460020B1FADA
:1003000081F308BF2033A3F10B03B3F120020CDA11
:100310000C3208DD02F1140CC2F10C0201FA0CF0EF
:1003200021FA02F10CE002F11402D8BFC2F1200C54
:1003300001FA02F120FA0CFCDCBF41EA0C0190400A
:10034000E41AA2BF01EB0451294330BD6FEA040453
:100350001F3C1CDA0C340EDC04F11404C4F120023E
:1003600020FA04F001FA02F340EA030021FA04F350
:1003700045EA030130BDC4F10C04C4F1200220FAA7
:1003800002F001FA04F340EA0300294630BD21FAE5
:1003900004F0294630BD94F0000F83F4801306BFAB
:1003A00081F480110134013D4EE77FEA645C18BF9F
:1003B0007FEA655C29D094EA050F08BF90EA020F36
:1003C00005D054EA000C04BF1946104630BD91EA2E
:1003D000030F1EBF0021002030BD5FEA545C05D131
:1003E0004000494128BF41F0004130BD14F5800470
:1003F0003CBF01F5801130BD01F0004545F0FE41E4
:1004000041F470014FF0000030BD7FEA645C1ABF18
:10041000194610467FEA655C1CBF0B46024650EA4F
:10042000013406BF52EA033591EA030F41F400217B
:1004300030BD00BF90F0000F04BF0021704730B501
:100440004FF4806404F132044FF000054FF00001D6
:1004500050E700BF90F0000F04BF0021704730B597
:100460004FF4806404F1320410F0004548BF40426C
:100470004FF000013EE700BF42004FEAE2014FEAC1
:1004800031014FEA02701FBF12F07F4393F07F4F9C
:1004900081F06051704792F0000F14BF93F07F4FCE
:1004A000704730B54FF4607401F0004521F0004111
:1004B00020E700BF50EA010208BF704730B54FF097
:1004C00000050AE050EA010208BF704730B511F09C
:1004D000004502D5404261EB41014FF4806404F1D4
:1004E00032045FEA915C3FF4DCAE4FF003025FEA56
:1004F000DC0C18BF03325FEADC0C18BF033202EBDE
:10050000DC02C2F1200300FA03FC20FA02F001FA37
:1005100003FE40EA0E0021FA02F11444C1E600BFD6
:1005200070B54FF0FF0C4CF4E06C1CEA11541DBF89
:100530001CEA135594EA0C0F95EA0C0F00F0DEF854
:100540002C4481EA030621EA4C5123EA4C5350EA39
:10055000013518BF52EA033541F4801143F480138A
:1005600038D0A0FB02CE4FF00005E1FB02E506F01B
:100570000042E0FB03E54FF00006E1FB03569CF070
:10058000000F18BF4EF0010EA4F1FF04B6F5007F76
:1005900064F5407404D25FEA4E0E6D4146EB0606E8
:1005A00042EAC62141EA55514FEAC52040EA5E5071
:1005B0004FEACE2EB4F1FD0C88BFBCF5E06F1ED81B
:1005C000BEF1004F08BF5FEA500E50F1000041EB52
:1005D000045170BD06F0004646EA010140EA0200FF
:1005E00081EA0301B4EB5C04C2BFD4EB0C0541EA21
:1005F000045170BD41F480114FF0000E013C00F336
:10060000AB8014F1360FDEBF002001F0004170BD59
:10061000C4F10004203C35DA0C341BDC04F1140472
:10062000C4F1200500FA05F320FA04F001FA05F2FE
:1006300040EA020001F0004221F0004110EBD370CB
:1006400021FA04F642EB06015EEA430E08BF20EAF7
:10065000D37070BDC4F10C04C4F1200500FA04F39A
:1006600020FA05F001FA04F240EA020001F000412C
:1006700010EBD37041F100015EEA430E08BF20EA9F
:10068000D37070BDC4F1200500FA05F24EEA020EE7
:1006900020FA04F301FA05F243EA020321FA04F016
:1006A00001F0004121FA04F220EA020000EBD370CD
:1006B0005EEA430E08BF20EAD37070BD94F0000FCD
:1006C0000FD101F00046400041EB010111F4801F01
:1006D00008BF013CF7D041EA060195F0000F18BFB2
:1006E000704703F00046520043EB030313F4801FEE
:1006F00008BF013DF7D043EA0603704794EA0C0FA8
:100700000CEA135518BF95EA0C0F0CD050EA4106BD
:1007100018BF52EA4306D1D181EA030101F000413A
:100720004FF0000070BD50EA410606BF1046194662
:1007300052EA430619D094EA0C0F02D150EA01366E
:1007400013D195EA0C0F05D152EA03361CBF1046AF
:1007500019460AD181EA030101F0004141F0FE414E
:1007600041F470014FF0000070BD41F0FE4141F4D2
:10077000780170BD70B54FF0FF0C4CF4E06C1CEAD2
:1007800011541DBF1CEA135594EA0C0F95EA0C0F87
:1007900000F0A7F8A4EB050481EA030E52EA033542
:1007A0004FEA013100F088804FEA03334FF0805563
:1007B00045EA131343EA12634FEA022245EA111590
:1007C00045EA10654FEA00260EF000419D4208BF41
:1007D000964244F1FD0404F5407402D25B084FEAEE
:1007E0003202B61A65EB03055B084FEA32024FF49A
:1007F00080104FF4002CB6EB020E75EB030E22BFF7
:10080000B61A754640EA0C005B084FEA3202B6EBB6
:10081000020E75EB030E22BFB61A754640EA5C0065
:100820005B084FEA3202B6EB020E75EB030E22BFF5
:10083000B61A754640EA9C005B084FEA3202B6EBF6
:10084000020E75EB030E22BFB61A754640EADC00B5
:1008500055EA060E18D04FEA051545EA16754FEA17
:1008600006164FEAC30343EA52734FEAC2025FEA35
:100870001C1CC0D111F4801F0BD141EA00014FF0C4
:1008800000004FF0004CB6E711F4801F04BF014395
:100890000020B4F1FD0C88BFBCF5E06F3FF6AFAEB1
:1008A000B5EB030C04BFB6EB020C5FEA500C50F141
:1008B000000041EB045170BD0EF0004E4EEA1131C4
:1008C00014EB5C04C2BFD4EB0C0541EA045170BDCB
:1008D00041F480114FF0000E013C90E645EA060E0F
:1008E0008DE60CEA135594EA0C0F08BF95EA0C0F3D
:1008F0003FF43BAF94EA0C0F0AD150EA01347FF485
:1009000034AF95EA0C0F7FF425AF104619462CE75B
:1009100095EA0C0F06D152EA03353FF4FDAE1046BE
:10092000194622E750EA410618BF52EA43067FF40F
:10093000C5AE50EA41047FF40DAF52EA43057FF49F
:10094000EBAE12E700000000000000000000000015
:100950004FF0FF3C06E000BF4FF0010C02E000BF8B
:100960004FF0010C4DF804CD4FEA410C7FEA6C5C6E
:100970004FEA430C18BF7FEA6C5C1BD001B050EA11
:10098000410C0CBF52EA430C91EA030F02BF90EAFC
:10099000020F0020704710F1000F91EA030F58BFBB
:1009A000994208BF90422CBFD8176FEAE37040F01D
:1009B000010070474FEA410C7FEA6C5C02D150EABB
:1009C000013C07D14FEA430C7FEA6C5CD6D152EA76
:1009D000033CD3D05DF8040B704700BF844610463B
:1009E00062468C461946634600E000BF01B5FFF73A
:1009F000B7FF002848BF10F1000F01BD4DF808ED0A
:100A0000FFF7F4FF0CBF012000205DF808FB00BFDA
:100A10004DF808EDFFF7EAFF34BF012000205DF834
:100A200008FB00BF4DF808EDFFF7E0FF94BF012081
:100A300000205DF808FB00BF4DF808EDFFF7CEFF82
:100A400094BF012000205DF808FB00BF4DF808EDC1
:100A5000FFF7C4FF34BF012000205DF808FB00BF92
:100A60004FEA410212F5001215D211D56FF47873D6
:100A7000B3EB625212D94FEAC12343F0004343EA79
:100A8000505311F0004F23FA02F018BF4042704754
:100A90004FF00000704750EA013005D111F00040DE
:100AA00008BF6FF0004070474FF00000704700BF74
:100AB0004FEA4102B2F1E04324BFB3F5001CDCF180
:100AC000FE5C0DD901F0004C4FEAC0024CEA5070B8
:100AD000B2F1004F40EB830008BF20F001007047E7
:100AE00011F0804F21D113F13872BCBF01F00040EA
:100AF000704741F480114FEA5252C2F11802C2F11C
:100B0000200C10FA0CF320FA02F018BF40F001009C
:100B10004FEAC1234FEAD32303FA0CFC40EA0C004E
:100B200023FA02F34FEA4303CCE77FEA625307D18B
:100B300050EA01331EBF4FF0FE4040F440007047C2
:100B400001F0004040F0FE4040F40000704700BF5C
:100B5000704700BFAFF30080AFF30080AFF30080B9
:100B6000FEE700BFAFF30080AFF30080AFF300807B
:100B700072B640F60004C2F2000484F309884EF60F
:100B80003473CEF200034FF040421A604EF68853A1
:100B9000CEF200034EF68852CEF20002126842F402
:100BA00070021A604FF00004E1EE104A4EF63C73FA
:100BB000CEF200031C604FF0060484F31488BFF3E8
:100BC0006F8F40F20004C2F2000440F20045C2F20E
:100BD000000504E04FF05533236004F10404AC42F7
:100BE000F8D340F20044C2F2000440F60005C2F21D
:100BF000000504E04FF05533236004F10404AC42D7
:100C0000F8D306F04DFA42F23835C0F6010540F649
:100C10000004C2F2000405E02B68236004F1040420
:100C200005F1040540F65443C2F200039C42F3D39D
:100C300040F65844C2F2000445F6C865C2F2000509
:100C400004E04FF00003236004F10404AC42F8D345
:100C5000FFF77EFF40F28814C0F6000403E023682B
:100C6000984704F1040440F28813C0F600039C4244
:100C7000F5D30BF0D5FD40F28814C0F6000403E074
:100C80002368984704F1040440F28813C0F6000377
:100C90009C42F5D3FFF764FFAFF30080AFF3008011
:100CA000FEE700BFAFF30080AFF30080AFF300803A
:100CB00072B6FEE7AFF30080AFF30080AFF30080C1
:100CC00008B500F005FB4FF0200383F3118800F016
:100CD000BFFA00F0EDF900F0DBFA4FF0000383F308
:100CE000118800F025FB00F053F808BDAFF3008039
:100CF00010B483B0EFF309840194019B03F16803FE
:100D000001934EF63073CEF20003019A526E5A6090
:100D10004EF63073CEF200034EF63072CEF2000281
:100D2000926802F168029A60019B83F309884FF090
:100D3000000383F3118803B010BC7047AFF3008049
:100D400008B54FF46D43CEF200034FF000029A60F5
:100D50004FF46D43CEF200034FF44072C0F2FA52EA
:100D6000DA604FF007004FF0100100F009F94FF082
:100D70000A004FF4007100F003F94FF00B004FF040
:100D8000800100F0FDF808BDAFF30080AFF30080F4
:100D900010B483B04FF0200383F311884FF46D43F8
:100DA000CEF200035B6803F40063002B5ED0EFF328
:100DB00009840194019BA3F168030193019B83F3D0
:100DC0000988019B4FF08072DA6141F22023C2F260
:100DD00000039B6993F82330002B11D041F22023AC
:100DE000C2F200031B689A6841F22023C2F200039A
:100DF0009B699B689A4294BF00230123DBB210E0F9
:100E000041F22023C2F200031B689A6841F22023BA
:100E1000C2F200039B699B689A4234BF00230123FE
:100E2000DBB2002B08D0019A40F68163C0F60003C4
:100E30009361F1EE10FA05E0019A40F68C63C0F67A
:100E400000039361019B03F168024EF63073CEF20A
:100E500000035B680093009B53664EF63073CEF23E
:100E60000003009A42F001025A6003E04FF00003D1
:100E700083F3118803B010BC704700BFAFF300804C
:100E800000F0A6F900F03CFE00F0C2F900DF00BF60
:100E900003460A462DE9F04F2DED108AC2F80CD01A
:100EA000D3F80CD0BDEC108ABDE8F08FAFF3008012
:100EB00008B500F0ADF94FF0000383F31188284620
:100EC000A04700F07DFF08BDAFF30080AFF30080C6
:100ED00010B485B001900091019B03F003034FEA29
:100EE000C30303934FF46143CEF20003019A4FEA28
:100EF00092004FF46142CEF2000201994FEA910153
:100F000001F1C00152F82110039A4FF0FF0404FAD6
:100F100002F26FEA02021140039A009C04FA02F204
:100F2000114300F1C00243F822104FF46143CEF2A6
:100F30000003019A4FEA5212019901F01F014FF08C
:100F4000010000FA01F102F1600243F822104FF4AF
:100F50006143CEF20003019A4FEA5212019901F067
:100F60001F014FF0010000FA01F143F8221005B013
:100F700010BC7047AFF30080AFF30080AFF3008088
:100F800010B485B001900091019B03F003034FEA78
:100F9000C30303934FF46D43CEF20003019A4FEA6B
:100FA00092004FF46D42CEF2000201994FEA910196
:100FB00001F1060152F82110039A4FF0FF0404FAE0
:100FC00002F26FEA02021140039A009C04FA02F254
:100FD000114300F1060243F8221005B010BC70471F
:100FE00082B0019041F22023C2F200039A6940F2DC
:100FF0001073C0F601039361FEE700BFAFF30080FA
:1010000000B583B0FFF79CFE00F052FB00F068FAD9
:1010100001F076FA01F0E4FA00F0EAF940F6B05097
:10102000C2F200004FF0400100F08AFD024641F29A
:101030002023C2F200039A6141F22023C2F200038E
:101040009B694FF0010283F8202041F22023C2F275
:1010500000039A6940F20043C2F20003D36100F03A
:101060009FF84FF0000383F3118862B641F220230A
:10107000C2F200039A6941F29053C0F601039361F2
:101080004FF00003009340F65840C2F200004FF4C6
:10109000AC714FF0010240F6E173C0F6000300F0BE
:1010A00007FE03B000BD00BFAFF30080AFF30080C8
:1010B00000B583B000F06CF941F22023C2F20003C6
:1010C0009B6993F82330002B0BD041F22023C2F20E
:1010D00000039B6993F8232002F1FF32D2B283F818
:1010E000232041F22023C2F200039B695A6A02F1D5
:1010F00001025A6241F21023C2F20003DB6803F1DD
:10110000010241F21023C2F20003DA6041F210231F
:10111000C2F200031A6841F21023C2F200039A429D
:1011200039D041F21023C2F200031B689A6802F121
:10113000FF329A6025E0019BDB680093019B4FF032
:101140000002DA60019B1A6841F21023C2F2000328
:101150005360019B1A6841F21023C2F200031A6027
:1011600000F096F84FF0000383F31188019B1A6991
:10117000009B104698474FF0200383F3118800F03E
:1011800067F841F21023C2F200031B680193019B30
:101190009B68002BCFD003B000BD00BFAFF3008031
:1011A00008B540F6FC53C2F200031B68002B06D1C1
:1011B00040F60063C2F200031B68002B05D040F22A
:1011C0003070C0F6010000F073F908BDAFF3008085
:1011D00008B540F6FC53C2F200031B68002B06D191
:1011E00040F60063C2F200031B68002B05D040F2FA
:1011F0003870C0F6010000F05BF940F60063C2F2FF
:1012000000034FF001021A6008BD00BFAFF3008079
:1012100008B540F6FC53C2F200031B68002B06D150
:1012200040F60063C2F200031B68002B05DC40F2AD
:101230004070C0F6010000F03BF940F60063C2F2D6
:1012400000034FF000021A6008BD00BFAFF300803A
:1012500008B540F6FC53C2F200031B68002B06DD04
:1012600040F60063C2F200031B68002B05D040F279
:101270004870C0F6010000F01BF940F60063C2F2AE
:1012800000034FF001021A6008BD00BFAFF30080F9
:1012900008B540F6FC53C2F200031B68002B06DDC4
:1012A00040F60063C2F200031B68002B05DC40F22D
:1012B0005070C0F6010000F0FBF840F60063C2F287
:1012C00000034FF000021A6008BD00BFAFF30080BA
:1012D00008B54FF0200383F3118840F6FC53C2F2A7
:1012E00000031B68002B06DB40F60063C2F200031C
:1012F0001B68002B05D040F25870C0F6010000F0CA
:10130000D7F840F6FC53C2F200031B6803F1010258
:1013100040F6FC53C2F200031A604FF0000383F35F
:10132000118808BDAFF30080AFF30080AFF30080F9
:1013300008B54FF0200383F3118840F6FC53C2F246
:1013400000031B68002B06DD40F60063C2F20003B9
:101350001B68002B05D040F26070C0F6010000F061
:10136000A7F840F6FC53C2F200031B6803F1FF32FA
:1013700040F6FC53C2F200031A604FF0000383F3FF
:10138000118808BDAFF30080AFF30080AFF3008099
:1013900008B540F6FC53C2F200031B68002B06DBC5
:1013A00040F60063C2F200031B68002B05DC40F22C
:1013B0006870C0F6010000F07BF808BDAFF3008054
:1013C00008B540F6FC53C2F200031B68002B06D19F
:1013D00040F60063C2F200031B68002B05DC40F2FC
:1013E0007070C0F6010000F063F808BDAFF3008034
:1013F00040F60463C2F200034FF040021A6040F668
:101400000463C2F20003014A5A6070470C0E0020C8
:1014100082B0019040F60463C2F200035A6841F2C0
:101420001023C2F20003DB68136040F60463C2F2CB
:1014300000035A6841F22023C2F200039B69536003
:1014400040F60463C2F200035B68019A926A9A60F4
:1014500040F60463C2F200035B68019A92F8202010
:101460001A7340F60463C2F200035B6803F11002D2
:1014700040F60463C2F200035A6040F60463C2F20D
:1014800000035A68054B9A4205D340F60463C2F242
:101490000003034A5A6002B0704700BF0C120020DC
:1014A0000C0E0020AFF30080AFF30080AFF300809C
:1014B00000B583B0019041F20C23C2F20003019AFF
:1014C0001A604FF001000BF093F8FFF7F1FB03B047
:1014D00000BD00BFAFF30080AFF30080AFF300802A
:1014E00041F21023C2F2000341F21022C2F20002C4
:1014F0005A6041F21023C2F200035A6841F21023ED
:10150000C2F200031A6041F21023C2F200034FF04E
:10151000FF329A6041F21023C2F200034FF0000242
:10152000DA607047AFF30080AFF30080AFF3008064
:1015300000B587B00390029101920093FFF728FF56
:10154000039B002B05D0019B002B02D0029B002B9C
:1015500005D140F28070C0F60100FFF7A9FF039BA0
:10156000009A1A61039B019ADA6041F21023C2F2D9
:1015700000031B68059307E0059B9B68029AD31A3A
:101580000293059B1B680593059B9A68029B9A42F0
:10159000F2D3039B059A1A60039B1B685A68039B4E
:1015A0005A60039B5B68059A03995160059A5268DB
:1015B0001A60039B029A9A60059A41F21023C2F2C4
:1015C00000039A4205D0059B9A68029BD21A059B9C
:1015D0009A6007B000BD00BFAFF30080AFF300809A
:1015E00000B583B00190FFF7D3FE019B002B05D11E
:1015F00040F29070C0F60100FFF75AFF019BDB68D4
:10160000002B05D140F2A070C0F60100FFF750FF9B
:10161000019B1A6841F21023C2F200039A4208D0DB
:10162000019B1B68019A12689168019A92688A1856
:101630009A60019B5B68019A12681A60019B1B68A3
:10164000019A52685A60019B4FF00002DA6003B0C1
:1016500000BD00BFAFF30080AFF30080AFF30080A8
:1016600084B00190019B1B680393039B1A68019B44
:101670001A60019B1B68019A5A60039B184604B0CC
:10168000704700BFAFF30080AFF30080AFF300807E
:1016900082B00190019B5B68019A12681A60019BFD
:1016A0001B68019A52685A60019B184602B0704745
:1016B00041F22023C2F2000341F22022C2F20002D2
:1016C0005A6041F22023C2F200035A6841F22023FB
:1016D000C2F200031A6041F22023C2F200034FF06D
:1016E00000029A6041F22023C2F2000341F220225C
:1016F000C2F200025A6141F22023C2F200035A6989
:1017000041F22023C2F200031A617047AFF3008058
:1017100000B585B00190FFF73BFE019B93F82030A8
:10172000002B04D0019B93F820300E2B05D140F202
:10173000C070C0F60100FFF7BBFE019B4FF0000236
:1017400083F8202041F22023C2F200030393039B7D
:101750001B680393039B9A68019B9B689A42F6D28D
:10176000019B039A1A60039B5A68019B5A60019B74
:101770005B68039A01995160039A52681A60019B51
:10178000184605B000BD00BFAFF30080AFF3008086
:1017900000B585B003468DF80730FFF711FE41F222
:1017A0002023C2F200039B690393039B9DF807204B
:1017B00083F82020039B4FF0140283F8232041F28A
:1017C0002020C2F20000FFF74BFF024641F2202327
:1017D000C2F200039A6141F22023C2F200039B6926
:1017E0004FF0010283F820200398FFF711FE6B46AB
:1017F000A3F16402039BDB699A4205D240F2D470E4
:10180000C0F60100FFF754FE41F22023C2F20003AC
:101810009B6918460399FFF73BFB05B000BD00BF6D
:1018200000B585B00190019B03934FF0200383F333
:101830001188FFF70DFD039B93F820300D2B2FD857
:1018400001A252F823F000BF81180008A118000877
:10185000A11800088F180008A11800089B1800089C
:10186000A1180008A1180008A1180008A118000874
:10187000A1180008A1180008A11800089B1800086A
:10188000FFF706FD4FF0000383F3118815E0039B7B
:101890009B6A9A6802F101029A600398FFF7F8FECA
:1018A000039B4FF0FF329A620398FFF731FFFFF777
:1018B000EFFC4FF0000383F3118805B000BD00BFBB
:1018C00000B589B0034600918DF80730FFF778FD29
:1018D000009BB3F1FF3F1AD041F22023C2F2000374
:1018E0009B6903AA1046009941F62102C0F6000246
:1018F000FFF71EFE9DF807301846FFF749FF069BCD
:10190000002B09D003AB1846FFF76AFE04E09DF8F0
:1019100007301846FFF73CFF41F22023C2F20003D4
:101920009B699B6A184609B000BD00BFAFF30080F9
:1019300000B585B001900091FFF742FD019B009A30
:101940009A62019B9A6841F22023C2F200039B69CC
:101950009B689A4203D80198FFF7DAFE27E041F22C
:101960002023C2F200039B691846FFF7D1FE0390C3
:1019700041F22023C2F20003019A9A61019B4FF0C9
:10198000010283F820200398FFF742FD6B46A3F184
:101990006402039BDB699A4205D240F2D470C0F620
:1019A0000100FFF785FD01980399FFF771FA05B073
:1019B00000BD00BFAFF30080AFF30080AFF3008045
:1019C00000B583B041F22023C2F200039B6901936A
:1019D00041F22020C2F20000FFF742FE024641F22F
:1019E0002023C2F200039A6141F22023C2F20003D5
:1019F0009B694FF0010283F82020019B4FF01402F5
:101A000083F823200198FFF783FE0198FFF700FD7C
:101A10006B46A3F16402019BDB699A4205D240F256
:101A2000D470C0F60100FFF743FD41F22023C2F25B
:101A300000039B6918460199FFF72AFA03B000BD1D
:101A400000B583B041F22023C2F200039B690093EA
:101A500041F22020C2F20000FFF702FE024641F2EE
:101A60002023C2F200039A6141F22023C2F2000354
:101A70009B694FF0010283F82020009B4FF0000289
:101A800083F8202041F22023C2F200030193019B3E
:101A90001B680193019B9A68009B9B689A42F6D849
:101AA000009B019A1A60019B5A68009B5A60009B38
:101AB0005B68019A00995160019A52681A60009817
:101AC000FFF7A6FC6B46A3F16402009BDB699A4218
:101AD00005D240F2D470C0F60100FFF7E9FC41F2F4
:101AE0002023C2F200039B6918460099FFF7D0F942
:101AF00003B000BDAFF30080AFF30080AFF3008010
:101B000008B541F22023C2F200039B6993F8233009
:101B1000002B02D1FFF754FF01E0FFF791FF08BD52
:101B200084B00190019B1B680393039B1A68019B7F
:101B30001A60039B184604B0704700BFAFF30080E3
:101B400082B001900091019B009A9A60019B4FF036
:101B5000020283F82020019B4FF0000283F821202D
:101B6000019B4FF0140283F82320019B009A5A64D2
:101B7000019B4FF000021A64019B4FF00002DA63F0
:101B8000019B4FF000025A62019B4FF0010283F863
:101B90002220019B4FF000029A61019A41F220231A
:101BA000C2F20003136141F22023C2F200035A691A
:101BB000019B5A61019B5A6941F22023C2F2000342
:101BC0000199596141F22023C2F200035B6913615C
:101BD000019B03F12C02019BDA62019B03F13002AD
:101BE000019B5A63019B5A6B019B1A63019B03F192
:101BF0004C02019BDA61019B184602B0704700BF9E
:101C000084B00390029113468DF8073007E0039BE0
:101C10009DF807201A70039B03F101030393039AB5
:101C2000029B9A42F3D304B0704700BFAFF3008029
:101C300000B587B00390029101920093039B059336
:101C4000FFF7A6FB039B002B0AD0029A40F2371342
:101C50009A4205D9019B7F2B02D8009B002B05D10E
:101C600040F2F070C0F60100FFF722FC029BA3F1E6
:101C70006403039AD218059BDA60059BDB68009A1F
:101C80001A64059BDB68089A5A64059BDA6840F67B
:101C9000B163C0F60003136605980199FFF750FF82
:101CA0000346184607B000BDAFF30080AFF30080D5
:101CB00000B589B00590049103920293059B03F14E
:101CC0004C03059819464FF0FF02FFF799FF059B5B
:101CD00003F14C020599049BCB18104619464FF0AE
:101CE0005502FFF78DFF4FF0200383F31188FFF7B4
:101CF0006FFA0A9B009305980499039A029BFFF7D9
:101D000097FF079007984FF00001FFF711FEFFF7CC
:101D10007FFA4FF0000383F31188079B184609B040
:101D200000BD00BFAFF30080AFF30080AFF30080D1
:101D300000B583B00190019B002B05D140F6300027
:101D4000C0F60100FFF7B4FB4FF0200383F31188C6
:101D5000FFF73EFA4FF006000199FFF7B1FDFFF7DC
:101D600057FA4FF0000383F3118803B000BD00BFA2
:101D700000B583B001904FF0200383F31188FFF783
:101D800027FA41F21023C2F20003DB68019AD31A4A
:101D90000193019B002B04D04FF006000199FFF73F
:101DA0008FFDFFF735FA4FF0000383F3118803B07E
:101DB00000BD00BFAFF30080AFF30080AFF3008041
:101DC00000B583B001904FF0200383F31188FFF733
:101DD000FFF9019800F004F803B000BDAFF30080F4
:101DE00000B585B0019041F22023C2F200039B6947
:101DF0000393039B019A9A6209E0039B03F12C036E
:101E00001846FFF78DFE03461846FFF781FC039B3B
:101E1000DA6A039B03F12C039A42EED1039B93F8F9
:101E2000213003F00303002B09D1039B5B69039A64
:101E300012691A61039B1B69039A52695A614FF038
:101E40000E00FFF7A5FC40F64000C0F60100FFF7CA
:101E50002FFB05B000BD00BFAFF30080AFF30080E3
:101E600000B583B00190019B002B05D140F6900096
:101E7000C0F60100FFF71CFB019A019B5A60019B11
:101E80005A68019B1A60019B4FF000029A6003B0F0
:101E900000BD00BFAFF30080AFF30080AFF3008060
:101EA00000B585B001900091FFF772FA019B002BFD
:101EB00005D140F66C10C0F60100FFF7F9FA019B5E
:101EC0001B68039310E0039BDA68009B1A43039B93
:101ED000DA60039B5A68039B9B681046194600F022
:101EE0000FF8039B1B680393039A019B9A42EAD164
:101EF00005B000BDAFF30080AFF30080AFF300800A
:101F000000B583B001900091FFF742FA019B002BCE
:101F100005D140F69410C0F60100FFF7C9FA019B05
:101F2000DA6B009B1A43019BDA63019B93F8203024
:101F3000082B06D1019BDA6B019B9B6A1340002B97
:101F40000DD1019B93F82030092B0FD1019BDA6B47
:101F5000019B9B6A1A40019B9B6A9A4206D1019899
:101F6000FFF7D6FB03464FF000029A6203B000BDB4
:101F700082B001900091019B009A1A60009B5A6800
:101F8000019B5A60019B5B68009A01995160009A1D
:101F900052681A6002B07047AFF30080AFF3008060
:101FA00084B00190019B1B680393039B1A68019BFB
:101FB0001A60019B1B68019A5A60039B184604B083
:101FC000704700BFAFF30080AFF30080AFF3008035
:101FD00000B583B001900091009B002B02D14FF01F
:101FE000FF3316E041F22023C2F200039B69019AFD
:101FF0009A6241F22023C2F200039A69019B1046C3
:102000001946FFF7B5FF4FF00D000099FFF758FC98
:102010000346184603B000BDAFF30080AFF3008065
:1020200084B00390029101920093039A039B5A603B
:10203000039B5A68039B1A60039B4FF000029A604F
:10204000039B029A5A61039B5A69039B9A61039B03
:102050009A69039BDA60029A019BD218039B1A616A
:10206000039B009ADA61039B049A1A6204B07047DA
:1020700000B583B001900B468DF80330FFF788F967
:10208000019B5A69019B9B699A4206D1019B9B68FF
:10209000002B02D04FF0010301E04FF0000303F0EA
:1020A0000103DBB2002B02D06FF003032BE0019B96
:1020B0009B6803F10102019B9A60019B5B699DF89B
:1020C00003201A7003F10102019B5A61019B5A69B6
:1020D000019B1B699A4203D3019BDA68019B5A61F9
:1020E000019B1A68019B9A420BD0019B1846FFF78F
:1020F00057FF03461846FFF70BFB03464FF000025D
:102100009A624FF00003184603B000BDAFF30080A1
:1021100000B585B0019000914FF0200383F3118842
:10212000FFF756F8019BDB69002B14D0019BDB699C
:10213000019898470FE001980099FFF749FF039035
:10214000039B002B08DAFFF763F84FF0000383F3DB
:102150001188039B25E000BF019B9B68002BEAD000
:10216000019B9B6803F1FF32019B9A60019B9B6975
:102170001A788DF80B2003F10102019B9A61019BF3
:102180009A69019B1B699A4203D3019BDA68019B00
:102190009A61FFF73DF84FF0000383F311889DF833
:1021A0000B30184605B000BDAFF30080AFF30080E0
:1021B00000B587B00390029101920093039BDB6905
:1021C00004934FF000030593019B002B05D140F6CB
:1021D000D010C0F60100FFF76BF94FF0200383F336
:1021E0001188FEF7F5FF049B002B12D0049B039887
:1021F00098470EE003980099FFF7EAFE0346002B8C
:1022000008D0FFF705F84FF0000383F31188059B12
:102210003BE000BF039B9B68002BEBD0039B9B68BC
:1022200003F1FF32039B9A60039B9B691978029A22
:102230001170029A02F10102029203F10102039B62
:102240009A61039B9A69039B1B699A4203D3039B80
:10225000DA68039B9A61FEF7DBFF4FF0000383F31C
:102260001188059B03F101030593019B03F1FF33E3
:102270000193019B002B01D1059B06E04FF0200349
:1022800083F31188FEF7A4FFADE7184607B000BD41
:1022900084B00390029101920093039A039B5A60C9
:1022A000039B5A68039B1A60039B019A9A60039BE5
:1022B000029A5A61039B5A69039B9A61039B9A692C
:1022C000039BDA60029A019BD218039B1A61039B5D
:1022D000009ADA61039B049A1A6204B0704700BF47
:1022E00000B587B003900B4601928DF80B304FF08C
:1022F000200383F31188FEF76BFF0FE00398019929
:10230000FFF766FE0590059B002B07DAFEF780FFBE
:102310004FF0000383F31188059B2CE0039B9B681F
:10232000002BEBD0039B9B6803F1FF32039B9A6069
:10233000039B5B699DF80B201A7003F10102039B5C
:102340005A61039B5A69039B1B699A4203D3039BFF
:10235000DA68039B5A61039BDB69002B03D0039B64
:10236000DB6903989847FEF753FF4FF0000383F3B0
:1023700011884FF00003184607B000BDAFF300808E
:1023800000B585B00190FFF703F8019B5A69019BE6
:102390009B699A4206D1019B9B68002B02D04FF0AB
:1023A000010301E04FF0000303F00103DBB2002B57
:1023B00002D06FF002032BE0019B9B6803F1010246
:1023C000019B9A60019B9B691A788DF80F2003F19D
:1023D0000102019B9A61019B9A69019B1B699A42C8
:1023E00003D3019BDA68019B9A61019B1A68019BE8
:1023F0009A420BD0019B1846FFF7D2FD03461846C0
:10240000FFF786F903464FF000029A629DF80F30FD
:10241000184605B000BD00BFAFF30080AFF30080E9
:1024200000B587B00390029101920093039BDB6992
:1024300004934FF000030593019B002B05D140F658
:10244000E410C0F60100FFF733F84FF0200383F3E8
:102450001188FEF7BDFE0EE003980099FFF7B8FD66
:102460000346002B07D0FEF7D3FE4FF0000383F3A3
:102470001188059B41E0039B9B68002BECD0039BDC
:102480009B6803F1FF32039B9A60039B5B69029A8E
:1024900012781A7003F10102039B5A61029B03F147
:1024A00001030293039B5A69039B1B699A4203D35E
:1024B000039BDA68039B5A61049B002B02D0049BA8
:1024C00003989847FEF7A4FE4FF0000383F31188AA
:1024D000059B03F101030593019B03F1FF33019376
:1024E000019B002B01D1059B07E04FF0200383F3F4
:1024F0001188FEF76DFE00BFBDE7184607B000BDAE
:1025000045F6C863C2F2000303F1070323F0070393
:102510001A4641F23C23C2F200031A604CF2000357
:10252000C2F2010323F007031A4641F24023C2F22C
:1025300000031A60704700BFAFF30080AFF3008064
:1025400000B585B001904FF0200383F31188FEF7AA
:102550003FFE019800F00CF80390FEF759FE4FF093
:10256000000383F31188039B184605B000BD00BF2C
:1025700000B585B00190FEF70BFF019B03F1070347
:1025800023F00703019341F24023C2F200031B68CA
:102590001A4641F23C23C2F200031B68D31A1A46C2
:1025A000019B9A4202D24FF0000312E041F23C2319
:1025B000C2F200031B68039341F23C23C2F2000302
:1025C0001A68019BD21841F23C23C2F200031A6040
:1025D000039B184605B000BDAFF30080AFF3008049
:1025E00008B541F24823C2F2000342F24152C0F65C
:1025F00000021A6041F24823C2F200034FF00002C9
:102600009A6041F24823C2F200034FF00002DA6000
:102610000148FFF725FC08BD58120020AFF30080E9
:1026200008B501F01DFC41F2C060C0F6010003F0E6
:10263000FFFD00F015F800F0C3F800F011F900F00C
:1026400087F900F05DFE00F0BBFA00F009FF00F032
:1026500037FA04F05DFD08BDAFF30080AFF30080F2
:1026600008B502F02DF808BDAFF30080AFF300808D
:1026700000B583B00190019B4FF001021A70019BDD
:102680004FF000025A60019B4FF000029A60019BDC
:102690004FF00002DA60019B4FF000021A61019BCB
:1026A0004FF000025A61019B03F118031846FFF72F
:1026B000D7FB03B000BD00BFAFF30080AFF30080D5
:1026C00000B583B001900091019B002B05D140F62D
:1026D0000020C0F60100FEF7EBFE4FF0200383F36D
:1026E0001188FEF775FD019B1B78012B09D0019B1A
:1026F0001B78022B05D040F61020C0F60100FEF733
:10270000D7FE019B009A5A60019802F041F8019BA4
:102710004FF002021A70FEF77BFD4FF0000383F3C7
:10272000118803B000BD00BFAFF30080AFF300809D
:1027300000B585B00390029101920093FEF728FE48
:10274000039B002B0DD0029B002B0AD0019B002B7A
:1027500007D0009B012B0AD0009B03F00103002B44
:1027600005D040F63C20C0F60100FEF7A1FE039B19
:102770001B78022B0DD0039B1B78042B09D0039BE5
:102780001B78052B05D040F65420C0F60100FEF75B
:102790008FFE039B019A9A60039B009ADA60039B69
:1027A000029A1A61039B4FF003021A70039802F019
:1027B000B7F805B000BD00BFAFF30080AFF30080F5
:1027C00008B502F015FC08BDAFF30080AFF3008040
:1027D00082B00190019B4FF001021A70019B4FF0F3
:1027E00000025A6002B07047AFF30080AFF3008080
:1027F00000B583B001900091019B002B02D0009B9B
:10280000002B05D140F61030C0F60100FEF750FE57
:102810004FF0200383F31188FEF7DAFC019B1B784D
:10282000012B09D0019B1B78022B05D040F62030EC
:10283000C0F60100FEF73CFE019B009A5A60019829
:1028400002F0DEFB019B4FF002021A70FEF7E0FC83
:102850004FF0000383F3118803B000BDAFF3008095
:1028600008B502F065FD08BDAFF30080AFF300804E
:1028700082B00190019B4FF001021A70019B4FF052
:1028800000025A6002B07047AFF30080AFF30080DF
:1028900000B583B001900091019B002B02D0009BFA
:1028A000002B05D140F6E030C0F60100FEF700FE37
:1028B0004FF0200383F31188FEF78AFC019B1B78FD
:1028C000012B09D0019B1B78022B05D040F6EC3080
:1028D000C0F60100FEF7ECFD019B009A5A600198DA
:1028E00002F03EFD019B4FF002021A70FEF790FCD1
:1028F0004FF0000383F3118803B000BDAFF30080F5
:1029000000B583B001900B46ADF80230FEF740FDF4
:10291000019B002B05D140F67C40C0F60100FEF77C
:10292000C7FD019B1B78022B05D040F69440C0F6F2
:102930000100FEF7BDFD019B4FF004021A70BDF8C7
:1029400002300198194602F07BFD03B000BD00BFC4
:1029500008B502F04DFE08BDAFF30080AFF3008074
:1029600082B00190019B4FF001021A70019B4FF061
:1029700000025A6002B07047AFF30080AFF30080EE
:1029800000B589B0039002910192029A019B9A428C
:1029900004D3029A019BD31A1F2B05D940F6F040AD
:1029A000C0F60100FEF784FD019B4FEA5313079325
:1029B000019B03F01F030693029B4FEA53130593F9
:1029C000029B03F01F0303F101034FF0010202FA1F
:1029D00003F303F1FF330493079A059B9A4217D23E
:1029E000079B4FEA8303039AD3181A68069B22FABF
:1029F00003F2059B4FEA83030399CB181968049BE4
:102A00001940069BC3F1200301FA03F313430AE0C4
:102A1000079B4FEA8303039AD3181A68049B1A4052
:102A2000069B22FA03F3184609B000BDAFF30080FD
:102A300000B587B00190019B03F10C031B684FEABE
:102A40009373002B02D0012B26D032E001984FF077
:102A500049014FF03E02FFF793FF059001984FF0B8
:102A600031014FF02F02FFF78BFF049001984FF0D8
:102A700053014FF05002FFF783FF0390059B03F1D2
:102A80000102049B03F1020302FA03F2039BA3F188
:102A9000090302FA03F30EE001984FF045014FF0ED
:102AA0003002FFF76DFF034603F101034FEA832372
:102AB00001E04FF00003184607B000BDAFF30080FF
:102AC00008B503F035FC08BDAFF30080AFF300801C
:102AD00000B583B001900091019B002B02D0009BB8
:102AE000002B05D140F62050C0F60100FEF7E0FCB7
:102AF0004FF0200383F31188FEF76AFB01980099D9
:102B000003F086FCFEF784FB4FF0000383F311888B
:102B100003B000BDAFF30080AFF30080AFF30080DF
:102B200000B583B00190019B002B05D140F61050F9
:102B3000C0F60100FEF7BCFC019803F0B1FC0346AF
:102B4000184603B000BD00BFAFF30080AFF30080B4
:102B500000B585B00190019B9A6B03AB01984FF0D3
:102B60000D0103F0D5F80346002B07D1039A4EF26E
:102B70000803CFF6FF531340002B02D04FF00103A0
:102B800015E0039B4FEA532303F00F03042B04D0FB
:102B9000042B0AD3072B08D802E04FF0000306E00D
:102BA0004FF00100FFF7C4F8D5E74FF001031846D6
:102BB00005B000BDAFF30080AFF30080AFF300803D
:102BC00008B502F025FF08BDAFF30080AFF3008029
:102BD00082B00190019A41F2B053C0F60103136034
:102BE000019B4FF001021A71019B4FF000025A63E2
:102BF000019B4FF00002DA62019B4FF000029A62E3
:102C000002B07047AFF30080AFF30080AFF30080F5
:102C100000B583B001900091019B002B05D140F6D7
:102C20005050C0F60100FEF743FC4FF0200383F341
:102C30001188FEF7CDFA019B1B79012B09D0019B6E
:102C40001B79022B05D040F66050C0F60100FEF75C
:102C50002FFC019B009ADA62019802F0F9FE019BB9
:102C60004FF002021A71FEF7D3FA4FF0000383F31C
:102C7000118803B000BD00BFAFF30080AFF3008048
:102C800000B587B00190019B002B05D140F68C5018
:102C9000C0F60100FEF70CFC019B1B79022B09D04A
:102CA000019B1B79052B05D040F69C50C0F6010016
:102CB000FEF7FEFB019B4FF003021A71019802F030
:102CC00037FF01984FF000014FF0000202F0B0FF13
:102CD00003AB01984FF008014FF4D57203F018F8D8
:102CE000034683F00103DBB2002B21D0019B4FF0A0
:102CF00001021A63039B4FEA132303F00F03012B16
:102D000040F0FA8003AB01984FF037014FF000021A
:102D100002F0FEFF0346002B40F0FD80039A4EF2C6
:102D20000803CFF6FF531340002B40F0F48003E07C
:102D3000019B4FF000021A63019B1B6B03F00F0312
:102D4000012B05D14FF00003CCF21003049304E0F3
:102D50004FF00003C8F2100304934FF000030593F3
:102D600003AB01984FF037014FF0000202F0D0FFA3
:102D70000346002B40F0CF80039A4EF20803CFF6B3
:102D8000FF531340002B40F0C68003AB01984FF077
:102D90002901049A02F074FF0346002B40F0AE8034
:102DA000039B002B0BDA039B03F08043002B13D013
:102DB000019B1B6B43F01002019B1A630CE0059B07
:102DC00003F101030593059B632B00F299804FF0FB
:102DD0000A00FEF7ADFFC3E700BF019B03F1080344
:102DE00001984FF002014FF0000202F0D9FF0346B4
:102DF000002B40F08780019B03F1380301984FF0CE
:102E000003014FF0000202F083FF0346002B7BD149
:102E1000019B9A6B019B03F1180301984FF0090184
:102E200002F0BEFF0346002B70D1019802F0A8FE0D
:102E3000019B9A6B03AB01984FF0070102F068FF0A
:102E40000346002B64D103AB01984FF010014FF4FF
:102E5000007202F05DFF0346002B5CD1039A4EF234
:102E60000803CFF6FF531340002B54D1019B1B6B7B
:102E700003F00F03012B2BD801984FF0010102F052
:102E8000A7FE019B9A6B03AB01984FF0370102F04C
:102E90003FFF0346002B3ED1039A4EF20803CFF6C4
:102EA000FF531340002B36D103AB01984FF00601BE
:102EB0004FF0020202F02CFF0346002B2BD1039AA5
:102EC0004EF20803CFF6FF531340002B23D100BF6F
:102ED000019B03F118031846FFF7AAFD0246019B68
:102EE0009A62019B9B6A002B14D0019B4FF0050254
:102EF0001A714FF0000317E000BF0CE000BF0AE0BA
:102F000000BF08E000BF06E000BF04E000BF02E031
:102F100000BF00E000BF019802F042FE019B4FF0AD
:102F200002021A714FF00103184607B000BD00BF3E
:102F300000B583B00190019B002B05D140F6B05045
:102F4000C0F60100FEF7B4FA4FF0200383F31188B6
:102F5000FEF73EF9019B1B79022B09D0019B1B79DF
:102F6000052B05D040F6C450C0F60100FEF7A0FACC
:102F7000019B1B79022B08D1FEF74AF94FF00003A1
:102F800083F311884FF0000322E0019B4FF004020D
:102F90001A71FEF73DF94FF0000383F31188019891
:102FA000FFF7D6FD0346002B09D0019802F0F8FD8B
:102FB000019B4FF002021A714FF0010308E00198E3
:102FC00002F0EEFD019B4FF002021A714FF0000378
:102FD000184603B000BD00BFAFF30080AFF3008020
:102FE00000B587B00390029101920093039B002BE0
:102FF00005D0019B002B02D0009B002B05D140F691
:10300000D850C0F60100FEF753FA039B1B79052B3D
:1030100005D040F6E450C0F60100FEF749FA029AE6
:10302000009BD31803F1FF32039B9B6A9A4208D995
:10303000039B5B6B43F08002039B5A634FF00103D9
:1030400012E0039B4FF006021A7103980299019A4D
:10305000009B03F01DF803468DF81730039B4FF0DB
:1030600005021A719DF81730184607B000BD00BF61
:1030700000B587B00390029101920093039B002B4F
:1030800005D0019B002B02D0009B002B05D140F600
:10309000F450C0F60100FEF70BFA039B1B79052BD9
:1030A00005D040F60460C0F60100FEF701FA029A6E
:1030B000009BD31803F1FF32039B9B6A9A4208D905
:1030C000039B5B6B43F08002039B5A634FF0010349
:1030D00012E0039B4FF007021A7103980299019ABC
:1030E000009B03F025F803468DF81730039B4FF043
:1030F00005021A719DF81730184607B000BD00BFD1
:1031000000B585B00190019B002B05D140F64C60C5
:10311000C0F60100FEF7CCF9019B1B79052B02D00C
:103120004FF001030FE0019B4FF008021A71019864
:1031300003F04EF803468DF80F30019B4FF0050267
:103140001A719DF80F30184605B000BDAFF300802E
:1031500000B583B001900091019B002B02D0009B31
:10316000002B05D140F65860C0F60100FEF7A0F92B
:10317000019B1B79052B02D04FF0010309E0019B55
:103180009A6A009B5A60009B4FF400721A604FF0DD
:103190000003184603B000BDAFF30080AFF300801A
:1031A00000B585B0039002910192039B03F13003B7
:1031B00018460299019A4FF0FF33FFF731F90346A1
:1031C000184605B000BD00BFAFF30080AFF300802C
:1031D00000B585B0039002910192039B03F10C03AB
:1031E00018460299019A4FF0FF33FEF7E1FF0346BC
:1031F000184605B000BD00BFAFF30080AFF30080FC
:1032000000B583B001900B468DF80330019B03F1AC
:1032100030029DF80330104619464FF0FF32FFF799
:103220005FF80346184603B000BD00BFAFF300804F
:1032300000B583B00190019B03F10C0318464FF0D9
:10324000FF31FEF765FF0346184603B000BD00BF1F
:1032500000B585B003900B4601928DF80B30039BAF
:1032600003F130029DF80B3010461946019AFFF722
:1032700037F80346184605B000BD00BFAFF3008025
:1032800000B583B001900091019B03F10C03184637
:103290000099FEF73DFF0346184603B000BD00BF8E
:1032A00000B585B00390029101920093039B03F156
:1032B000300318460299019A009BFFF7B1F80346C4
:1032C000184605B000BD00BFAFF30080AFF300802B
:1032D00000B585B00390029101920093039B03F126
:1032E0000C0318460299019A009BFEF761FF034602
:1032F000184605B000BD00BFAFF30080AFF30080FB
:1033000008B503F01DFE08BDAFF30080AFF30080E9
:1033100000B587B0059004910392059A41F2D0530D
:10332000C0F601031360059B03F10402059B5A607C
:10333000059B4FF001021A72059B03F10C02059BDD
:1033400003F1540305990091104619464FF04002CD
:10335000049BFEF765FE059B03F13002059B03F11C
:10336000940305990091104619464FF04002039BC3
:10337000FEF78EFF07B000BDAFF30080AFF3008013
:1033800000B583B001900091019B002B05D140F660
:103390009060C0F60100FEF78BF84FF0200383F336
:1033A0001188FDF715FF019B1B7A012B09D0019BAA
:1033B0001B7A022B05D040F69C60C0F60100FEF798
:1033C00077F80198009903F003FE019B4FF0020289
:1033D0001A72FDF71DFF4FF0000383F3118803B04D
:1033E00000BD00BFAFF30080AFF30080AFF30080FB
:1033F00000B583B001900B468DF80330FDF7C8FF90
:10340000019B002B05D140F6C860C0F60100FEF715
:103410004FF8019B5B69002B07D1019B03F104036B
:1034200018464FF00401FEF73BFD019B03F10C022F
:103430009DF8033010461946FEF71AFE0346002B8E
:1034400007DA019B03F1040318464FF08001FEF7F1
:1034500027FD03B000BD00BFAFF30080AFF30080D5
:1034600008B503F07DF908BDAFF30080AFF300802D
:1034700000B583B00190019B4FF001021A70019BCF
:103480004FF000025A60019B4FF000029A60019BCE
:1034900003F10C031846FEF7E3FC03B000BD00BFC8
:1034A00000B583B001900091019B002B02D0009BDE
:1034B000002B05D140F6F060C0F60100FDF7F8FFE3
:1034C0004FF0200383F31188FDF782FE019B1B78E8
:1034D000012B09D0019B1B78022B05D040F6007010
:1034E000C0F60100FDF7E4FF019B009A5A600198C5
:1034F00003F0A6F9019B4FF002021A70FDF788FE57
:103500004FF0000383F3118803B000BDAFF30080D8
:1035100000B583B00190019B002B05D140F62C70C3
:10352000C0F60100FDF7C4FF4FF0200383F31188BC
:10353000FDF74EFE019B1B78022B05D040F63C7038
:10354000C0F60100FDF7B4FF019803F061FAFDF742
:103550005FFE4FF0000383F3118803B000BD00BF8E
:1035600000B583B00190019B002B05D140F64C7053
:10357000C0F60100FDF79CFF4FF0200383F3118894
:10358000FDF726FE019B1B78022B05D040F65C70F0
:10359000C0F60100FDF78CFF019803F049FAFDF732
:1035A00037FE4FF0000383F3118803B000BD00BF66
:1035B00000B583B0FDF78CFE4FF4C043C4F20203A4
:1035C0001B6803F03D0301934FF4C043C4F20203B0
:1035D0004FF03D029A6041F26C23C2F200031B6877
:1035E000002B0CD041F26C23C2F200031A6841F2A6
:1035F0006C23C2F200035B68184601999047FDF7FF
:1036000097FEFDF7C5FB03B000BD00BFAFF3008020
:1036100000B583B0FDF75CFE4FF4C043C4F2020373
:103620001B684FEA931303F03D0301934FF4C0432B
:10363000C4F202034FF474629A6041F26C23C2F246
:1036400000039B68002B0CD041F26C23C2F20003F4
:103650009A6841F26C23C2F20003DB6818460199B4
:103660009047FDF765FEFDF793FB03B000BD00BF7B
:1036700000B583B0FDF72CFE4FF4C043C4F2020343
:103680001B684FEA134303F03D0301934FF4C0431B
:10369000C4F202034FF474129A6041F26C23C2F236
:1036A00000031B69002B0CD041F26C23C2F2000313
:1036B0001A6941F26C23C2F200035B691846019952
:1036C0009047FDF735FEFDF763FB03B000BD00BF7B
:1036D00000B583B0FDF7FCFD4FF4C043C4F2020314
:1036E0001B684FEA935303F03D0301934FF4C0432B
:1036F000C4F202034FF074629A6041F26C23C2F28A
:1037000000039B69002B0CD041F26C23C2F2000332
:103710009A6941F26C23C2F20003DB6918460199F1
:103720009047FDF705FEFDF733FB03B000BD00BF7A
:1037300000B583B0FDF7CCFD4FF4C043C4F20203E3
:103740005B6803F03D0301934FF4C043C4F20203EE
:103750004FF03D02DA6041F26C23C2F200031B6AB3
:10376000002B0CD041F26C23C2F200031A6A41F222
:103770006C23C2F200035B6A184601999047FDF77B
:10378000D7FDFDF705FB03B000BD00BFAFF3008020
:1037900000B583B0FDF79CFD4FF4C043C4F20203B3
:1037A0005B684FEA931303F03D0301934FF4C0436A
:1037B000C4F202034FF47462DA6041F26C23C2F285
:1037C00000039B6A002B0CD041F26C23C2F2000371
:1037D0009A6A41F26C23C2F20003DB6A184601992F
:1037E0009047FDF7A5FDFDF7D3FA03B000BD00BF7C
:1037F00000B583B0FDF76CFD4FF4C043C4F2020383
:103800005B684FEA134303F03D0301934FF4C04359
:10381000C4F202034FF47412DA6041F26C23C2F274
:1038200000031B6B002B0CD041F26C23C2F200038F
:103830001A6B41F26C23C2F200035B6B18460199CC
:103840009047FDF775FDFDF7A3FA03B000BD00BF7B
:1038500000B583B0FDF73CFD4FF4C043C4F2020352
:103860005B684FEA935303F03D0301934FF4C04369
:10387000C4F202034FF07462DA6041F26C23C2F2C8
:1038800000039B6B002B0CD041F26C23C2F20003AF
:103890009A6B41F26C23C2F20003DB6B184601996C
:1038A0009047FDF745FDFDF773FA03B000BD00BF7B
:1038B00000B583B0FDF70CFD4FF4C843C4F202031A
:1038C0001B6803F03D0301934FF4C843C4F20203A5
:1038D0004FF03D029A6041F26C23C2F200031B6C70
:1038E000002B0CD041F26C23C2F200031A6C41F29F
:1038F0006C23C2F200035B6C184601999047FDF7F8
:1039000017FDFDF745FA03B000BD00BFAFF300801F
:1039100000B583B0FDF7DCFC4FF4C843C4F20203EA
:103920001B684FEA931303F03D0301934FF4C84320
:10393000C4F202034FF474629A6041F26C23C2F243
:1039400000039B6C002B0CD041F26C23C2F20003ED
:103950009A6C41F26C23C2F20003DB6C18460199A9
:103960009047FDF7E5FCFDF713FA03B000BD00BF7B
:1039700000B583B0FDF7ACFC4FF4C843C4F20203BA
:103980001B684FEA134303F03D0301934FF4C84310
:10399000C4F202034FF474129A6041F26C23C2F233
:1039A00000031B6D002B0CD041F26C23C2F200030C
:1039B0001A6D41F26C23C2F200035B6D1846019947
:1039C0009047FDF7B5FCFDF7E3F903B000BD00BF7C
:1039D00000B583B0FDF77CFC4FF4C843C4F202038A
:1039E0001B684FEA935303F03D0301934FF4C84320
:1039F000C4F202034FF074629A6041F26C23C2F287
:103A000000039B6D002B0CD041F26C23C2F200032B
:103A10009A6D41F26C23C2F20003DB6D18460199E6
:103A20009047FDF785FCFDF7B3F903B000BD00BF7B
:103A300000B583B0FDF74CFC4FF4C843C4F2020359
:103A40005B6803F03D0301934FF4C843C4F20203E3
:103A50004FF03D02DA6041F26C23C2F200031B6EAC
:103A6000002B0CD041F26C23C2F200031A6E41F21B
:103A70006C23C2F200035B6E184601999047FDF774
:103A800057FCFDF785F903B000BD00BFAFF3008020
:103A900000B583B0FDF71CFC4FF4C843C4F2020329
:103AA0005B684FEA931303F03D0301934FF4C8435F
:103AB000C4F202034FF47462DA6041F26C23C2F282
:103AC00000039B6E002B0CD041F26C23C2F200036A
:103AD0009A6E41F26C23C2F20003DB6E1846019924
:103AE0009047FDF725FCFDF753F903B000BD00BF7B
:103AF00000B583B0FDF7ECFB4FF4C843C4F20203FA
:103B00005B684FEA134303F03D0301934FF4C8434E
:103B1000C4F202034FF47412DA6041F26C23C2F271
:103B200000031B6F002B0CD041F26C23C2F2000388
:103B30001A6F41F26C23C2F200035B6F18460199C1
:103B40009047FDF7F5FBFDF723F903B000BD00BF7B
:103B500000B583B0FDF7BCFB4FF4C843C4F20203C9
:103B60005B684FEA935303F03D0301934FF4C8435E
:103B7000C4F202034FF07462DA6041F26C23C2F2C5
:103B800000039B6F002B0CD041F26C23C2F20003A8
:103B90009A6F41F26C23C2F20003DB6F1846019961
:103BA0009047FDF7C5FBFDF7F3F803B000BD00BF7C
:103BB00082B041F26823C2F200034FF000021A60A3
:103BC0004FF0000301931CE041F2F052C0F60102F5
:103BD00001990B464FEA43035B184FEA8303D3185E
:103BE0001B684FF000021A6041F26C23C2F200031E
:103BF000019A4FF0000143F83210019B03F10103D9
:103C00000193019B0F2BDFDD4FF4C043C4F202038D
:103C10004FF0FF329A604FF4C043C4F202034FF0FA
:103C2000FF32DA604FF4C843C4F202034FF0FF32B0
:103C30009A604FF4C843C4F202034FF0FF32DA60D7
:103C400002B07047AFF30080AFF30080AFF30080A5
:103C500000B585B00390029101920093039B002B65
:103C600005D141F23010C0F60100FDF721FC039BA5
:103C70005B7A4FF0010202FA03F31A4641F268231D
:103C8000C2F200031B681340002B02D04FF0010367
:103C900080E0039B5B7A1A4641F26C23C2F2000378
:103CA000019943F83210039B5B7A41F26C22C2F215
:103CB00000024FEAC303D318009A5A60039B5B7A51
:103CC0004FF0010202FA03F31A4641F26823C2F2EE
:103CD00000031B681A4341F26823C2F200031A6012
:103CE00041F26823C2F200031B68DBB2002B0BD049
:103CF0004FF46053C4F202034FF46052C4F2020264
:103D0000126B42F400121A6341F26823C2F20003FC
:103D10001B6803F47F43002B0BD04FF46053C4F2B5
:103D200002034FF46052C4F20202126B42F48002AA
:103D30001A63039B1B68039A1268126822F01F0221
:103D40001A60039B1B681B6803F00103002BF8D16A
:103D5000039B5B68039A127A4FF03D0101FA02F26D
:103D60001A60039B1B684FF000021A60039B1B68DC
:103D70004FF021025A61019B002B09D0039B9B7AD3
:103D80001A46029B4FEA031310461946FDF7A0F8A6
:103D90004FF00003184605B000BD00BFAFF3008030
:103DA0004FF4E043C4F200034FF4E042C4F20002D7
:103DB000126842F480721A604FF46053C4F2020336
:103DC0001B6F03F44073B3F5807F0DD04FF4605345
:103DD000C4F202034FF480321A674FF46053C4F206
:103DE00002034FF000021A674FF46053C4F202035B
:103DF0004FF46052C4F20202126F42F001021A67DD
:103E000000BF4FF46053C4F202031B6F03F00203C0
:103E1000002BF6D04FF46053C4F202031B6F03F47F
:103E20000043002B17D14FF46053C4F202034FF448
:103E30006052C4F20202126F42F480721A674FF4A9
:103E40006053C4F202034FF46052C4F20202126FD4
:103E500042F400421A677047AFF30080AFF300806E
:103E600008B54FF46053C4F202031B694FF460536A
:103E7000C4F202034FF0FF321A614FF46053C4F2F0
:103E800002034FF000021A614FF46053C4F20203C0
:103E90005B694FF46053C4F202034FF0FF325A6182
:103EA0004FF46053C4F202034FF000025A614FF422
:103EB0006053C4F202039B694FF46053C4F20203DF
:103EC0004FF0FF329A614FF46053C4F202034FF097
:103ED00000029A614FF46053C4F202034FF460523F
:103EE000C4F20202126A62F080521A624FF4605306
:103EF000C4F202034FF000021A624FF46053C4F29E
:103F000002035B6A4FF46053C4F202034FF0FF32C6
:103F10005A624FF46053C4F202034FF000025A6237
:103F20004EF21003CEF2000349F23F02C0F2020249
:103F30005A604EF21003CEF200034FF000029A6076
:103F40004EF21003CEF200034FF007021A604EF655
:103F5000F053CEF200034EF6F052CEF20002D268D9
:103F600042F08072DA604FF48053CEF200034FF4D7
:103F70008052CEF20002126842F001021A604FF441
:103F80006053C4F202034FF46052C4F20202126C96
:103F900042F080521A64FFF703FFFFF709FE08BDE5
:103FA0004FF46053C4F202034FF080521A644FF48E
:103FB000E043C4F200034FF480421A6000BF4FF4A4
:103FC000E043C4F200035B6803F48043002BF6D0A7
:103FD0004FF46053C4F202034FF46052C4F2020281
:103FE000126842F001021A6000BF4FF46053C4F23D
:103FF00002031B6803F00203002BF6D04FF460535A
:10400000C4F202034FF46052C4F20202126842F496
:1040100080321A6000BF4FF46053C4F202031B6881
:1040200003F40033002BF6D04FF46053C4F20203C4
:104030004FF46052C4F20202526F42F001025A671A
:1040400000BF4FF46053C4F202035B6F03F002033E
:10405000002BF6D04FF46053C4F202031B6F03F041
:104060000103002B23D14FF4E043C4F200034FF4CB
:10407000E042C4F20002126842F480721A604FF407
:104080006053C4F202034FF46052C4F20202126F92
:1040900042F001021A674FF4E043C4F200034FF408
:1040A000E042C4F20002126822F480721A6000BF7B
:1040B0004FF46053C4F202031B6F03F00203002BA2
:1040C000F6D04FF46053C4F2020345F21A42C0F234
:1040D00040725A604FF46053C4F202034FF46052CE
:1040E000C4F20202126842F080721A6000BF4FF4FC
:1040F0006053C4F202031B6803F00073002BF6D078
:104100004FF46052C4F202024FF46053C4F202034F
:1041100099684FF41443C3F608030B4393604FF4BC
:104120007053C4F2020340F205721A604FF46053F8
:10413000C4F202034FF46052C4F20202926842F0E9
:1041400002029A6000BF4FF46053C4F202039B68FE
:1041500003F00C03082BF6D14FF46053C4F20203B2
:104160004FF46052C4F20202526C42F480425A642C
:104170004FF46053C4F202034FF46052C4F20202DF
:10418000526E42F480425A66704700BFAFF300801F
:1041900000B589B001900091009B03F00C03002B47
:1041A0003DD0019800F03CFC019B1B699B68002BF3
:1041B00012D0019B4FF005021A70019B1B699B688E
:1041C00001984FF000019847019B1B78052B03D104
:1041D000019B4FF002021A70019B4FF000021A611E
:1041E0004FF0200383F31188FDF732F8019B5B69E0
:1041F000002B0DD0019B5B690793019B4FF00002E0
:104200005A61079B4FF0FF329A620798FDF780FAD8
:10421000FDF73EF84FF0000383F31188B8E0019BEF
:104220001B69002B00F0B480009B03F01003002BEF
:104230000FD0019B1B695B68002B0AD0019B1B6997
:104240005B68019A9168019AD2684FEA520201981C
:104250009847009B03F02003002B00F09980019BFE
:104260001B691B78002B2DD0019B1B695B68002B01
:1042700000F08E80019BDB68012B19D9019BDB6864
:104280004FEA53030693019B1B695B88069A02FB66
:1042900003F30593019B1B695B68019A9168059A7A
:1042A0004FEA42028A1801981146069A98476FE031
:1042B000019B1B695B68019A9168019AD268019819
:1042C000984765E0019800F0ABFB019B1B695B68B8
:1042D000002B37D0019B4FF004021A70019BDB6862
:1042E000012B19D9019BDB684FEA53030493019B0F
:1042F0001B695B88049A02FB03F30393019B1B6910
:104300005B68019A9168039A4FEA42028A18019801
:104310001146049A984708E0019B1B695B68019A63
:104320009168019AD26801989847019B1B78042BE9
:1043300010D1019B4FF002021A70019B4FF0000256
:104340001A6107E0019B4FF002021A70019B4FF0C7
:1043500000021A614FF0200383F31188FCF778FF05
:10436000019B5B69002B0DD0019B5B690293019B54
:104370004FF000025A61029B4FF000029A620298CD
:10438000FDF7C6F9FCF784FF4FF0000383F31188B3
:1043900009B000BDAFF30080AFF30080AFF3008041
:1043A00000B585B0FCF794FF4FF40053C4F201034D
:1043B0001B6803934FF40053C4F201034FF0000253
:1043C0001A60039B03F02003002B6DD041F2EC2315
:1043D000C2F20003DB6A1B685B68002B64D041F209
:1043E000EC23C2F200031B69002B5DD041F2EC20EC
:1043F000C2F2000000F014FB41F2EC23C2F2000311
:104400001B699B68002B21D041F2EC23C2F2000310
:104410004FF005021A7041F2EC23C2F200031B694F
:104420009B6841F2EC20C2F200004FF00101984776
:1044300041F2EC23C2F200031B78052B06D141F2B6
:10444000EC23C2F200034FF002021A7041F2EC2397
:10445000C2F200034FF000021A614FF0200383F311
:104460001188FCF7F5FE41F2EC23C2F200035B6910
:10447000002B13D041F2EC23C2F200035B690293DC
:1044800041F2EC23C2F200034FF000025A61029B9A
:104490004FF0FF329A620298FDF73AF9FCF7F8FE06
:1044A0004FF0000383F311884FF40453C4F2010367
:1044B0001B6803934FF40453C4F201034FF000024E
:1044C0001A60039B03F02003002B6DD041F22033D0
:1044D000C2F20003DB6A1B685B68002B64D041F208
:1044E0002033C2F200031B69002B5DD041F2203063
:1044F000C2F2000000F094FA41F22033C2F200034D
:104500001B699B68002B21D041F22033C2F20003CB
:104510004FF005021A7041F22033C2F200031B690A
:104520009B6841F22030C2F200004FF00101984731
:1045300041F22033C2F200031B78052B06D141F271
:104540002033C2F200034FF002021A7041F220330E
:10455000C2F200034FF000021A614FF0200383F310
:104560001188FCF775FE41F22033C2F200035B694B
:10457000002B13D041F22033C2F200035B69019398
:1045800041F22033C2F200034FF000025A61019B56
:104590004FF0FF329A620198FDF7BAF8FCF778FE07
:1045A0004FF0000383F311884FF40853C4F2010362
:1045B0001B6803934FF40853C4F201034FF0000249
:1045C0001A60039B03F02003002B6DD041F254339B
:1045D000C2F20003DB6A1B685B68002B64D041F207
:1045E0005433C2F200031B69002B5DD041F25430FA
:1045F000C2F2000000F014FA41F25433C2F2000398
:104600001B699B68002B21D041F25433C2F2000396
:104610004FF005021A7041F25433C2F200031B69D5
:104620009B6841F25430C2F200004FF001019847FC
:1046300041F25433C2F200031B78052B06D141F23C
:104640005433C2F200034FF002021A7041F25433A5
:10465000C2F200034FF000021A614FF0200383F30F
:104660001188FCF7F5FD41F25433C2F200035B6997
:10467000002B13D041F25433C2F200035B69009364
:1046800041F25433C2F200034FF000025A61009B22
:104690004FF0FF329A620098FDF73AF8FCF7F8FD08
:1046A0004FF0000383F31188FCF742FEFCF770FB28
:1046B00005B000BDAFF30080AFF30080AFF3008022
:1046C00008B541F2EC20C2F20000FDF7D1FF41F243
:1046D000EC23C2F200034FF40052C4F201029A62CA
:1046E00041F2EC23C2F20003264ADA6241F2EC23E3
:1046F000C2F2000342F61642C0F202021A6341F20D
:104700002030C2F20000FDF7B3FF41F22033C2F2C5
:1047100000034FF40452C4F201029A6241F22033C2
:10472000C2F20003184ADA6241F22033C2F20003F7
:1047300042F61642C0F202221A6341F25430C2F22B
:104740000000FDF795FF41F25433C2F200034FF42D
:104750000852C4F201029A6241F25433C2F20003D9
:104760000A4ADA6241F25433C2F2000342F61642B8
:10477000C0F202421A634FF012004FF05001FCF7F2
:10478000A7FB08BD80160108681601085C16010821
:1047900000B585B00190019B1B78012B40F0B980DA
:1047A000019A41F2EC23C2F200039A422CD1019B00
:1047B000DB6A18464FF0050144F29112C0F6000280
:1047C000019BFFF745FA03468DF80F309DF80F3037
:1047D000002B05D041F28010C0F60100FCF768FE06
:1047E000019BDB6A1A6842F24C03C4F20103936036
:1047F0004FF46053C4F202034FF46052C4F2020259
:10480000526C42F480725A64019A41F22033C2F22F
:1048100000039A422CD1019BDB6A18464FF0050138
:1048200044F29112C0F60002019BFFF711FA034611
:104830008DF80E309DF80E30002B05D041F294100B
:10484000C0F60100FCF734FE019BDB6A1A6842F2F5
:104850004C13C4F2010393604FF46053C4F202039B
:104860004FF46052C4F20202526C42F400725A6475
:10487000019A41F25433C2F200039A422CD1019BB7
:10488000DB6A18464FF0050144F29112C0F60002AF
:10489000019BFFF7DDF903468DF80D309DF80D30D3
:1048A000002B05D041F2A810C0F60100FCF700FE75
:1048B000019BDB6A1A6842F24C23C4F20103936045
:1048C0004FF46053C4F202034FF46052C4F2020288
:1048D000526C42F480625A644FF40C53C4F20103E8
:1048E0004FF40C52C4F20102526802F4400242F446
:1048F00080325A60019B9B6A4FF000025A60019B14
:104900009B6A4FF000029A60019B9B6A4FF0010284
:104910009A6005B000BD00BFAFF30080AFF3008028
:1049200084B00190019B1B690293019B1B6B039355
:10493000029B1B78002B03D0039B43F480730393EB
:10494000019BDB68012B03D9039B43F0080303930E
:10495000019BDB6A1B68019A9268DA60019BDB6A43
:104960001B68029A52880199C96801FB02F25A60D9
:10497000019BDB6A1B68039A1A60019BDB6A1B6858
:10498000019AD26A1268126842F001021A60019B11
:104990009B6A4FF000021A60019B9B6A029A52695F
:1049A000DA60019B9B6A029A92691A61019B9B6A79
:1049B000029AD269DA62019B9B6A029A126A1A63AE
:1049C000019B9B6A029A526A5A63019B9A6A029BF4
:1049D000DB6843F0806343F480735360029B1B6980
:1049E00003F08043002B09D0019B9A6A029B1B694C
:1049F00043F4407343F00303936008E0019B9A6A19
:104A0000029B1B6943F4407343F00103936004B0BD
:104A1000704700BFAFF30080AFF30080AFF30080BA
:104A200082B00190019BDB6A1B68019AD26A12680E
:104A3000126822F01F021A60019BDB6A1B681B6868
:104A400003F00103002BF7D1019BDB6A5B68019A3D
:104A5000D26A127A4FF03D0101FA02F21A60019B0C
:104A60009B6A4FF000025A60019B9B6A4FF0000264
:104A70009A60019B9B6A4FF001029A6002B07047F6
:104A80004FF40C53C4F201034FF40C52C4F2010270
:104A9000526842F400025A60704700BFAFF30080D2
:104AA0004FF40C53C4F201034FF40C52C4F2010250
:104AB000526842F480025A60704700BFAFF3008032
:104AC00008B5FCF705FC4FF47053C4F201034FF036
:104AD00001025A6141F28833C2F200035B685B68ED
:104AE00041F28830C2F200004FF000019847FCF715
:104AF0001FFCFCF74DF908BDAFF30080AFF3008059
:104B000008B5FCF7E5FB4FF47053C4F201034FF016
:104B100002025A6141F28833C2F200035B68DB682B
:104B200041F28830C2F200004FF001019847FCF7D3
:104B3000FFFBFCF72DF908BDAFF30080AFF3008059
:104B400008B5FCF7C5FB4FF47053C4F201034FF0F6
:104B500004025A6141F28833C2F200035B685B6968
:104B600041F28830C2F200004FF002019847FCF792
:104B7000DFFBFCF70DF908BDAFF30080AFF3008059
:104B800008B5FCF7A5FB4FF47053C4F201034FF0D6
:104B900008025A6141F28833C2F200035B68DB69A4
:104BA00041F28830C2F200004FF003019847FCF751
:104BB000BFFBFCF7EDF808BDAFF30080AFF300805A
:104BC00008B5FCF785FB4FF47053C4F201034FF0B6
:104BD00010025A6141F28833C2F200035B685B6ADB
:104BE00041F28830C2F200004FF004019847FCF710
:104BF0009FFBFCF7CDF808BDAFF30080AFF300805A
:104C000000B583B0FCF764FB4FF47053C4F20103AA
:104C10005B6903F4787301934FF47053C4F201039A
:104C2000019A5A61019B03F02003002B0CD041F242
:104C30008833C2F200035B68DB6A41F28830C2F25B
:104C400000004FF005019847019B03F04003002B43
:104C50000CD041F28833C2F200035B685B6B41F217
:104C60008830C2F200004FF006019847019B03F024
:104C70008003002B0CD041F28833C2F200035B6842
:104C8000DB6B41F28830C2F200004FF00701984719
:104C9000019B03F48073002B0CD041F28833C2F2E5
:104CA00000035B685B6C41F28830C2F200004FF099
:104CB00008019847019B03F40073002B0CD041F2CC
:104CC0008833C2F200035B68DB6C41F28830C2F2C9
:104CD00000004FF009019847FCF72AFBFCF758F851
:104CE00003B000BDAFF30080AFF30080AFF30080EE
:104CF00000B583B0FCF7ECFA4FF47053C4F2010333
:104D00005B6903F47C4301934FF47053C4F20103D5
:104D1000019A5A61019B03F48063002B0CD041F28D
:104D20008833C2F200035B685B6D41F28830C2F2E7
:104D300000004FF00A019847019B03F40063002B29
:104D40000CD041F28833C2F200035B68DB6D41F2A4
:104D50008830C2F200004FF00B019847019B03F42A
:104D60008053002B0CD041F28833C2F200035B6801
:104D70005B6E41F28830C2F200004FF00C019847A0
:104D8000019B03F40053002B0CD041F28833C2F294
:104D900000035B68DB6E41F28830C2F200004FF026
:104DA0000D019847019B03F48043002B0CD041F286
:104DB0008833C2F200035B685B6F41F28830C2F255
:104DC00000004FF00E019847019B03F40043002BB5
:104DD0000CD041F28833C2F200035B68DB6F41F212
:104DE0008830C2F200004FF00F019847FCF7A0FA9C
:104DF000FBF7CEFF03B000BDAFF30080AFF3008040
:104E000008B5FCF765FA4FF47053C4F201034FF490
:104E100080325A6141F28833C2F200035B68D3F8F2
:104E2000843041F28830C2F200004FF01001984700
:104E3000FCF77EFAFBF7ACFF08BD00BFAFF30080C4
:104E400008B5FCF745FA4FF47053C4F201034FF470
:104E500080225A6141F28833C2F200035B68D3F8C2
:104E6000943041F28830C2F200004FF012019847AE
:104E7000FCF75EFAFBF78CFF08BD00BFAFF30080C4
:104E800008B5FCF725FA4FF47053C4F201034FF450
:104E900000225A6141F28833C2F200035B68D3F802
:104EA0009C3041F28830C2F200004FF01301984765
:104EB000FCF73EFAFBF76CFF08BD00BFAFF30080C4
:104EC00008B5FCF705FA4FF47053C4F201034FF430
:104ED00080125A6141F28833C2F200035B68D3F852
:104EE000A43041F28830C2F200004FF0140198471C
:104EF000FCF71EFAFBF74CFF08BD00BFAFF30080C4
:104F000008B5FCF7E5F94FF47053C4F201034FF410
:104F100080025A6141F28833C2F200035B68D3F821
:104F2000B43041F28830C2F200004FF016019847C9
:104F3000FCF7FEF9FBF72CFF08BD00BFAFF30080C4
:104F400008B54FF006004FF06001FBF7C1FF4FF0CE
:104F500007004FF06001FBF7BBFF4FF008004FF078
:104F60006001FBF7B5FF4FF009004FF06001FBF760
:104F7000AFFF4FF00A004FF06001FBF7A9FF4FF0C1
:104F800017004FF06001FBF7A3FF4FF028004FF030
:104F90006001FBF79DFF4FF001004FF06001FBF750
:104FA00097FF4FF029004FF0F001FBF791FF4FF012
:104FB0002A004FF06001FBF78BFF4FF03E004FF0EF
:104FC0006001FBF785FF4FF04C004FF06001FBF7ED
:104FD0007FFF4FF002004FF0F001FBF779FF4FF039
:104FE00003004FF0F001FBF773FF08BDAFF3008043
:104FF00008B541F28830C2F20000FDF7E9FB08BDB8
:1050000000B585B00190019B1B78012B01D1FFF702
:1050100097FF4FF00003039315E0019B5B68039A31
:1050200053F8323003F00403002B04D001980399A5
:1050300000F00EF803E00198039900F0F1F8039BEB
:1050400003F101030393039B162BE6D905B000BDC2
:1050500086B001900091019B5B68009A53F8323052
:1050600003F00103002B10D04FF47053C4F201037E
:105070004FF47052C4F201029168009A4FF001009F
:1050800000FA02F20A439A6011E04FF47053C4F23E
:1050900001034FF47052C4F201029168009A4FF07C
:1050A000010000FA02F26FEA02020A409A60019BD4
:1050B0005B68009A53F8323003F00203002B10D0E3
:1050C0004FF47053C4F201034FF47052C4F2010262
:1050D000D168009A4FF0010000FA02F20A43DA6048
:1050E00011E04FF47053C4F201034FF47052C4F254
:1050F0000102D168009A4FF0010000FA02F26FEA53
:1051000002020A40DA60019B5A68009B4FEAC3031F
:10511000D3185B68002B22D04FF47053C4F2010304
:105120004FF47052C4F201021168009A4FF001006E
:1051300000FA02F20A431A604FF47053C4F20103FA
:105140004FF47052C4F201025168009A4FF001000E
:1051500000FA02F26FEA02020A405A6021E04FF4BC
:105160007053C4F201034FF47052C4F2010251684B
:10517000009A4FF0010000FA02F20A435A604FF41D
:105180007053C4F201034FF47052C4F2010211686B
:10519000009A4FF0010000FA02F26FEA02020A40A0
:1051A0001A60009B0F2B36D8009B4FEA93030593A0
:1051B000009B03F003034FEA83034FF00F0202FA50
:1051C00003F36FEA03030493019B5B68009A53F8AF
:1051D000323003F0F0034FEA1312009B03F0030395
:1051E0004FEA830302FA03F303934FF46053C4F2CC
:1051F00001034FF46052C4F20102059901F102016A
:1052000052F82110049A1140039A1143059A02F1B1
:10521000020243F8221006B0704700BFAFF30080CF
:1052200082B0019000914FF47053C4F201034FF427
:105230007052C4F201021168009A4FF0010000FAA6
:1052400002F26FEA02020A401A604FF47053C4F28D
:1052500001034FF47052C4F201025168009A4FF0FA
:10526000010000FA02F26FEA02020A405A604FF4AB
:105270007053C4F201034FF47052C4F201029168FA
:10528000009A4FF0010000FA02F26FEA02020A40AF
:105290009A604FF47053C4F201034FF47052C4F299
:1052A0000102D168009A4FF0010000FA02F26FEAA1
:1052B00002020A40DA604FF47053C4F20103009A0C
:1052C0004FF0010101FA02F25A6102B0704700BFCB
:1052D00000B583B00190019BDB684FF000021A8299
:1052E000019B1B78042B06D1019B4FF002021A7020
:1052F000019800F0CDF8019B5B685B6801989847C6
:1053000003B000BDAFF30080AFF30080AFF30080C7
:1053100008B5FBF7DDFF41F29030C2F20000FFF765
:10532000D7FFFCF705F8FBF733FD08BDAFF30080AE
:1053300008B541F29033C2F200034FF40052C4F2B8
:105340000002DA6041F29030C2F20000FDF790FAFC
:1053500008BD00BFAFF30080AFF30080AFF3008063
:1053600000B585B00190019B1B78012B31D1019ACA
:1053700041F29033C2F200039A422AD14FF46053B3
:10538000C4F202034FF46052C4F20202126C42F4FF
:1053900080721A644FF46053C4F202034FF46052F7
:1053A000C4F20202126A42F480721A624FF460532D
:1053B000C4F202034FF000021A624FF02D004FF0CA
:1053C0007001FBF785FD019A4FF43D43C0F2015394
:1053D0009360019B9A68019B5B681B68B2FBF3F3C7
:1053E0009BB203F1FF33ADF80E30BDF80E3003F180
:1053F0000103019A5268126802FB03F2019B9B6849
:105400009A4205D041F2C010C0F60100FCF750F8F6
:10541000019BDB684FF000021A80019BDB684FF0B4
:1054200008029A80019BDB68BDF80E201A85019B5B
:10543000DB684FF000029A8105B000BDAFF3008039
:1054400082B001900B46ADF80230019BDB68BDF8DD
:10545000022002F1FF32DA62019BDB684FF00102A9
:105460009A82019BDB684FF000025A62019BDB6865
:105470004FF000021A82019BDB684FF001029A8113
:10548000019BDB684FF005021A8002B0704700BF35
:1054900082B00190019BDB684FF000021A80019BF3
:1054A000DB684FF000021A82019BDB684FF00002BC
:1054B0009A8102B0704700BFAFF30080AFF3008065
:1054C00000B585B00190019BDB681B8AADF80E30FA
:1054D000019BDB689B899AB2BDF80E301340ADF892
:1054E0000E30019BDB68BDF80E206FEA020292B21B
:1054F0001A82019B5B681B7D002B26D1BDF80E3004
:1055000003F00203002B10D0019B1B788DF80D30A7
:10551000019B4FF004021A709DF80D30032B04D04C
:10552000019B5B68DB6801989847BDF80E3003F07B
:105530000403002B2FD0019B4FF005021A70019B32
:105540005B689B680198984725E0BDF80E3003F032
:105550000203002B08D0019B4FF005021A70019B3B
:105560005B689B6801989847BDF80E3003F0040310
:10557000002B10D0019B1B788DF80C30019B4FF055
:1055800004021A709DF80C30032B04D0019B5B6859
:10559000DB6801989847BDF80E3003F00103002B3B
:1055A00004D0019B5B681B690198984705B000BD5A
:1055B00008B5FBF78DFE41F2A030C2F20000FFF704
:1055C0007FFFFBF7B5FEFBF7E3FB08BDAFF3008001
:1055D00008B5FBF77DFE41F2A030C2F20000FFF7F4
:1055E0006FFFFBF7A5FEFBF7D3FB08BDAFF3008011
:1055F00008B541F2A030C2F20000FDF7B1F941F266
:10560000A033C2F200034FF00002C4F20102DA60DC
:1056100008BD00BFAFF30080AFF30080AFF30080A0
:1056200000B585B00390029101920093039B1B6B20
:1056300003F01003002B03D1029B4FEA4323029394
:10564000019B012B15D903984FF01201029A009B80
:1056500000F05EFB0346002B08D1009B1A684EF257
:105660000803CFF6FF531340002B18D04FF001036F
:1056700017E003984FF01101029A009B00F048FBDD
:105680000346002B08D1009B1A684EF20803CFF6A0
:10569000FF531340002B02D04FF0010301E04FF005
:1056A0000003184605B000BDAFF30080AFF30080E3
:1056B00000B585B00390029101920093039B1B6B90
:1056C00003F01003002B03D1029B4FEA4323029304
:1056D000019B012B15D903984FF01901029A009BE9
:1056E00000F016FB0346002B08D1009B1A684EF20F
:1056F0000803CFF6FF531340002B18D04FF00103DF
:1057000017E003984FF01801029A009B00F000FB8D
:105710000346002B08D1009B1A684EF20803CFF60F
:10572000FF531340002B02D04FF0010301E04FF074
:105730000003184605B000BDAFF30080AFF3008052
:1057400000B585B00390029101924FF0200383F3DE
:105750001188FBF73DFD4FF43053C4F20103DB6BBE
:10576000002B1ED0039BDB6B002B05D041F2E01019
:10577000C0F60100FBF79CFE41F22023C2F20003B9
:105780009A69039BDA634FF00200FCF701F8039B70
:10579000DB6B002B05D041F20820C0F60100FBF7BF
:1057A00087FE4FF43053C4F201035B6B03F4807344
:1057B000002B08D1FBF72CFD4FF0000383F3118879
:1057C0004FF0010338E000BF039B5B6C1B681B6854
:1057D00003F00103002BF7D1039B5B6C5B68039A1A
:1057E000526C127A4FF03D0101FA02F21A604FF446
:1057F0003053C4F2010340F2FF72C0F2C0029A6358
:105800004FF43053C4F201034FF00002DA62FBF7A9
:10581000FFFC4FF0000383F31188029B012B09D991
:1058200003984FF00C014FF00002019B00F070FA5A
:10583000034601E04FF00003184605B000BD00BF6D
:1058400084B0019000914FF000030393009B03F09C
:105850000103002B03D0039B43F001030393009B40
:1058600003F00203002B03D0039B43F002030393D6
:10587000009B03F00403002B03D0039B43F00803B9
:105880000393009B03F00803002B03D0039B43F01A
:1058900004030393009B03F01003002B03D0039B2E
:1058A00043F010030393009B03F02003002B03D06D
:1058B000039B43F020030393009B03F40073002B2E
:1058C00003D0039B43F040030393019B5A6B039B5C
:1058D0001A43019B5A6304B0704700BFAFF30080C6
:1058E00000B587B00390029101924FF43053C4F297
:1058F00001035B6B0593039B5B6C5B68039A526CC3
:10590000127A4FF03D0101FA02F21A60039B5B6CC0
:105910001B68039A526C1268126822F01F021A6008
:10592000039B5B6C1B681B6803F00103002BF7D122
:10593000039B5B6C5B68039A526C127A4FF03D01DB
:1059400001FA02F21A604FF43053C4F2010340F23C
:10595000FF72C0F2C0029A634FF43053C4F20103E5
:105960004FF00002DA634FF43053C4F201034FF0FA
:105970000002DA6203980599FFF762FF029B012B90
:1059800007D903984FF00C014FF00002019B00F083
:10599000BFF907B000BD00BFAFF30080AFF30080D8
:1059A00008B5FBF795FC4FF0200383F31188FBF754
:1059B0004FFC4FF43053C4F201034FF00002DA639E
:1059C00041F2B833C2F20003DB6B002B0ED041F280
:1059D000B833C2F20003DB6B1846FBF799FE41F2C5
:1059E000B833C2F200034FF00002DA63FBF750FC59
:1059F0004FF0000383F31188FBF79AFCFBF7C8F91B
:105A000008BD00BFAFF30080AFF30080AFF30080AC
:105A100008B541F2B830C2F20000FDF7D9F841F202
:105A2000B833C2F200034FF00002DA6341F2B83338
:105A3000C2F20003054A5A6441F2B833C2F20003CD
:105A40004FF43052C4F201029A6408BD7416010882
:105A500000B585B00190019A4FF4A843C0F6030346
:105A60001364019B1B6C43F4200343F02003019A51
:105A70001364019B1B79012B37D1019B5B6C18468A
:105A80004FF009014FF000024FF00003FEF7E0F87D
:105A900003468DF80F309DF80F30002B05D041F2F2
:105AA0003020C0F60100FBF703FD019B5B6C1A6818
:105AB0004FF43253C4F201039360019B5B6C1B688B
:105AC0004FF007025A614FF031004FF09001FBF7A1
:105AD000FFF94FF46053C4F202034FF46052C4F272
